:020000040000fa
:10200000f0ff0320416f00000f890000bf8900002e
:10201000b98a0000bb8a0000bd8a000000000000f1
:10202000000000000000000000000000cf8500005c
:10203000878a000000000000cf850000cf850000e7
:10204000cf850000cf850000cf850000cf85000040
:10205000cf850000cf850000cf850000cf85000030
:10206000cf850000cf850000c18a000059840000a0
:10207000cf850000cf850000cf850000cf85000010
:10208000cf850000cf850000cf850000cf85000000
:10209000cf850000cf850000cf850000cf850000f0
:1020a000cf850000cf850000cf850000cf850000e0
:1020b000cf850000cf850000cf850000cf850000d0
:1020c000cf850000cf850000cf850000cf850000c0
:1020d000cf850000cf850000cf850000cf850000b0
:1020e000cf850000498200000000000000000000d1
:1020f00000000000cf8500002d5c00002d5c00007a
:102100002d5c00002d5c00005d7d00005d7d000009
:102110005d7d00005d7d0000cf850000cf85000063
:10212000cf850000cf850000057d0000057d000003
:10213000057d0000057d0000cf850000cf850000f3
:10214000cf850000cf850000b57d0000b57d000083
:10215000b57d0000b57d000000000000000000001b
:10216000000000000000000000000000000000006f
:102170000000000000000000cf850000cf850000b7
:10218000cf850000cf850000cf850000cf850000ff
:1021900000000000cf850000cf850000cf85000043
:1021a000cf850000cf850000cf850000cf850000df
:1021b000cf850000cf850000cf850000cf850000cf
:1021c000cf850000cf850000cf850000cf850000bf
:1021d000cf850000cf850000cf850000cf850000af
:1021e000cf850000cf850000cf850000cf8500009f
:1021f000cf850000cf850000cf850000cf8500008f
:10220000cf8500000000000000000000cf85000026
:10221000cf850000cf850000cf850000cf8500006e
:10222000cf850000cf850000cf850000cf8500005e
:10223000cf850000cf850000cf850000cf8500004e
:10224000cf850000cf850000cf850000cf8500003e
:10225000cf850000cf850000cf850000cf8500002e
:020000040000fa
:10226000f8b500bff8bc08bc9e4670472d81000041
:10227000f8b500bff8bc08bc9e4670470981000055
:020000040000fa
:102280002de9f04fb1b03222002123a806f07cfbeb
:10229000ac4b1d7815b931b0bde8f08f2a46aa497c
:1022a00023a806f065fa0023a64a1370a74a12680d
:1022b0001d92a74a52691292a64a12780f92a64915
:1022c000ca791092a54a12780d92a54a52691992bc
:1022d000a44a12681392a44a927e2192a34a1278c9
:1022e0001b92a34a52691692a24a526915928a79a0
:1022f0000b924a7909920a79079291f801a09e4ab5
:102300001278c8780590887804900e789b4991f8e7
:1023100000b09b4991f8008023ac013d0df18d0187
:1023200051fa85f520931f931e9311931c931a93d2
:102330001793189314930c930a9308930e93069390
:102340000393029399461f46019326e2a1f14103ac
:102350000f2b11d8dfe813f04402100044024402ae
:1023600044021000100010001000100010001000b7
:102370001000100010004402012300220ae2442e43
:102380000bd0452e0fd0432e13d0412e17d16429e8
:1023900000f03b8201230022fce1642900f0268248
:1023a00001230022f6e1642900f0258201230022a6
:1023b000f0e1642900f0248201230022eae1502e9a
:1023c00004d18a46012302930322e3e10123002280
:1023d000e0e1442e0cd0452e11d0432e16d0412ed4
:1023e0001bd1baf1640f00f0248201230022d1e155
:1023f000baf1640f00f00e8201230022cae1baf1a3
:10240000640f00f00c8201230022c3e1baf1640fd3
:1024100000f00a8201230022bce1502e04d1049175
:10242000012303930422b5e101230022b2e1442eeb
:102430000ad0452e0fd0432e14d0412e19d0502e45
:102440001ed001230022a5e1baf1640f00f0f6814d
:10245000012300229ee1baf1640f00f0f481012310
:10246000002297e1baf1640f00f0f281012300220b
:1024700090e1baf1640f00f0f0810123002289e1bc
:102480003a2900f0ef813d2900f0f3810123002279
:1024900080e1442e0cd0452e11d0432e16d0412e73
:1024a0001bd1baf1640f00f0f8810123002271e121
:1024b000baf1640f00f0e281012300226ae1baf16f
:1024c000640f00f0e0810123002263e1baf1640fa0
:1024d00000f0de81012300225ce1502e04d107913f
:1024e00001230893062255e10123002252e1442ee4
:1024f0000cd0452e11d0432e16d0412e1bd1baf14f
:10250000640f00f0de810123002243e1baf1640f81
:1025100000f0c881012300223ce1baf1640f00f011
:10252000c6810123002235e1baf1640f00f0c481b5
:10253000012300222ee1502e24d1099101230a9378
:10254000072227e1c8800020f47d0020f4800020cd
:10255000b47e0020cf800020487c0020c480002072
:10256000547f0020fc800020f4510020eb800020ec
:10257000d47e0020747f0020c3800020e0800020f3
:10258000df8000200123002204e1442e0cd0452ee0
:1025900011d0432e16d0412e1bd1baf1640f00f09a
:1025a000a48101230022f5e0baf1640f00f08e81ce
:1025b00001230022eee0baf1640f00f08c810123c8
:1025c0000022e7e0baf1640f00f08a8101230022c3
:1025d000e0e0502e04d10b9101230c930822d9e0a6
:1025e00001230022d6e0442e0cd0412e32d0452ebd
:1025f0005cd0432e7ed1baf1640f00f07b810123c1
:102600000022c7e0baf1640f02d001230022c1e02a
:102610004b2902d001230022bce0059b202b0cd0cb
:102620000b9a0799059806f043f915900123189322
:1026300014931e2213920022ace0079b303bdbb2c6
:1026400003eb83030b9a303a02eb430303f0ff03df
:102650001593ebe7baf1640f02d00123002299e051
:102660004b2902d00123002294e0079b2e2b05d09a
:10267000099b2e2b11d0012300228be0059b303bc0
:10268000dbb203eb8303099a303a02eb430303f016
:10269000ff03169301231793ede70b9a079905980b
:1026a00006f006f9169001231793e4e7baf1640fd8
:1026b00002d0012300226de0442902d00123002230
:1026c00068e00b9a0999079806f0f2f81990219b97
:1026d000052b06d001231a9314931e221392002275
:1026e00058e0049b502b14bf002301231b930123ac
:1026f0001c93efe7502e06d11091012311930e93f6
:102700000d93002246e00123002243e0baf1640f5a
:1027100002d0012300223de0462902d001230022fd
:1027200038e0059b202b12d0049b202b20d00f9b40
:1027300003f0df0343f040030f93002312930123c0
:1027400020931f931e931e221d92002222e0079bbe
:10275000303bdbb203eb83030b9a303a02eb4303cb
:1027600003f0ff0312930f9b03f09f030f93e6e721
:102770000b9a0799059806f09bf812900f9b03f0af
:102780009f030f93dbe701274ff000080197c34633
:102790003b463a46ac4200f0b28014f8011b2429b3
:1027a000f1d0012a3ff4d2ad022a3ff4e8ad032a6a
:1027b0003ff40fae042a3ff43aae052a3ff469ae67
:1027c000062a3ff494ae072a3ff4dfae082a3ff40e
:1027d0000aaf092aded1432e98d001230022d9e77f
:1027e0000e464ff001094b460222d3e78a460123e9
:1027f00002930322cee78a46012302930322c9e70c
:102800008a46012302930322c4e78a4601230293e6
:102810000322bfe70491012303930422bae7049142
:10282000012303930422b5e70491012303930422b7
:10283000b0e70491012303930422abe70591012340
:1028400006930522a6e70591012306930522a1e739
:1028500005910123069305229ce705910123069328
:10286000052297e7059101230e930d93069300220d
:1028700090e705910123069305228be70791012339
:102880000893062286e7079101230893062281e731
:1028900007910123089306227ce7079101230893ff
:1028a000062277e7099101230a93072272e709912b
:1028b00001230a9307226de7099101230a93072256
:1028c00068e7099101230a93072263e70b9101232b
:1028d0000c9308225ee70b9101230c93082259e721
:1028e0000b9101230c93082254e70b9101230c93c5
:1028f00008224fe710910123119309224ae70bb1f7
:10290000394b1a70019b13b1384b83f800b017b1e3
:10291000374b83f80080b9f1000f01d0354b1e70a2
:10292000029b13b1334b83f801a0039b002b3ad1d8
:10293000069b002b3bd10e9b002b3cd1089b002b10
:102940003dd10a9b002b3ed10c9b002b3fd1149b09
:10295000002b40d1189b002b41d1179b13b1264b64
:10296000169a5a611a9b13b1244b199a5a611c9bef
:1029700013b1234b1b9a1a70119b13b11d4b109a64
:10298000da711e9b13b11f4b1d9a1a601f9b13b166
:102990001d4b0f9a1a70209b002b3ff47cac1b4bf5
:1029a000129a5a6177e4134b049a9a70c0e7114b5c
:1029b000059ada70bfe7164b0d9a1a70bee70d4bf9
:1029c000079a1a71bde70b4b099a5a71bce7094b7c
:1029d0000b9a9a71bbe70f4b139a1a60bae70e4b2a
:1029e000159a5a61b9e700bfc3800020e08000203b
:1029f000df800020487c0020d47e0020547f00200f
:102a0000eb800020f4800020cf800020b47e0020e6
:0c2a1000c4800020fc800020747f0020a7
:020000040000fa
:042a1c0001030c00a6
:020000040000fa
:102a20002de9f04f2ded0e8b9bb0012005f0bfff7f
:102a300020b91bb0bdec0e8bbde8f08f012006f075
:102a400027f8002005f014fe82460028f1d000246b
:102a50004ff000084ff000099feda18b9feda29b66
:102a60009feda3cb9feda4bb9feda5ab9feda6db98
:102a70009feda7ebc5e15079ff2868d005f086fef1
:102a800053ec182b03f018fa80468946a24b1879ac
:102a900005f07cfe42464b4602f0c2fa53ec192b7d
:102aa00003f00afa8046894605f06efd9b4b58609c
:102ab0009b4b01229a729b4b1e221a809a4b9e427c
:102ac00040f0fc81dff8508298f8020005f05efecd
:102ad00053ec182b03f0f0f906460f4698f8010066
:102ae00005f054fe32463b4602f09afa53ec192b9d
:102af00003f0e2f905f048fd8c4b586098f80400ab
:102b000005f044fe53ec182b03f0d6f906460f46a9
:102b100098f8030005f03afe32463b4602f080fa90
:102b200053ec1c2b03f0c8f98046894605f02cfdb8
:102b30007f4b5860b42831d97e4b01221a70c0f502
:102b4000b4707b4b58607c4b1e221a60b6e1734b0d
:102b500000225a60b2e7794b9e42afd16e4eb078f8
:102b600005f014fe53ec182b03f0a6f942464b4631
:102b700002f056fa80468946707805f007fe424614
:102b80004b4602f04dfa53ec1b2b03f095f98046af
:102b9000894605f0f9fc6a4b58608fe1654b0022cd
:102ba0001a70d0e75c4b1b78032b0fd0042b13d08b
:102bb000022b40f08681634b1988022005f0c0fc8f
:102bc000614b1988052005f0bbfc7ae15f4b198841
:102bd000082005f0b5fc74e15d4b1b78c3f58073ec
:102be0005c4aa2f8b43071e14b4b1b78ca2b22d05f
:102bf000594b1b78962b4bd0542b40f07481bbf172
:102c0000ef0f46d0444bd978544a11701978544a82
:102c100011709979534a11705979534a1170197981
:102c2000524a1170d9793e4a537c23f0700343ea2b
:102c300041135374e0e0384b5b78ca2bd8d1364b44
:102c40009b78c12b07d0c22b0ad0cd2bd0d1484bbb
:102c500004221a70cce705f013fa05f055f935e1b6
:102c600005f0e2fb05f050f930e105f0e1fc32e15e
:102c7000992bbfd13e4b01221a70374b1b78802b0a
:102c800040f0c081334bb3f8aa203a4b1a70b3e03e
:102c9000fee7214b1b78012b74d0022bb2d11e4bc7
:102ca0005b78aa2baed11c4bdb78012b00f04f8157
:102cb0005ab2002a00f03c81022b00f05d812e4bbd
:102cc00002221a70bb225a70134a91789970d278f6
:102cd000da702a4b2a4a1a6004f02efc77e000bf13
:102ce0000000000000e06f406c216d8896e1c83f55
:102cf000427bf5f1d077773ff865bbdee577773f2c
:102d00007b14ae47e17a843ffca9f1d24d62503f7b
:102d100000000000000024409c510020d47e0020d0
:102d2000f45100200481002002fd0100747f002086
:102d3000547f0020eb800020fc80002012f1010075
:102d4000e87f0020ac7c00205080002058800020cc
:102d500007810020a0500020b4800020d9800020ee
:102d6000d0800020de800020dd800020dc8000207c
:102d7000c2800020c7800020cc4900206480002051
:102d8000f054ef008c4b5b78aa2b7ff43baf8b4b5e
:102d900000221a715a719a71da71874bda78012a16
:102da00000f0ae8053b2002b00f0a380022a00f0a6
:102db000b180824b01211970bb2159707e498978fd
:102dc0009970da707e4b7f4a1a6004f0b5fb7e4b37
:102dd0001b78562b40f0eb807c4b1879764b59785a
:102de0001a7802eb01227a4941f820209978794a31
:102df0001170da78784b1a700134e3b29a457ff695
:102e000018ae0020069007900890099006aa0121ac
:102e100004f0defa0028efd0674a08ab03cb10605d
:102e20005160069bc3f311266c4b1e606c4b1e70e9
:102e30009df81850644b1d709df81ab0694b9e4266
:102e40003ff419ae684b9e427ff485ae5a4b187919
:102e5000da7802eb00209a7802eb0022587800eb37
:102e600002206ff07f43984220d005f08ffc53ec96
:102e70001a2b03f021f806460f464f4b98795b79e1
:102e800003eb002005f092fb53ec1d2b03f014f82c
:102e900032463b4602f0c4f853ec1e2b03f00cf80c
:102ea0008046894605f070fb504b5860504a1378b5
:102eb00023f0200313704f4b1e221a60912d3ff414
:102ec00071ae414b1b78902b3ff48eae3e4b1b787e
:102ed000932b3ff4caae3c4b1b78972b7ff4c8aec4
:102ee000454b01221a70384b1b78562b3ff474afb8
:102ef000c5e6314b9b783549c95c304b197158e7b1
:102f00002d4b99783d4b33f811302c490b711b0a2e
:102f10004b714ee7284b9978394b53f821302749ac
:102f20000b71180a4871180c88711b0ecb7140e7a1
:102f3000214d2979a87805f06bfb204baa7823490d
:102f40008a5c1a7100225a719a71da71b7e61a4dc9
:102f50006b79297901eb032189b2a87805f0defab3
:102f6000aa78264b33f81220144b1a71120a5a71a0
:102f700000229a71da71a2e60f4dea79ab7903eb80
:102f800002226b7903eb0223297901eb0321a87854
:102f900005f0e8faaa781a4b53f82230074a137161
:102fa000190a5171190c91711b0ed37187e6542bbc
:102fb0003ff428ae63e600bf9c510020cc490020be
:102fc00064800020f054ef00b4800020f451002011
:102fd000e87f0020277e00202e8000206c800020cb
:102fe000b580002002f801000bf50100b47e00203e
:102ff000cf800020f4800020e6800020a050002038
:103000007428002003f17f02d2b2032a3ff6f4ae07
:10301000554a1278d22a3ff4efae03f00f05013d76
:10302000edb2524b1d70524b524e327803f81520c0
:1030300003eb4503504ab2f8aa205a70f378b078ef
:1030400000eb03204d4b186005f0a0fb02460b4639
:10305000717811f0010f05d0009203f10043019344
:10306000dde90023464e6f00791906ebc1014248a5
:10307000008b91ed001b43ec102b04f0bbff3d4493
:1030800006ebc50686ed000b3a4d6b79287900eb0f
:1030900003203a4b186005f079fb02460b4669782d
:1030a00011f0020f05d0029203f100430393dde912
:1030b00002232e490f78324d7e00f11905ebc10134
:1030c0002d48008b91ed021b43ec102b04f092ff76
:1030d0003e4405ebc60585ed020b264deb79a8793c
:1030e00000eb0320254b186005f050fb8046894615
:1030f0006b7813f0040f05d0049001f100430593a1
:10310000dde90489194f97f800b01d4d4fea4b06d1
:1031100006eb0b0305ebc303174a108b93ed041b5f
:1031200049ec108b04f066ff5e4405ebc60585eda7
:10313000040b3b78012b10d05ab242b1022b7ff422
:103140005bae104a137823f00403137054e60d4a63
:10315000137823f0010313704ee60a4a137823f024
:103160000203137048e600bfb5800020d180002024
:10317000448000209c510020a05000207c80002032
:08318000b07c0020bd8000209e
:020000040000fa
:103188002de9f04713283bd8dfe810f014006c0055
:103198009300ba00e100fa00210148016f0196018d
:1031a800d801ff0126024d0274029b02c202e90205
:1031b80010033703da4b186805f0e4fa06460f46a1
:1031c800dff874a3baf8040005f0dcfa02460b46ef
:1031d8003046394605f068fc06460f46d14b18685c
:1031e80005f0d0fa80468946baf8100005f0cafa08
:1031f80002460b464046494605f056fc804689463d
:10320800002200233046394605f0a8f858b932465e
:103218003b464046494602f01ef841ec100b02f0ce
:1032280023fa55ec104bb8a3d3e9002320462946ce
:1032380002f03efe04460d460022bb4b01f0ecfeb8
:1032480005f09ef9b94b1870b94bb3f8b40005f006
:10325800a9f922462b4601f0dffe05f091f9c0b22c
:10326800bde8f087ae4b186805f08cfa06460f46a5
:10327800dff8c482b8f8040005f084fa02460b4669
:103288003046394605f010fc06460f46b8f81000df
:1032980005f078fa80468946a24b186805f072fa5c
:1032a80002460b464046494605f0fefb80468946e5
:1032b800a6e79b4b186805f065fa06460f46dff847
:1032c80078a2baf8040005f05dfa02460b463046cb
:1032d800394605f0e9fb06460f46964b186805f097
:1032e80051fa80468946baf80a0005f04bfa0246b8
:1032f8000b464046494605f0d7fb804689467fe79e
:10330800874b186805f03efa06460f46dff8288214
:10331800b8f8040005f036fa02460b46304639463e
:1033280005f0c2fb06460f46b8f80a0005f02afa6f
:10333800804689467f4b186805f024fa02460b46fa
:103348004046494605f0b0fb8046894658e7754b2c
:10335800186805f017fa02460b466da1d1e900017d
:1033680005f0a2fb06460f46724b186805f00afaec
:1033780069a3d3e9002305f097fb804689463fe718
:10338800dff8b481b8f8100005f0fcf906460f46de
:10339800644b186805f0f6f902460b463046394684
:1033a80005f082fb06460f46b8f80a0005f0eaf970
:1033b800804689465f4b186805f0e4f902460b46db
:1033c8004046494605f070fb8046894618e7dff815
:1033d80068a1baf8100005f0d5f906460f46514b1a
:1033e800186805f0cff902460b463046394605f015
:1033f8005bfb06460f464a4b186805f0c3f9804642
:103408008946baf8040005f0bdf902460b46404665
:10341800494605f049fb80468946f1e6dff8188100
:10342800b8f8100005f0aef906460f463d4b18688f
:1034380005f0a8f902460b463046394605f034fb3c
:1034480006460f46b8f8040005f09cf98046894600
:10345800334b186805f096f902460b464046494634
:1034680005f022fb80468946cae62e4b186805f00f
:1034780089f906460f46dff8c0a0baf8100005f033
:1034880081f902460b463046394605f00dfb0646e3
:103498000f46284b186805f075f980468946baf832
:1034a8000a0005f06ff902460b464046494605f00a
:1034b800fbfa80468946a3e61a4b186805f062f9bc
:1034c80006460f46dff87080b8f8100005f05af984
:1034d80002460b463046394605f0e6fa06460f46e0
:1034e800b8f80a0005f04ef980468946114b18686d
:1034f80005f048f902460b464046494605f0d4fa1d
:10350800804689467ce600bf12143fc6dca54c40c5
:103518000000000040cdd440000000008030d440be
:10352800ac7c00205880002000006040078100200b
:10353800a050002050800020a4510020c24b1868e1
:1035480005f020f906460f46dff808a3baf8100080
:1035580005f018f902460b463046394605f0a4fa3c
:1035680006460f46b94b186805f00cf9804689469f
:10357800baf8040005f006f902460b4640464946eb
:1035880005f092fa804689463ae6af4b186805f08e
:10359800f9f806460f46dff8bc82b8f8100005f0c7
:1035a800f1f802460b463046394605f07dfa0646e4
:1035b8000f46b8f8040005f0e5f880468946a34ba5
:1035c800186805f0dff802460b464046494605f004
:1035d8006bfa8046894613e69d4b186805f0d2f8c9
:1035e80006460f46dff86ca2baf80a0005f0caf8da
:1035f80002460b463046394605f056fa06460f464f
:10360800914b186805f0bef880468946baf8100054
:1036180005f0b8f802460b464046494605f044fa1c
:1036280080468946ece58a4b186805f0abf80646f3
:103638000f46dff82082b8f80a0005f0a3f8024622
:103648000b463046394605f02ffa06460f46b8f8bd
:10365800100005f097f8804689467b4b186805f0fe
:1036680091f802460b464046494605f01dfa804649
:103678008946c5e5764b186805f084f806460f4676
:10368800dff8d0a1baf80a0005f07cf802460b462c
:103698003046394605f008fa06460f466b4b18685f
:1036a80005f070f880468946baf8040005f06af813
:1036b80002460b464046494605f0f6f980468946db
:1036c8009ee5634b186805f05df806460f46dff87f
:1036d8008481b8f80a0005f055f802460b463046d2
:1036e800394605f0e1f906460f46b8f8040005f03a
:1036f80049f880468946554b186805f043f8024654
:103708000b464046494605f0cff98046894677e59d
:10371800dff840a1baf80a0005f034f806460f466b
:103728004b4b186805f02ef802460b4630463946d2
:1037380005f0baf906460f46434b186805f022f81b
:1037480080468946baf8100005f01cf802460b4678
:103758004046494605f0a8f98046894650e5dff815
:10376800f480b8f80a0005f00df806460f46384b05
:10377800186805f007f802460b463046394605f04a
:1037880093f906460f46b8f8100004f0fbff804690
:1037980089462d4b186804f0f5ff02460b46404653
:1037a800494605f081f98046894629e5dff8a4a055
:1037b800baf80a0004f0e6ff06460f46244b1868dc
:1037c80004f0e0ff02460b463046394605f06cf936
:1037d80006460f461d4b186804f0d4ff80468946fc
:1037e800baf8040004f0ceff02460b4640464946ac
:1037f80005f05af98046894602e5dff85880b8f89e
:103808000a0004f0bfff06460f46114b186804f083
:10381800b9ff02460b463046394605f045f90646db
:103828000f46b8f8040004f0adff80468946074b00
:10383800186804f0a7ff02460b464046494605f0c3
:1038480033f980468946dbe458800020ac7c0020b0
:0838580050800020a451002063
:020000040000fa
:10386000947f00205400000000000000467c0020ef
:1038700002000000000000003c8000200800000062
:1038800000000000188000200c0000000000000074
:10389000637d00200100000000000000887e002001
:1038a0002c00000000000000287e002030000000f6
:1038b00000000000e8740020000400000000000088
:1038c000b47d00204000000000000000587e002071
:1038d0003000000000000000267e002001000000f3
:1038e00000000000ac7c002004000000000000008c
:1038f0004c8000201400000000000000277e002003
:1039000001000000000000002e80002002000000e6
:10391000000000003a8000200100000000000000cc
:103920006080002004000000000000003b800020b8
:103930000100000000000000e5740020030000000a
:1039400000000000b1800020020000000000000024
:10395000e87a00205e01000000000000b380002033
:10396000010000000000000064800020040000004e
:1039700000000000b48000200200000000000000f1
:10398000e87f00201000000000000000b47e00204e
:103990002000000000000000b680002001000000b0
:1039a00000000000b78000200300000000000000bd
:1039b000d47e00202000000000000000f87f0020de
:1039c0001000000000000000ba800020010000008c
:1039d00000000000bb80002002000000000000008a
:1039e000bd8000200200000000000000bf80002019
:1039f0000200000000000000107d002053000000c5
:103a000000000000c1800020010000000000000054
:103a1000688000200400000000000000c280002038
:103a200001000000000000006c8000200400000085
:103a300000000000c3800020010000000000000022
:103a4000c48000200100000000000000c5800020ac
:103a50000200000000000000b07c002060000000b8
:103a6000000000004480002008000000000000006a
:103a7000c78000200100000000000000487c0020fa
:103a80006400000000000000c88000200200000068
:103a900000000000f47d0020320000000000000063
:103aa000ca8000200200000000000000cc8000203e
:103ab0000100000000000000f47e00202000000053
:103ac00000000000cd800020010000000000000088
:103ad000088000201000000000000000ce800020c0
:103ae0000100000000000000147f002040000000e2
:103af00000000000708000200800000000000000ae
:103b0000cf8000200100000000000000547f002052
:103b10002000000000000000747f00202000000052
:103b200000000000d0800020010000000000000024
:103b3000d18000200100000000000000d2800020a1
:103b40000600000000000000788000200400000053
:103b5000000000007c800020040000000000000045
:103b6000d8800020010000000000000080800020bc
:103b70000400000000000000d980002001000000c7
:103b800000000000da8000200100000000000000ba
:103b9000db8000200200000000000000dd8000202b
:103ba0000100000000000000de8000200100000095
:103bb00000000000df800020030000000000000083
:103bc000e28000200300000000000000e5800020eb
:103bd0000100000000000000248000200a00000016
:103be00000000000b0800020010000000000000084
:103bf000308000200a00000000000000e680002065
:103c0000010000000000000084800020040000008b
:103c10000000000088800020080000000000000074
:103c2000e7800020010000000000000090800020dc
:103c30000400000000000000e880002002000000f6
:103c400000000000ea8000200100000000000000e9
:103c5000948000200400000000000000eb800020a1
:103c60000100000000000000988000200400000017
:103c700000000000ec8000200100000000000000b7
:103c8000f38000200500000001000000011e00007c
:103c9000000000000681002001000000010000007b
:103ca0000500000004810020020000000100000067
:103cb0001e000000f8800020040000000100000049
:103cc000a08c00000781002001000000010000001e
:103cd00080000000fc8000200400000001000000c3
:103ce0001e000000100000207052000000000000c4
:103cf0000881002001000000010000000100000018
:103d0000805200205802000000000000ed800020da
:103d100004000000000000009c800020080000005b
:103d200000000000f1800020010000000000000001
:103d3000e87800200002000000000000d8540020b5
:103d40000d20000000000000a480002004000000fe
:103d500000000000f28000200100000000000000d0
:103d60000981002001000000010000005100000056
:103d70000081002004000000010000000900000094
:103d8000a88000200400000000000000647d0020e6
:103d90005000000000000000ac8000200400000083
:103da000000000000000000000000000666666667b
:020000040000fa
:103db000f8b5ad4b1b78112b1cd8dfe813f01200bf
:103dc0001c003e00480052005c0066009201d500d5
:103dd000ec001301290196013f01ac0177018b0131
:103de000c2012c22a1494ff4817003f0dffb9e4bee
:103df00001221a70f8bd9d4b1b781b2b09d09c4be0
:103e00001b788bb1013b9a4a1370974b00221a70b2
:103e1000f0e70020974b1870fc22974903f000fc54
:103e2000914b02221a70e5e7924a137843f001039e
:103e300013708d4b06221a70dce72e228f4940f258
:103e40006f1003f0edfb884b03221a70d2e71622a5
:103e50008b4940f24b1003f0e3fb834b04221a70b2
:103e6000c8e7102287494ff4b07003f0d9fb7e4bae
:103e700005221a70bee7202283494ff4977003f0a1
:103e800009fc794b06221a70b4e704f02bfc0646b5
:103e90007e4b187004f034fc05467d4b187004f01e
:103ea00013fc7c4b187004f055fc07467a4b1870d5
:103eb00004f034fc0446794b187004f03dfc784b58
:103ec0001870714bdb699f4204d06a4a137843f043
:103ed00008031370684b93f8fa309e4204d0654a89
:103ee000137843f004031370644b93f82c309d4215
:103ef00004d0604a137843f040031370604b9b8af0
:103f0000a34204d05b4a137843f0100313705d4b57
:103f1000db89834219d0574b1c7844f020041c7075
:103f2000524b93f82b5004f0cffb854203d0514bfa
:103f30001c7844f0020464f07f044e4b1c7000f0c7
:103f400043f9494b08221a7054e7484b93f82b4029
:103f500004f0bafb8442ead1464b1c78002cead12b
:103f6000414b10221a7045e704f04ef904f0acfb07
:103f70003e4981f82b002c224ff4817003f0ecffb6
:103f80003c4b1b781bb1384b09221a7032e7364b79
:103f900011221a702ee703f037fd00283ff42aaff4
:103fa00004f032f904f09efb384b187004f09afbd1
:103fb0003149a1f8fa00fc22002003f057fd394beb
:103fc00018702c4b1b7813b9374b1b6833b1364b29
:103fd00000221a60244b0a221a700be7224b11228e
:103fe0001a7007e703f010fd00283ff403af04f058
:103ff0000bf904f085fb214988852e2240f26f10d1
:1040000003f034fd274b1870174b0b221a70f1e6a2
:1040100003f0fafc00283ff4edae04f0f5f804f0ec
:104020007dfb17498882162240f24b1003f01efddb
:104030001c4b18700c4b0d221a70dbe603f0e4fced
:1040400000283ff4d7ae04f0dff804f075fb0d490b
:10405000c88110224ff4b07003f008fd114b1870a6
:10406000014b0f221a70c5e6b6800020f4510020e3
:1040700006810020b7800020a0500020a45100201d
:1040800094280020ac28002074280020d58000202f
:10409000d6800020d4800020d7800020d28000204d
:1040a000d3800020b98000208480002003f0acfc85
:1040b00000283ff49fae04f0a7f804f04bfb394909
:1040c000c86120224ff4977003f002f8364b10229b
:1040d0001a708fe6354b00221a70334b11221a707a
:1040e00088e6314b04221a7084e603f08dfc002828
:1040f0003ff480ae04f088f804f010fb2c4988826d
:10410000162240f24b1003f0b1fc2a4b1870264bdc
:1041100011221a706ee603f077fc00283ff46aaeb5
:1041200004f072f804f008fb2349c88110224ff410
:10413000b07003f09bfc1f4b18701b4b11221a70c0
:1041400058e61e4bfa22a3f86020cd22a3f8642083
:1041500000211b4a82f821105a22a3f88620a3f8d6
:1041600088201e22a3f88c20a3f8b820a3f8b6203c
:1041700019814ff496725a843222a3f8e020642207
:104180001a841422a3f8e6204ff4fa72a3f8e2206e
:104190000c4b1b78002b7ff42dae0a4b01221a70ba
:1041a00028e600bf74280020b6800020e8800020a8
:1041b00094280020b9800020ac280020a0500020c6
:0841c000f4510020c280002030
:020000040000fa
:1041c8002de9f04fe04b1b78013bdbb21a2b0ad9e3
:1041d800de4b00221a605a6043f239019960da60b6
:1041e8001a615a619a61d84b1b221a7000225a70c0
:1041f8009a70da701a71042159719a71da711a7207
:104208005a7201249c72da721a73072159730525b0
:104218009d73da73672018744ff0370058749a74d6
:10422800da741a755a759a75da751c765c769c7606
:10423800dc761977782159770a269e771420d87763
:1042480083f8202083f82120642183f822106ff05e
:104258004b0783f82370282783f8247083f82500f8
:1042680083f8262083f8272083f8284083f82940fc
:104278000f2483f82a40b64b02271f804ff4167c80
:10428800a3f802c09a804ff00304dc804ff00809bd
:10429800a3f808905f814ff47a749c814ff461749d
:1042a800dc811a8258829e823226de82a3f8189018
:1042b8004ff01e0ea3f81ae09a8340f2a114dc8393
:1042c8004ff09608a3f820804ff496745c844ff062
:1042d8008708a3f82480dc844ff0c408a3f828805a
:1042e8005a859a854ff02c08a3f82e801e864ff029
:1042f8005e08a3f832804ff0a808a3f834804ff086
:104308004708a3f836801a875a879a87da87a3f866
:104318004020a3f84220a3f84420a3f84620a3f89d
:104328004820a3f84a20a3f84c20a3f84e20a3f86d
:104338005020a3f85220a3f85420a3f85610a3f84d
:104348005800a3f85a10a3f85c704ff4bd78a3f88e
:104358005e804ff43478a3f86080a3f8626040f27e
:104368005328a3f86480a3f866004ff01508a3f853
:1043780068804ff4cb78a3f86a80a3f86c20a3f880
:104388006e20a3f87020a3f87220a3f87420a3f875
:104398007620a3f87820a3f87a20a3f87c20a3f845
:1043a8007e20a3f88020a3f88220a3f88420a3f815
:1043b80086e0a3f888404ff0c80ea3f88ae04ff4cf
:1043c800af78a3f88c80a3f88e70a3f89050a3f868
:1043d8009220a3f8942041f2de27a3f8967043f2c6
:1043e800bc4aa3f898a041f29417a3f89a7041f632
:1043f8001468a3f89c804ff4fa77a3f89e70a3f88a
:10440800a02041f2a86ba3f8a2b040f2523ba3f857
:10441800a4b0a3f8a620a3f8a820a3f8aa10a3f88c
:10442800ac204ff0b40ba3f8aeb0a3f8b020a3f8bb
:10443800b2204ff07b0ba3f8b4b0a3f8b640a3f8b2
:10444800b8104ff0500ba3f8bab0a3f8bc704ff0f7
:10445800030ba3f8beb041f2fc2ba3f8c0b0a3f83d
:10446800c220a3f8c4a041f2941aa3f8c6a0a3f8e6
:10447800c880a3f8ca7041f25048a3f8cc80a3f8ca
:10448800ce20a3f8d070a3f8d220a3f8d400a3f8c4
:10449800d6e04ff49660a3f8d800a3f8da202420d9
:1044a800a3f8dc00a3f8de10a3f8e0c040f2dc506b
:1044b800a3f8e200a3f8e450a3f8e6604ff09608ea
:1044c800a3f8e880a3f8eac040f6b830a3f8ec00f7
:1044d800a3f8ee10a3f8f010a3f8f240a3f8f450f4
:1044e8004ff4fa61a3f8f6101121a3f8f810194b4c
:1044f8001a805a8045f2ea019980da801a8145f2d9
:10450800730159819a81da8145f2e231198240f2c8
:10451800a15159828b2199824921d982a3f81890f7
:104528005a839a83da831a845a844ff0370199841c
:10453800da841a855a85084b1a605a609a60da60dc
:104548001a619a820ae000bff45100207428002002
:10455800a0500020a451002094280020044b1a6089
:104568005a609a60da601a619a82bde8f08f00bfdb
:04457800ac2800204b
:020000040000fa
:10457c0080b510279c4b1f70002003f059fd03f0f1
:10458c009bfd9a4c4ff48053a3610823a361002137
:10459c00974804f061fa0021964804f057fa9648bf
:1045ac0002f0e8fb954802f093fb0021944804f0dc
:1045bc003bfa4ff00066a6614ff40065c4f89850c2
:1045cc004ff48063a36004f00df84ff08043c4f8ff
:1045dc00983004f013f91c2004f09ef9894b012249
:1045ec001a7004f0f3f804f0d9f86661c4f894502a
:1045fc004ff40053a3612023c4f898304ff40043c8
:10460c00c4f884304ff40013a361c4f898704ff0d1
:10461c000043c4f898300a217b4803f0cffd0a21ef
:10462c007a4803f0abfda661c4f89850784c794dec
:10463c00794f744e5de001f025ff04f0d3f800bf14
:10464c0003f054ff0028fbd07878fef797fddff8d5
:10465c0018820122d8f8001004f004fac0b2c8f88d
:10466c00000002f01ffc02f06ffe03f005ff0028b3
:10467c004fd06a4b1b7843b1694b1b78002b4bd145
:10468c000123674a1370654a1370fff78bfb01f027
:10469c00a5fd644b1b68002b47d0013b614a13609e
:1046ac00614b1b7813b1013b5f4a13705f4b1b6866
:1046bc0013b1013b5d4a13605d4b1b6813b1013ba9
:1046cc005b4a136002f0eaf80a232b7004f0def860
:1046dc00584b1a7802f0a003a02b51d0434b402129
:1046ec009961202199611021996133781344514ac1
:1046fc0013702378002bfcd0002323701c2004f0b3
:10470c000bf9fef787f92b78002b94d0013b2b701b
:10471c00efe702f09bfdace703f0aefe0028b4d14e
:10472c00fdf7a8fd01f086ffafe73e4b48f6a0422f
:10473c001a60414a536801335360404ad3880133ad
:10474c00d3803f4a1388013313803e4a13780133d8
:10475c0013703d4b1b7813f0400f02d113f0800ff8
:10476c0003d0354a136801331360384b1b68002b98
:10477c0014bf09220b22364b1a7003f0bffb8fe7d4
:10478c00344b1b7863b1194b40215961202199613d
:10479c00314b1b78002ba8d0144b10215961a4e786
:1047ac002e4b1b78c3b92c4b19782d4b18782d4bed
:1047bc001b780b43034303d10c4b2021596194e725
:1047cc000a4b4ff0100cc3f814c040b900298cd020
:1047dc00064b4021596188e7044b10215961034b6a
:1047ec002021596181e700bfe78000200080004153
:1047fc0061780000f17700002c2700203052002057
:10480c004d890000f380002030800020248000209f
:10481c00d8800020ea800020f4510020e98000209c
:10482c00e8800020f8800020db80002080800020c1
:10483c0090800020da80002074280020942800202a
:10484c00ac280020ca800020bb800020848000207f
:10485c00b6800020e6740020e7740020b7800020aa
:0c486c00b8800020c9800020f87f0020e8
:020000040000fa
:104878002de9f04184b09d4b1a68093a9c4b1b7a8c
:10488800a03b062b00f22d81dfe813f0070035006e
:10489800a700dd00ec002b01fa00082a1dd195487d
:1048a80004f026f80446f0b1934804f021f8021900
:1048b80090421ad2b0f5005f19d3b2f5801f18d80c
:1048c80040ea0403c3f30c030bb1512006e08b4b01
:1048d80018608b4b1a60502000e0512003f0fcff59
:1048e80004b0bde8f0815120f8e75120f6e75120e7
:1048f800f4e75120f2e7834b5121197042f2040387
:104908009a4207d07f4be1221a707e4b187803f049
:10491800e3ffe5e7794b1c6874b1774803f0e8ffdb
:104928000546a04208d300f50053754a1268934221
:1049380002d8c0f30c041cb1724be2221a70e4e7ef
:1049480004f03af803f0e0ff0028fbd1284603f012
:10495800a9fe48b303f0d8ff0028fbd103f034feca
:1049680010f07e0024d12e46624f7f1b4ff4007852
:10497800654d4246b919284603f0f6fe31462846e9
:1049880003f0defbd8b100bf03f0beff0028fbd167
:1049980003f01afe10f07e0018d1013406f50076f7
:1049a800102ce5d15020b2e7564be3221a70ace741
:1049b80000f01f0363f07f03524a1370a5e704f069
:1049c8000f0363f03f034f4a13709ee700f01f0385
:1049d80063f05f034b4a137097e7042a2bd1474bc8
:1049e8001e6866b3464b1c68a6422ad2424803f0aa
:1049f8007fff0746a4eb06084ff0ff34002502e0ce
:104a08000135a84511d0ab5d5c4008223f4944f30d
:104a180000030b4083ea5404013af8d1c5f30b03b1
:104a2800002bedd103f034ffeae7e443a7420cbfc3
:104a38005320542000e0542003f04eff50e7542048
:104a4800fae75420f8e74ab9502003f045ff304b05
:104a580001221a702f4b00221a7041e7522003f0ee
:104a68003bff3de742b9502003f036ff0123284ab7
:104a78001370284a137033e7522003f02dff2fe7f5
:104a88005abb50238df8003033238df80130224b68
:104a98005b8a83f01003c3f300138df802300323fd
:104aa8008df8033001228df8042004238df8053099
:104ab80020238df8063000238df807308df8083054
:104ac8008df809208df80a308df80b208df80c3000
:104ad8000d21684602f04efe02e7522003f0fcfe6c
:104ae800fee6522003f0f8fefae600bf008100203f
:104af800d8540020e5540020e15400209c80002078
:104b0800a080002009810020e87800202083b8edeb
:0c4b1800f0800020ef80002000400041f1
:020000040000fa
:104b2400964b1b78002b00f02781954a1278002ab7
:104b340000f02281002293490a6091490a70924a46
:104b4400fa21117091490a7801320a70904ad15cb5
:104b5400a1f14202152a1cd8dfe812f002011b0061
:104b6400160091001b001b001b001b001b001b00f8
:104b740042001b001b001b001b001b001b006a00e3
:104b84001b001b001b009c00814a1a4492785b2a7c
:104b940003d07a4b00221a7070477d4a1a44d27aa5
:104ba4005d2af6d17b4a442111707b480170784913
:104bb4000b44597851705b219170d978d17019796f
:104bc40011715979517199799171d979d171197a90
:104bd4001172597a51729b7a93725d23d372d8e71a
:104be4006b4a1a4492785b2ad3d1694a1a44d27a1e
:104bf4005d2aced1674a4c2111706748017064491f
:104c04000b44597851705b219170d978d17019791e
:104c140011715979517199799171d979d171197a3f
:104c24001172597a51729b7a93725d23d372b0e7f1
:104c3400574a1a4492785b2aabd1554a1a44d27a1d
:104c44005d2a2dd1534a11705348017050490b44c9
:104c5400597851705b219170d978d170197911719b
:104c64005979517199799171d979d171197a1172ee
:104c7400597a51729b7a93725d23d37289e7444abd
:104c84001a4492785b2a84d1414a1a44d27a5d2a22
:104c940006d1d7e73e4a1a4492785b2a7ff479af6b
:104ca4003b4a1a44927a5d2a3fd0394a1a445278d0
:104cb4004c2a7ff46eaf364a1a44d27a5d2a7ff4c6
:104cc40068af334a1a44d278532a7ff462af304a29
:104cd4001a441279412a7ff45caf2d4a1a4452795e
:104ce400492a7ff456af2a4a1a4492794c2a7ff40f
:104cf40050af274a1a44d2794f2a7ff44aaf244a44
:104d04001a44127a542a7ff444af214a1a44527a3c
:104d1400412a7ff43eaf1e4a13449b7a212b7ff431
:104d240038af1e4b01221a7033e71a4a11701a4821
:104d3400017017490b44597851705b219170d978ef
:104d4400d170197911715979517199799171d97910
:104d5400d171197a11725b7a53725d23937218e7d9
:104d64000b4a1a4452784c2a7ff413af084a1a4467
:104d740092785b2a9fd00ce7704700bfb280002076
:104d8400b1800020608000203a800020b3800020a1
:104d9400e87a0020d84600203b800020ed800020e7
:020000040000fa
:104da400f8b5814b24221a7044225a7030229a702a
:104db4005b22da707d4e32781a7172785a71b27849
:104dc4009a71f278da7132791a7272795a72784d6c
:104dd4002a789a726a78da72aa781a73ea785a7315
:104de4002a799a736a79da73724802781a74427863
:104df4005a7482789a74c278da7402791a7542798c
:104e04005a7582799a756c490a78da754a781a76ed
:104e14008a785a76ca789a760a79da764a791a7743
:104e24008a795a77654a1468654fa7fb0424e40815
:104e34009c77644c94f818c0634a52f82c20a7fb62
:104e44000272d208da77a77a604a52f8272083f8e8
:104e540020205f4a127883f821205e4a127883f872
:104e640022205d4a127883f823205c4a127883f862
:104e74002420e77a5a4a52f8272083f82520594af1
:104e8400127883f82620584a127883f82720574a44
:104e9400127883f82820564a127883f82920554a34
:104ea400127883f82a20544a127883f82b20277d1d
:104eb400524a52f8272083f82c20e77d504a52f8b2
:104ec400272083f82d204f4a127883f82e204e4a4b
:104ed400127883f82f20ff2283f8302083f83120c2
:104ee40083f8322083f8332083f83420f68883f85b
:104ef4003560360a83f83660ed8883f837502d0a1a
:104f040083f83850008983f83900000a83f83a009e
:104f1400098983f83b10090a83f83c103b49096866
:104f240083f83d10090a83f83e10607e384951f831
:104f3400201083f83f10090a83f84010207935497e
:104f440051f8201083f84110090a83f8421083f8bd
:104f5400432083f8442083f8452083f8462083f8cf
:104f6400472083f8482083f8492083f84a20d91c35
:104f74004a33002211f8010f0244d2b29942f9d106
:104f8400254b4b211960084b83f84b205d2283f895
:104f94004c201c4601e003f07dfc4d21204601f02d
:104fa40009fa0028f7d0f8bd7848002024520020e0
:104fb400945000201000002020270020948000201e
:104fc400cdccccccf4510020147f0020d47e002022
:104fd400cf800020bb800020bc800020cc8000203b
:104fe400f87f0020ba800020ce800020cd800020f1
:104ff400c5800020c6800020cb800020f47e0020e5
:1050040008800020be800020bd8000209880002001
:0c501400347f0020e87f0020788000201e
:020000040000fa
:1050200030b591ea030f00f18280841a71eb030c12
:1050300005d2121953eb0c03001b71eb0c0140f26b
:10504000000ccff6e07c1cea430f52d0bceb410fc2
:105050005fd90c0da4eb135e5ff0010c6cf31f51d4
:105060006cf31f53def1200c2ad303fa0cf5401920
:1050700041f1000122fa0ef5401923fa0ef56941bb
:1050800012fa0cf2cd0208d349085fea30005fea59
:10509000320228bf42f001020134013c5fea500ca9
:1050a00072f1004250f1000051eb04514ff4001333
:1050b00013eb410f38bf30bd6ff31301002030bd3b
:1050c000bef1200ebef1200f1ed223fa0ef54019bc
:1050d00041f10001cef1200c124218bf012203fa67
:1050e0000cf52a43cee711ea5c0f04bf0020002133
:1050f00030bd1cea410f04bf01f00041002030bd6b
:1051000001f00041002030bd21f4801101eb045179
:1051100030bd004218bf41f00101bceb410f08bf98
:1051200030bd4ff0fe4141f47801002030bd83f0e6
:105130000043841a71eb030e07d28ef0004e001b61
:1051400071eb0e01121953eb0e0340f2000ccff677
:10515000e07c1cea430fc6d0bceb410f72d90c0daa
:10516000a4eb135ec90241ea5051c00241f0004174
:10517000db0243ea5253d20243f00043def1200c3b
:1051800041d312fa0cf522fa0ef203fa0cf542eab8
:10519000050218bf42f0010223fa0ef3801a99416a
:1051a000e30ac4f30a0411f0404f03d418d0013cc1
:1051b00040004941013c23d44205c00a40ea415025
:1051c000c90a51eac3715fea500c72f1004250f112
:1051d000000051eb045130bd01002fd00020203cd5
:1051e0000029f9d0b1fa81fcdcf1200e11fa0cf1a2
:1051f00030fa0ef510fa0cf02943a4eb0c04d9e7b1
:105200000020d90730bdaef1200ebef1200f0dd227
:10521000cef1200c03fa0cf533fa0ef32a4318bf33
:1052200043f00103c01a61f10001b9e721f0004128
:10523000c00a40ea4150c90a01eb045130bd0020c8
:10524000002130bd004218bf41f00101bceb410f0d
:0e5250007ff467afbceb430f3ff463af30bd9c
:020000040000fa
:10525e00f0b581ea030e0ef0004e40f20007cff6d5
:10526e00e07717ea41051ebf95ea070f17ea4304d8
:10527e0094ea070f00f0c5806d0da5eb545707f5a6
:10528e0080674ff0004646eac12444ea5054c002fb
:10529e0046eac32343ea5253d202801a9c4104d2f7
:1052ae000018644180185c41013f5b084fea3202ee
:1052be000025002140f001004ff0070604e0801a9f
:1052ce009c4136d340416441801a9c4136d34041c3
:1052de006441801a9c4136d340416441801a9c41fe
:1052ee0036d340416441801a9c4136d340416441db
:1052fe00013e17d0801a9c4136d340416441801a3a
:10530e009c4136d340416441801a9c4136d3404182
:10531e006441090201eb156190ea052520f0ff00ba
:10532e004540cce7801a9c4156d335e080185c414d
:10533e00c8d20018644180185c41c8d2001864417c
:10534e0080185c41c8d20018644180185c41c8d2f4
:10535e000018644180185c41c8d200186441013eb7
:10536e0017d080185c41c8d20018644180185c4187
:10537e00c8d20018644180185c41c8d2001864413c
:10538e00090201eb156190ea052520f0ff0045406a
:10539e00cce780185c411fd3420918bf44f00104ca
:1053ae00490101ebd56100f01f0000eb451021f41f
:1053be00801141ea0e01013041f10001244208bf83
:1053ce0020f00100b7f5006f3eda013f49dd01eb39
:1053de000751bde8f0407047490101ebd56100f07f
:1053ee001f0000eb451021f4801141ea0e01b7f5c4
:1053fe00006f29da013f34dd01eb0751bde8f040c3
:10540e007047004218bf41f00101124218bf43f02d
:10541e000103b7eb410f2cbfb7eb430f1ce0b7eb0b
:10542e00410f04bfb7eb430f16e017ea410f04bf5d
:10543e0017ea430f10e017ea410f12d017ea430f95
:10544e0002d0b7eb430f0cd04ef0fe4141f4700189
:10545e000020bde8f04070474ff0fe4141f4780166
:06546e00f6e77146f4e7c9
:020000040000fa
:1054740010b57a4b24221a7045225a7031229a7040
:105484005b22da70764a9188197111895971918970
:105494009971918bd971d18b1972918c5972118d2b
:1054a4009972518dd972918d1973d18d5973118e51
:1054b4009973518ed973918e1974d18e5974118f39
:1054c4009974518fd974918f1975d18f5975b2f818
:1054d40040109975b2f84210d975b2f84410197693
:1054e400b2f846105976b2f848109976b2f84a10d4
:1054f400d976b2f84c101977b2f84e105977b2f841
:1055040050109977b2f85210d977b2f8541083f842
:105514002010b2f85e1083f82110b2f8601083f8fe
:105524002210b2f8621083f82310b2f8641083f8e2
:105534002410b2f8681083f82510b2f86a1083f8c2
:105544002610b2f86c1083f82710b2f86e1083f8a6
:105554002810b2f8701083f82910b2f8721083f88a
:105564002a10b2f8741083f82b10b2f8761083f86e
:105574002c10b2f8781083f82d10b2f87a1083f852
:105584002e10b2f87c1083f82f10b2f87e1083f836
:105594003010b2f8801083f83110b2f8a01083f8fc
:1055a4003210b2f8a21083f83310b2f8a41083f8c2
:1055b4003410b2f8a61083f83510b2f8a81083f8a6
:1055c4003610b2f8ae1083f83710b2f8b01083f882
:1055d4003810b2f8b21083f83910b2f8cc1083f84e
:1055e4003a10b2f8ce1083f83b10b2f8d01083f81a
:1055f4003c10b2f8d21083f83d10b2f8d41083f8fe
:105604003e10b2f8dc1083f83f10b2f8de1083f8d5
:105614004010b2f8ee1083f84110b2f8f22083f88b
:105624004220d91c4233002211f8010f0244d2b2a5
:105634009942f9d10b4b43211960084b83f843205d
:105644005d2283f844201c4601e003f023f9452140
:10565400204600f0affe0028f7d010bd78480020a7
:08566400a05000207880002016
:020000040000fa
:04566c000020704763
:020000040000fa
:105670002de9f04759ec108b594f18eb080029f031
:10568000004343eb030100268f4208bf864282b0ed
:10569000c0f0848053490020994208bf404510ee75
:1056a000102aca467dd310ee104a1d460127002657
:1056b00043a1d1e900019042994126da42a3d3e9fe
:1056c00000232046294600f0f7fb0022464b03f05a
:1056d000eff90022444b03f0ebf922462b46fff78b
:1056e0009ffc3ba3d3e900238046894620462946f8
:1056f000fff796fc02460b4640464946fff7affdd2
:105700003e4604460d4602460b460ff2cc09d9e947
:10571000008923f00041894508bf904527d22246e1
:105720002b462046294600f0c7fb02460b46804622
:1057300089462e48042101f017f94246cde90001bf
:105740004b4604212a4801f005fd02460b46dde9df
:105750000001fff784fd22462b4600f0adfb024618
:105760000b4620462946fff75bfc04460d46012efa
:1057700022dd05f100431d461e4b03ebc606204605
:105780002946d6e90023fff74bfc04460d460af0f4
:10579000004a22468aea050343ec102b02b0bde81a
:1057a000f08700200f49fff75afd032704460d46f6
:1057b00002460b4602267be7002ee8d0dce700bf5e
:1057c00058cd9e5e1426d13f5499b0d0f56ce73f7a
:1057d000aa4c58e87ab6fb3fbbbdd7d9df7cdb3d8e
:1057e0000000e0ff0000f03f0000e03fb07b000061
:0857f000d07b0000907b00005b
:020000040000fa
:1057f80030b45c4c247f002c40f0ad80054604f0aa
:10580800ff0000294cd0002d4ad0574c646804f0a2
:105818000704012c61d053480560426000244461ac
:10582800846104614f488160002a5cd04d4ad3608e
:105838004c4a012111774c4a127e12f0040f05d010
:10584800494a916a117e11f0040ffad1464a518be8
:1058580041f004015183117e41f0800111764149e4
:105868008a68c968914203d93e48c168891a0161aa
:105878003d49496811f0070f45d13a498969914274
:1058880035d2384a116808783749886291690131f8
:105898009161002b5bd0344b04229a7501205be0a8
:1058a800002b59d0002a57d02f4c646804f0070405
:1058b800012c0cd02b4805604260002444618461af
:1058c8000461002daed1274900208860ace700298b
:1058d80044d113f0010fedd03ee011f0010f3bd1a0
:1058e800002be7d0f5e71f4a0021d160a0e71d4a49
:1058f8001269002acdd01c4aff21916219490a6910
:10590800013a0a61c5e7174a916849089160116927
:1059180049081161d1684908d160916892698a4241
:1059280008d2104a116808880f49886291690131c4
:105938009161aee70b4a1269002aaad00a4a4ff6cb
:10594800ff71916207490a69013a0a61a1e70120da
:10595800054b987500e0002030bc704711f0010f2e
:0c596800b7d0f9e7887e00200030004036
:020000040000fa
:1059740010b4534b534a1a60534a1a61002283f8f5
:10598400402083f84120012183f8421083f843200a
:1059940083f8442083f8452083f8462083f8481090
:1059a40083f8491083f84a2083f84b1083f84c207d
:1059b40083f84d2083f84e2083f84f2083f850104d
:1059c40083f8511083f8521083f8531083f854204d
:1059d40083f8552083f8561083f8571083f858102d
:1059e40083f8591083f85b2083f8302083f8311052
:1059f40083f8322083f83320222083f834002024d3
:105a040083f8354083f8362083f8372083f838004c
:105a140083f8390083f83a2083f83b00882483f81c
:105a24003c4083f83d20294cc3f88040a4f671041f
:105a3400c3f89040032483f8c04083f8c11083f86e
:105a4400c21083f8c31083f8c42083f8c52083f8f8
:105a5400c62083f8c71083f8c81083f8c91083f8e8
:105a6400cb2083f8cc1083f8cd10022483f8ce40e9
:105a740083f8cf4083f8d01083f8d11083f8d62070
:105a840083f8d72083f8de20112183f8b01083f83f
:105a9400b11083f8b220102483f8b34083f8b41013
:105aa40083f8b520772183f8b61083f8b72083f8fc
:105ab400b80083f8bb2083f8bf205df8044b70471f
:105ac4000080004178343008700010007108c04034
:020000040000fa
:105ad4004e4b42f206625a611a46136913f0010fe3
:105ae400fbd04b4b42f20e229a821a46d36813f033
:105af400010ffbd0464b05221a74a3f54063012223
:105b04005a711a46d37813f0010ffbd0414b424a25
:105b14001a621a46536813f0040ffbd13d4b3e4af8
:105b24005a621a46536813f0080ffbd1394b3b4aab
:105b3400da621a46536813f0200ffbd1354b40222a
:105b4400c3f89c201a4600bfd2f89c3013f0400fd3
:105b5400fad0304b4022c3f8a0201a46d2f8a03025
:105b640013f0400ffad02b4b4022c3f8e0201a4622
:105b7400d2f8e03013f0400ffad0264b4022c3f89d
:105b8400ec201a46d2f8ec3013f0400ffad0214b37
:105b94004122c3f8f0201a46d2f8f03013f0400f37
:105ba400fad01c4b4022c3f80c211a46d2f80c310f
:105bb40013f0400ffad0174b4022c3f820211a46a5
:105bc400d2f8203113f0400ffad0124b4022c3f820
:105bd40024211a46d2f8243113f0400ffad0104b86
:105be4006ff07f421a6143f2ff325a610d4a9a61a3
:105bf4004ff4c1721a62054a137f03f0fd03137751
:105c040092f82c3013f0020ffad1704700100040c4
:105c140000140040001c00400001010006010c00bb
:085c2400000800405684010055
:020000040000fa
:105c2c00524b586a524b9b7d002b00f09d8070b5f7
:105c3c004f494c6804f007044c4b5a699d699e68a7
:105c4c000b7e13f0040f56d0896a484bdb689342e5
:105c5c0051d9002c41d1454b5b6899540132444bce
:105c6c001b7e13f0010f15d0414b012119753f4bd1
:105c7c009b68ab4255d93d4b1b68595d3c4b9962b7
:105c8c0001353a4b1b690bb9b54263d0374bdb6816
:105c9c00934263d0354b5a619d61354b1b7e13f09b
:105cac00020f13d0334b1b78b3b1304bdb689342ec
:105cbc000fd12e4b00221a772d4907240c752d4934
:105ccc000a701b6a43b1294b1b6a9847294b1b78f6
:105cdc0013b1274b02229a7570bd244b5b6823f8d5
:105cec0012100132224b1b7e13f0010fd2d0204b2d
:105cfc000121197509e01e4b1b7e13f0010fc9d051
:105d0c001b4b01211975002cb1d0184b9b68ab4271
:105d1c0013d9164b1b6833f81510154b99620135c6
:105d2c00afe7124b1b69002babd0114bff219962d3
:105d3c000e490b69013b0b61a3e70c4b1b69002b54
:105d4c009fd00b4b4ff6ff71996208490b69013bd1
:105d5c000b6196e7074b012119709be7044b01215e
:105d6c0099750421197595e7704700bf887e00204e
:085d7c0000300040637d0020af
:020000040000fa
:105d840070b506460d46444b1b782bb9424c02f0c5
:105d940081fd2378002bfad0404803230370330c91
:105da4004370330a8370c6703d4b4ff480625a616e
:105db400394c00232370ff233a4a0421fff71afdcc
:105dc400237823b902f066fd2378002bfad0364cf1
:105dd40005f1900005f59076a0f11c03224600bf62
:105de40052f8041b43f8041b8342f9d11c341830c5
:105df400b042f1d12b4ad2f8ac30c5f81c31d2f8fc
:105e0400b030c5f82031d2f8b430c5f82431d2f816
:105e1400b830c5f82831d2f8bc30c5f82c31d2f8e6
:105e2400c030c5f8303102f1c40305f59a7102f1ae
:105e3400dc0400bf53f8040b41f8040b9c42f9d175
:105e44001a4b05f59e7102f1f40400bf53f8040bdc
:105e540041f8040b9c42f9d1124bd3f8f410c5f865
:105e64006411d3f8f810c5f86811033302f1fb018b
:105e7400002200bf13f8010f02448b42fad10c4bed
:105e8400f8211960074b93f8fc00d2b2904214bf7a
:105e94000020012070bd00bf08810020ac53002009
:105ea400008000415c0200206002002038030020d2
:045eb4007c800020ce
:020000040000fa
:105eb800f0b540f2ff7681ea030c16ea115e1ebfc8
:105ec800b64516ea1355b54252d021ea465141f477
:105ed8008011a1fb024723ea465343f48013ae44e2
:105ee800a0fb03650cf0004c36197d41a1fb03476c
:105ef80047f10003a0fb0217f619654153f10003af
:105f0800094218bf46f0010640f2fe74b3f5007f5f
:105f180013d2aef5806ea64523d24cea033128038e
:105f280041ea155140ea16503203450872f1004221
:105f380050f1000051eb0e51f0bdaef2ff3ea64508
:105f48000fd24ceac321e80241ea555140ea5650c3
:105f5800f202450872f1004250f1000051eb0e5177
:105f6800f0bd1eea0e0f2dd50cf000410020f0bd4b
:105f780016ea115f04bf01f000410020004218bf7b
:105f880041f0010116ea135f04bf03f00043002249
:105f9800124218bf43f0010306ea1354b44218bf73
:105fa800b64503d00cf000410020f0bd21f00041bf
:105fb80023f00043b1eb065f0cd8b3eb065f09d8ba
:105fc80041b13bb10cf0004141f0fe4141f4700198
:105fd8000020f0bd40f20001c7f6f8710020f0bdc6
:020000040000fa
:105fe80010b43f4ad36823f4e0631b041b0c43f04e
:105ff800bf6343f40033d360bff35f8f62b6394b9e
:10600800e02083f80a034ff48061196083f80b03da
:106018004ff40061196083f829034ff40071596047
:1060280083f82e034ff48041596083f82f034ff40f
:106038000041596083f830034ff48031596083f888
:1060480031034ff400315960402183f832134ff483
:1060580080245c6083f833134ff400245c6083f879
:1060680034134ff480145c6083f835034ff4001444
:106078005c6083f83a134ff080645c6083f83b13ec
:106088004ff000645c6083f83c134ff080545c6010
:1060980083f83d134ff000545c6083f842130424e6
:1060a8009c6083f8431308249c6083f844131021f0
:1060b800996083f8450320219960536a43f480234b
:1060c8005362536943f010035361536a43f4003336
:1060d8005362536a43f4803353625df8044b70474c
:0860e80000ed00e000e100e022
:020000040000fa
:1060f00010b5364b5b79012b31d05ab202b3022b6b
:1061000045d0334b24221a7057225a7030229a708d
:106110005b22da702f4a11782f4a0a44d17819711c
:106120001179597152799a715d22da721c460c21eb
:10613000204600f041f9002847d102f0adfbf6e718
:10614000224ca179e07802f063fa214be2782349ee
:106150008a5cda7100221a725a729a72d1e71b4b6a
:10616000da791979dc7804eb0124997901eb0221c1
:1061700089b2e0b202f0d2f9194b33f81420144b73
:10618000da71120a1a7200225a729a72b9e70f4b28
:10619000597a1a7a02eb0121da7902eb0122197994
:1061a000dc7804eb0124997901eb0221e0b202f0e2
:1061b000d9f90c4b53f82430054ad371190a1172de
:1061c000190c51721b0e93729be710bdd84600202c
:1061d00078480020b2800020e87a0020f4510020a6
:0861e000a050002074280020eb
:020000040000fa
:1061e80008b5324b1b7cdb08314a137003f00303fc
:1061f800304a1370304b1b78072b0ad8dfe803f0be
:10620800040a2c343b09094502f012fb2b4b0022ef
:106218001a7008bd00f0fcfd01280ed0022810d02d
:106228000328f6d10422244b1a7025490b7843f031
:1062380040030b70234b1a70ebe71f4b07221a70b1
:10624800e7e704221c4b1a701d490b7843f0100332
:106258000b701c4b1a70dce700f0e8fc0128d8d161
:10626800154b07221a70d4e7134b02221a70134bee
:1062780000221a70cde7144801f08efb0e4b022263
:106288001a700e4b00221a70c3e7104b01221a70c5
:106298000f4b4ff000625a614ff40062c3f894202c
:1062a8004ff480525a6102f0b7fab2e7f451002075
:1062b800d1800020e2800020c2800020e4800020fd
:1062c800b8800020f380002078200020e98000209a
:0462d8000080004101
:020000040000fa
:1062dc0038b5314b24221a704c225a7030229a70e5
:1062ec005b22da702d48b0f8c220110a19715a716c
:1062fc002b49b1f8d820140a9c71da71b1f810212d
:10630c001a72b1f80e215a72b1f8b820140a9c72a4
:10631c00da7200221a735a739a73b0f8e040214d66
:10632c00a5fb04546409dc73b0f8a040250a1d7465
:10633c005c74b1f80a419c74b1f80841dc74b1f892
:10634c000c110c0a1c755975b0f89e100c0a9c7532
:10635c00d975c1690c0a1c7659768169080a987638
:10636c00d976d91c1b3300bf11f8010f0244d2b2ed
:10637c009942f9d10c4b1c211960074b1a775d22fd
:10638c005a771c4601e002f081fa1e21204600f0eb
:10639c000df80028f7d038bd7848002020000020e8
:0c63ac00280100201f85eb5178800020a4
:020000040000fa
:1063b8002de9f84300295ed00f4600242f4e304bbc
:1063c80000f1010edff8bcc006e00cf801809a600d
:1063d800621c0134974244d9726802f00702012a0c
:1063e80018d09968dd684a1cd3f81080424528bf48
:1063f8000022954236d010f80480756805f007052c
:10640800012de2d14d000cf81180691c00250cf813
:106418000150dce7d3f80880d96808f101021d694a
:10642800aa4228bf002291421cd01ef8145010f82e
:10643800141041ea0521756805f00705012d05d0fe
:10644800c9b20cf808109a60621cc2e74fea480506
:106458005ffa81f90cf818900135090a0cf8051053
:10646800f1e7144602f0f0f910b1044b01229a75d5
:106478002046bde8f8830c46f4e700bf003400402e
:08648800b47d0020e87600203d
:020000040000fa
:1064900010b502f095f92d4b1b78002b51d0013b24
:1064a000dbb22a4a1370012b34d05ab2d2b1022b7c
:1064b0004ad100bf02f00ef80028fbd002f0a8fa83
:1064c00000eb80004000224b1860224c192221680a
:1064d00002f0cefa20604ff4c051002001f0e8ff36
:1064e00032e000bf01f0f6ff0028fbd002f090fa86
:1064f00000eb80004000184b1860184c19222168ee
:1065000002f0b6fa20604ff4c051012001f0d0ff34
:106510001ae000bf01f0deff0028fbd002f078fa9d
:1065200000eb800040000e4b18600e4c19222168d1
:1065300002f09efa20604ff4c051092001f0b8ff2c
:1065400002e0024b03221a7010bd00bf267e00201d
:106550005c800020588000204c800020ac7c002013
:0865600054800020508000204f
:020000040000fa
:10656800f8b504460d4601f04bfe314f05f1900099
:1065780005f5907c3e4600bfa0f11c03324600bfe3
:1065880053f8041b42f8041b8342f9d11c36183017
:106598006045f1d1d5f81c21254bc3f8a820d5f8c2
:1065a8002021c3f8ac20d5f82421c3f8b020d5f8b1
:1065b8002821c3f8b420d5f82c21c3f8b820d5f881
:1065c8003021c3f8bc2005f59a72c03307f1d80012
:1065d80052f8041b43f8041b8342f9d105f59e7257
:1065e800144b07f1f00000bf52f8041b43f8041bda
:1065f8009842f9d1d5f864210d4bc3f8f020d5f8ad
:106608006821c3f8f420013b07f1f700002200bf1e
:1066180013f8011f0a448342fad1054981f8f8208a
:10662800f922204601f094fc003018bf0120f8bd83
:08663800d8280020b029002041
:020000040000fa
:10664000304b1b78002b5cd000b597b053222e49fd
:1066500001a802f08df82b4b00221a709df804302f
:10666000242b02d017b05df804fb9df80730522ba5
:106670000ed04d2b1dd0422b24d0482b2bd19df872
:106680000830442b08d19df80930472b04d10be08a
:106690009df808304d2b03d01c4b00221a70e1e707
:1066a0009df80930432bf7d101ab0df155000021c6
:1066b0001ee09df80830572beed19df80930562b7f
:1066c000ead1f1e79df808304f2be5d19df809306c
:1066d000442be1d1e8e7442bded19df80830422b72
:1066e000dad19df80930542bd6d1dde78342d3d0df
:1066f00013f8012f2c2af9d10b299cbf0131c9b203
:10670000f4e77047bf800020107d0020c08000208b
:020000040000fa
:1067100010b52f4b24221a7045225a7030229a70dd
:106720005b22da702b4a5178197191785971d178be
:1067300099711179d9715179197291795972d17907
:106740009972117ad972517a1973917a5973d17aef
:106750009973117bd973517b1974917b5974117d95
:106760009974d17dd974917e1975d17e597592f83d
:106770002110997592f82210d97592f82310197684
:1067800092f82610597692f82710997692f82810e8
:10679000d97692f829201a77d91c1c33002200bf21
:1067a00011f8010f0244d2b29942f9d10a4b1d21ce
:1067b0001960074b5a775d229a771c4601e002f078
:1067c0006bf81f212046fff7f7fd0028f7d010bd1a
:0c67d00078480020f45100207880002060
:020000040000fa
:1067dc0008b52c4b1b78012b15d05ab22ab1022bc1
:1067ec003cd001f02fff002008bd532848d1264b88
:1067fc0053221a700120254b1860254b09221a6070
:10680c00204b1870f0e721490a68531c0b601e4995
:10681c008854092b01d00120e6e7084602f066f8ff
:10682c001c4b984210d11c4802f060f842f2040351
:10683c00984209d800f10902154b1a6040b1114b6e
:10684c0002221a700120cfe701f0fcfe0120cbe7f9
:10685c00fef70cf801f0f6fe0120c5e70b490a68bb
:10686c00531c0b6008498854094a1268934201d0a2
:10687c000120b9e7fdf7faff01f0e4fe0120b3e7d0
:10688c000020b1e7f2800020d8540020a480002022
:0c689c000081002053474657dc540020c8
:020000040000fa
:1068a80008b502f0b7f823490b68234a1360c01ae9
:1068b800224a82fb00c2c017c0eba200204a106027
:1068c800184408608b2303fb00f31e4a82fb031263
:1068d8001a44db17c3eba2231b4a13601b4a527fdf
:1068e80093421b4b1b7834bf43f0080303f0f703b4
:1068f800174a1370b0f5807f0cdd164bfa221a6028
:10690800154b4022c3f8982008229a61134b0122a4
:106918001a7008bd0f4b1b6823b90f4b4022c3f8f0
:106928009420f6e7013b0b4a13600c4b04221a70c3
:10693800efe700bf708000208c80002067666666e5
:10694800888000206b09ebb5f47e0020f45100200c
:10695800bd8000207480002000800041f38000206a
:020000040000fa
:10696800f8b58c1e00ebc40416461f460d46d4e944
:10697800022330463946fff79bfad4e90023fef795
:106988004bfb022d02460b4645d030463946fff7f1
:106998008ffa54e90223fef73ffb032d02460b460c
:1069a80039d032463b46fff783fa54e90423fef711
:1069b80033fb042d02460b462dd030463946fff7ef
:1069c80077fa54e90623fef727fb052d02460b4606
:1069d80021d030463946fff76bfa54e90823fef711
:1069e8001bfb062d02460b4615d030463946fff7ed
:1069f8005ffa54e90a23fef70ffb072d02460b4600
:106a080009d030463946fff753fa54e90c23fef70c
:106a180003fb02460b4630463946fff749faf8bdf4
:020000040000fa
:106a28002de9f041294e2a4c4ff00108294f13e077
:106a3800226afab1616a236a40469847a36a013319
:106a4800226b934228bf002314e0a26aedb2bd5422
:106a5800a36294f83430fbb9337e13f0040f32d0bc
:106a6800b56aa36a0133226b934228bf0023e26a06
:106a78009a42ddd0e26a9a42eed0726802f00702ca
:106a8800012ae2d1a16a4a00e8b207f811000132ee
:106a9800c5f30725bd54dbe701f0e2fe236a002bae
:106aa800dad0616a94f83c3033b1a36b9842d3d3ff
:106ab800236a00209847cfe7a36b9842ccd1236a7a
:106ac80000209847c8e7bde8f08100bf00340040c7
:086ad800b47d0020e8740020e9
:020000040000fa
:106ae00008b5274b1b78452b27d006d9532b11d03f
:106af000572b3fd04c2b1ad008bd3bb1442bfbd1b8
:106b0000fef750f91e4b00221a70f5e71d4b0322c9
:106b10001a70f1e71c4b5b78312b05d000f0dcfbe1
:106b2000174b00221a70e7e700f0eefdf8e7fff7d9
:106b3000d5fb134b44221a70dee7124b1b78032b54
:106b400005d8dfe803f0130f0c02fff7e1fd0d4b52
:106b50001b78002bd0d0013b0a4a1370cce7fef71c
:106b600089fcf4e7064a00211170f4e7044b002287
:106b70001a70c1e7fff7bcfa014b00221a70bbe79d
:0c6b80003b8000202f800020d846002021
:020000040000fa
:106b8c0070b582b0254d264c264e14e0f25c8df883
:106b9c000620013322699a4298bf0023e3606b6898
:106bac0003f00703012b14bf9df80630bdf8063027
:106bbc00ab62237dbbb92b7e13f0010f2cd0a268e6
:106bcc00e3689a4225d06a6802f00702012addd1f7
:106bdc005a0016f813108df806100132b25c8df8bd
:106bec0007200133d6e701f0a1fe2368002be2d089
:106bfc006168237f33b1a3699842dcd323680320f7
:106c0c009847d8e7a3699842d5d1236803209847c1
:106c1c00d1e7024b01221a7502b070bd003400405e
:086c2c00b47d0020e876002091
:020000040000fa
:106c340008b5234b187801280ed043b21bb1142891
:106c44002cd0002008bd00231e4a13701e4a136076
:106c54001b4b01221a70f5e71a4b01221a7001f03e
:106c6400d1fa00f0cffe08b90020ebe717494ff442
:106c74000070fff777fc164b187038b9124b1b687d
:106c84001e2b10d80133104a1360dbe70c4b14227f
:106c94001a700d4b1b681e2b0dd907e0094b0022ff
:106ca4001a700120cee7064b14221a70094a137891
:106cb40063f07f0313700020034b1860c2e700bf2a
:106cc400e4800020ec8000206880002078200020f0
:086cd400b9800020b880002007
:020000040000fa
:106cdc0070b504465022002101f050fe224a9369ff
:106cec0043f001039361936913f0010ffbd01e4b2a
:106cfc009a6942f002029a611c4d2c60a2b242f4d5
:106d0c008032c3f8a02004f110026a6092b242f003
:106d1c00004242f40032c3f8b02004f13002ea60c1
:106d2c0092b242f08072c3f8c02004f140022a6192
:106d3c0092b242f48032c3f8f02004f14806ae61fe
:106d4c000b4a03caa064e1642a8b42f48032c3f874
:106d5c0088209a6922f001029a611a46936913f00d
:106d6c00010ffbd170bd00bf00040042b07f0020ba
:046d7c00888a000001
:020000040000fa
:106d800070b504464ff4a472002101f0fdfd4ff0f0
:106d90008442936943f001039361936913f0010ff7
:106da000fbd04ff084439a6942f002029a61184d79
:106db0002c60a2b242f0004242f4a022c3f8a0200c
:106dc00004f15002ea6092b242f02062c3f8c0209f
:106dd00004f1f0022a6192b242f42022c3f8f020ba
:106de00004f5a076ae610b4a03cac4f84001c4f8aa
:106df00044112a8b42f48032c3f888209a6922f029
:106e000001029a611a46936913f0010ffbd170bd1c
:086e1000cc7f0020988a0000ed
:020000040000fa
:106e180010b5204b1c78142c39d8dfe804f00b3857
:106e2800233829382e383838383838383838383808
:106e38003838330018494ff40070fef79fffc0b28e
:106e480018b1144b02221a7010e0144a137843f058
:106e580020031370124b04221a700e4b14221a705e
:106e6800022403e00b4b04221a700024204610bdb4
:106e7800084b06221a700024f8e7064b14221a70f1
:106e88000024f3e7074b00221a700124eee70024e0
:106e9800ece700bfe380002078200020b8800020c5
:086ea800f3800020ec800020c3
:020000040000fa
:106eb000f0b583b001f09cfd1a4b18701a4c1b4eb4
:106ec0001b4d1c4f08e0fff789fca8b104e01a4bea
:106ed0001a7001233b702b6001f0c6fcf8b1012150
:106ee0000df1070000f0b2f8012818d19df8070055
:106ef00020703378002be6d12278242ae7d02b6843
:106f000033b10d49ca545d2a05d0b3f5ae7fe3d83d
:106f100001332b60e0e7094a01211170f5e703b066
:106f2000f0bd00bfe7740020b0800020ed8000209d
:106f300060800020b2800020e87a0020b18000202c
:020000040000fa
:106f400008b5194b9847194b9847eff3108172b663
:106f5000174ad2f8883043f47003c2f88830bff380
:106f60004f8fbff36f8f01b962b6124a936823f057
:106f7000010393601346da6812f0010ffbd10d4b49
:106f800024225a6001229a6001f0d2f90a4b23f0c0
:106f90007f03074a9360094b9847094b9847094b71
:106fa0009847fdf7ebfafee7bf8a0000bf8a0000b2
:106fb00000ed00e00060004100200000a97c00001e
:086fc000bf8a0000bf8a000037
:020000040000fa
:106fc8000138c0b2092836d8b9b32de9f0474ff0d7
:106fd8008443d3f8c430c3f30443013001eb0015f4
:106fe8000026dff85c904ff001081801d9f80c4032
:106ff8002218d1f800a0d1f804e0d1f808c0cf6871
:1070080044f800a0c2f804e0c2f808c0d760103104
:1070180008fa03f216430133dbb20a2b08bf002338
:107028008d42e2d1bff34f8f4ff08443c3f8d06055
:107038000120bde8f087002070470020704700bf9e
:04704800cc7f0020d9
:020000040000fa
:10704c002de9f0411c4ad36a956a89b30e46ab42ce
:10705c0008bf002227d00122dff864c0174ca0f132
:10706c00020e0138144f0ce0e15c81540133396b92
:10707c00994298bf0023b24214d2511cab4212d099
:10708c000a46dcf8041001f007010129ecd1590083
:10709c0014f813800ef812800131615c00f81210a4
:1070ac000133e4e71d46044bdd621046bde8f08178
:1070bc001d460a46f7e700bfb47d0020e8740020a7
:0470cc00003400404c
:020000040000fa
:1070d0002de9f04104460f46164601f095f81b4b8a
:1070e0001b781bb900242046bde8f081dff85c80e6
:1070f000002388f80030164d02232b70230c6b7090
:10710000230aab70ec7001f02bfc01f0c5fb32469a
:107110003946281d01f02cfb01f0befb01f0bcfb41
:1071200001f0bafb01f0b8fb01f0b6fb311d2846b7
:1071300001f08cfc044698f80030002bd3d1454672
:1071400001f0aafb2b78002bfad0cce708810020b5
:04715000ac5300201c
:020000040000fa
:10715400f8b516461f4600ebc10555e902230c4657
:1071640030463946fdf75aff32463b46fef7a2fe4b
:1071740055e90423fdf752ff02460b4630463946d3
:10718400fef798fe032c02460b4617d055e906235a
:10719400fdf744ff02460b4630463946fef78afea9
:1071a400052c02460b4609d155e90823fdf736ffa5
:1071b40032463b46fef77efe02460b46c4eb447461
:1071c40005ebc40410461946d4e90023fdf726ff55
:0471d400f8bd00bf43
:020000040000fa
:1071d8001c4b1d4a1a604df6ad029a814ff440329d
:1071e8005a601a46d369002bfcd1164a136843f03b
:1071f80002031360d369002bfcd1144b00221a62de
:107208009a62da6283f8342083f83c209a63da873a
:107218001a609a60da601a751a779a61094b5b6886
:1072280003f00703012b094b14bf4ff400724ff40e
:1072380080721a631a61034b80229a7504229a7528
:10724800704700bf0034004004011040b47d0020a6
:020000040000fa
:1072580008b5164bd3f8a03013f4004f12d0002312
:10726800134a137013490a7802f07f020a70124a0f
:107278001370124a1370124a1360124a1370124a9a
:10728800137008bd0a4b01221a700a4a137863f07a
:107298007f0313700d4b1b7813b1013b0b4a13701e
:1072a800fdf73cfcfff718fcebe700bf008000414e
:1072b800e6740020cc800020e57400203b8000208c
:1072c80060800020b2800020ed8000203a800020fd
:020000040000fa
:1072d80010b51b4a24231370532353703023937023
:1072e8005b23d370ff211171164b1b785371002358
:1072f80093710120d071137250729372d07213730c
:1073080050739173d17311745174111d123200bfef
:1073180011f8010b0344dbb29142f9d10a4a122158
:107328001160074a93745d23d374144601e001f099
:10733800affa14212046fff73bf80028f7d010bd1c
:0c73480078480020e780002078800020ba
:020000040000fa
:10735400184b1b78002b2bd000b583b0002301936e
:10736400019a154b9a4207d81a4600bf019b013374
:107374000193019b9342f8d9104b1b7823b101f080
:1073840025fb03b05df804fb4ff000530c4a1a6070
:107394005a609a60da60bff34f8f0a49ca6802f4f0
:1073a400e062094b1343cb60bff34f8f00bffde78f
:1073b400704700bff08000201fa10700ef8000206d
:0c73c4005347465700ed00e00400fa05b6
:020000040000fa
:1073d000a2b32de9f041174690bb4ff08443d3f898
:1073e000a430c3f3052301b301395ffa81f84ff0ec
:1073f000000cdff850e000e09446def8002002ebdd
:107400000312166855689468d2683e607d60bc605f
:10741000fa608c4509d010370133dbb2052b08bf69
:1074200003460cf10102c445e6d103f03f034ff0df
:107430008442c2f8a8300120bde8f08100207047e6
:087440000020f9e7cc7f0020d9
:020000040000fa
:107448001b4b1b7d002b31d010b5194a936851682e
:10745800184a127e12f0010f15d0994213d9154916
:1074680013484a6802f00702012a026814bfd25c76
:1074780032f813208a62013344680a7e12f0010f41
:1074880001d09c42edd80a4a936052689a420cd8bf
:10749800074b00221a755a60064a01211175db68ec
:1074a8001bb1034b1869db68984710bd704700bfd4
:0874b800287e00200040014184
:020000040000fa
:1074c0001b4b1b7d002b31d010b5194a93685168b6
:1074d000184a127e12f0010f15d0994213d915499e
:1074e00013484a6802f00702012a026814bfd25cfe
:1074f00032f813208a62013344680a7e12f0010fc9
:1075000001d09c42edd80a4a936052689a420cd846
:10751000074b00221a755a60064a01211175db6873
:107520001bb1034b1869db68984710bd704700bf5b
:08753000587e00200004004316
:020000040000fa
:1075380000b585b000230093019340238df80330f4
:10754800009b164a126862f31c03009308238df807
:107558000630134b1a788df808205a788df80920d0
:107568009a788df80a20da788df80b201a798df838
:107578000c205a798df80d209a798df80e20db7938
:107588008df80f3069460120fff71afd10b105b0dc
:107598005df804fb00f0fbfef9e700bf6480002003
:0475a800cc490020aa
:020000040000fa
:1075ac00f8b506460f461546154b1b782bb9144cef
:1075bc0001f06cf92378002bfad0124803230370e6
:1075cc00330c4370330a8370c6700f4b4ff48062d8
:1075dc005a610b4c002323702b1d0c4a0421fef71f
:1075ec0005f9237823b901f051f92378002bfad04f
:1075fc002a460749384601f0b5f8a8b2f8bd00bfd5
:10760c0008810020ac5300200080004180520020f3
:04761c008452002074
:020000040000fa
:10762000f8b506460f461546154b1b782bb9144c7a
:1076300001f032f92378002bfad0124803230370ab
:10764000330c4370330a8370c6700f4b4ff4806263
:107650005a610b4c002323702b1d0c4a0421fef7aa
:10766000cbf8237823b901f017f92378002bfad04f
:107670002a460749384601f07bf8a8b2f8bd00bf9a
:1076800008810020ac53002000800041805200207f
:047690008452002000
:020000040000fa
:10769400f8b506460f461546154b1b782bb9144c06
:1076a40001f0f8f82378002bfad012480323037072
:1076b400330c4370330a8370c6700f4b4ff48062ef
:1076c4005a610b4c002323702b1d0c4a0421fef736
:1076d40091f8237823b901f0ddf82378002bfad050
:1076e4002a460749384601f041f8e8b2f8bd00bf20
:1076f40008810020ac53002000800041805200200b
:04770400845200208b
:020000040000fa
:1077080010b51a4a242313705323537031239370ee
:107718005b23d37001211171002353719171d371cf
:10772800022111725372ff219172d1721173517338
:107738009173d17311745174111d123211f8010b28
:107748000344dbb29142f9d1094a12211160074a78
:1077580093745d23d374144601e001f099f8142161
:107768002046fef725fe0028f7d010bd78480020f7
:0477780078800020f5
:020000040000fa
:10777c00f8b5b1b107460e46fef718fe044601f007
:10778c0085f840f2cf75a6420bd9311b3819fef79c
:10779c000dfe044401f07af8013df4d1a64200d963
:1077ac00f8bd0f4b02221a764ff4fa6401f072f90d
:1077bc0018b101f06bf8013cf8d1094b1b7e13f0aa
:1077cc00020fedd101f062f840f2cf74044d2b7e24
:1077dc0013f0020fe4d101f059f8013cf7d1dfe7c7
:0477ec000034004025
:020000040000fa
:1077f00010b501f0f5f8c0b2104b187048b1002375
:107800000f4a13700f4a13700f4a13700f4a137008
:1078100010bd0f4b01221a700e4b1b78312b07d86d
:107820000d4a0e4c07ca03c422800a33094a13705a
:107830000a21094800f0a8fceae700bfc98000203f
:10784000c3800020e0800020e1800020df80002055
:10785000e5800020c880002024800020f47d0020e6
:020000040000fa
:1078600008b501f0cdf8144b1870144b1b78242b7d
:107870000ed0134a12789ab10a2b16d0114a1278f8
:1078800011498b54512a0bd801320e4b1a7007e064
:107890000d4b24221a700123094a1370094a1370f0
:1078a0000a21064800f090fc08bd084b01221a701e
:1078b000034b00221a70f3e7c180002030800020c3
:1078c000e1800020c0800020107d0020bf800020cb
:020000040000fa
:1078d00008b5174b93f82c30cbb1154bda691b6afe
:1078e000934214d2124b986a124a916a1b6a5268e8
