:020000040000fa
:08000000ffff032009000000ce
:020000040000fa
:100008000d4a0e48801a800808d00d4b03eb80007b
:1000180053f8041b42f8041b8342f9d1094b0a4ade
:10002800d21a920806d003eb8202002143f8041b7f
:100038009a42fbd100f00cb818000020fc07002001
:1000480060000000fc07002030480020000000008d
:080058005ff800f089070020a9
:020000040000fa
:10006000704700bf4ff48070704700bf30b583b059
:1000700004460d464ff0ff3301212120019300f08b
:1000800047fa294601ab019a204600f0a3f9022164
:10009000212000f03dfa019803b030bdbff34f8f2f
:1000a0000549064bca6802f4e0621343cb60bff314
:1000b0004f8f00bffde700bf00ed00e00400fa0530
:1000c00038b50468631c07d0034600205d68fff75d
:1000d000c7ff84f30888284738bd00bf70b5254c9a
:1000e000257805b170bd00f0f9fa0028fad000f0cb
:1000f000fdfac6b200f026fbb8b96378656803b3b1
:10010000a368ab4204d91c496a1c6e546260154650
:10011000ab4206d10022c4e90122012123616270b1
:100120002170bde8704000f0f5ba134a65700123f4
:1001300016706360114b5b5db342f2d000236360c5
:10014000efe76b1c0c4a6360042b5655f2d9092b60
:10015000e7d10b4b1168994203d0512000f0a0fa6f
:10016000ece7d2e90132a360012322736370637369
:10017000e4e700bffc07002020280020f80700204b
:100180004d4348502de9f84f624ddff88ca1dff860
:1001900090b105e02b78002b3cd16b7b002b37d046
:1001a000fff79cff2b7d002bf4d02f69d5f818802a
:1001b000043f01e0fff792ff00f098f90028f9d121
:1001c000404600f081f901e0fff788ff00f08ef96a
:1001d0000028f9d1bfb1dff84c910446464600bf74
:1001e000a9eb08003044314600f050f901e0fff778
:1001f00075ff00f07bf90028f9d104f50074a742df
:1002000006f50076ecd800232b756b7b002bc7d14d
:10021000bde8f88f2b7ba02b0dd0a12b22d0a62bd5
:1002200051d0a22b67d0a32b42d0a42b59d052205f
:1002300000f036fa13e0dae9002323f4ff7302ea50
:100240000b0223f0010313449a4202d2b3f5801f3c
:1002500028d900235120c5e9073300f021fa0023f3
:100260002b709ae7daf80030ea6903ea0b0393424d
:10027000ab6113d32a6a934210d2274b274a03f566
:10028000005000bf53f8041f42f8041f8342f9d105
:10029000012350202b7500f003fae0e7512000f015
:1002a000fff9dce75020c5e9072300f0f9f9d6e7ac
:1002b000502000f0f5f900bf00f0fcf90028fbd059
:1002c000fff7ecfecbe7502000f0eaf9fff7cafe9b
:1002d0000446c0f30f2000f0e3f9e0b200f0e0f9cb
:1002e000bde7502000f0dcf900f0e4f90028fbd075
:1002f00000f004f9b3e7d5e90701091adaf800407c
:10030000fff7b4fe84420cbf5320542000f0c8f91c
:10031000a5e700bffc070020202800201c080020c3
:1003200000e0ffff20080020224a42f206635361ea
:100330001369db07fcd5204a42f20e239382d3686f
:10034000d807fcd51d4b0520012110741a465971a0
:10035000d378d907fcd51a4a1a4b136253685b0746
:10036000fcd4184b164953624b681807fcd4164b43
:10037000134acb6253689906fcd440231049c2f853
:10038000e03000bfd1f8e0305a06fbd50b4b0f48e8
:100390001861084a0e4940f2ff7058619961137f55
:1003a00003f0fd03137700bf92f82c309b07fbd4ba
:1003b000704700bf001000400014004000080040db
:1003c000001c00400001010006010c00fffff900c5
:1003d0005684010009b900207047002bfbd010b4ef
:1003e0000c4c6060a160e26062780420d2b262705e
:1003f000214620704a78d007fcd54a78520703d5a9
:1004000000205df8044b7047ca681a6001205df84f
:10041000044b704700200041174bda684ff6ff018c
:100420000a4042f0bf6242f40032da60bff35f8fed
:1004300062b6124ae02182f80b134ff4006111609a
:10044000402182f83c134ff08050506082f83d13f9
:100450004ff0005151605a6a42f480225a625a6940
:1004600042f010025a615a6a42f400325a625a6ae1
:1004700042f480325a62704700ed00e000e100e093
:10048000014b04221a807047004000410c4a30b4ee
:10049000091a0025031f0c1d00f5fe701580e218d7
:1004a00053f8041f11608342f9d1064a138803f000
:1004b000300313b94af203539380012030bc7047d4
:1004c000244800200040004110b4064b064c014671
:1004d0004af2015200202080012059619a805df883
:1004e000044b70470040004124480020024b588aca
:1004f000c04300f00100704700400041024b4af247
:1005000017529a80704700bf00400041704700bffb
:1005100080b24ff0804340ea01411960704700bf4c
:100520004d4b4e4a70b44e4c1a6001211c610022a2
:100530002220202483f8421083f8432083f84420ab
:1005400083f8452083f8462083f8481083f8491043
:1005500083f84a2083f84b1083f84c2083f84d2011
:1005600083f8501083f8511083f8521083f8531019
:1005700083f8542083f8552083f8561083f85710d9
:1005800083f8581083f8591083f85b2083f83110f2
:1005900083f8322083f8332083f8340083f8354021
:1005a0008824304d83f8362083f8380083f83900ea
:1005b00083f83a2083f83b0083f83c402a4c83f8c8
:1005c0003d20c3f88050c3f890400325022483f8ef
:1005d000c050062683f8c110102583f8c21083f896
:1005e000c31083f8c42083f8c52083f8c62083f89d
:1005f000c71083f8c81083f8c91083f8cb2083f89c
:10060000cc1083f8cd1083f8ce4083f8cf4083f828
:10061000d010112483f8d110772183f8d62083f8e5
:10062000d76083f8de2083f8b04083f8b14083f8c8
:10063000b22083f8b35083f8b44083f8b52083f830
:10064000b61083f8b72083f8b80083f8bb2083f88e
:10065000bf2070bc704700bf008000417834300874
:1006600070001000710840400000c0400a4b0b4a67
:100670001a604ff440314ff6b9429a811a465960d8
:10068000d369002bfcd11368034943f002031360c4
:10069000cb69002bfcd170470040014104011040a0
:1006a000034a137edb07fcd580b29062704700bf1f
:1006b00000400141024b187ec0f34000704700bf6c
:1006c00000400141044a536843f400335360d36946
:1006d000002bfcd1704700bf00400141024b187e47
:1006e000c0f38000704700bf00400141014b986a91
:1006f000704700bf00400141044b0548002204211f
:100700001a609a6058601960704700bf10e000e0fe
:100710007f4f1200054b1a68002122f001021a6077
:1007200099601a6842f001021a60704710e000e018
:10073000034b00229a601a6842f001021a60704767
:1007400010e000e0024b1868c0f30040704700bfa3
:1007500010e000e008b5fff793fefff7e1fe00f0c0
:1007600013f858b1fff7e0fdfff780fffff7c4ff74
:10077000fff7ccfebde80840fff74ebe4ff4005037
:10078000fff79efceee700bf4ff4fa6300bf013baa
:10079000fcd14ff000520c481168814207d00b4b3e
:1007a000d3f8a0006fead05000f001007047506805
:1007b0008842f4d191688142f1d1d0688842eed16b
:1007c00013600120704700bf4d4348500080004136
:1007d000f8b50020fff7befffff78efffff7a8ff79
:1007e000154b08204ff480514ff4005298610024bb
:1007f00099619a61fff7a6ff00b16434b4f5fa7ffe
:10080000f8d30d4d0d4c4ff480536b61fff75aff39
:1008100020271026fff796ff236808b16433236072
:1008200062689a1ab2f57a7f24bfef6163606e61e5
:10083000fff7a8fcae61ede70080004128480020ea
:040840004d4348508c
:00000001FF
