:020000040000fa
:10200000f0ff0320c97300008f8800004f89000093
:10201000178b0000978d00006f8e000000000000fd
:102020000000000000000000000000005357000006
:102030001b8a0000000000005357000053570000a7
:1020400053570000535700005357000053570000e8
:1020500053570000535700005357000053570000d8
:102060005357000053570000535700007d8900006c
:1020700053570000535700005357000053570000b8
:1020800053570000535700005357000053570000a8
:102090005357000053570000535700005357000098
:1020a0005357000053570000535700005357000088
:1020b0005357000053570000535700005357000078
:1020c0005357000053570000535700005357000068
:1020d0005357000053570000535700005357000058
:1020e000535700005357000000000000000000009c
:1020f0000000000053570000c95e0000c95e0000e8
:10210000c95e0000c95e0000d9620000d96200000b
:10211000d9620000d96200005357000053570000f5
:102120005357000053570000916100009161000077
:102130009161000091610000535700005357000067
:102140005357000053570000216400002164000031
:102150002164000021640000000000000000000075
:10216000000000000000000000000000000000006f
:10217000000000000000000053570000535700000b
:1021800053570000535700005357000053570000a7
:102190000000000053570000535700005357000041
:1021a0005357000053570000535700005357000087
:1021b0005357000053570000535700005357000077
:1021c0005357000053570000535700005357000067
:1021d0005357000053570000535700005357000057
:1021e0005357000053570000535700005357000047
:1021f0005357000053570000535700005357000037
:10220000535700000000000000000000535700007a
:102210005357000053570000535700005357000016
:102220005357000053570000535700005357000006
:1022300053570000535700005357000053570000f6
:1022400053570000535700005357000053570000e6
:1022500053570000535700005357000053570000d6
:020000040000fa
:10226000f8b500bff8bc08bc9e467047ad850000bd
:10227000f8b500bff8bc08bc9e46704789850000d1
:020000040000fa
:102280002de9f04fafb03222002121a806f0d4fd95
:10229000ac4b1d7815b92fb0bde8f08f2a46aa497e
:1022a00021a806f0cdfc0023a64a1370a74a1268a5
:1022b0001c92a74a52691192a64a12780e92a64918
:1022c000ca790f92a54a12780c92a54a52691892bf
:1022d000a44a12681292a44a12781a92a34a526926
:1022e0001592a34a526914928a790a924a790892fd
:1022f0000a79069291f801a09e4a1278c878049053
:10230000887803900e789c4991f800b09b4991f829
:10231000008021ac013d0df1850151fa85f51f9337
:102320001e931d9310931b93199316931793139356
:102330000b93099307930d93059302930193994689
:102340001f4600931fe2a1f141030f2b11d8dfe8d4
:1023500013f03d0210003d023d023d02100010004e
:1023600010001000100010001000100010001000ed
:102370003d020123002203e2442e0bd0452e0fd054
:10238000432e13d0412e17d1642900f0348201234b
:102390000022f5e1642900f01f8201230022efe111
:1023a000642900f01e8201230022e9e1642900f083
:1023b0001d8201230022e3e1502e04d18a4601232d
:1023c00001930322dce101230022d9e1442e0cd049
:1023d000452e11d0432e16d0412e1bd1baf1640fd9
:1023e00000f01d8201230022cae1baf1640f00f05f
:1023f000078201230022c3e1baf1640f00f00582d5
:1024000001230022bce1baf1640f00f00382012332
:102410000022b5e1502e04d103910123029304223e
:10242000aee101230022abe1442e0ad0452e0fd0ad
:10243000432e14d0412e19d0502e1ed0012300223d
:102440009ee1baf1640f00f0ef810123002297e1d1
:10245000baf1640f00f0ed810123002290e1baf19e
:10246000640f00f0eb810123002289e1baf1640fcf
:1024700000f0e9810123002282e13a2900f0e8819d
:102480003d2900f0ec810123002279e1442e0cd09b
:10249000452e11d0432e16d0412e1bd1baf1640f18
:1024a00000f0f181012300226ae1baf1640f00f02b
:1024b000db810123002263e1baf1640f00f0d981ce
:1024c000012300225ce1baf1640f00f0d7810123ff
:1024d000002255e1502e04d10691012307930622d4
:1024e0004ee1012300224be1442e0cd0452e11d0a9
:1024f000432e16d0412e1bd1baf1640f00f0d781c4
:10250000012300223ce1baf1640f00f0c1810123f4
:10251000002235e1baf1640f00f0bf8101230022ef
:102520002ee1baf1640f00f0bd810123002227e102
:10253000502e04d1089101230993072220e10123a1
:1025400000221de1683f0220403c0220983f02200b
:10255000603d0220703f0220ec3a0220653f0220dd
:10256000c03d0220a03f02208f3f0220803d02207c
:10257000e03d0220643f0220823f0220813f022092
:10258000442e0cd0452e11d0432e16d0412e1bd1f7
:10259000baf1640f00f09f8101230022f0e0baf14c
:1025a000640f00f0898101230022e9e0baf1640f91
:1025b00000f0878101230022e2e0baf1640f00f00d
:1025c000858101230022dbe0502e04d10a910123f2
:1025d0000b930822d4e001230022d1e0442e0cd03a
:1025e000412e32d0452e5cd0432e79d1baf1640f02
:1025f00000f0768101230022c2e0baf1640f02d01c
:1026000001230022bce04b2902d001230022b7e0c5
:10261000049b202b0cd00a9a0699049806f098fb8c
:1026200014900123179313931e2212920022a7e005
:10263000069b303bdbb203eb83030a9a303a02eb92
:10264000430303f0ff031493ebe7baf1640f02d0e6
:102650000123002294e04b2902d0012300228fe0c5
:10266000069b2e2b05d0089b2e2b11d00123002278
:1026700086e0049b303bdbb203eb8303089a303add
:1026800002eb430303f0ff03159301231693ede7d9
:102690000a9a0699049806f05bfb1590012316939d
:1026a000e4e7baf1640f02d00123002268e0442974
:1026b00002d00123002263e00a9a0899069806f0e6
:1026c00047fb1890039b502b14bf002301231a9340
:1026d00001231b93199313931e22129200224fe0a1
:1026e000502e06d10f91012310930d930c930022cd
:1026f00046e00123002243e0baf1640f02d0012337
:1027000000223de0462902d00123002238e0049b4c
:10271000202b12d0039b202b20d00e9b03f0df0335
:1027200043f040030e930023119301231f931e9344
:102730001d931e221c92002222e0069b303bdbb23e
:1027400003eb83030a9a303a02eb430303f0ff03df
:1027500011930e9b03f09f030e93e6e70a9a0699e6
:10276000049806f0f5fa11900e9b03f09f030e9368
:10277000dbe701274ff000080097c3463b463a4687
:10278000ac4200f0b28014f8011b2429f1d0012ad8
:102790003ff4d9ad022a3ff4efad032a3ff416ae61
:1027a000042a3ff441ae052a3ff470ae062a3ff4f6
:1027b0009bae072a3ff4e4ae082a3ff40faf092a84
:1027c000ded1432e98d001230022d9e70e464ff0e8
:1027d00001094b460222d3e78a46012301930322d3
:1027e000cee78a46012301930322c9e78a460123e3
:1027f00001930322c4e78a46012301930322bfe722
:102800000391012302930422bae703910123029367
:102810000422b5e70391012302930422b0e7039158
:10282000012302930422abe70491012305930522bf
:10283000a6e70491012305930522a1e70491012352
:10284000059305229ce7049101230593052297e750
:10285000049101230d930c930593002290e70491ba
:102860000123059305228be7069101230793062296
:1028700086e7069101230793062281e7069101234b
:10288000079306227ce7069101230793062277e748
:10289000089101230993072272e708910123099304
:1028a00007226de7089101230993072268e7089141
:1028b00001230993072263e70a9101230b9308225e
:1028c0005ee70a9101230b93082259e70a9101233d
:1028d0000b93082254e70a9101230b9308224fe738
:1028e0000f910123109309224ae70bb1394b1a705b
:1028f000009b13b1384b83f800b017b1374b83f806
:102900000080b9f1000f01d0354b1e70019b13b14f
:10291000334b83f801a0029b002b3ad1059b002b7f
:102920003bd10d9b002b3cd1079b002b3dd1099b3c
:10293000002b3ed10b9b002b3fd1139b002b40d192
:10294000179b002b41d1169b13b1264b159a5a6148
:10295000199b13b1244b189a5a611b9b13b1234b3b
:102960001a9a1a70109b13b11d4b0f9ada711d9ba6
:1029700013b11f4b1c9a1a601e9b13b11d4b0e9a6c
:102980001a701f9b002b3ff486ac1b4b119a5a61a7
:1029900081e4134b039a9a70c0e7114b049ada70e2
:1029a000bfe7164b0c9a1a70bee70d4b069a1a71c8
:1029b000bde70b4b089a5a71bce7094b0a9a9a710a
:1029c000bbe70f4b129a1a60bae70e4b149a5a6182
:1029d000b9e700bf643f0220823f0220813f02200e
:1029e000ec3a0220803d0220c03d02208f3f0220b1
:1029f000983f0220703f0220603d0220653f022088
:082a0000a03f0220e03d02208e
:020000040000fa
:102a08002de9f04f2ded0a8b9bb0012006f023fa3b
:102a180020b91bb0bdec0a8bbde8f08f012006f091
:102a28009ffa002006f0a4f882460028f1d000247e
:102a38004ff000084ff000099fed9f8b9feda09b82
:102a48009feda1cb9feda2bb9feda3abbde150795c
:102a5800ff2868d006f0fef853ec182b03f0b0fe00
:102a6800804689469e4b187906f0f4f842464b4654
:102a780002f032fb53ec192b03f0a2fe8046894684
:102a880006f022f8974b5860974b01229a72974ba1
:102a98001e221a80964b9e4240f0db81dff840826e
:102aa80098f8020006f0d6f853ec182b03f088fecd
:102ab80006460f4698f8010006f0ccf832463b4629
:102ac80002f00afb53ec192b03f07afe05f0fcff29
:102ad800884b586098f8040006f0bcf853ec182ba3
:102ae80003f06efe06460f4698f8030006f0b2f8ab
:102af80032463b4602f0f0fa53ec1c2b03f060fe22
:102b08008046894605f0e0ff7b4b5860b42831d9f0
:102b18007a4b01221a70c0f5b470774b5860784b25
:102b28001e221a6095e16f4b00225a60b2e7754b7e
:102b38009e42afd16a4eb07806f08cf853ec182b51
:102b480003f03efe42464b4602f0c6fa80468946ee
:102b5800707806f07ff842464b4602f0bdfa53ec17
:102b68001b2b03f02dfe8046894605f0adff664b12
:102b780058606ee1614b00221a70d0e7584b1b7801
:102b8800032b0fd0042b13d0022b40f065815f4b31
:102b98001988022005f074ff5d4b1988052005f09f
:102ba8006fff59e15b4b1988082005f069ff53e175
:102bb800594b1b78c3f58073584aa2f8483050e146
:102bc800474b1b78ca2b22d0554b1b78962b4ad0e3
:102bd800542b40f05381bbf1ef0f45d0404bd978cf
:102be800504a11701978504a117099794f4a1170ea
:102bf80059794f4a117019794e4a1170d9793a4a60
:102c0800537c23f0700343ea41135374d8e0344be8
:102c18005b78ca2bd8d1324b9b78c12b07d0c22bfb
:102c28000ad0cd2bd0d1444b04221a70cce705f042
:102c38001bfc05f05bfb14e105f0d8fd05f056fb25
:102c48000fe105f099fd11e1992bbfd13a4b012213
:102c58001a70334b1b78802b40f09e812f4bda8ff4
:102c6800364b1a70ace0fee71d4b1b78012b6dd07c
:102c7800022bb3d11a4b5b78aa2bafd1184bdb7858
:102c8800012b00f02e815ab2002a00f01b81022b82
:102c980000f03c812a4b02221a70bb225a70104a5b
:102ca80091789970d278da70264b274a1a6004f026
:102cb80079ff70e0aff300800000000000e06f4093
:102cc8006c216d8896e1c83f427bf5f1d077773f5c
:102cd800f865bbdee577773f0f0bb5a6796740400f
:102ce80034f50020803d02203c4f0120a43f022003
:102cf80002fd0100e03d0220c03d02208f3f02207e
:102d0800a03f022012f10100543e0220f43b0220b1
:102d1800c43e0220cc3e0220a83f022038f4002006
:102d2800563f0220793f0220713f0220803f022057
:102d38007f3f02207e3f0220633f0220673f022040
:102d480030d60020d83e0220f054ef007f4b5b784d
:102d5800aa2b7ff443af7e4b00221a715a719a71e5
:102d6800da717a4bda78012a00f0948053b2002b9a
:102d780000f08980022a00f09780754b01211970b4
:102d8800bb215970714989789970da70714b724a10
:102d98001a6004f007ff714b1b78562b40f0d18066
:102da8006f4b1879694b59781a7802eb01226d49f3
:102db80041f8202099786c4a1170da786b4b1a70b8
:102dc8000134e3b29a457ff624ae002006900790be
:102dd8000890099006aa012104f08afd0028efd086
:102de8005a4a08ab03cb10605160069bc3f3112607
:102df8005f4b1e605f4b1e709df81850574b1d703f
:102e08009df81ab05c4b9e423ff421ae5b4b9e424c
:102e18007ff48dae4d4b1979da7802eb01219a785f
:102e280002eb0122587800eb022005f013ff53ec67
:102e38001a2b03f0c5fc8046894605f045fe504b29
:102e48005860504a137823f0200313704e4b1e220b
:102e58001a60912d3ff492ae404b1b78902b3ff4b3
:102e6800afae3e4b1b78932b3ff4ebae3b4b1b783e
:102e7800972b7ff4e9ae454b01221a70374b1b782c
:102e8800562b8dd0e7e6314b9b783549c95c304be2
:102e9800197172e72d4b99783d4b33f811302c4955
:102ea8000b711b0a4b7168e7284b9978394b53f81b
:102eb800213027490b71180a4871180c88711b0eac
:102ec800cb715ae7214d2979a87805f041fe204bae
:102ed800aa7823498a5c1a7100225a719a71da71a8
:102ee800d8e61a4d6b79297901eb032189b2a878c4
:102ef80005f0c6fdaa78264b33f81220144b1a7138
:102f0800120a5a7100229a71da71c3e60f4dea79f2
:102f1800ab7903eb02226b7903eb0223297901ebee
:102f28000321a87805f0befdaa781a4b53f8223081
:102f3800074a1371190a5171190c91711b0ed3713b
:102f4800a8e6542b3ff44aae85e600bf34f50020ce
:102f580030d60020d83e0220f054ef00563f022021
:102f68003c4f0120543e0220a73e0220ae3e0220e4
:102f7800e83e0220573f022002f801000bf501004d
:102f8800603d0220703f0220983f0220883f0220c7
:102f980038f40020583d002003f17f02d2b2022a03
:102fa8003ff60eaf564a1278d22a3ff409af03f023
:102fb8000f05013dedb2534b1d70534b534e327804
:102fc80003f8152003eb4503514ad28f5a70f37862
:102fd800b07800eb03204f4b186005f03bfe02462b
:102fe8000b46717811f0010f05d0009203f10043f0
:102ff8000193dde90023484e6f00791906ebc10102
:103008004348b0f8620091ed001b43ec102b05f02b
:1030180007fa3d4406ebc50686ed000b3b4d6b7980
:10302800287900eb03203b4b186005f013fe02469d
:103038000b46697811f0020f05d0029203f10043a4
:103048000393dde902232f490f78334d7e00f119f0
:1030580005ebc1012e48b0f8620091ed021b43ec6c
:10306800102b05f0ddf93e4405ebc60585ed020b96
:10307800264deb79a87900eb0320264b186005f064
:10308800e9fd804689466b7813f0040f05d004905b
:1030980001f100430593dde904891a4f97f800b060
:1030a8001d4d4fea4b0606eb0b0305ebc303184a0d
:1030b800b2f8620093ed041b49ec108b05f0b0f9ef
:1030c8005e4405ebc60585ed040b3b78012b10d05b
:1030d8005ab242b1022b7ff473ae104a137823f030
:1030e800040313706ce60d4a137823f00103137080
:1030f80066e60a4a137823f00203137060e600bffd
:10310800573f0220723f0220a83e022034f50020db
:1031180038f40020f83e0220f83b02205f3f0220ee
:020000040000fa
:103128002de9f843132800f22783dfe810f0140094
:1031380069008d00b100d500f9001d01410165014c
:103148008901bd01e101050229024d0271029502c2
:10315800b902dd020103ce4b186805f07bfd044679
:103168000d46cc4eb08805f075fd02460b4620464c
:10317800294605f001ff04460d46c74b186805f0bf
:1031880069fd80468946308a05f064fd02460b4693
:103198004046494605f0f0fe06460f460022002349
:1031a8002046294605f056fb002840f0ea822246d0
:1031b8002b463046394602f0bdf941ec100b02f0bf
:1031c800bbfd51ec100bb0a3d3e9002303f0f8fad0
:1031d80004460d460022b14b01f07eff05f074fc59
:1031e800af4b1870ab4bb3f8480005f07ffc224694
:1031f8002b4601f071ff05f067fcc0b2bde8f8830b
:10320800a34b186805f026fd04460d46a14eb0886c
:1032180005f020fd02460b462046294605f0acfe87
:1032280004460d46308a05f015fd06460f469a4bb2
:10323800186805f00ffd02460b463046394605f082
:103248009bfe06460f46a9e7914b186805f002fd5c
:1032580004460d468f4eb08805f0fcfc02460b462e
:103268002046294605f088fe04460d468d4b186811
:1032780005f0f0fc80468946708905f0ebfc0246b3
:103288000b464046494605f077fe06460f4685e759
:103298007f4b186805f0defc04460d467d4eb0886d
:1032a80005f0d8fc02460b462046294605f064fe88
:1032b80004460d46708905f0cdfc06460f46794b4d
:1032c800186805f0c7fc02460b463046394605f03b
:1032d80053fe06460f4661e76e4e308a05f0bafc8b
:1032e80004460d466c4b186805f0b4fc02460b46c4
:1032f8002046294605f040fe04460d46694b1868ed
:1033080005f0a8fc80468946708905f0a3fc0246b2
:103318000b464046494605f02ffe06460f463de758
:103328005c4e308a05f096fc04460d465a4b1868e8
:1033380005f090fc02460b462046294605f01cfe87
:1033480004460d46708905f085fc06460f46554b28
:10335800186805f07ffc02460b463046394605f0f2
:103368000bfe06460f4619e74a4e308a05f072fcf6
:1033780004460d46484b186805f06cfc02460b469f
:103388002046294605f0f8fd04460d46404b1868ce
:1033980005f060fc80468946b08805f05bfc024673
:1033a8000b464046494605f0e7fd06460f46f5e65a
:1033b800384e308a05f04efc04460d46364b1868e8
:1033c80005f048fc02460b462046294605f0d4fd88
:1033d80004460d46b08805f03dfc06460f462c4bca
:1033e800186805f037fc02460b463046394605f0aa
:1033f800c3fd06460f46d1e6274b186805f02afca0
:1034080004460d46234e308a05f024fc02460b463e
:103418002046294605f0b0fd04460d46214b1868a4
:1034280005f018fc80468946708905f013fc0246b1
:103438000b464046494605f09ffd06460f46ade659
:10344800154b186805f006fc04460d46114e308ae7
:1034580005f000fc02460b462046294605f08cfd87
:1034680004460d46708905f0f5fb06460f460d4be0
:10347800186805f0effb02460b463046394605f062
:103488007bfd06460f4689e612143fc6dca54c4074
:10349800f43b022038f40020cc3e022000006040bb
:1034a800a83f0220c43e0220b74b186805f0d2fba3
:1034b80004460d46b54e308a05f0ccfb02460b4655
:1034c8002046294605f058fd04460d46b04b1868bd
:1034d80005f0c0fb80468946b08805f0bbfb024674
:1034e8000b464046494605f047fd06460f4655e659
:1034f800a54b186805f0aefb04460d46a34e308a6e
:1035080005f0a8fb02460b462046294605f034fd87
:1035180004460d46b08805f09dfb06460f469c4bb9
:10352800186805f097fb02460b463046394605f009
:1035380023fd06460f4631e6964b186805f08afbd0
:1035480004460d46914e708905f084fb02460b46f1
:103558002046294605f010fd04460d468a4b18689a
:1035680005f078fb80468946308a05f073fb0246f1
:103578000b464046494605f0fffc06460f460de659
:10358800844b186805f066fb04460d467f4e70892b
:1035980005f060fb02460b462046294605f0ecfc88
:1035a80004460d46308a05f055fb06460f46764b15
:1035b800186805f04ffb02460b463046394605f0c1
:1035c800dbfc06460f46e9e5724b186805f042fb3e
:1035d80004460d466d4e708905f03cfb02460b46cd
:1035e8002046294605f0c8fc04460d46684b186875
:1035f80005f030fb80468946b08805f02bfb024673
:103608000b464046494605f0b7fc06460f46c5e559
:10361800604b186805f01efb04460d465b4e70892a
:1036280005f018fb02460b462046294605f0a4fc87
:1036380004460d46b08805f00dfb06460f46544b70
:10364800186805f007fb02460b463046394605f078
:1036580093fc06460f46a1e54c4e708905f0fafa30
:1036680004460d464b4b186805f0f4fa02460b4623
:103678002046294605f080fc04460d46424b186852
:1036880005f0e8fa80468946308a05f0e3fa0246f2
:103698000b464046494605f06ffc06460f467de559
:1036a8003a4e708905f0d6fa04460d46394b18682b
:1036b80005f0d0fa02460b462046294605f05cfc88
:1036c80004460d46308a05f0c5fa06460f462e4bcd
:1036d800186805f0bffa02460b463046394605f031
:1036e8004bfc06460f4659e5284e708905f0b2fa9c
:1036f80004460d46274b186805f0acfa02460b46ff
:103708002046294605f038fc04460d46204b18682b
:1037180005f0a0fa80468946b08805f09bfa024673
:103728000b464046494605f027fc06460f4635e558
:10373800164e708905f08efa04460d46154b18682a
:1037480005f088fa02460b462046294605f014fc87
:1037580004460d46b08805f07dfa06460f460c4b28
:10376800186805f077fa02460b463046394605f0e8
:1037780003fc06460f4611e50026002734463d4661
:103788000ce5002000211ee5cc3e022038f4002084
:08379800f43b0220c43e0220b4
:020000040000fa
:1037a000003e02205400000000000000723c022095
:1037b0000200000000000000843e02200c00000017
:1037c00000000000a33b02200100000000000000f8
:1037d000343d02202c00000000000000743c022058
:1037e0009000000000000000a63e02200100000042
:1037f00000000000f43b0220040000000000000074
:10380000c03e02201400000000000000a73e02207d
:103810000100000000000000ae3e02200200000097
:1038200000000000b63e0220020000000000000080
:10383000be3e02200100000000000000d43e022035
:103840000400000000000000bf3e02200100000054
:1038500000000000e9240220030000000000000036
:10386000513f02200200000000000000ec34022062
:103870000004000000000000533f0220030000008d
:10388000000000009a3e022002000000000000003c
:10389000d83e02200400000000000000563f022035
:1038a0000200000000000000543e02201000000052
:1038b00000000000603d0220200000000000000029
:1038c000583f02200100000000000000593f022084
:1038d0000200000000000000803d022020000000e7
:1038e00000000000643e0220100000000000000004
:1038f0005b3f022002000000000000005d3f02204c
:103900000200000000000000dc3e02200800000071
:10391000000000005f3f02200100000000000000e6
:10392000603f02200200000000000000503b022027
:103930005300000000000000623f02200100000070
:1039400000000000e43e022004000000000000002f
:10395000633f02200100000000000000e83e02205a
:103960000400000000000000643f0220010000008d
:1039700000000000653f022002000000000000007f
:10398000f83b02204800000000000000a83e022092
:103990000600000000000000043d0220300000008e
:1039a00000000000673f022001000000000000004e
:1039b000ec3a02206400000000000000683f022092
:1039c0000200000000000000403c02203200000025
:1039d00000000000b03e02200600000000000000d1
:1039e0006a3f022002000000000000006c3f02203d
:1039f0000100000000000000a03d022020000000a7
:103a0000000000006d3f02200100000000000000e7
:103a10006e3f022001000000000000006f3f022006
:103a20000100000000000000ec3e02200800000041
:103a300000000000703f02200100000000000000b4
:103a4000c03d02202000000000000000e03d0220f8
:103a50002000000000000000713f02200100000073
:103a600000000000723f0220010000000000000082
:103a7000733f02200300000000000000f43e02201b
:103a80000400000000000000f83e022004000000d6
:103a900000000000763f022001000000000000004e
:103aa000fc3e02200400000000000000773f0220de
:103ab0000100000000000000003f02200c00000098
:103ac00000000000783f022001000000000000001c
:103ad0000c3f02200400000000000000103f022004
:103ae0000400000000000000793f022001000000f7
:103af000000000007a3f02200100000000000000ea
:103b0000143f022004000000000000007b3f022060
:103b10000100000000000000183f02200400000027
:103b2000000000001c3f0220040000000000000014
:103b30007c3f022001000000000000007d3f0220c9
:103b400002000000000000007f3f02200100000092
:103b500000000000803f0220010000000000000083
:103b6000813f02200300000000000000843f02208b
:103b70000300000000000000873f02200100000059
:103b800000000000903e02200a000000000000003b
:103b9000503f022001000000000000009c3e022077
:103ba0000a00000000000000883f02200100000021
:103bb00000000000203f022008000000000000007c
:103bc000893f02200100000000000000283f022081
:103bd00004000000000000008a3f022001000000f5
:103be000000000008b3f02200100000000000000e8
:103bf0002c3f022004000000000000008c3f022047
:103c000001000000000000008d3f022002000000c3
:103c100000000000303f022004000000000000000f
:103c20008f3f02200100000000000000343f02200e
:103c30000400000000000000903f0220010000008e
:103c400000000000a63f022001000000010000006b
:103c500001000000983f0220040000000100000065
:103c60001e000000a73f022001000000010000002c
:103c700005000000a43f0220020000000100000037
:103c80001e0000009c3f0220040000000100000014
:103c9000a08c0000a83f02200100000001000000ed
:103ca00080000000a03f022004000000010000008e
:103cb0001e00000010000020a0e501000000000030
:103cc000a93f0220010000000100000001000000e7
:103cd000b0e501202c1f000000000000913f0220f1
:103ce0000200000000000000383f02200400000035
:103cf00000000000dc0402200d2000000000000095
:103d00003c3f02200400000000000000ec380220cc
:103d10000002000000000000933f022001000000ac
:103d200000000000403f02200800000000000000ea
:103d3000943f02200100000000000000ec2402205b
:103d40000010000000000000953f0220020000006b
:103d500000000000743e022010000000000000007f
:103d6000973f02200100000000000000b83e022042
:103d70000600000000000000483f02200400000090
:103d800000000000a43b02205000000000000000e2
:103d90004c3f022004000000000000000000000072
:103da000000000006666666666666666666666664b
:020000040000fa
:103db00000b583b000238df80730a04b1878142885
:103dc00000f20082dfe810f0150020003a005300f6
:103dd0006c0085009e00b900d300ed0007012101b1
:103de0005c0177019101ab01c501df01fe01fe011c
:103df000f9010023924a1370924a13608f4b0122fb
:103e00001a7003b05df804fb8d4b01221a7004f0a8
:103e10009ffd03f001ff08b90020f2e78a498b4bb0
:103e2000186804f067f98a4b18700028e9d0834bb2
:103e300002221a700020834b1860e2e704f088fd2c
:103e400003f0eafe08b90020dbe7804b18688149df
:103e500000f5f05004f04ef97d4b18700028d0d0da
:103e6000764b03221a700020764b1860c9e704f0e5
:103e70006ffd03f0d1fe08b90020c2e7734b18684c
:103e8000754900f5705004f035f9714b1870002831
:103e9000b7d06a4b04221a7000206a4b1860b0e752
:103ea00004f056fd03f0b8fe08b90020a9e7674bff
:103eb00018686a4900f5b44004f01cf9644b1870a6
:103ec00000289ed05d4b05221a7000205d4b1860c3
:103ed00097e704f0e5f98df8070004f039fd03f0e9
:103ee0009bfe08b900208ce701220df107015c4b15
:103ef000186804f027fa514b06221a700020514b23
:103f000018607ee74e4b01221a7004f021fd03f089
:103f100083fe08b9002074e75249534b186804f037
:103f2000e9f84b4b187000283ff46baf434b072266
:103f30001a700020434b186063e704f009fd03f09a
:103f40006bfe08b900205ce7474b1868474900f54d
:103f5000f05004f0cff83e4b187000283ff451affa
:103f6000364b08221a700020364b186049e704f0df
:103f7000effc03f051fe08b9002042e73a4b186805
:103f80003b4900f5705004f0b5f8314b187000282b
:103f90003ff437af294b09221a700020294b1860d3
:103fa0002fe704f0d5fc03f037fe08b9002028e71e
:103fb0002d4b18682f4900f5b44004f09bf8244bb2
:103fc000187000283ff41daf1c4b0a221a70002005
:103fd0001c4b186015e704f0bbfc03f01dfe08b98c
:103fe00000200ee7204b1868234900f5f04004f04c
:103ff00081f8174b187000283ff403af0f4b0b22ca
:104000001a7000200f4b1860fbe603f069fe8df874
:10401000070004f09dfc03f0fffd08b90020f0e666
:1040200001220df10701154b186804f08bf9034bc1
:104030000c221a700020034b1860e2e6863f022033
:10404000903f0220e43e022038d60020143f022098
:104050005a3f02203c310120608b01203cf50020ba
:10406000183f0220685b0020043f0220581f0020f8
:10407000604f01206879002030b80020083f0220fe
:10408000514b01221a7004f063fc03f0c5fd08b91e
:104090000020b6e64d494e4b186804f02bf84d4b06
:1040a000187000283ff4adae4b4b0d221a70002063
:1040b0004a4b1860a5e604f04bfc03f0adfd08b9cf
:1040c00000209ee6424b1868454900f5f05004f088
:1040d00011f8404b187000283ff493ae3e4b0e226f
:1040e0001a7000203d4b18608be604f031fc03f0a1
:1040f00093fd08b9002084e6354b1868394900f56e
:10410000705003f0f7ff334b187000283ff479ae7e
:10411000314b0f221a700020304b186071e604f00a
:1041200017fc03f079fd08b900206ae6284b1868ef
:104130002d4900f5b44003f0ddff264b1870002830
:104140003ff45fae244b10221a700020234b1860fe
:1041500057e604f0fdfb03f05ffd08b9002050e6d0
:104160001b4b1868214900f5f04003f0c3ff194bc1
:10417000187000283ff445ae174b11221a7000202a
:10418000164b18603de603f0ddfd8df8070004f0e6
:10419000dffb03f041fd08b9002032e601220df1fa
:1041a0000701134b186804f0cdf80b4b14221a705a
:1041b0000a4b00221a60012023e6034b00221a70ea
:1041c00001201ee600201ce6903f022060a901208d
:1041d000fc3e02205a3f0220863f0220e43e02209d
:1041e00060c70120606d01203c130120683d002064
:0441f000003f02206a
:020000040000fa
:1041f4002de98848b84b86221a70002004f0a0faf2
:1042040004f058f9b54c4ff48053a3610823a3611b
:104214000021b34804f090fe0021b24804f07afe75
:104224000021b14804f082feb04803f07ff8b048a2
:1042340002f0deff0021af4804f05afe4ff00066a2
:10424400a6614ff40065c4f898504ff48063a360ee
:1042540004f070fc4ff40003c4f898304ff080432e
:10426400c4f898304ff48003c4f898304ff48013a6
:10427400a36104f02ffd1d2004f096fd01279e4b41
:104284001f7004f00ffd04f0f5fc6661c4f894504f
:104294004ff40053a3612023c4f898304ff4004333
:1042a400c4f884304ff40013a3611023c4f8983089
:1042b4000a21924804f0e6f90a21914804f0a2f98f
:1042c4003946904804f0bef9a661c4f898508e4e61
:1042d400dff88482dff884924c461be07f4b4ff07a
:1042e40000629a614ff40062c3f8982004f058fb0e
:1042f40004f06afb04f006fd04f010fd04f066fc13
:1043040004f056fc814b01221a7000f057fc04f0b3
:1043140011fd00bf04f01cfe20b17c4b1b78002b68
:10432400f3d1dbe73378002bf4d0002333701d2066
:1043340004f03afdfef766fb98f800301bb1013b30
:1043440088f80030e6e702f043fc04f0b7fc00bf55
:1043540004f086fb0028fbd06d4b5878fef7e2fe94
:104364006c4d0122296804f0edfdc0b228606a4b4f
:104374001b78002b3ed100f021fc00f0cfff00f0b1
:1043840023f9664b1b68002b39d0013b634a136049
:10439400634b1b7813b1013b614a1370614b1b687b
:1043a40013b1013b5f4a13605f4b1b6813b1013bc0
:1043b4005d4a13605d4b1b78002b44d102f0aefdc7
:1043c4000a2388f8003004f0b5fc594b1b7803f03d
:1043d400a003a02b00f0c480404b40229a6120220d
:1043e4009a6110229a61524a1378434909780b441e
:1043f40013708fe7fdf742ff02f0c0fcbbe7474ba9
:1044040048f6a0421a604b4a5368013353604a4a43
:10441400137801331370494b1b7813f0400f02d10a
:1044240013f0800f03d0434a136801331360444be5
:1044340002221a70434b00221a70434b06221a7050
:1044440003f056ffa4e704f0d3fa00203f4b1860b2
:104454003f4f4ff02c0a9b462ae000233b70012576
:1044640005e03b780133dbb23b70172b0ad889f89f
:1044740000a02946204603f0b1fd0028f1d104f044
:1044840059fcf6e74ff02c0389f8003001e004f002
:1044940051fc0121204603f0a1fd0028f7d004f0cf
:1044a400a7fadbf800000130cbf800009f280fd8f2
:1044b400284b186003f05af83a2389f80030012198
:1044c400204603f08bfd0028c7d104f033fcf6e747
:1044d400164b00221a7071e7893f022000800041c8
:1044e4003d7b0000cd7a000001850000101e0020f5
:1044f40060e50120c18d0000a63f02209c3e022001
:10450400903e0220503f0220763f0220af3e022020
:104514003c4f0120643e02208b3f02209c3f02203e
:104524007d3f0220103f0220283f0220883f0220c6
:104534007a3f0220583d00206a3f02205d3f02205e
:10454400633f0220863f0220583f02202c3f022076
:104554008e3f0220f83e02208c3f02208d3f022035
:10456400144b1b7893b9144b1b78ebb9134b1b7882
:10457400134a12781a4314d0124a10215161002ba5
:104584003ff431af0f4b40225a612ce704f014f989
:104594000a4b1b78002b3ff426af0a4b10225a61ba
:1045a40021e704f009f91ee7064b10225a61202284
:1045b4005a6118e7ea240220593f0220eb24022022
:0845c400693f02200080004164
:020000040000fa
:1045cc00f8b5a04b1b7cdb089f4a137003f0030368
:1045dc009e4a13709e4b1b78072b16d8dfe813f0fe
:1045ec000800610081008900a800ce00f7002001be
:1045fc0004f084fb954b1b78012b20d05ab22ab1c6
:10460c00022b35d0934b00221a70f8bd924b4ff40d
:10461c0000721a60914b4ff4b5321a60904b4ff404
:10462c004b321a608f4b4ff4f6721a608e4b40f27d
:10463c00ef121a608d4b4ff4f9721a60e2e7864b59
:10464c004ff4f4421a60854b4ff400321a60844bdd
:10465c0002f5e1321a60834b40f2ed121a60824b84
:10466c004ff4f8721a60814b40f2f3121a60c9e7ea
:10467c00794b4ff472421a60784b02f5d2321a60c1
:10468c00774b4ff48b221a60764b4ff4f7721a600b
:10469c00754b40f2f1121a60744b4ff4fa721a60b7
:1046ac00b0e700f00df901280dd002280fd0032837
:1046bc00abd1674b07221a706d4b40221a706d4bb1
:1046cc0004221a70a1e7624b07221a709de7604b17
:1046dc0007221a70664b10221a70664b04221a704d
:1046ec0093e7fff75ffb01288fd1594b07221a7014
:1046fc008be7614800f5f05200f5fa50002102e01a
:10470c000232904207d0a2f5f053198003f5a07342
:10471c009342fad1f4e7594b18221a70584ba02245
:10472c001a604b4b02221a704a4b00221a706ce72b
:10473c005449554d554c504801f5a076002205e0e2
:10474c0002310235023402308e420ad00023ca52a2
:10475c00ea52e252c25203f5a073b3f5f05ff6d100
:10476c00eee7464b18221a70454ba0221a60384bc4
:10477c0005221a70374b00221a7046e74449454e01
:10478c00454d464c464801f5a077002206e0023123
:10479c000236023502340230b9420bd00023ca5221
:1047ac00f252ea52e252c25203f5a073b3f5f05f33
:1047bc00f5d1ece7314b18221a70314ba0221a605c
:1047cc00234b06221a70234b00221a701de7354921
:1047dc00354e364d364c374801f5a077002206e0b1
:1047ec0002310236023502340230b9420bd00023ba
:1047fc00ca52f252ea52e252c25203f5a073b3f516
:10480c00f05ff5d1ece71d4b18221a701c4ba0225f
:10481c001a600f4b02221a700e4b00221a70f4e62b
:10482c00254b01221a70254b4ff000625a614ff450
:10483c000062c3f894204ff480525a6104f052fa8b
:10484c00e3e600bf3c4f0120723f0220843f022070
:10485c00633f0220863f0220143f0220fc3e0220d0
:10486c00043f0220183f0220003f0220083f022094
:10487c00593f0220a63f02203cf500208e3f02202b
:10488c002c3f022038d600203c310120608b0120c7
:10489c0060a9012060c70120606d01203c1301203c
:1048ac00683d0020685b0020581f0020604f0120ed
:1048bc006879002030b800208b3f02200080004136
:020000040000fa
:1048cc0010b5a04b1c78142c00f23a81dfe814f0e0
:1048dc00150021002e003c004a0070007c0089006d
:1048ec009700a500b300d200de00eb00f900070131
:1048fc00150138013801380134014ff4f052924956
:10490c00924b186803f068f88e4b01221a702046ff
:10491c0010bd8e4b18684ff4f0528d49104403f0c3
:10492c005bf8884b02221a700024f0e7874b18685a
:10493c004ff4f052874900f5705003f04df8814b5d
:10494c0003221a700024e2e7804b18684ff4f052ef
:10495c00814900f5b44003f03ff87a4b04221a70f9
:10496c000024d4e703f096fca0b97c4c012221462c
:10497c007b4b186802f0f6ff03f08cfc794b187037
:10498c0003f088fc2378834207d16e4b05221a7002
:10499c000024bce704f0caf9e7e7734b20221a7035
:1049ac00724b04221a70674b14221a700224aee761
:1049bc004ff4f0526e496f4b186803f00df8614bd1
:1049cc0006221a700024a2e76a4b18684ff4f052c2
:1049dc006949104403f000f85a4b07221a7000245e
:1049ec0095e7644b18684ff4f052644900f5705029
:1049fc0002f0f2ff534b08221a70002487e75d4b3c
:104a0c0018684ff4f0525e4900f5b44002f0e4ff30
:104a1c004c4b09221a70002479e7564b18684ff456
:104a2c00f052584900f5f04002f0d6ff454b0a22ef
:104a3c001a7000246be703f04df980b9524c012237
:104a4c002146524b186802f08dff03f043f923788e
:104a5c00834207d13b4b0b221a70002457e704f01a
:104a6c0065f9ebe7404b20221a70364b14221a7072
:104a7c0003244ce74ff4f0524549464b186802f0ba
:104a8c00abff304b0c221a70002440e7414b1868e6
:104a9c004ff4f0524049104402f09eff294b0d2276
:104aac001a70002433e73b4b18684ff4f0523b4923
:104abc0000f5705002f090ff224b0e221a70002469
:104acc0025e7344b18684ff4f052354900f5b440e3
:104adc0002f082ff1b4b0f221a70002417e72d4b9c
:104aec0018684ff4f0522f4900f5f04002f074ffb3
:104afc00144b10221a70002409e703f01df998b921
:104b0c00294c01222146294b186802f02bff03f097
:104b1c0013f9237883420ad0134b20221a70094bc5
:104b2c0014221a700324f2e604f000f9e8e7054bae
:104b3c0014221a700124eae600241d4b1c70e6e6d0
:104b4c000024e4e6853f022038d60020143f0220e2
:104b5c003c310120608b01203cf500207b3f022082
:104b6c00183f02208a3f0220593f0220a63f022014
:104b7c00685b0020043f0220581f0020604f01207a
:104b8c006879002030b80020783f0220083f0220ce
:104b9c0060a90120fc3e022060c70120606d01204d
:104bac003c130120683d0020773f0220003f02208b
:044bbc00903f022004
:020000040000fa
:104bc000f8b502f05bfe914bd3f8a03013f4004f20
:104bd00010d000238e4a13708e494a7c22f00802be
:104be0004a748d4a13708d4a13708d4a13608d4a32
:104bf0001370f8bd864b01221a70864a537c43f02d
:104c000008035374884b1b7863b1864b1b781bb128
:104c1000864a1278002a49d1854a14785cbb002b59
:104c2000e7d045e004f096f90028eed17a4b1b78e6
:104c3000032bead8dfe803f0020a1216774b1b7841
:104c400013f0010fe1d003f03ffddee7734b1b785b
:104c500013f0010fd9d003f079fad6e7754b002293
:104c60001a70d2e7734b00221a706f4b01221a7030
:104c700002f0c4fdc9e7704f3d78704b53f82560d2
:104c800032466f4901eb85216e4803f0d9fff6b239
:104c9000634b1e600123634a1370644a13701d4402
:104ca00005f003053d70013c614b1c705d4b1b78aa
:104cb0005e4a1278002a9cd0002259490a605b495a
:104cc0000a7061490a7801320a7019465d4ad25c5d
:104cd000433a122a24d8dfe802f00a23236623236a
:104ce0002323233823232323232323236e00554afe
:104cf00013445a785b2a17d0544b432018705a70cb
:104d0000504a0a4491789970d178d9701179197103
:104d10005179597191799971d279da7103f012fc54
:104d2000404b00221a7064e7464b0b449b795d2b85
:104d3000e2d13d4b00201870424b0b449c78364822
:104d40000470d878354b1870d6e7374a01201070b8
:104d50003c4a13445b785b2be2d113460b441b792e
:104d60005d2bddd12c4c022323700a449078384b04
:104d70001870d178374b1970344b4c251d705b255a
:104d80005d709870d9705d2119715179597191795f
:104d90009971d279da7103f0d5fb2378022bbfd158
:104da00000f0e0febce700231f4a1370214a137095
:104db00002f04ef8b4e71c4a01201070214a134457
:104dc000db785b2bacd1144b03221a701d4a0a44ca
:104dd00051781f4b197093781e4a1370172b11d0fe
:104de00040f241121c49194803f02aff03f0aafbc4
:104df00000f0b6fd194b00221a7003f0a3fb02f07d
:104e0000fdfc8de7084b00221a70e9e700800041a5
:104e1000ea2402203c4f0120e9240220bf3e022068
:104e2000d43e0220523f0220b63e0220513f0220d3
:104e3000953f0220543f0220963f0220743e0220fc
:104e4000ec240220ec340220533f022070b50020f5
:104e5000be3e0220b73e0220f13402206f3f022006
:020000040000fa
:104e60002de9f0479b4b1b78013bdbb2532b06d956
:104e7000994b00221a605a6043f239029a60954bae
:104e800054221a7000225a709a70da701a71052131
:104e900059719a71da711a725a7201209872da7223
:104ea0001a73072058739973da7367241c743724b4
:104eb0005c749a74da741a755a759a75da7519767b
:104ec00059769976d97618777820587703259d7783
:104ed0001424dc77814b1a805a8045f2ea009880ce
:104ee000da801a8145f2730058819a81da8145f29d
:104ef000e23018825a829982da821a835c830a2607
:104f00009e830220d8834ff434771f8440f25327c6
:104f10005f849c84da841a855a859a85da851a8694
:104f20005a864ff4c8779f864ff4af77df861a878b
:104f300059879a876427df87a3f840204ff0b40c85
:104f4000a3f842c0a3f84420a3f846204ff07b0cfe
:104f5000a3f848c0a3f84a50a3f84c20a3f84e7019
:104f600040f2a155a3f8505040f23635a3f8525004
:104f70008b25a3f854504925a3f856504ff4967e3c
:104f8000a3f858e04b25a3f85a504ff4fa65a3f85c
:104f90005c504ff0110ca3f85ec0a3f86020a3f89a
:104fa00062004ff01e0ca3f864c04ff0500ca3f841
:104fb00066c0a3f86800a3f86a104ff4617ca3f8f8
:104fc0006cc04ff47a7ca3f86ec040f2ff4aa3f89d
:104fd00070a0a3f87220a3f87420a3f876c04ff055
:104fe0005c09a3f87890a3f87a2041f29418a3f80a
:104ff0007c80a3f87e20a3f88020a3f88220a3f869
:105000008420a3f88620a3f88820a3f88a20a3f898
:105010008c20a3f88e20a3f89020a3f892a0a3f8e8
:105020009420a3f896c0a3f89890a3f89a20a3f828
:105030009c20a3f89e80a3f8a070a3f8a2e04ff4f0
:10504000fa77a3f8a470a3f8a660a3f8a860a3f861
:10505000aa0040f6b836a3f8ac60a3f8ae00c820aa
:10506000a3f8b0009620a3f8b200a3f8b4404ff420
:105070001670a3f8b600a3f8b80042f23416a3f8ed
:10508000ba604ff42f54a3f8bc40a3f8be504ff4bd
:105090009650a3f8c000a3f8c260a3f8c440a3f8d8
:1050a000c650a3f8c800c420a3f8ca003020a3f853
:1050b000cc00cf20a3f8ce00a3f8d020a3f8d220b4
:1050c000a3f8d4202422a3f8d620a3f8d810bde852
:1050d000f08700bf3c4f0120583d002038f40020ed
:020000040000fa
:1050e00030b591ea030f00f18280841a71eb030c52
:1050f00005d2121953eb0c03001b71eb0c0140f2ab
:10510000000ccff6e07c1cea430f52d0bceb410f01
:105110005fd90c0da4eb135e5ff0010c6cf31f5113
:105120006cf31f53def1200c2ad303fa0cf540195f
:1051300041f1000122fa0ef5401923fa0ef56941fa
:1051400012fa0cf2cd0208d349085fea30005fea98
:10515000320228bf42f001020134013c5fea500ce8
:1051600072f1004250f1000051eb04514ff4001372
:1051700013eb410f38bf30bd6ff31301002030bd7a
:10518000bef1200ebef1200f1ed223fa0ef54019fb
:1051900041f10001cef1200c124218bf012203faa6
:1051a0000cf52a43cee711ea5c0f04bf0020002172
:1051b00030bd1cea410f04bf01f00041002030bdaa
:1051c00001f00041002030bd21f4801101eb0451b9
:1051d00030bd004218bf41f00101bceb410f08bfd8
:1051e00030bd4ff0fe4141f47801002030bd83f026
:1051f0000043841a71eb030e07d28ef0004e001ba1
:1052000071eb0e01121953eb0e0340f2000ccff6b6
:10521000e07c1cea430fc6d0bceb410f72d90c0de9
:10522000a4eb135ec90241ea5051c00241f00041b3
:10523000db0243ea5253d20243f00043def1200c7a
:1052400041d312fa0cf522fa0ef203fa0cf542eaf7
:10525000050218bf42f0010223fa0ef3801a9941a9
:10526000e30ac4f30a0411f0404f03d418d0013c00
:1052700040004941013c23d44205c00a40ea415064
:10528000c90a51eac3715fea500c72f1004250f151
:10529000000051eb045130bd01002fd00020203c14
:1052a0000029f9d0b1fa81fcdcf1200e11fa0cf1e1
:1052b00030fa0ef510fa0cf02943a4eb0c04d9e7f0
:1052c0000020d90730bdaef1200ebef1200f0dd267
:1052d000cef1200c03fa0cf533fa0ef32a4318bf73
:1052e00043f00103c01a61f10001b9e721f0004168
:1052f000c00a40ea4150c90a01eb045130bd002008
:10530000002130bd004218bf41f00101bceb410f4c
:0e5310007ff467afbceb430f3ff463af30bddb
:020000040000fa
:02531e007047d6
:020000040000fa
:1053200038b57b4b1b780b2b16d8dfe813f00c003d
:105330001600360040008f00a600c300d700db0037
:10534000df00e300e700212272494ff4af7002f062
:105350000ffb6f4b01221a7038bd6e4b1b78542b1c
:1053600009d06d4b1b788bb1013b6b4a1370684bb6
:1053700000221a70f0e70020684b1870fa22684982
:1053800002f030fb624b02221a70e5e7634b012208
:105390001a705f4b02221a70dee7102261494ff447
:1053a0009b7002f059fb5a4b03221a70d4e703f0aa
:1053b00039fc04465c4b187003f026fc5b4b1870fc
:1053c00003f012fd5a4b1870564bdb68984204d01c
:1053d000524a137843f008031370514bb3f8f83076
:1053e000a3421ad04d4b1c7844f004041c70494b66
:1053f00093f8205003f008fc854204d0474b1c78fa
:1054000044f002041c70444b1b78abb1013b424a90
:1054100013703f4b01221a709ee73e4b93f82040d9
:1054200003f0f2fb8442e9d13c4b1c78002cead11a
:10543000374b07221a708fe764f07f04374b1c70dc
:10544000fff70efd324b04221a7085e703f080fa55
:1054500003f0dafb2f4981f8200021224ff4af70ce
:1054600002f070ff2d4b1b781bb1294b05221a70df
:1054700072e7274b07221a706ee702f0cdfb002877
:105480003ff46aaf03f064fa03f0ccfb2449a1f8bf
:10549000f800fa22002002f0f1fb264b18701f4b97
:1054a0001b781bb11a4b06221a7055e7184b0722be
:1054b0001a7051e702f0b0fb00283ff44daf03f043
:1054c00047fa03f091fc1749c86010224ff49b7013
:1054d00002f090f80e4b07221a703de70c4b0b229e
:1054e0001a7039e70a4b04221a7035e7084b052277
:1054f0001a7031e7064b06221a702de70e4b1b7807
:10550000002b7ff429af0c4b01221a7024e700bf57
:10551000583f02203c4f0120a73f0220593f022064
:1055200038f40020583d0020743f0220733f0220d1
:0c553000753f02205a3f0220633f02201a
:020000040000fa
:10553c00f0b581ea030e0ef0004e40f20007cff6f4
:10554c00e07717ea41051ebf95ea070f17ea4304f7
:10555c0094ea070f00f0c5806d0da5eb545707f5c5
:10556c0080674ff0004646eac12444ea5054c0021a
:10557c0046eac32343ea5253d202801a9c4104d216
:10558c000018644180185c41013f5b084fea32020d
:10559c000025002140f001004ff0070604e0801abe
:1055ac009c4136d340416441801a9c4136d34041e2
:1055bc006441801a9c4136d340416441801a9c411d
:1055cc0036d340416441801a9c4136d340416441fa
:1055dc00013e17d0801a9c4136d340416441801a59
:1055ec009c4136d340416441801a9c4136d34041a2
:1055fc006441090201eb156190ea052520f0ff00da
:10560c004540cce7801a9c4156d335e080185c416c
:10561c00c8d20018644180185c41c8d2001864419b
:10562c0080185c41c8d20018644180185c41c8d213
:10563c000018644180185c41c8d200186441013ed6
:10564c0017d080185c41c8d20018644180185c41a6
:10565c00c8d20018644180185c41c8d2001864415b
:10566c00090201eb156190ea052520f0ff00454089
:10567c00cce780185c411fd3420918bf44f00104e9
:10568c00490101ebd56100f01f0000eb451021f43e
:10569c00801141ea0e01013041f10001244208bfa2
:1056ac0020f00100b7f5006f3eda013f49dd01eb58
:1056bc000751bde8f0407047490101ebd56100f09e
:1056cc001f0000eb451021f4801141ea0e01b7f5e3
:1056dc00006f29da013f34dd01eb0751bde8f040e2
:1056ec007047004218bf41f00101124218bf43f04d
:1056fc000103b7eb410f2cbfb7eb430f1ce0b7eb2b
:10570c00410f04bfb7eb430f16e017ea410f04bf7c
:10571c0017ea430f10e017ea410f12d017ea430fb4
:10572c0002d0b7eb430f0cd04ef0fe4141f47001a8
:10573c000020bde8f04070474ff0fe4141f4780185
:06574c00f6e77146f4e7e8
:020000040000fa
:02575200fee770
:020000040000fa
:10575400a62808d0a3280bd0a4281dd132f010030a
:1057640013d052207047002a0cbf86205220704765
:1057740032f0100301d052207047714b01221a708d
:10578400704b00221a705020704701236c4a13702a
:105794006c4a137050207047f0b583b00c46a028b3
:1057a40013d0a1283ad0a22840f0c8800023019346
:1057b400042a07d1644b1b6823b1644a12689342dc
:1057c400c0f09680542003b0f0bd082a40f0ac80ad
:1057d400081d03f0d3fa0546002800f0a7802046f0
:1057e40003f0ccfa4219904280f0a280b0f5002f69
:1057f400c0f0a080b2f5801f00f29e8040ea05034d
:10580400c3f30c030bb15120dde74f4b18604f4b32
:105814001a604f4b01221a705020d4e74d4b51218e
:10582400197042f204039a4205d04a4be1221a70dd
:10583400484b1878c7e7444b1e6876b1204603f0fe
:105844009dfa0546b04208d300f500533f4a12685a
:10585400934202d8c0f30c061eb13e4be2221a70ea
:10586400e6e703f003fb03f0c7fa284603f0bcf9ac
:1058740018b9384be3221a70dae703f0bdfa03f0e3
:1058840049f910f07e001ed1271d2c1b043c03f0a7
:1058940051fa314d4ff400723946284603f0cef9df
:1058a400e119284602f08efea0b103f0a5fa03f038
:1058b40031f910f07e0014d1013607f50077102e6f
:1058c400e5d150207fe700f01f0363f07f03214af6
:1058d4001370ade706f00f0363f03f031d4a137026
:1058e400a6e700f01f0363f05f031a4a13709fe7f3
:1058f400084603f043fa04460121212003f0defaae
:10590400114b1868114b196801ab4ff0ff32091a9b
:1059140002f03efd0221212003f0d0fa01988442d6
:105924000cbf532054204ee751204ce751204ae746
:10593400512048e7512046e7512044e7522042e7ee
:10594400933f0220913f0220403f0220443f022027
:0c595400943f0220923f0220ec38022019
:020000040000fa
:1059600008b56d4a02f5a070002300bf12f8011fb0
:105970000b44dbb28242f9d1684a92f840219a4244
:1059800003d0674b01221a7008bd654b00221a70c4
:10599000644b1b780d2bf7d8dfe803f00714212e9a
:1059a0003b4855626f7c8996a3b05f4b187800eb3b
:1059b00080004ff4a07259495c4b03eb801003f058
:1059c0003ff9e1e7584b187800eb80004ff4a072e4
:1059d0005249574b03eb801003f032f9d4e7524b96
:1059e000187800eb80004ff4a0724c49514b03eb48
:1059f000801003f025f9c7e74b4b187800eb8000c7
:105a00004ff4a07245494c4b03eb801003f018f99a
:105a1000bae7454b187800eb80004ff4a0723f497d
:105a2000464b03eb801003f00bf9ade73e4b1878c3
:105a300000eb80004ff4a0723849414b03eb80101b
:105a400003f0fef8a0e7384b187800eb80004ff425
:105a5000a07232493b4b03eb801003f0f1f893e75f
:105a6000314b187800eb80004ff4a0722b49364b75
:105a700003eb801003f0e4f886e72b4b187800eb7b
:105a800080004ff4a0722549304b03eb801003f0e7
:105a9000d7f879e7244b187800eb80004ff4a07218
:105aa0001e492b4b03eb801003f0caf86ce71e4b2a
:105ab000187800eb80004ff4a0721849254b03ebd7
:105ac000801003f0bdf85fe7174b187800eb8000fb
:105ad0004ff4a0721149204b03eb801003f0b0f893
:105ae00052e7114b187800eb80004ff4a0720b497d
:105af0001a4b03eb801003f0a3f845e70a4b187824
:105b000000eb80004ff4a0720449154b03eb8010aa
:105b100003f096f838e700bf6fb5002070b500209d
:105b20007c3f0220be3e0220b73e022038d6002035
:105b30003c310120608b01203cf5002060a9012050
:105b400060c70120606d01203c130120683d0020ea
:105b5000685b0020581f0020604f012068790020fa
:045b600030b8002039
:020000040000fa
:105b640008b5634b24221a704c225a70614a127889
:105b74009a7061490978d9705b2018710d2a12d87e
:105b8400dfe802f00727323d48535e69747f8a9547
:105b9400a0ab01eb81014ff4a072584b03eb8111d0
:105ba400574803f04bf8574a02f5a070002300bf92
:105bb40012f8011f0b44dbb28242f9d14c4880f841
:105bc40045315d2380f8463140f2471102f034fa42
:105bd40008bd01eb81014ff4a0724b4b03eb811123
:105be400474803f02bf8dee701eb81014ff4a07284
:105bf400464b03eb8111424803f020f8d3e701eb55
:105c040081014ff4a072424b03eb81113c4803f035
:105c140015f8c8e701eb81014ff4a0723d4b03eb8b
:105c24008111374803f00af8bde701eb81014ff415
:105c3400a072394b03eb8111314802f0ffffb2e748
:105c440001eb81014ff4a072344b03eb81112c481a
:105c540002f0f4ffa7e701eb81014ff4a072304b8f
:105c640003eb8111264802f0e9ff9ce701eb810177
:105c74004ff4a0722b4b03eb8111214802f0deff9d
:105c840091e701eb81014ff4a072274b03eb8111e3
:105c94001b4802f0d3ff86e701eb81014ff4a072a9
:105ca400224b03eb8111164802f0c8ff7be701eb9e
:105cb40081014ff4a0721e4b03eb8111104802f0d6
:105cc400bdff70e701eb81014ff4a072194b03eba8
:105cd40081110b4802f0b2ff65e701eb81014ff43b
:105ce400a072154b03eb8111054802f0a7ff5ae798
:105cf400dcb60020be3e0220b73e022038d600208b
:105d0400e1b60020e0b600203c310120608b012088
:105d14003cf5002060a9012060c70120606d0120ce
:105d24003c130120683d0020685b0020581f0020c0
:0c5d3400604f01206879002030b800208a
:020000040000fa
:105d40002de9f04759ec108b594f18eb080029f05a
:105d5000004343eb030100268f4208bf864282b016
:105d6000c0f0848053490020994208bf404510ee9e
:105d7000102aca467dd310ee104a1d460127002680
:105d800043a1d1e900019042994126da42a3d3e927
:105d900000232046294600f017fd0022464b03f061
:105da000eff80022444b03f0ebf822462b46fff7b6
:105db00097f93ba3d3e9002380468946204629462c
:105dc000fff78ef902460b4640464946fff7b6fb01
:105dd0003e4604460d4602460b460ff2cc09d9e971
:105de000008923f00041894508bf904527d222460b
:105df0002b462046294600f0e7fc02460b4680462b
:105e000089462e48042101f0ebf84246cde9000115
:105e10004b4604212a4801f02ffc02460b46dde9df
:105e20000001fff78bfb22462b4600f0cdfc02461b
:105e30000b4620462946fff753f904460d46012e2e
:105e400022dd05f100431d461e4b03ebc60620462e
:105e50002946d6e90023fff743f904460d460af028
:105e6000004a22468aea050343ec102b02b0bde843
:105e7000f08700200f49fff761fb032704460d461a
:105e800002460b4602267be7002ee8d0dce700bf87
:105e900058cd9e5e1426d13f5499b0d0f56ce73fa3
:105ea000aa4c58e87ab6fb3fbbbdd7d9df7cdb3db7
:105eb0000000e0ff0000f03f0000e03fe87e00004f
:085ec000087f0000c87e00000d
:020000040000fa
:105ec800584b9b7d002b00f0ab8010b5554a5368aa
:105ed80003f00703127e12f0040f5bd0514a906a58
:105ee800514a5169d268914254d2002b43d14e4b4a
:105ef8005a684c1c5c6150544a4b1b7e13f0010fce
:105f080018d0484b01221a75474b9a699b689a42e8
:105f180058d2454b1968501c98618a5c414b9a626b
:105f2800414b9a699b689a4261d03f4b5a69db683a
:105f38009a4269d03b4b1b7e13f0020f14d03b4ba7
:105f48001b78bbb1384b5a69db689a420fd1364b84
:105f580000221a7733490720087534490a701b6aea
:105f680043b1314a506a9847304b1b7813b12d4bd7
:105f780002229a7510bd2c4b5a684c1c5c6122f8a1
:105f88001100284b1b7e13f0010fd3d0254b0122a3
:105f98001a7509e0234a127e12f0010fcad0214a6d
:105fa80001211175002bafd01f4b9a699b689a424b
:105fb80012d21d4b1968501c986131f81220194be8
:105fc8009a62ade7184b1b6923b3164aff21916209
:105fd800013b154a1361a3e7134b1b69d3b1114a5f
:105fe8004ff6ff719162013b0f4a136198e70e4b20
:105ff8001b69002b99d10d4b01221a70094b1b7e8e
:1060080013f0020f9ed1b2e7064b01229a750422c3
:106018001a758fe7044b9a699b689a4285d1eae71b
:10602800704700bf00300040343d0220a33b0220ef
:020000040000fa
:106038004e4b42f206625a611a46136913f0010f79
:10604800fbd04b4b42f20e229a821a46d36813f0c9
:10605800010ffbd0464b05221a74a3f540630122b9
:106068005a711a46d37813f0010ffbd0414b424abc
:106078001a621a46536813f0040ffbd13d4b3e4a8f
:106088005a621a46536813f0080ffbd1394b3b4a42
:10609800da621a46536813f0200ffbd1354b4022c1
:1060a800c3f89c201a4600bfd2f89c3013f0400f6a
:1060b800fad0304b4022c3f8a0201a46d2f8a030bc
:1060c80013f0400ffad02b4b4022c3f8e0201a46b9
:1060d800d2f8e03013f0400ffad0264b4022c3f834
:1060e800ec201a46d2f8ec3013f0400ffad0214bce
:1060f8004122c3f8f0201a46d2f8f03013f0400fce
:10610800fad01c4b4022c3f80c211a46d2f80c31a5
:1061180013f0400ffad0174b4022c3f820211a463b
:10612800d2f8203113f0400ffad0124b4022c3f8b6
:1061380024211a46d2f8243113f0400ffad0104b1c
:106148006ff07f421a6143f2ff325a610d4a9a6139
:106158004ff4c1721a62054a137f03f0fd031377e7
:1061680092f82c3013f0020ffad17047001000405b
:1061780000140040001c00400001010006010c0052
:086188000008004056840100ec
:020000040000fa
:1061900038b54f4b9b7dd3b14d4a137edbb2927d18
:1061a00012f0800f14d14a4a137edbb2927d12f0b6
:1061b000010f02d013f0010f50d1454a137edbb21c
:1061c000927d12f0040f02d013f0040f18d138bde5
:1061d00013f0800fe7d03e4b5b8b13f00703e2d048
:1061e0003c4ce38502f054fb394b84221a750023a2
:1061f00084f82c30636a002bd5d0a06a9847d2e788
:10620000344b93f82c30002be1d0324b1a6adb6907
:106210009a42dcd22e4b9a6a5b6803f00703012b8b
:106220002c4b9869196a01f101041c6214bf425495
:1062300020f81120274b1a6adb699a42c7d1254bf7
:10624000002283f82c20da61214a842111755b6acf
:10625000002bbcd01f4a906a9847b8e71d4b1b7da6
:10626000002baad01b4b9a685c68194b1b7e13f05d
:10627000010f19d0a24217d2164b1d6814491a46b5
:106280004b6803f00703012b936803f10100906052
:1062900014bfeb5c35f813308b6290680b7e13f003
:1062a000010f01d08442ebd80a4b9a685b689a428e
:1062b00083d3084b00221a755a60054a01211175d3
:1062c000db68002b3ff479af024a1069984774e706
:0862d00000400141743c022072
:020000040000fa
:1062d80038b54f4b9b7dd3b14d4a137edbb2927dcf
:1062e80012f0800f14d14a4a137edbb2927d12f06d
:1062f800010f02d013f0010f50d1454a137edbb2d3
:10630800927d12f0040f02d013f0040f18d138bd9b
:1063180013f0800fe7d03e4b5b8b13f00703e2d0fe
:106328003c4ce38502f0c8fa394b84221a750023e5
:1063380084f82c30636a002bd5d0a06a9847d2e73e
:10634800344b93f82c30002be1d0324b1a6adb69be
:106358009a42dcd22e4b9a6a5b6803f00703012b42
:106368002c4b9869196a01f101041c6214bf42544c
:1063780020f81120274b1a6adb699a42c7d1254bae
:10638800002283f82c20da61214a842111755b6a86
:10639800002bbcd01f4a906a9847b8e71d4b1b7d5d
:1063a800002baad01b4b9a685c68194b1b7e13f014
:1063b800010f19d0a24217d2164b1d6814491a466c
:1063c8004b6803f00703012b936803f10100906009
:1063d80014bfeb5c35f813308b6290680b7e13f0ba
:1063e800010f01d08442ebd80a4b9a685b689a4245
:1063f80083d3084b00221a755a60054a012111758a
:10640800db68002b3ff479af024a1069984774e7bc
:0864180000340040a43c022006
:020000040000fa
:1064200038b54f4b9b7dd3b14d4a137edbb2927d85
:1064300012f0800f14d14a4a137edbb2927d12f023
:10644000010f02d013f0010f50d1454a137edbb289
:10645000927d12f0040f02d013f0040f18d138bd52
:1064600013f0800fe7d03e4b5b8b13f00703e2d0b5
:106470003c4ce38502f03cfa394b84221a75002328
:1064800084f82c30636a002bd5d0a06a9847d2e7f5
:10649000344b93f82c30002be1d0324b1a6adb6975
:1064a0009a42dcd22e4b9a6a5b6803f00703012bf9
:1064b0002c4b9869196a01f101041c6214bf425403
:1064c00020f81120274b1a6adb699a42c7d1254b65
:1064d000002283f82c20da61214a842111755b6a3d
:1064e000002bbcd01f4a906a9847b8e71d4b1b7d14
:1064f000002baad01b4b9a685c68194b1b7e13f0cb
:10650000010f19d0a24217d2164b1d6814491a4622
:106510004b6803f00703012b936803f101009060bf
:1065200014bfeb5c35f813308b6290680b7e13f070
:10653000010f01d08442ebd80a4b9a685b689a42fb
:1065400083d3084b00221a755a60054a0121117540
:10655000db68002b3ff479af024a1069984774e773
:0865600000040043d43c0220ba
:020000040000fa
:1065680010b4474b474a1a60474a1a61002183f81a
:10657800401083f84110012283f8422083f8431029
:1065880083f8441083f8451083f8461083f84820b0
:1065980083f8492083f84a1083f84b2083f84c107d
:1065a80083f84d1083f84e1083f84f1083f850206d
:1065b80083f8512083f8522083f8532083f854102d
:1065c80083f8551083f8562083f8572083f858200d
:1065d80083f8592083f85b1083f83120222083f850
:1065e8003400202483f8354083f8380083f83900d4
:1065f80083f83b00882483f83c40244cc3f880404f
:10660800a4f67104c3f89040032483f8c04083f8cb
:10661800c12083f8c22083f8c32083f8c41083f80c
:10662800c51083f8c61083f8c72083f8c82083f8fc
:10663800c92083f8cb1083f8cc2083f8cd2002241e
:1066480083f8ce4083f8cf4083f8d02083f8d12058
:1066580083f8d61083f8d71083f8de10112283f858
:10666800b02083f8b120102183f8b31083f8b42048
:10667800772283f8b62083f8b8005df8044b70479a
:106688000080004178343008700010007108c04064
:020000040000fa
:1066980030b40c4600294dd000284bd04649097f1c
:1066a800002940f08680454d6d6805f00705012ded
:1066b80046d0414908604a6000254d618d610d61f1
:1066c800a84208bf2c468c60aa4218bf1d460a463d
:1066d800cd6001211177394a127e12f0040f05d0de
:1066e800364a916a117e11f0040ffad1334a518b60
:1066f80041f004015183117e41f080011176a542d9
:1067080002d92a1b2c490a612c4a526812f0070f39
:106718002bd1294a9269a2421cd200782749886263
:10672800013225498a61002b3bd0244b04229a75fb
:1067380001213be0002b38d0002aafd1002135e001
:1067480014b114f0010f31d1002bb2d013f0010fa6
:10675800afd02be0184a1269002ae4d01749ff206d
:106768008862013a14490a61dde76408124a9460b4
:106778001169490811616d08d5609269944206d97a
:1067880000880e49886201320b498a61cbe70029eb
:10679800c9d00a4a4ff6ff7090620139064a116162
:1067a800c1e70121054b997500e00021084630bc7e
:1067b80070470021fae700bf343d02200030004056
:020000040000fa
:1067c800f0b540f2ff7681ea030c16ea115e1ebfaf
:1067d800b64516ea1355b54252d021ea465141f45e
:1067e8008011a1fb024723ea465343f48013ae44c9
:1067f800a0fb03650cf0004c36197d41a1fb034753
:1068080047f10003a0fb0217f619654153f1000395
:10681800094218bf46f0010640f2fe74b3f5007f46
:1068280013d2aef5806ea64523d24cea0331280375
:1068380041ea155140ea16503203450872f1004208
:1068480050f1000051eb0e51f0bdaef2ff3ea645ef
:106858000fd24ceac321e80241ea555140ea5650aa
:10686800f202450872f1004250f1000051eb0e515e
:10687800f0bd1eea0e0f2dd50cf000410020f0bd32
:1068880016ea115f04bf01f000410020004218bf62
:1068980041f0010116ea135f04bf03f00043002230
:1068a800124218bf43f0010306ea1354b44218bf5a
:1068b800b64503d00cf000410020f0bd21f00041a6
:1068c80023f00043b1eb065f0cd8b3eb065f09d8a1
:1068d80041b13bb10cf0004141f0fe4141f470017f
:1068e8000020f0bd40f20001c7f6f8710020f0bdad
:020000040000fa
:1068f8002de9f047002871d0002a74d0002975d0fe
:106908009046441e013946184ff00009394ddff80a
:10691800f8a036e042f20c018b4226d85f1c2f60ab
:106928003549ca54092f37d1334802f025fa504562
:1069380049d1324802f020fa42f20403984242d880
:1069480000f109022e4b1a6030bb002211462a4b77
:10695800187afef7fbfe88f8000000232b60284b0e
:1069680009221a604ff0010909e000232b60244b2b
:1069780009221a60522388f800304ff00109b44206
:106988002ed014f8012f2b68002bc3d14d2af6d135
:106998005f1c2f601849ca54194b1a68ba42eed1c5
:1069a800092aecd9174b093a194613f8010cfef7d6
:1069b800cdfe88f8000000232b60114b09221a60d5
:1069c8004ff00109dbe700232b600d4b09221a6009
:1069d800522388f800304ff00109d0e74ff0000942
:1069e8004846bde8f0874ff00009f9e74ff0000985
:1069f800f6e700bf3c3f0220dc040220e00402204e
:0c6a0800383f0220e50402204d434850b6
:020000040000fa
:106a1400f8b5304b1b78002b57d124280cd02e4bc3
:106a24001b68002b55d02d4ad054552810d05d2812
:106a340014bf0020012032e0284b24221a700123c5
:106a4400274a1370274a00211170234a136040e03b
:106a5400204a0121117040f2fe32934239d80020bd
:106a640021e01d4b1f68204e34783a461b491f48cd
:106a740000eb842002f0e2f81d4b43f8247001344b
:106a840004f00304347001351a4b1d7013e0134aeb
:106a9400d05440f24510834214bf0020012040f23c
:106aa400fe32934202d801330b4a136088b1114b72
:106ab4001d78032dd5d90023074a1360084a1370a3
:106ac400084a1370034a137003e0034b1b68002b3e
:106ad400ddd1f8bd6f3f0220d43e0220ec34022009
:106ae400523f0220513f0220973f0220ec24022013
:086af400743e0220953f0220d0
:020000040000fa
:106afc00334ad36823f4e0631b041b0c43f0bf63dd
:106b0c0043f40033d360bff35f8f62b62d4be021ab
:106b1c0083f80a134ff480621a6083f80b134ff456
:106b2c0000621a6083f82e134ff480425a6083f887
:106b3c002f134ff400425a6083f830134ff4803215
:106b4c005a6083f831134ff400325a60402283f8b4
:106b5c0032234ff48020586083f833234ff4002005
:106b6c00586083f834234ff48010586083f8351341
:106b7c004ff40010586083f83a234ff0806058604f
:106b8c0083f83b234ff00060586083f83c234ff0b0
:106b9c008050586083f83d234ff00050586083f8c4
:106bac0042230420986083f843230820986083f8dc
:106bbc00442310229a6083f8451320229a60704770
:086bcc0000ed00e000e100e033
:020000040000fa
:106bd40010b502f05bf82d4b1b78002b51d0013b14
:106be400dbb22a4a1370012b34d05ab2d2b1022b31
:106bf4004ad100bf01f022ff0028fbd002f066f961
:106c040000eb80004000224b1860224c19222168be
:106c140002f098f920604ff4c051002001f0fcfe0e
:106c240032e000bf01f00aff0028fbd002f04ef969
:106c340000eb80004000184b1860184c19222168a2
:106c440002f080f920604ff4c051012001f0e4fe0d
:106c54001ae000bf01f0f2fe0028fbd002f036f982
:106c640000eb800040000e4b18600e4c1922216886
:106c740002f068f920604ff4c051092001f0ccfe05
:106c840002e0024b03221a7010bd00bfa63e022090
:106c9400d03e0220cc3e0220c03e0220f43b022023
:086ca400c83e0220c43e02209c
:020000040000fa
:106cac0010b5274b1868274b1968274ba3fb0131ec
:106cbc00c1f3c701254b24221a7044225a7030228a
:106ccc009a703122da705b221a71214a947a214a25
:106cdc0052f82420204cb4f84e4002fb04f25971b7
:106cec001e49097899711e49a1fb02125209da71e9
:106cfc001c4a12781a725872020a9a721a4a12783c
:106d0c00da721a4a12781a735a1d03f10d01002314
:106d1c0012f8010b0344dbb28a42f9d1144a0d215b
:106d2c0011600a4a53735d239373144601e001f01a
:106d3c00fdff0f21204601f07bf90028f7d010bd94
:106d4c00343f0220303f0220cdccccccdcb600202e
:106d5c003c4f0120803d022038f400205c3f022093
:106d6c001f85eb516d3f0220703f02206e3f0220c9
:046d7c00f43e0220bf
:020000040000fa
:106d8000304b1b78002b5cd000b597b053222e49b6
:106d900001a801f055ff2b4b00221a709df804301a
:106da000242b02d017b05df804fb9df80730522b5e
:106db0000ed04d2b1dd0422b24d0482b2bd19df82b
:106dc0000830442b08d19df80930472b04d10be043
:106dd0009df808304d2b03d01c4b00221a70e1e7c0
:106de0009df80930432bf7d101ab0df1550000217f
:106df0001ee09df80830572beed19df80930562b38
:106e0000ead1f1e79df808304f2be5d19df8093024
:106e1000442be1d1e8e7442bded19df80830422b2a
:106e2000dad19df80930542bd6d1dde78342d3d097
:106e300013f8012f2c2af9d10b299cbf0131c9b2bb
:106e4000f4e77047603f0220503b0220613f022080
:020000040000fa
:106e50002de9f043fbb050238df807302d4b1e7801
:106e60002d4b33445b785b2b14d1b41c2a4b1b5d38
:106e70005d2b4ad0f51c294b334400bf13f8012f7a
:106e80005d2a0dd00135b5f5806ff7d3522000f0a3
:106e9000ebff02e0522000f0e7ff7bb0bde8f0839b
:106ea000002df3d0ae1b16f00106efd1ac421cd280
:106eb000194b1c440df108089946207801f030fd6b
:106ec0000746607801f02cfd002f1adb002818db44
:106ed000b6f5f07f15d0013640ea071008f8010b2f
:106ee0000234a4eb09039d42e7d80df107023146b5
:106ef00002a8fff701fd50b19df8070000f0b4ffb4
:106f0000cbe7522000f0b0ffc7e70026ede75020a6
:106f1000f4e700bf523f0220ec340220ee3402209e
:020000040000fa
:106f200008b501f0dbff23490b68234a1360c01a40
:106f3000224a82fb00c2c017c0eba200204a1060a8
:106f4000184408608b2303fb00f31e4a82fb0312e4
:106f50001a44db17c3eba2231b4a13601b4a527f60
:106f600093421b4b1b7834bf43f0080303f0f70335
:106f7000174a1370b0f5807f0cdd164bfa221a60a9
:106f8000154b4022c3f8982008229a61134b012226
:106f90001a7008bd0f4b1b6823b90f4b4022c3f872
:106fa0009420f6e7013b0b4a13600c4b04221a7045
:106fb000efe700bfec3e0220243f022067666666d2
:106fc000203f02206b09ebb5a03d02203c4f012081
:106fd0005f3f0220f03e022000800041a63f0220d9
:020000040000fa
:106fe000f8b58c1e00ebc40416461f460d46d4e9c6
:106ff000022330463946fff7e7fbd4e90023fef7ca
:107000006ff8022d02460b4645d030463946fff751
:10701000dbfb54e90223fef763f8032d02460b461f
:1070200039d032463b46fff7cffb54e90423fef745
:1070300057f8042d02460b462dd030463946fff74f
:10704000c3fb54e90623fef74bf8052d02460b4619
:1070500021d030463946fff7b7fb54e90823fef745
:107060003ff8062d02460b4615d030463946fff74d
:10707000abfb54e90a23fef733f8072d02460b4613
:1070800009d030463946fff79ffb54e90c23fef741
:1070900027f802460b4630463946fff795fbf8bd08
:020000040000fa
:1070a00010b5224b24221a7044225a7030229a7052
:1070b0003222da705b221a711d4a11681d48a0fb4a
:1070c0000121490959711c4a1268a0fb0212520998
:1070d0009a711a4a1278da71194a12781a72194a90
:1070e000117c5972527c9a72ff22da72164a127817
:1070f0001a735a1d03f10d01002300bf12f8010b92
:107100000344dbb28a42f9d1104a0d211160074acb
:1071100053735d239373144601e001f00dfe0f21bc
:10712000204600f08bff0028f7d010bddcb6002011
:10713000e03e02201f85eb51dc3e02206c3f022026
:107140005e3f02203c4f01206b3f0220f43e0220b4
:020000040000fa
:1071500010b5204b1a6842f20f739a4228bf1a46a4
:107160001d4b19681d4b2420187044205870302086
:107170009870d8705b2018711948007858711948b8
:1071800000789871d971090a19725a72120a9a72a2
:10719000154a1278da72154a12781a735a1d03f1d9
:1071a0000d01002312f8010b0344dbb28a42f9d12e
:1071b0000f4a0d211160094a53735d2393731446de
:1071c00001e001f0b9fd0f21204600f037ff002853
:1071d000f7d010bd0c3f02201c3f0220dcb600207f
:1071e000553f02205b3f02205d3f0220663f0220a8
:0471f000f43e022047
:020000040000fa
:1071f40038b504465022002101f01cfe214b012227
:107204009a611a46936913f0010ffbd01d4b9a69da
:1072140042f002029a611c490c60a2b242f480322c
:10722400c3f8a02004f110024a6092b242f0004276
:1072340042f40032c3f8b02004f13002ca6092b2c2
:1072440042f08072c3f8c02004f140020a6192b295
:1072540042f48032c3f8f02004f148028a610b4df5
:1072640003cda064e16492b242f48032c3f8882072
:107274009a6922f001029a611a46936913f0010f88
:10728400fbd138bd000400421c3e0220608f000088
:020000040000fa
:1072940010b5204b24221a7044225a7030229a705e
:1072a4003622da705b221a711b4a9168080a5871f7
:1072b40099711168080ad87119725268110a5972c1
:1072c4009a72164a11681648a0fb01214909d9721d
:1072d400144a1268a0fb021252091a735a1d03f1d0
:1072e4000d01002312f8010b0344dbb28a42f9d1e9
:1072f4000d4a0d211160074a53735d23937314469d
:1073040001e001f017fd0f21204600f095fe002852
:10731400f7d010bddcb60020043d0220e03e022080
:0c7324001f85eb51dc3e0220f43e0220ed
:020000040000fa
:1073300038b504464ff4a472002101f07dfd4ff0f2
:10734000844301229a611a46936913f0010ffbd01e
:107350004ff084439a6942f002029a6118490c6026
:10736000a2b242f0004242f4a022c3f8a02004f1ed
:107370005002ca6092b242f02062c3f8c02004f109
:10738000f0020a6192b242f42022c3f8f02004f520
:10739000a0728a610b4d03cdc4f84001c4f84411ba
:1073a00092b242f48032c3f888209a6922f0010236
:1073b0009a611a46936913f0010ffbd138bd00bfe3
:0873c000383e0220708f00002e
:020000040000fa
:1073c80008b51b4b98471b4b9847eff3108172b6d3
:1073d800194ad2f8883043f47003c2f88830bff3f2
:1073e8004f8fbff36f8f01b962b6144c20236360cf
:1073f80001f016fa124b23f07f030f4a9360114bea
:107408009847a36823f00103a3602346da6812f0c3
:10741800010ffbd1094b5a6842f004025a6001225d
:107428009a60094b9847094b9847fcf7dffefee73f
:10743800cf8e0000cf8e000000ed00e0006000411c
:107448000020000099800000cf8e0000cf8e000041
:020000040000fa
:1074580010b51d4b59791d4a52f821201c4924208a
:10746800087044204870302088703320c8705b2032
:107478000871187f4871987f8871ca71120a0a7258
:107488001a79144b53f822301a0a4a728b72002365
:10749800cb720b734a1d0d3112f8010b0344dbb29a
:1074a8008a42f9d10c4a0d211160094a53735d23b0
:1074b8009373144601e001f03bfc0f21204600f0d5
:1074c800b9fd0028f7d010bd3c4f0120603d0220d7
:0c74d800dcb60020543e0220f43e0220ee
:020000040000fa
:1074e40010b51d4b24221a7044225a7030229a700f
:1074f4003422da705b221a71184a916a080a5871a8
:107504009971116a080ad8711972526a110a59726a
:107514009a72134a1278da72124a12781a735a1d3e
:1075240003f10d01002300bf12f8010b0344dbb289
:107534008a42f9d10c4a0d211160074a53735d2325
:107544009373144601e001f0f5fb0f21204600f08f
:1075540073fd0028f7d010bddcb60020043d0220e6
:0c7564005e3f02206a3f0220f43e02203d
:020000040000fa
:1075700000b583b0b0f57a7f05d2632805d83023f3
:107580008df800300fe040f2e730184ba3fb0023ea
:107590005b09dab2092a28bf092230328df80020af
:1075a000642202fb1300092819d9114ba3fb002305
:1075b000db08dab2092a28bf092230328df801200f
:1075c00003eb8303a0eb430030308df8020003216e
:1075d000684600f005fd30b901f0aefbf7e7302357
:1075e0008df80130f0e703b05df804fb1f85eb5127
:0475f000cdcccccc66
:020000040000fa
:1075f4002de9f04104460f46164601f0a7f91b4b4e
:107604001b781bb900242046bde8f081dff85c80bc
:10761400002388f80030164d02232b70230c6b7066
:10762400230aab70ec7001f0d3fb01f083fb32460c
:107634003946281d01f002fb01f07cfb01f07afbc6
:1076440001f078fb01f076fb01f074fb311d284654
:1076540001f05afc044698f80030002bd3d145467b
:1076640001f068fb2b78002bfad0cce7a93f02206d
:04767400b00302203d
:020000040000fa
:10767800f8b516461f4600ebc10555e902230c462e
:1076880030463946fdf728fd32463b46fff798f865
:1076980055e90423fdf720fd02460b4630463946de
:1076a800fff78ef8032c02460b4617d055e9062340
:1076b800fdf712fd02460b4630463946fff780f8c3
:1076c800052c02460b4609d155e90823fdf704fdb0
:1076d80032463b46fff774f802460b46c4eb447447
:1076e80005ebc40410461946d4e90023fdf7f4fc61
:0476f800f8bd00bf1a
:020000040000fa
:1076fc000138c0b2092834d8a9b32de9f0474ff0ae
:10770c008443d3f8c430c3f30443013001eb0015b8
:10771c000026dff858904ff001081801d9f80c40fa
:10772c002218d1f800a0d1f804e0d1f808c0cf6835
:10773c0044f800a0c2f804e0c2f808c0d7601031c9
:10774c0008fa03f216430133dbb20a2b08bf0023fd
:10775c008d42e2d14ff08443c3f8d0600120bde8e4
:10776c00f087002070470020704700bf383e022091
:020000040000fa
:10777c0010b51b4924230b7044234b7030238b70a2
:10778c003523cb705b230b71164b1a88100a48718a
:10779c008a719b881a0aca710b7200234b728b7206
:1077ac00114a1288100ac8720a734a1d0d3100bfa3
:1077bc0012f8010b0344dbb28a42f9d10b4a0d21ba
:1077cc001160074a53735d239373144601e001f073
:1077dc00adfa0f21204600f02bfc0028f7d010bd8d
:1077ec00dcb60020b03e02209a3e0220f43e02207d
:020000040000fa
:1077fc0010b51b4924230b7044234b7030238b7022
:10780c005523cb705b230b71164b1b784b710023ec
:10781c008b71cb710b724b728b72cb720b734a1dcb
:10782c000d3100bf12f8010b0344dbb28a42f9d1cf
:10783c000d4a0d2111600a4a53735d23937314464c
:10784c0001e001f073fa0f21204600f0f1fb002853
:10785c00f7d04ff480620021044801f0e7fa10bd24
:10786c00dcb600207c3f0220f43e0220ec340220e7
:020000040000fa
:10787c00184b1b78002b2bd000b583b00023019341
:10788c00019a154b9a4207d81a4600bf019b013347
:10789c000193019b9342f8d9104b1b7823b101f053
:1078ac00e9fa03b05df804fb4ff000530c4a1a6080
:1078bc005a609a60da60bff34f8f0a49ca6802f4c3
:1078cc00e062094b1343cb60bff34f8f00bffde762
:1078dc00704700bf933f02201fa10700913f022079
:0c78ec004d43485000ed00e00400fa0598
:020000040000fa
:1078f8009ab32de9f041174688bb4ff08443d3f87b
:10790800a430c3f3052301b301395ffa81f84ff0be
:10791800000cdff850e000e09446def8002002ebaf
:107928000312166855689468d2683e607d60bc6032
:10793800fa608c4509d010370133dbb2052b08bf3c
:1079480003460cf10102c445e6d103f03f034ff0b2
