:020000040000fa
:10200000f0ff0320097a00007f8e0000db8f0000c4
:10201000879300005f9400004395000000000000db
:10202000000000000000000000000000275e00002b
:10203000d790000000000000275e0000275e00002f
:10204000275e0000275e0000275e0000275e00007c
:10205000275e0000275e0000275e0000275e00006c
:10206000275e0000275e0000275e0000658f0000ed
:10207000275e0000275e0000275e0000275e00004c
:10208000275e0000275e0000275e0000275e00003c
:10209000275e0000275e0000275e0000275e00002c
:1020a000275e0000275e0000275e0000275e00001c
:1020b000275e0000275e0000275e0000275e00000c
:1020c000275e0000275e0000275e0000275e0000fc
:1020d000275e0000275e0000275e0000275e0000ec
:1020e000275e0000798d0000000000000000000065
:1020f00000000000275e0000c9660000c9660000fd
:10210000c9660000c966000009620000096200009b
:102110000962000009620000275e0000275e0000df
:10212000275e0000275e00009169000091690000b1
:102130009169000091690000275e0000275e0000a1
:10214000275e0000275e0000d96a0000d96a0000ff
:10215000d96a0000d96a00000000000000000000f9
:10216000000000000000000000000000000000006f
:102170000000000000000000275e0000275e000055
:10218000275e0000275e0000275e0000275e00003b
:1021900000000000275e0000275e0000275e0000b0
:1021a000275e0000275e0000275e0000275e00001b
:1021b000275e0000275e0000275e0000275e00000b
:1021c000275e0000275e0000275e0000275e0000fb
:1021d000275e0000275e0000275e0000275e0000eb
:1021e000275e0000275e0000275e0000275e0000db
:1021f000275e0000275e0000275e0000275e0000cb
:10220000275e00000000000000000000275e0000c4
:10221000275e0000275e0000275e0000275e0000aa
:10222000275e0000275e0000275e0000275e00009a
:10223000275e0000275e0000275e0000275e00008a
:10224000275e0000275e0000275e0000275e00007a
:10225000275e0000275e0000275e0000275e00006a
:020000040000fa
:10226000f8b500bff8bc08bc9e467047e58b00007f
:10227000f8b500bff8bc08bc9e467047c18b000093
:020000040000fa
:102280002de9f04fafb03222002121a807f0ccf8a1
:10229000ac4b1d7815b92fb0bde8f08f2a46aa497e
:1022a00021a806f0a1ff0023a64a1370a74a1268ce
:1022b0001c92a74a52691192a64a12780e92a64918
:1022c000ca790f92a54a12780c92a54a52691892bf
:1022d000a44a12681292a44a12781a92a34a526926
:1022e0001592a34a526914928a790a924a790892fd
:1022f0000a79069291f801a09e4a1278c878049053
:10230000887803900e789c4991f800b09b4991f829
:10231000008021ac013d0df1850151fa85f51f9337
:102320001e931d9310931b93199316931793139356
:102330000b93099307930d93059302930193994689
:102340001f4600931fe2a1f141030f2b11d8dfe8d4
:1023500013f03d0210003d023d023d02100010004e
:1023600010001000100010001000100010001000ed
:102370003d020123002203e2442e0bd0452e0fd054
:10238000432e13d0412e17d1642900f0348201234b
:102390000022f5e1642900f01f8201230022efe111
:1023a000642900f01e8201230022e9e1642900f083
:1023b0001d8201230022e3e1502e04d18a4601232d
:1023c00001930322dce101230022d9e1442e0cd049
:1023d000452e11d0432e16d0412e1bd1baf1640fd9
:1023e00000f01d8201230022cae1baf1640f00f05f
:1023f000078201230022c3e1baf1640f00f00582d5
:1024000001230022bce1baf1640f00f00382012332
:102410000022b5e1502e04d103910123029304223e
:10242000aee101230022abe1442e0ad0452e0fd0ad
:10243000432e14d0412e19d0502e1ed0012300223d
:102440009ee1baf1640f00f0ef810123002297e1d1
:10245000baf1640f00f0ed810123002290e1baf19e
:10246000640f00f0eb810123002289e1baf1640fcf
:1024700000f0e9810123002282e13a2900f0e8819d
:102480003d2900f0ec810123002279e1442e0cd09b
:10249000452e11d0432e16d0412e1bd1baf1640f18
:1024a00000f0f181012300226ae1baf1640f00f02b
:1024b000db810123002263e1baf1640f00f0d981ce
:1024c000012300225ce1baf1640f00f0d7810123ff
:1024d000002255e1502e04d10691012307930622d4
:1024e0004ee1012300224be1442e0cd0452e11d0a9
:1024f000432e16d0412e1bd1baf1640f00f0d781c4
:10250000012300223ce1baf1640f00f0c1810123f4
:10251000002235e1baf1640f00f0bf8101230022ef
:102520002ee1baf1640f00f0bd810123002227e102
:10253000502e04d1089101230993072220e10123a1
:1025400000221de12f530220e04f0220645302209d
:1025500000510220375302204c4e02202c530220ff
:10256000605102206c530220565302202051022059
:10257000805102202b53022049530220485302204d
:10258000442e0cd0452e11d0432e16d0412e1bd1f7
:10259000baf1640f00f09f8101230022f0e0baf14c
:1025a000640f00f0898101230022e9e0baf1640f91
:1025b00000f0878101230022e2e0baf1640f00f00d
:1025c000858101230022dbe0502e04d10a910123f2
:1025d0000b930822d4e001230022d1e0442e0cd03a
:1025e000412e32d0452e5cd0432e79d1baf1640f02
:1025f00000f0768101230022c2e0baf1640f02d01c
:1026000001230022bce04b2902d001230022b7e0c5
:10261000049b202b0cd00a9a0699049806f084fe9d
:1026200014900123179313931e2212920022a7e005
:10263000069b303bdbb203eb83030a9a303a02eb92
:10264000430303f0ff031493ebe7baf1640f02d0e6
:102650000123002294e04b2902d0012300228fe0c5
:10266000069b2e2b05d0089b2e2b11d00123002278
:1026700086e0049b303bdbb203eb8303089a303add
:1026800002eb430303f0ff03159301231693ede7d9
:102690000a9a0699049806f047fe159001231693ae
:1026a000e4e7baf1640f02d00123002268e0442974
:1026b00002d00123002263e00a9a0899069806f0e6
:1026c00033fe1890039b502b14bf002301231a9351
:1026d00001231b93199313931e22129200224fe0a1
:1026e000502e06d10f91012310930d930c930022cd
:1026f00046e00123002243e0baf1640f02d0012337
:1027000000223de0462902d00123002238e0049b4c
:10271000202b12d0039b202b20d00e9b03f0df0335
:1027200043f040030e930023119301231f931e9344
:102730001d931e221c92002222e0069b303bdbb23e
:1027400003eb83030a9a303a02eb430303f0ff03df
:1027500011930e9b03f09f030e93e6e70a9a0699e6
:10276000049806f0e1fd11900e9b03f09f030e9379
:10277000dbe701274ff000080097c3463b463a4687
:10278000ac4200f0b28014f8011b2429f1d0012ad8
:102790003ff4d9ad022a3ff4efad032a3ff416ae61
:1027a000042a3ff441ae052a3ff470ae062a3ff4f6
:1027b0009bae072a3ff4e4ae082a3ff40faf092a84
:1027c000ded1432e98d001230022d9e70e464ff0e8
:1027d00001094b460222d3e78a46012301930322d3
:1027e000cee78a46012301930322c9e78a460123e3
:1027f00001930322c4e78a46012301930322bfe722
:102800000391012302930422bae703910123029367
:102810000422b5e70391012302930422b0e7039158
:10282000012302930422abe70491012305930522bf
:10283000a6e70491012305930522a1e70491012352
:10284000059305229ce7049101230593052297e750
:10285000049101230d930c930593002290e70491ba
:102860000123059305228be7069101230793062296
:1028700086e7069101230793062281e7069101234b
:10288000079306227ce7069101230793062277e748
:10289000089101230993072272e708910123099304
:1028a00007226de7089101230993072268e7089141
:1028b00001230993072263e70a9101230b9308225e
:1028c0005ee70a9101230b93082259e70a9101233d
:1028d0000b93082254e70a9101230b9308224fe738
:1028e0000f910123109309224ae70bb1394b1a705b
:1028f000009b13b1384b83f800b017b1374b83f806
:102900000080b9f1000f01d0354b1e70019b13b14f
:10291000334b83f801a0029b002b3ad1059b002b7f
:102920003bd10d9b002b3cd1079b002b3dd1099b3c
:10293000002b3ed10b9b002b3fd1139b002b40d192
:10294000179b002b41d1169b13b1264b159a5a6148
:10295000199b13b1244b189a5a611b9b13b1234b3b
:102960001a9a1a70109b13b11d4b0f9ada711d9ba6
:1029700013b11f4b1c9a1a601e9b13b11d4b0e9a6c
:102980001a701f9b002b3ff486ac1b4b119a5a61a7
:1029900081e4134b039a9a70c0e7114b049ada70e2
:1029a000bfe7164b0c9a1a70bee70d4b069a1a71c8
:1029b000bde70b4b089a5a71bce7094b0a9a9a710a
:1029c000bbe70f4b129a1a60bae70e4b149a5a6182
:1029d000b9e700bf2b53022049530220485302207d
:1029e0004c4e0220205102206051022056530220fa
:1029f0006453022037530220005102202c5302203e
:082a00006c53022080510220fa
:020000040000fa
:102a08002de9f04f2ded0a8b9bb0012006f01bfd40
:102a180020b91bb0bdec0a8bbde8f08f012006f091
:102a280091fd002006f094fb82460028f1d0002496
:102a38004ff000084ff000099fed9f8b9feda09b82
:102a48009feda1cb9feda2bb9feda3abbde150795c
:102a5800ff2868d006f0d2fb53ec182b04f00cfad0
:102a6800804689469e4b187906f0c8fb42464b467d
:102a780002f090fd53ec192b04f0fef980468946cc
:102a880006f002fb974b5860974b01229a72974bbe
:102a98001e221a80964b9e4240f0db81dff840826e
:102aa80098f8020006f0aafb53ec182b04f0e4f99e
:102ab80006460f4698f8010006f0a0fb32463b4652
:102ac80002f068fd53ec192b04f0d6f906f0dcfa95
:102ad800884b586098f8040006f090fb53ec182bcc
:102ae80004f0caf906460f4698f8030006f086fb7c
:102af80032463b4602f04efd53ec1c2b04f0bcf969
:102b08008046894606f0c0fa7b4b5860b42831d914
:102b18007a4b01221a70c0f5b470774b5860784b25
:102b28001e221a6095e16f4b00225a60b2e7754b7e
:102b38009e42afd16a4eb07806f060fb53ec182b7a
:102b480004f09af942464b4602f024fd8046894635
:102b5800707806f053fb42464b4602f01bfd53ecdf
:102b68001b2b04f089f98046894606f08dfa664bde
:102b780058606ee1614b00221a70d0e7584b1b7801
:102b8800032b0fd0042b13d0022b40f065815f4b31
:102b98001988022006f054fa5d4b1988052006f0c2
:102ba8004ffa59e15b4b1988082006f049fa53e1be
:102bb800594b1b78c3f58073584aa2f8483050e146
:102bc800474b1b78ca2b22d0554b1b78962b4ad0e3
:102bd800542b40f05381bbf1ef0f45d0404bd978cf
:102be800504a11701978504a117099794f4a1170ea
:102bf80059794f4a117019794e4a1170d9793a4a60
:102c0800537c23f0700343ea41135374d8e0344be8
:102c18005b78ca2bd8d1324b9b78c12b07d0c22bfb
:102c28000ad0cd2bd0d1444b04221a70cce705f042
:102c38005bff05f099fe14e106f0b6f805f094fe86
:102c48000fe106f077f811e1992bbfd13a4b012239
:102c58001a70334b1b78802b40f09e812f4bda8ff4
:102c6800364b1a70ace0fee71d4b1b78012b6dd07c
:102c7800022bb3d11a4b5b78aa2bafd1184bdb7858
:102c8800012b00f02e815ab2002a00f01b81022b82
:102c980000f03c812a4b02221a70bb225a70104a5b
:102ca80091789970d278da70264b274a1a6005f025
:102cb80015fb70e0aff300800000000000e06f40fb
:102cc8006c216d8896e1c83f427bf5f1d077773f5c
:102cd800f865bbdee577773f0f0bb5a6796740400f
:102ce80034f50020205102203c4f0120625302207d
:102cf80002fd01008051022060510220565302203b
:102d08006c53022012f10100f4510220544f0220aa
:102d1800545202205c5202207953022038f40020d9
:102d28001d530220405302203853022047530220eb
:102d380046530220455302202a5302202e530220d4
:102d480030d6002068520220f054ef007f4b5b78a9
:102d5800aa2b7ff443af7e4b00221a715a719a71e5
:102d6800da717a4bda78012a00f0948053b2002b9a
:102d780000f08980022a00f09780754b01211970b4
:102d8800bb215970714989789970da70714b724a10
:102d98001a6005f0a3fa714b1b78562b40f0d180ce
:102da8006f4b1879694b59781a7802eb01226d49f3
:102db80041f8202099786c4a1170da786b4b1a70b8
:102dc8000134e3b29a457ff624ae002006900790be
:102dd8000890099006aa012105f0eaf80028efd02a
:102de8005a4a08ab03cb10605160069bc3f3112607
:102df8005f4b1e605f4b1e709df81850574b1d703f
:102e08009df81ab05c4b9e423ff421ae5b4b9e424c
:102e18007ff48dae4d4b1979da7802eb01219a785f
:102e280002eb0122587800eb022006f0e7f953ec98
:102e38001a2b04f021f88046894606f025f9504bf4
:102e48005860504a137823f0200313704e4b1e220b
:102e58001a60912d3ff492ae404b1b78902b3ff4b3
:102e6800afae3e4b1b78932b3ff4ebae3b4b1b783e
:102e7800972b7ff4e9ae454b01221a70374b1b782c
:102e8800562b8dd0e7e6314b9b783549c95c304be2
:102e9800197172e72d4b99783d4b33f811302c4955
:102ea8000b711b0a4b7168e7284b9978394b53f81b
:102eb800213027490b71180a4871180c88711b0eac
:102ec800cb715ae7214d2979a87806f021f9204bd2
:102ed800aa7823498a5c1a7100225a719a71da71a8
:102ee800d8e61a4d6b79297901eb032189b2a878c4
:102ef80006f0a6f8aa78264b33f81220144b1a715c
:102f0800120a5a7100229a71da71c3e60f4dea79f2
:102f1800ab7903eb02226b7903eb0223297901ebee
:102f28000321a87806f09ef8aa781a4b53f82230a5
:102f3800074a1371190a5171190c91711b0ed3713b
:102f4800a8e6542b3ff44aae85e600bf34f50020ce
:102f580030d6002068520220f054ef001d530220a2
:102f68003c4f0120f45102202b52022036520220fd
:102f7800785202201e53022002f801000bf50100ce
:102f88000051022037530220645302204f5302207d
:102f980038f40020583d002003f17f02d2b2022a03
:102fa8003ff60eaf564a1278d22a3ff409af03f023
:102fb8000f05013dedb2534b1d70534b534e327804
:102fc80003f8152003eb4503514ad28f5a70f37862
:102fd800b07800eb03204f4b186006f00ff902465b
:102fe8000b46717811f0010f05d0009203f10043f0
:102ff8000193dde90023484e6f00791906ebc10102
:103008004348b0f8620091ed001b43ec102b05f02b
:1030180047fd3d4406ebc50686ed000b3b4d6b793d
:10302800287900eb03203b4b186006f0e7f80246ce
:103038000b46697811f0020f05d0029203f10043a4
:103048000393dde902232f490f78334d7e00f119f0
:1030580005ebc1012e48b0f8620091ed021b43ec6c
:10306800102b05f01dfd3e4405ebc60585ed020b52
:10307800264deb79a87900eb0320264b186006f063
:10308800bdf8804689466b7813f0040f05d004908c
:1030980001f100430593dde904891a4f97f800b060
:1030a8001d4d4fea4b0606eb0b0305ebc303184a0d
:1030b800b2f8620093ed041b49ec108b05f0f0fcac
:1030c8005e4405ebc60585ed040b3b78012b10d05b
:1030d8005ab242b1022b7ff473ae104a137823f030
:1030e800040313706ce60d4a137823f00103137080
:1030f80066e60a4a137823f00203137060e600bffd
:103108001e530220395302204052022034f5002079
:1031180038f4002088520220584f022026530220fb
:020000040000fa
:10312800a051022054000000000000004a4e022076
:1031380002000000000000003852022008000000d1
:1031480000000000145202200c00000000000000e3
:10315800034f02200100000000000000d4500220ac
:103168002c00000000000000145002203000000075
:1031780000000000ec4402200004000000000000f1
:10318800a04f022040000000000000004450022030
:1031980030000000000000002a5202200100000058
:1031a80000000000544f022004000000000000004e
:1031b8005052022014000000000000002b52022090
:1031c800010000000000000036520220020000004a
:1031d800000000004652022002000000000000002b
:1031e8006452022004000000000000004e52022039
:1031f8000200000000000000e92402200200000094
:1032080000000000eb240220010000000000000084
:10321800195302200100000000000000ec4c0220bd
:103228005e010000000000001a53022003000000a5
:103238000000000012500220020000000000000000
:103248006852022004000000000000001d53022004
:103258000200000000000000f451022010000000ed
:1032680000000000005102202000000000000000c3
:103278001f5302200100000000000000205302201c
:103288000200000000000000205102202000000081
:10329800000000000452022010000000000000009e
:1032a80022530220020000000000000024530220e4
:1032b80002000000000000006c520220080000001c
:1032c800000000002653022001000000000000005a
:1032d800275302200200000000000000b04e022028
:1032e80053000000000000002953022001000000e4
:1032f80000000000745202200400000000000000da
:103308002a53022001000000000000007852022029
:1033180004000000000000002b5302200100000000
:10332800000000002c5302200200000000000000f2
:10333800584f0220480000000000000040520220c0
:103348000600000000000000745002203000000059
:10335800000000002e5302200100000000000000c1
:103368004c4e022064000000000000002f53022091
:103378000200000000000000e04f022032000000c0
:103388000000000048520220060000000000000073
:1033980031530220020000000000000033530220d5
:1033a8000100000000000000405102202000000041
:1033b800000000003453022001000000000000005b
:1033c800355302200100000000000000365302209f
:1033d80001000000000000007c52022008000000ec
:1033e8000000000037530220010000000000000028
:1033f80060510220200000000000000080510220df
:1034080020000000000000003853022001000000e6
:1034180000000000395302200100000000000000f5
:103428003a530220030000000000000084520220ea
:103438000400000000000000885202200400000080
:10344800000000003d5302200100000000000000c1
:103458008c52022004000000000000003e530220ad
:103468000100000000000000905202200c00000043
:10347800000000003f53022001000000000000008f
:103488009c5202200400000000000000a05202200c
:10349800040000000000000040530220010000006a
:1034a800000000004153022001000000000000005d
:1034b800a452022004000000000000004253022031
:1034c8000100000000000000a852022004000000d3
:1034d80000000000ac5202200400000000000000c0
:1034e8004353022001000000000000004453022062
:1034f8000200000000000000465302200100000006
:1035080000000000475302200100000000000000f6
:103518004853022003000000000000004b53022023
:1035280003000000000000004e53022001000000cc
:1035380000000000205202200a00000000000000e5
:103548001853022001000000000000002c52022045
:103558000a000000000000004f5302200100000094
:1035680000000000b0520220080000000000000027
:10357800505302200100000000000000b852022051
:103588000400000000000000515302200100000068
:10359800000000005253022001000000000000005b
:1035a800bc52022004000000000000005353022017
:1035b8000100000000000000545302200200000037
:1035c80000000000c05202200400000000000000bb
:1035d800565302200100000000000000c4520220df
:1035e8000400000000000000575302200100000002
:1035f80000000000615302200100000001000000eb
:1036080001000000645302200400000001000000d3
:103618001e00000078530220010000000100000095
:1036280005000000625302200200000001000000b3
:103638001e00000068530220040000000100000082
:10364800a08c000079530220010000000100000056
:10365800800000006c5302200400000001000000fc
:103668001e00000010000020a0e50100000000007e
:103678007a53022001000000010000000100000050
:10368800b0e501202c1f0000000000005853022064
:103698000100000000000000c852022004000000e1
:1036a80000000000ec2402200020000000000000c0
:1036b800cc520220040000000000000059530220f0
:1036c8000200000000000000d052022008000000a4
:1036d800000000005b530220010000000000000011
:1036e800ec4802200004000000000000dc04022076
:1036f8000d20000000000000d85202200400000045
:10370800000000005c5302200100000000000000df
:103718007b5302200100000001000000510000005e
:10372800705302200400000001000000090000009e
:10373800dc5202200c000000000000005d53022053
:103748000200000000000000e85202200c00000007
:1037580000000000a450022030000000000000001b
:10376800f452022004000000000000005f53022011
:103778000100000000000000f852022018000000bc
:10378800000000006053022001000000000000005b
:10379800745302200400000001000000ffffffff37
:1037a800105302200400000000000000044f022013
:1037b8005000000000000000145302200400000024
:1037c8000000000000000000000000006666666659
:020000040000fa
:1037d8002de9f843132800f22783dfe810f01400de
:1037e80069008d00b100d500f9001d014101650196
:1037f8008901bd01e101050229024d02710295020c
:10380800b902dd020103ce4b186805f0f7fc044647
:103818000d46cc4eb08805f0f1fc02460b4620461a
:10382800294605f09ffe04460d46c74b186805f06b
:10383800e5fc80468946308a05f0e0fc02460b46e6
:103848004046494605f08efe06460f4600220023f4
:103858002046294605f0f6fa002840f0ea8222467a
:103868002b463046394602f0cff941ec100b02f0f6
:1038780063fe51ec100bb0a3d3e9002303f0fcfa6c
:1038880004460d460022b14b01f084fe05f0fcfb16
:10389800af4b1870ab4bb3f8480005f007fc224655
:1038a8002b4601f077fe05f0effbc0b2bde8f883c8
:1038b800a34b186805f0a2fc04460d46a14eb0883b
:1038c80005f09cfc02460b462046294605f04afeb8
:1038d80004460d46308a05f091fc06460f469a4b81
:1038e800186805f08bfc02460b463046394605f051
:1038f80039fe06460f46a9e7914b186805f07efc8d
:1039080004460d468f4eb08805f078fc02460b46fb
:103918002046294605f026fe04460d468d4b1868bc
:1039280005f06cfc80468946708905f067fc024604
:103938000b464046494605f015fe06460f4685e704
:103948007f4b186805f05afc04460d467d4eb0883a
:1039580005f054fc02460b462046294605f002feb7
:1039680004460d46708905f049fc06460f46794b1a
:10397800186805f043fc02460b463046394605f008
:10398800f1fd06460f4661e76e4e308a05f036fcbb
:1039980004460d466c4b186805f030fc02460b4691
:1039a8002046294605f0defd04460d46694b186899
:1039b80005f024fc80468946708905f01ffc024604
:1039c8000b464046494605f0cdfd06460f463de705
:1039d8005c4e308a05f012fc04460d465a4b1868b6
:1039e80005f00cfc02460b462046294605f0bafdb8
:1039f80004460d46708905f001fc06460f46554bf6
:103a0800186805f0fbfb02460b463046394605f0c0
:103a1800a9fd06460f4619e74a4e308a05f0eefb27
:103a280004460d46484b186805f0e8fb02460b466d
:103a38002046294605f096fd04460d46404b186879
:103a480005f0dcfb80468946b08805f0d7fb0246c6
:103a58000b464046494605f085fd06460f46f5e605
:103a6800384e308a05f0cafb04460d46364b1868b6
:103a780005f0c4fb02460b462046294605f072fdb8
:103a880004460d46b08805f0b9fb06460f462c4b98
:103a9800186805f0b3fb02460b463046394605f078
:103aa80061fd06460f46d1e6274b186805f0a6fbd0
:103ab80004460d46234e308a05f0a0fb02460b460d
:103ac8002046294605f04efd04460d46214b186850
:103ad80005f094fb80468946708905f08ffb024605
:103ae8000b464046494605f03dfd06460f46ade605
:103af800154b186805f082fb04460d46114e308ab6
:103b080005f07cfb02460b462046294605f02afdb7
:103b180004460d46708905f071fb06460f460d4bad
:103b2800186805f06bfb02460b463046394605f02f
:103b380019fd06460f4689e612143fc6dca54c401f
:103b4800544f022038f400205c52022000006040ec
:103b58007953022054520220b74b186805f04efbe7
:103b680004460d46b54e308a05f048fb02460b4622
:103b78002046294605f0f6fc04460d46b04b186869
:103b880005f03cfb80468946b08805f037fb0246c5
:103b98000b464046494605f0e5fc06460f4655e605
:103ba800a54b186805f02afb04460d46a34e308a3b
:103bb80005f024fb02460b462046294605f0d2fcb8
:103bc80004460d46b08805f019fb06460f469c4b87
:103bd800186805f013fb02460b463046394605f0d7
:103be800c1fc06460f4631e6964b186805f006fb01
:103bf80004460d46914e708905f000fb02460b46bf
:103c08002046294605f0aefc04460d468a4b186846
:103c180005f0f4fa80468946308a05f0effa024644
:103c28000b464046494605f09dfc06460f460de604
:103c3800844b186805f0e2fa04460d467f4e7089f9
:103c480005f0dcfa02460b462046294605f08afcb8
:103c580004460d46308a05f0d1fa06460f46764be3
:103c6800186805f0cbfa02460b463046394605f08f
:103c780079fc06460f46e9e5724b186805f0befa6e
:103c880004460d466d4e708905f0b8fa02460b469b
:103c98002046294605f066fc04460d46684b186820
:103ca80005f0acfa80468946b08805f0a7fa0246c6
:103cb8000b464046494605f055fc06460f46c5e505
:103cc800604b186805f09afa04460d465b4e7089f9
:103cd80005f094fa02460b462046294605f042fcb8
:103ce80004460d46b08805f089fa06460f46544b3f
:103cf800186805f083fa02460b463046394605f047
:103d080031fc06460f46a1e54c4e708905f076fa5f
:103d180004460d464b4b186805f070fa02460b46f0
:103d28002046294605f01efc04460d46424b1868fd
:103d380005f064fa80468946308a05f05ffa024643
:103d48000b464046494605f00dfc06460f467de504
:103d58003a4e708905f052fa04460d46394b1868f8
:103d680005f04cfa02460b462046294605f0fafbb8
:103d780004460d46308a05f041fa06460f462e4b9a
:103d8800186805f03bfa02460b463046394605f0fe
:103d9800e9fb06460f4659e5284e708905f02efacc
:103da80004460d46274b186805f028fa02460b46cc
:103db8002046294605f0d6fb04460d46204b1868d8
:103dc80005f01cfa80468946b08805f017fa0246c5
:103dd8000b464046494605f0c5fb06460f4635e505
:103de800164e708905f00afa04460d46154b1868f8
:103df80005f004fa02460b462046294605f0b2fbb8
:103e080004460d46b08805f0f9f906460f460c4bf6
:103e1800186805f0f3f902460b463046394605f0b6
:103e2800a1fb06460f4611e50026002734463d460d
:103e38000ce5002000211ee55c52022038f4002029
:083e4800544f022054520220e5
:020000040000fa
:103e500000b583b000238df80730a04b18781428e4
:103e600000f20082dfe810f0150020003a00530055
:103e70006c0085009e00b900d300ed000701210110
:103e80005c0177019101ab01c501df01fe01fe017b
:103e9000f9010023924a1370924a13608f4b01225a
:103ea0001a7003b05df804fb8d4b01221a7005f007
:103eb00017f804f04dfa08b90020f2e78a498b4b55
:103ec000186804f055fc8a4b18700028e9d0834b21
:103ed00002221a700020834b1860e2e705f000f818
:103ee00004f036fa08b90020dbe7804b18688149f6
:103ef00000f5f05004f03cfc7d4b18700028d0d049
:103f0000764b03221a700020764b1860c9e704f044
:103f1000e7ff04f01dfa08b90020c2e7734b1868e8
:103f2000754900f5705004f023fc714b187000289f
:103f3000b7d06a4b04221a7000206a4b1860b0e7b1
:103f400004f0ceff04f004fa08b90020a9e7674b9b
:103f500018686a4900f5b44004f00afc644b187014
:103f600000289ed05d4b05221a7000205d4b186022
:103f700097e704f0a9fc8df8070004f0b1ff04f006
:103f8000e7f908b900208ce701220df107015c4b2d
:103f9000186804f015fd514b06221a700020514b91
:103fa00018607ee74e4b01221a7004f099ff04f06e
:103fb000cff908b9002074e75249534b186804f050
:103fc000d7fb4b4b187000283ff46baf434b0722d5
:103fd0001a700020434b186063e704f081ff04f07f
:103fe000b7f908b900205ce7474b1868474900f566
:103ff000f05004f0bdfb3e4b187000283ff451af69
:10400000364b08221a700020364b186049e704f03e
:1040100067ff04f09df908b9002042e73a4b1868a1
:104020003b4900f5705004f0a3fb314b1870002899
:104030003ff437af294b09221a700020294b186032
:104040002fe704f04dff04f083f908b9002028e7ba
:104050002d4b18682f4900f5b44004f089fb244b20
:10406000187000283ff41daf1c4b0a221a70002064
:104070001c4b186015e704f033ff04f069f908b928
:1040800000200ee7204b1868234900f5f04004f0ab
:104090006ffb174b187000283ff403af0f4b0b2238
:1040a0001a7000200f4b1860fbe604f0b5f98df88c
:1040b000070004f015ff04f04bf908b90020f0e602
:1040c00001220df10701154b186804f079fc034b30
:1040d0000c221a700020034b1860e2e64d530220b8
:1040e000575302207452022038d60020a4520220d6
:1040f000215302203c310120608b01203cf500203f
:10410000a8520220685b002094520220581f002011
:10411000604f01206879002030b8002098520220ba
:10412000514b01221a7004f0dbfe04f011f908b9ba
:104130000020b6e64d494e4b186804f019fb4d4b74
:10414000187000283ff4adae4b4b0d221a700020c2
:104150004a4b1860a5e604f0c3fe04f0f9f808b96c
:1041600000209ee6424b1868454900f5f05004f0e7
:10417000fffa404b187000283ff493ae3e4b0e22de
:104180001a7000203d4b18608be604f0a9fe04f085
:10419000dff808b9002084e6354b1868394900f586
:1041a000705004f0e5fa334b187000283ff479aef4
:1041b000314b0f221a700020304b186071e604f06a
:1041c0008ffe04f0c5f808b900206ae6284b18688d
:1041d0002d4900f5b44004f0cbfa264b18700028a6
:1041e0003ff45fae244b10221a700020234b18605e
:1041f00057e604f075fe04f0abf808b9002050e66d
:104200001b4b1868214900f5f04004f0b1fa194b36
:10421000187000283ff445ae174b11221a70002089
:10422000164b18603de604f029f98df8070004f0fc
:1042300057fe04f08df808b9002032e601220df196
:104240000701134b186804f0bbfb0b4b14221a70c8
:104250000a4b00221a60012023e6034b00221a7049
:1042600001201ee600201ce65753022060a9012011
:104270008c520220215302204d53022074520220fe
:1042800060c70120606d01203c130120683d0020c3
:044290009052022026
:020000040000fa
:104294002de9f04184b0a74b1c68a4f10902a64b98
:1042a4001b7aa03b062b00f2f781dfe813f007002e
:1042b40035007201a801b701ae00c501082a1dd15d
:1042c4009e4805f053f80446f0b19d4805f04ef8b9
:1042d400021990421ad2b0f5005f19d3b2f5801fcb
:1042e40018d840ea0403c3f30c030bb1512006e0d1
:1042f400944b1860944b1a60502000e0512005f054
:1043040029f804b0bde8f0815120f8e75120f6e720
:104314005120f4e75120f2e78c4b5121197042f2fd
:1043240004039a4207d0894be1221a70874b18780c
:1043340005f010f8e5e7834b1c6874b1804805f07c
:1043440015f80546a04208d300f500537e4a1268ca
:10435400934202d8c0f30c041cb17c4be2221a70c5
:10436400e4e705f07bf800bf05f00cf80028fbd16a
:10437400284604f00dff78b105f004f80028fbd1bd
:1043840004f0a8fe10f07e000ad000f01f0363f0d2
:104394007f036e4a1370c9e76c4be3221a70c5e7ba
:1043a4005a2004f0d7ff2e46644f7f1b4ff4007849
:1043b400674d4246b919284604f014ff3146284691
:1043c40004f01cfc98b100bf04f0dcff0028fbd112
:1043d40004f080fe10f07e0010d1013406f5007662
:1043e400102ce5d15b2004f0b5ff5020a0e704f0c9
:1043f4000f0363f03f03554a137097e700f01f0360
:1044040063f05f03514a137090e7504b51211970c8
:10441400052a2cd94b4b1d6865b3494804f0a6ff07
:104424000646a84226d300f50053474a1268934231
:1044340020d8c0f30c05edb9b4f10f0222d03e4be5
:10444400997b5b7b43ea01239c18b4f5005f19d880
:10445400e3b94049086040494048184404f0c2feaa
:104464003f4b1c60b4f5005f21d2502007e0e422ea
:104474001a7002e0354be2221a70344b187804f0bb
:1044840069ff3ee7314be5221a70f6e731490968c6
:10449400884203d1324909688b42dcd02b4be62297
:1044a4001a7000232b4a13602d4a1360e5e7304647
:1044b40004f0d4ff04f066ff0028fbd1304604f07a
:1044c40067fe70b304f05eff0028fbd104f002fe27
:1044d40010f07e0348d13446204fbf1b4ff40078c0
:1044e400204e42463919304604f07cfe21463046bf
:1044f40004f084fb00283ed004f044ff0028fbd1e4
:1045040004f0e8fd10f07e003cd1013504f50074a0
:10451400102de5d100230f4a1360114a1360502077
:10452400ade70a4be3221a7000230a4a13600c4acf
:104534001360a2e770530220dc040220e904022085
:10454400e5040220d0520220d45202207b530220e0
:10455400ec480220c8520220eb040220ec24022082
:10456400cc520220ec4a022003f01f0363f07f03c5
:104574004b4a1370d8e705f00f0363f03f03484a32
:104584001370d1e700f01f0363f05f03444a137014
:10459400cae7042a2bd1434b1e6866b3424b1c68fe
:1045a400a6422ad2414804f0e1fe0746a4eb0608dd
:1045b4004ff0ff34002502e00135a84511d0ab5d72
:1045c4005c4008223a4944f300030b4083ea540454
:1045d400013af8d1c5f30b03002bedd104f096fe9c
:1045e400eae7e443a7420cbf5320542000e05420e0
:1045f40004f0b0fe85e65420fae75420f8e74ab9ff
:10460400502004f0a7fe2b4b01221a702a4b0022e3
:104614001a7076e6522004f09dfe72e642b95020ec
:1046240004f098fe0123234a1370234a137068e6aa
:10463400522004f08ffe64e652bb50238df8003004
:1046440000238df801301d4a528a82f01002c2f311
:1046540000128df8022003228df8032001228df828
:10466400042004218df8051020218df806108df802
:1046740007308df808308df809208df80a308df850
:104684000b208df80c300d21684604f0bff938e694
:10469400522004f05ffe34e6522004f05bfe30e664
:1046a4007b530220d0520220d4520220e50402207f
:1046b4002083b8ed5a530220595302200040004190
:020000040000fa
:1046c4002de988481027b64b1f70002004f032faf9
:1046d40004f022f9b34c4ff48053a3610823a3617f
:1046e4000021b14804f014ff0021b04804f00aff8f
:1046f400af4803f03bf9af4803f09af80021ae4805
:1047040004f0eefe4ff00066a6614ff40065c4f8b5
:1047140098504ff48063a36004f0ecfc4ff4000362
:10472400c4f898304ff08043c4f898304ff48003b5
:10473400c4f898304ff48013a36104f09ffd1d204a
:1047440004f02afe9d4b01221a7004f07ffd04f050
:1047540065fd6661c4f894504ff40053a3612023af
:10476400c4f898304ff40043c4f884304ff4001375
:10477400a361c4f898700a21914804f07ffa0a21d1
:10478400904804f05bfaa661c4f898508e4edff8a6
:104794008482dff884924c464ce0fef733f955e00e
:1047a40004f084fe002859d0884b1b78002b69d173
:1047b40004f07cfe002878d004f078fe30b9844bf5
:1047c4001b68002b76d0013b814a1360814b1b7818
:1047d40013b1013b7f4a13707f4b1b6813b1013b3c
:1047e4007d4a13607d4b1b6813b1013b7b4a136008
:1047f4007b4b1b78002b40f0818004f057fe00288f
:1048040000f0ca800a2388f8003004f07ffd754b5d
:104814001a7802f0a003a02b00f00081614b402124
:1048240099612021996110219961644b1b7813448b
:104834006c4a13703378002bfcd0002333701d2096
:1048440004f0aafd04f032fe0028a6d098f8003047
:10485400002ba5d0013b88f80030ebe702f086fc82
:1048640004f000fd04f0dcfb0028fbd05e4b58781c
:10487400fef7b0ff5d4d0122296804f055fec0b279
:10488400286091e702f004fc03f056fb04f00efeee
:1048940000288dd104f038fb002889d1fdf7eefc07
:1048a40002f03afd01f0a6f882e700f095ff00f06f
:1048b400edf881e7464b48f6a0421a604c4a53682b
:1048c400013353604b4a1378013313704a4b1b78fe
:1048d40013f0400f02d113f0800f03d0444a136841
:1048e40001331360454b02221a70454b00221a70a3
:1048f400444b06221a7004f039f867e704f0d6fd39
:1049040000287ff47aaf04f053fb00203e4b18607c
:104914003e4f4ff02c0a9b462ae000233b700125b2
:1049240005e03b780133dbb23b70172b0ad889f8da
:1049340000a02946204603f0bdfe0028f1d104f072
:10494400e5fcf6e74ff02c0389f8003001e004f0b1
:10495400ddfc0121204603f0adfe0028f7d004f071
:1049640027fbdbf800000130cbf800009f280fd8ac
:10497400274b186003f01af93a2389f80030012113
:10498400204603f097fe0028c7d104f0bffcf6e7e9
:10499400134b00221a7030e702f08cfd32e700bf9f
:1049a40050530220008000417582000005820000ff
:1049b400101e002060e50120c59300006153022011
:1049c4002c520220205202203d5302205253022036
:1049d4006853022044530220a0520220b8520220fd
:1049e4004f530220415302203c4f01200452022025
:1049f400583d002031530220245302202a53022020
:104a04004d5302201f530220bc5202205553022052
:104a1400885202205353022054530220164b1b7811
:104a24006bb1164b4021596120219961144b1b78bd
:104a3400002b3ff4faae114b10215961f5e6114bee
:104a44001b784bb90e4b1b780f490978194309d1d0
:104a54000a4b20215961e8e6084b102159612021b5
:104a64005961e2e6054910204861002b3ff4ddaeb0
:104a7400024b40215961d8e6e9240220008000411c
:0c4a8400ea2402202053022030530220bc
:020000040000fa
:104a9000f8b5a04b1b7cdb089f4a137003f003039f
:104aa0009e4a13709e4b1b78072b16d8dfe813f035
:104ab0000800610081008900a800ce00f7002001f5
:104ac00004f0f6fb954b1b78012b20d05ab22ab18b
:104ad000022b35d0934b00221a70f8bd924b4ff445
:104ae00000721a60914b4ff4b5321a60904b4ff43c
:104af0004b321a608f4b4ff4f6721a608e4b40f2b5
:104b0000ef121a608d4b4ff4f9721a60e2e7864b90
:104b10004ff4f4421a60854b4ff400321a60844b14
:104b200002f5e1321a60834b40f2ed121a60824bbb
:104b30004ff4f8721a60814b40f2f3121a60c9e721
:104b4000794b4ff472421a60784b02f5d2321a60f8
:104b5000774b4ff48b221a60764b4ff4f7721a6042
:104b6000754b40f2f1121a60744b4ff4fa721a60ee
:104b7000b0e700f00df901280dd002280fd003286e
:104b8000abd1674b07221a706d4b40221a706d4be8
:104b900004221a70a1e7624b07221a709de7604b4e
:104ba00007221a70664b10221a70664b04221a7084
:104bb00093e7fff74df901288fd1594b07221a705f
:104bc0008be7614800f5f05200f5fa50002102e051
:104bd0000232904207d0a2f5f053198003f5a0737a
:104be0009342fad1f4e7594b18221a70584ba0227d
:104bf0001a604b4b02221a704a4b00221a706ce763
:104c00005449554d554c504801f5a076002205e019
:104c100002310235023402308e420ad00023ca52d9
:104c2000ea52e252c25203f5a073b3f5f05ff6d137
:104c3000eee7464b18221a70454ba0221a60384bfb
:104c400005221a70374b00221a7046e74449454e38
:104c5000454d464c464801f5a077002206e002315a
:104c60000236023502340230b9420bd00023ca5258
:104c7000f252ea52e252c25203f5a073b3f5f05f6a
:104c8000f5d1ece7314b18221a70314ba0221a6093
:104c9000234b06221a70234b00221a701de7354958
:104ca000354e364d364c374801f5a077002206e0e8
:104cb00002310236023502340230b9420bd00023f1
:104cc000ca52f252ea52e252c25203f5a073b3f54d
:104cd000f05ff5d1ece71d4b18221a701c4ba02297
:104ce0001a600f4b02221a700e4b00221a70f4e663
:104cf000254b01221a70254b4ff000625a614ff488
:104d00000062c3f894204ff480525a6104f0c4fa50
:104d1000e3e600bf3c4f0120395302204b530220f1
:104d20002a5302204d530220a45202208c5202200a
:104d300094520220a852022090520220985202203f
:104d400020530220615302203cf5002055530220dd
:104d5000bc52022038d600203c310120608b01205b
:104d600060a9012060c70120606d01203c13012073
:104d7000683d0020685b0020581f0020604f012024
:104d80006879002030b80020525302200080004192
:020000040000fa
:104d900010b5a04b1c78142c00f23a81dfe814f017
:104da000150021002e003c004a0070007c008900a4
:104db0009700a500b300d200de00eb00f900070168
:104dc000150138013801380134014ff4f05292498d
:104dd000924b186803f0a2f98e4b01221a702046fc
:104de00010bd8e4b18684ff4f0528d49104403f0fb
:104df00095f9884b02221a700024f0e7874b186857
:104e00004ff4f052874900f5705003f087f9814b59
:104e100003221a700024e2e7804b18684ff4f05226
:104e2000814900f5b44003f079f97a4b04221a70f5
:104e30000024d4e703f048fda0b97c4c01222146b0
:104e40007b4b186803f030f903f03efd794b187086
:104e500003f03afd2378834207d16e4b05221a7086
:104e60000024bce704f054fae7e7734b20221a70e1
:104e7000724b04221a70674b14221a700224aee798
:104e80004ff4f0526e496f4b186803f047f9614bcd
:104e900006221a700024a2e76a4b18684ff4f052f9
:104ea0006949104403f03af95a4b07221a7000245a
:104eb00095e7644b18684ff4f052644900f5705060
:104ec00003f02cf9534b08221a70002487e75d4b3e
:104ed00018684ff4f0525e4900f5b44003f01ef933
:104ee0004c4b09221a70002479e7564b18684ff48e
:104ef000f052584900f5f04003f010f9454b0a22f2
:104f00001a7000246be703f087fa80b9524c012233
:104f10002146524b186803f0c7f803f07dfa237856
:104f2000834207d13b4b0b221a70002457e704f051
:104f3000eff9ebe7404b20221a70364b14221a701f
:104f400003244ce74ff4f0524549464b186803f0f0
:104f5000e5f8304b0c221a70002440e7414b1868ea
:104f60004ff4f0524049104403f0d8f8294b0d2279
:104f70001a70002433e73b4b18684ff4f0523b495a
:104f800000f5705003f0caf8224b0e221a7000246c
:104f900025e7344b18684ff4f052354900f5b4401a
:104fa00003f0bcf81b4b0f221a70002417e72d4b9f
:104fb00018684ff4f0522f4900f5f04003f0aef8b6
:104fc000144b10221a70002409e703f057fa98b91d
:104fd000294c01222146294b186803f065f803f09b
:104fe0004dfa237883420ad0134b20221a70094bc2
:104ff00014221a700324f2e604f08af9e8e7054b5c
:1050000014221a700124eae600241d4b1c70e6e607
:105010000024e4e64c53022038d60020a45202209b
:105020003c310120608b01203cf5002042530220de
:10503000a852022051530220205302206153022023
:10504000685b002094520220581f0020604f01200e
:105050006879002030b800203f5302209852022087
:1050600060a901208c52022060c70120606d0120e0
:105070003c130120683d00203e5302209052022044
:045080005753022060
:020000040000fa
:1050840010b5974b1b78042b00f22581dfe813f051
:10509400050012006700a500d600532801d00020a7
:1050a40010bd01208e4b18708e4b18708e4b002251
:1050b4001a70f5e78b4b1b78012b0bd0022b10d009
:1050c400032b34d0894a13680133136003f032ff91
:1050d4000020e5e74728f5d1824b02221a7001200f
:1050e400dee754280dd0532812d0512818d05a285e
:1050f400e8d17d4b04221a707a4b03221a700120e6
:10510400cee70120784b1870764b03221a70c7e75c
:10511400754b02221a70734b03221a700120bfe7e9
:105124000323714a13706f4a13700120b8e73128c2
:10513400c8d16c4b00221a706b4b1b78013bdbb25d
:10514400012b04d9664b04221a700120a8e7644b92
:1051540002221a70664b00221a600120a0e76149fe
:105164000b78da009040624a1468204310600133df
:10517400dbb20b70042b01d0012091e70138b0f5ac
:10518400003f0ed2564b03221a705a4b00221a606b
:10519400554b1b78012b0cd0574b1b78a3b1012026
:1051a4007ee7524a13680133136003f0c3fe012003
:1051b40076e7524b4ff0ff321a6004f0aff9c04368
:1051c4004f4b186001206be704f0a8f9c0434d4b26
:1051d40018600120484b187062e7434b1b78012b81
:1051e4001dd0494b1b6858400822484940f300032e
:1051f4000b4083ea5000013af8d1434b18603d4a12
:105204001368013313603a4a1268934265d3344bee
:1052140004221a70334b00221a70012040e7374be6
:105224001b6858400822394940f300030b4083eac5
:105234005000013af8d1314b1860e0e7294b1b7854
:10524400334ad25c824207d0274b1b78012b3fd0d4
:1052540003f070fe012023e70133dbb2214a13700f
:10526400042b01d001201be71f4b1b78013b032bb0
:1052740005d8dfe803f002080f2103f085fe03f0f0
:1052840059fe01200ce7234a13681a4909680b44a4
:105294001360f4e7184b1b783bb900221a4b1968ca
:1052a4001c4b186801f082f8e9e704f037f9c243af
:1052b400144b1b68d21af1e7134b4ff0ff321a60fc
:1052c4000023144a13600f4a13600b4a1370d6e785
:1052d40003f05afebce70020e2e60120e0e600bf4e
:1052e4005f5302205d5302205e530220dc520220f1
:1052f400e4520220e852022060530220e0520220cd
:10530400f45202200c530220745302202083b8ed7f
:085314003c6500000853022073
:020000040000fa
:10531c002de9f0479b4b1b78013bdbb2532b06d995
:10532c00994b00221a605a6043f239029a60954bed
:10533c0054221a7000225a709a70da701a71052170
:10534c0059719a71da711a725a7201209872da7262
:10535c001a73072058739973da7367241c743724f3
:10536c005c749a74da741a755a759a75da751976ba
:10537c0059769976d97618777820587703259d77c2
:10538c001424dc77814b1a805a8045f2ea0098800d
:10539c00da801a8145f2730058819a81da8145f2dc
:1053ac00e23018825a829982da821a835c830a2646
:1053bc009e830220d8834ff434771f8440f2532706
:1053cc005f849c84da841a855a859a85da851a86d4
:1053dc005a864ff4c8779f864ff4af77df861a87cb
:1053ec0059879a876427df87a3f840204ff0b40cc5
:1053fc00a3f842c0a3f84420a3f846204ff07b0c3e
:10540c00a3f848c0a3f84a50a3f84c20a3f84e7058
:10541c0040f2a155a3f8505040f23635a3f8525043
:10542c008b25a3f854504925a3f856504ff4967e7b
:10543c00a3f858e04b25a3f85a504ff4fa65a3f89b
:10544c005c504ff0110ca3f85ec0a3f86020a3f8d9
:10545c0062004ff01e0ca3f864c04ff0500ca3f880
:10546c0066c0a3f86800a3f86a104ff4617ca3f837
:10547c006cc04ff47a7ca3f86ec040f2ff4aa3f8dc
:10548c0070a0a3f87220a3f87420a3f876c04ff094
:10549c005c09a3f87890a3f87a2041f29418a3f849
:1054ac007c80a3f87e20a3f88020a3f88220a3f8a8
:1054bc008420a3f88620a3f88820a3f88a20a3f8d8
:1054cc008c20a3f88e20a3f89020a3f892a0a3f828
:1054dc009420a3f896c0a3f89890a3f89a20a3f868
:1054ec009c20a3f89e80a3f8a070a3f8a2e04ff430
:1054fc00fa77a3f8a470a3f8a660a3f8a860a3f8a1
:10550c00aa0040f6b836a3f8ac60a3f8ae00c820e9
:10551c00a3f8b0009620a3f8b200a3f8b4404ff45f
:10552c001670a3f8b600a3f8b80042f23416a3f82c
:10553c00ba604ff42f54a3f8bc40a3f8be504ff4fc
:10554c009650a3f8c000a3f8c260a3f8c440a3f817
:10555c00c650a3f8c800c420a3f8ca003020a3f892
:10556c00cc00cf20a3f8ce00a3f8d020a3f8d220f3
:10557c00a3f8d4202422a3f8d620a3f8d810bde891
:10558c00f08700bf3c4f0120583d002038f400202c
:020000040000fa
:10559c0030b591ea030f00f18280841a71eb030c91
:1055ac0005d2121953eb0c03001b71eb0c0140f2ea
:1055bc00000ccff6e07c1cea430f52d0bceb410f41
:1055cc005fd90c0da4eb135e5ff0010c6cf31f5153
:1055dc006cf31f53def1200c2ad303fa0cf540199f
:1055ec0041f1000122fa0ef5401923fa0ef569413a
:1055fc0012fa0cf2cd0208d349085fea30005fead8
:10560c00320228bf42f001020134013c5fea500c27
:10561c0072f1004250f1000051eb04514ff40013b1
:10562c0013eb410f38bf30bd6ff31301002030bdb9
:10563c00bef1200ebef1200f1ed223fa0ef540193a
:10564c0041f10001cef1200c124218bf012203fae5
:10565c000cf52a43cee711ea5c0f04bf00200021b1
:10566c0030bd1cea410f04bf01f00041002030bde9
:10567c0001f00041002030bd21f4801101eb0451f8
:10568c0030bd004218bf41f00101bceb410f08bf17
:10569c0030bd4ff0fe4141f47801002030bd83f065
:1056ac000043841a71eb030e07d28ef0004e001be0
:1056bc0071eb0e01121953eb0e0340f2000ccff6f6
:1056cc00e07c1cea430fc6d0bceb410f72d90c0d29
:1056dc00a4eb135ec90241ea5051c00241f00041f3
:1056ec00db0243ea5253d20243f00043def1200cba
:1056fc0041d312fa0cf522fa0ef203fa0cf542ea37
:10570c00050218bf42f0010223fa0ef3801a9941e8
:10571c00e30ac4f30a0411f0404f03d418d0013c3f
:10572c0040004941013c23d44205c00a40ea4150a3
:10573c00c90a51eac3715fea500c72f1004250f190
:10574c00000051eb045130bd01002fd00020203c53
:10575c000029f9d0b1fa81fcdcf1200e11fa0cf120
:10576c0030fa0ef510fa0cf02943a4eb0c04d9e72f
:10577c000020d90730bdaef1200ebef1200f0dd2a6
:10578c00cef1200c03fa0cf533fa0ef32a4318bfb2
:10579c0043f00103c01a61f10001b9e721f00041a7
:1057ac00c00a40ea4150c90a01eb045130bd002047
:1057bc00002130bd004218bf41f00101bceb410f8c
:0e57cc007ff467afbceb430f3ff463af30bd1b
:020000040000fa
:0257da00704716
:020000040000fa
:1057dc0038b57b4b1b780b2b16d8dfe813f00c007d
:1057ec001600360040008f00a600c300d700db0077
:1057fc00df00e300e700212272494ff4af7002f0a2
:10580c004dfc6f4b01221a7038bd6e4b1b78542b1c
:10581c0009d06d4b1b788bb1013b6b4a1370684bf5
:10582c0000221a70f0e70020684b1870fa226849c1
:10583c0002f06efc624b02221a70e5e7634b012208
:10584c001a705f4b02221a70dee7102261494ff486
:10585c009b7002f097fc5a4b03221a70d4e703f0aa
:10586c00affc04465c4b187003f09cfc5b4b18704f
:10587c0003f0b6fd5a4b1870564bdb68984204d0b7
:10588c00524a137843f008031370514bb3f8f830b5
:10589c00a3421ad04d4b1c7844f004041c70494ba5
:1058ac0093f8205003f07efc854204d0474b1c78c3
:1058bc0044f002041c70444b1b78abb1013b424ad0
:1058cc0013703f4b01221a709ee73e4b93f8204019
:1058dc0003f068fc8442e9d13c4b1c78002cead1e3
:1058ec00374b07221a708fe764f07f04374b1c701c
:1058fc00fff70efd324b04221a7085e703f0eafa2b
:10590c0003f050fc2f4981f8200021224ff4af7096
:10591c0003f050f82d4b1b781bb1294b05221a7044
:10592c0072e7274b07221a706ee702f00bfd002876
:10593c003ff46aaf03f0cefa03f042fc2449a1f81d
:10594c00f800fa22002002f02ffd264b18701f4b96
:10595c001b781bb11a4b06221a7055e7184b0722fd
:10596c001a7051e702f0eefc00283ff44daf03f043
:10597c00b1fa03f035fd1749c86010224ff49b7043
:10598c0002f052f90e4b07221a703de70c4b0b221a
:10599c001a7039e70a4b04221a7035e7084b0522b6
:1059ac001a7031e7064b06221a702de70e4b1b7846
:1059bc00002b7ff429af0c4b01221a7024e700bf97
:1059cc001f5302203c4f0120785302202053022009
:1059dc0038f40020583d00203b5302203a5302205b
:0c59ec003c530220215302202a530220c9
:020000040000fa
:1059f80038b5744bd3f8a03013f4004f10d00023ff
:105a0800714a137071494a7c22f008024a74704a3c
:105a18001370704a1370704a1360704a137038bd5f
:105a2800694b01221a70694a537c43f00803537486
:105a38006b4b1b78d3b9664b1b78032b16d8dfe862
:105a480003f0020a1232634b1b7813f0010f0dd0da
:105a580003f032f90ae05f4b1b7813f0010f05d011
:105a680002f0aefe02e05f4b00221a705b4b1b781f
:105a7800002bd4d05c4a1278002ad0d00022564994
:105a88000a6059490a7059490a7801320a70584a15
:105a9800d25c4c2a3bd0552a68d0432a0cd04f4bb5
:105aa80000221a70bbe74f4b00221a704c4b0122a0
:105ab8001a7002f0fff9d9e74d4a1a4451785b2968
:105ac80014d04c4a43201070517049490b449978be
:105ad8009170d978d1701979117159795171997971
:105ae8009171db79d37103f045f8d8e7404a1a443d
:105af80092795d2ae5d13a4a002010703c4a1a444e
:105b0800947833480470d078324a1070d9e7344a10
:105b180001211170364a1a4452785b2abfd1344a9f
:105b28001a4412795d2abad1294c02222270304acd
:105b38001a449078304b1870d178304b19702d4b2f
:105b48004c251d705b255d709870d9705d211971a9
:105b58005179597191799971d279da7103f00af80a
:105b68002378022b9bd100f05dfa98e71c4a0121ab
:105b780011701f4a1a44d2785b2a90d1144a032123
:105b880011701b4a134459781b4a11709b781b4aa1
:105b98001370172b11d040f241121949154803f020
:105ba8001ffb02f0e7ff00f03bf9164b00221a70ca
:105bb80002f0e0ff02f07ef971e7094b00221a704b
:105bc800e9e700bf00800041e92402203c4f0120a2
:105bd8004f5202204e5202206452022019530220d2
:105be800375202201b530220eb2402201a530220b2
:105bf800ec4c022070b50020475202204652022089
:085c0800f14c0220365302208a
:020000040000fa
:105c1000f0b581ea030e0ef0004e40f20007cff619
:105c2000e07717ea41051ebf95ea070f17ea43041c
:105c300094ea070f00f0c5806d0da5eb545707f5ea
:105c400080674ff0004646eac12444ea5054c0023f
:105c500046eac32343ea5253d202801a9c4104d23b
:105c60000018644180185c41013f5b084fea320232
:105c70000025002140f001004ff0070604e0801ae3
:105c80009c4136d340416441801a9c4136d3404107
:105c90006441801a9c4136d340416441801a9c4142
:105ca00036d340416441801a9c4136d3404164411f
:105cb000013e17d0801a9c4136d340416441801a7e
:105cc0009c4136d340416441801a9c4136d34041c7
:105cd0006441090201eb156190ea052520f0ff00ff
:105ce0004540cce7801a9c4156d335e080185c4192
:105cf000c8d20018644180185c41c8d200186441c1
:105d000080185c41c8d20018644180185c41c8d238
:105d10000018644180185c41c8d200186441013efb
:105d200017d080185c41c8d20018644180185c41cb
:105d3000c8d20018644180185c41c8d20018644180
:105d4000090201eb156190ea052520f0ff004540ae
:105d5000cce780185c411fd3420918bf44f001040e
:105d6000490101ebd56100f01f0000eb451021f463
:105d7000801141ea0e01013041f10001244208bfc7
:105d800020f00100b7f5006f3eda013f49dd01eb7d
:105d90000751bde8f0407047490101ebd56100f0c3
:105da0001f0000eb451021f4801141ea0e01b7f508
:105db000006f29da013f34dd01eb0751bde8f04007
:105dc0007047004218bf41f00101124218bf43f072
:105dd0000103b7eb410f2cbfb7eb430f1ce0b7eb50
:105de000410f04bfb7eb430f16e017ea410f04bfa2
:105df00017ea430f10e017ea410f12d017ea430fda
:105e000002d0b7eb430f0cd04ef0fe4141f47001cd
:105e10000020bde8f04070474ff0fe4141f47801aa
:065e2000f6e77146f4e70d
:020000040000fa
:025e2600fee795
:020000040000fa
:105e280008b56d4a02f5a070002300bf12f8011fe3
:105e38000b44dbb28242f9d1684a92f840219a4277
:105e480003d0674b01221a7008bd654b00221a70f7
:105e5800644b1b780d2bf7d8dfe803f00714212ecd
:105e68003b4855626f7c8996a3b05f4b187800eb6e
:105e780080004ff4a07259495c4b03eb801003f08b
:105e8800aff9e1e7584b187800eb80004ff4a072a7
:105e98005249574b03eb801003f0a2f9d4e7524b59
:105ea800187800eb80004ff4a0724c49514b03eb7b
:105eb800801003f095f9c7e74b4b187800eb80008a
:105ec8004ff4a07245494c4b03eb801003f088f95e
:105ed800bae7454b187800eb80004ff4a0723f49b1
:105ee800464b03eb801003f07bf9ade73e4b187887
:105ef80000eb80004ff4a0723849414b03eb80104f
:105f080003f06ef9a0e7384b187800eb80004ff4e7
:105f1800a07232493b4b03eb801003f061f993e721
:105f2800314b187800eb80004ff4a0722b49364ba8
:105f380003eb801003f054f986e72b4b187800eb3d
:105f480080004ff4a0722549304b03eb801003f01a
:105f580047f979e7244b187800eb80004ff4a072da
:105f68001e492b4b03eb801003f03af96ce71e4bec
:105f7800187800eb80004ff4a0721849254b03eb0a
:105f8800801003f02df95fe7174b187800eb8000bd
:105f98004ff4a0721149204b03eb801003f020f955
:105fa80052e7114b187800eb80004ff4a0720b49b0
:105fb8001a4b03eb801003f013f945e70a4b1878e6
:105fc80000eb80004ff4a0720449154b03eb8010de
:105fd80003f006f938e700bf6fb5002070b5002060
:105fe80043530220475202204652022038d600204e
:105ff8003c310120608b01203cf5002060a9012084
:1060080060c70120606d01203c130120683d00201d
:10601800685b0020581f0020604f0120687900202d
:0460280030b800206c
:020000040000fa
:10602c0008b5634b24221a704c225a70614a1278bc
:10603c009a7061490978d9705b2018710d2a12d8b1
:10604c00dfe802f00727323d48535e69747f8a957a
:10605c00a0ab01eb81014ff4a072584b03eb811103
:10606c00574803f0bbf8574a02f5a070002300bf55
:10607c0012f8011f0b44dbb28242f9d14c4880f874
:10608c0045315d2380f8463140f2471101f026fb83
:10609c0008bd01eb81014ff4a0724b4b03eb811156
:1060ac00474803f09bf8dee701eb81014ff4a07247
:1060bc00464b03eb8111424803f090f8d3e701eb18
:1060cc0081014ff4a072424b03eb81113c4803f069
:1060dc0085f8c8e701eb81014ff4a0723d4b03eb4f
:1060ec008111374803f07af8bde701eb81014ff4d9
:1060fc00a072394b03eb8111314803f06ff8b2e712
:10610c0001eb81014ff4a072344b03eb81112c484d
:10611c0003f064f8a7e701eb81014ff4a072304b58
:10612c0003eb8111264803f059f89ce701eb810140
:10613c004ff4a0722b4b03eb8111214803f04ef866
:10614c0091e701eb81014ff4a072274b03eb811116
:10615c001b4803f043f886e701eb81014ff4a07272
:10616c00224b03eb8111164803f038f87be701eb67
:10617c0081014ff4a0721e4b03eb8111104803f008
:10618c002df870e701eb81014ff4a072194b03eb72
:10619c0081110b4803f022f865e701eb81014ff404
:1061ac00a072154b03eb8111054803f017f85ae761
:1061bc00dcb60020475202204652022038d600207e
:1061cc00e1b60020e0b600203c310120608b0120bc
:1061dc003cf5002060a9012060c70120606d012002
:1061ec003c130120683d0020685b0020581f0020f4
:0c61fc00604f01206879002030b80020be
:020000040000fa
:10620800654b9b7d002b00f0c5802de9f041624a6b
:10621800137edbb2927d12f0800f3bd15e4a137e73
:10622800dbb2927d12f0010f74d013f0010f71d020
:10623800594d5a4c5a4e2b7e13f0010f6ad0a36861
:10624800e268934263d06b6803f00703012b02f105
:10625800010314bfb25c36f812202169994298bf35
:106268000023e3606b6803f00703012b18bfd2b269
:10627800aa62237d002bded003f096f82368002b5a
:10628800d9d0227f42b3a2699042d4d36168032057
:106298009847d0e713f0800fc0d03f4b5b8b13f0cb
:1062a8000703bbd03d4ad3873b4b80221a7607228f
:1062b8005a831b7e13f0040f05d0374b9a6a1a7e57
:1062c80012f0040ffad1354b1b6a002ba6d0334ac3
:1062d800516a02209847a1e7a2699042abd1616850
:1062e80003209847a7e7226a002a30d0616a40460f
:1062f8009047a36a0133226b934228bf002326e00c
:10630800a26b904215d1616a0020984711e0224b98
:1063180001221a75204a137edbb2927d12f0040f17
:1063280036d013f0040f33d01b4d1c4c4ff001082e
:106338001c4f2b7e13f0040f2ad0ae6aa36a0133d8
:10634800226b934228bf0023e26a9a42cbd0e26aca
:106358009a42eed06a6802f00702012aa26a14bfc4
:10636800be5427f81260a36294f83430002be0d0b2
:1063780002f0b2ff236a002bdbd094f83c20002afd
:10638800bed0a26b9042d4d3616a00209847d0e770
:10639800bde8f081704700bf00340040a04f0220e4
:0863a800ec460220ec44022047
:020000040000fa
:1063b00070b506461446cd43574a1368013313603f
:1063c00003f0ccf8554b1b6883423cbf534b18601d
:1063d000534b53221a7047225a7052229a7031221c
:1063e000da701e71320a5a71320c9a71360ede71f1
:1063f0001d722a0a5a722a0c9a722d0edd721c73b3
:10640000220a5a73220c9a73240edc73454a1268ce
:106410001a74110a5974110c9974120eda74424ae2
:1064200012681a75110a5975110c9975120eda75e0
:106430003e4a12681a76110a5976110c9976120e94
:10644000da76354a12681a77110a5977110c99775a
:10645000120eda77364a126883f82020110a83f880
:106460002110110c83f82210120e83f82320314ad8
:10647000126883f82420110a83f82510110c83f880
:106480002610120e83f82720244a126883f8282049
:10649000110a83f82910110c83f82a10120e83f8c0
:1064a0002b20452283f82c204e2283f82d204422d5
:1064b00083f82e20212283f82f2000241d4601e09e
:1064c00002f026ffc4f13001281901f00df904444f
:1064d0002f2cf5d9184b02221a7601e002f018ff92
:1064e00003f03cf80028f9d1134b1b7e13f0020f88
:1064f00006d1114c02f00cff237e13f0020ff9d0ed
:106500000c4a1368013313600023064a1360064add
:106510001360064a136070bdf0520220045302203b
:10652000a4500220fc520220f85202200053022004
:0c653000dc520220ec520220003400403b
:020000040000fa
:04653c00454e442163
:020000040000fa
:106540002de9f04759ec108b594f18eb080029f052
:10655000004343eb030100268f4208bf864282b00e
:10656000c0f0848053490020994208bf404510ee96
:10657000102aca467dd310ee104a1d460127002678
:1065800043a1d1e900019042994126da42a3d3e91f
:1065900000232046294600f073fc0022464b02f0ff
:1065a000e5ff0022444b02f0e1ff22462b46fef7b6
:1065b000f5ff3ba3d3e900238046894620462946c0
:1065c000fef7ecff02460b4640464946fff720fb2c
:1065d0003e4604460d4602460b460ff2cc09d9e969
:1065e000008923f00041894508bf904527d2224603
:1065f0002b462046294600f043fc02460b468046c7
:1066000089462e48042100f0b7ff4246cde900013b
:106610004b4604212a4801f04ffb02460b46dde9b8
:106620000001fff7f5fa22462b4600f029fc02464e
:106630000b4620462946fef7b1ff04460d46012ec3
:1066400022dd05f100431d461e4b03ebc606204626
:106650002946d6e90023fef7a1ff04460d460af0bd
:10666000004a22468aea050343ec102b02b0bde83b
:10667000f08700200f49fff7cbfa032704460d46a9
:1066800002460b4602267be7002ee8d0dce700bf7f
:1066900058cd9e5e1426d13f5499b0d0f56ce73f9b
:1066a000aa4c58e87ab6fb3fbbbdd7d9df7cdb3daf
:1066b0000000e0ff0000f03f0000e03fc085000068
:0866c000e0850000a085000048
:020000040000fa
:1066c800584b9b7d002b00f0ab8010b5554a5368a2
:1066d80003f00703127e12f0040f5bd0514a906a50
:1066e800514a5169d268914254d2002b43d14e4b42
:1066f8005a684c1c5c6150544a4b1b7e13f0010fc6
:1067080018d0484b01221a75474b9a699b689a42e0
:1067180058d2454b1968501c98618a5c414b9a6263
:10672800414b9a699b689a4261d03f4b5a69db6832
:106738009a4269d03b4b1b7e13f0020f14d03b4b9f
:106748001b78bbb1384b5a69db689a420fd1364b7c
:1067580000221a7733490720087534490a701b6ae2
:1067680043b1314a506a9847304b1b7813b12d4bcf
:1067780002229a7510bd2c4b5a684c1c5c6122f899
:106788001100284b1b7e13f0010fd3d0254b01229b
:106798001a7509e0234a127e12f0010fcad0214a65
:1067a80001211175002bafd01f4b9a699b689a4243
:1067b80012d21d4b1968501c986131f81220194be0
:1067c8009a62ade7184b1b6923b3164aff21916201
:1067d800013b154a1361a3e7134b1b69d3b1114a57
:1067e8004ff6ff719162013b0f4a136198e70e4b18
:1067f8001b69002b99d10d4b01221a70094b1b7e86
:1068080013f0020f9ed1b2e7064b01229a750422bb
:106818001a758fe7044b9a699b689a4285d1eae713
:10682800704700bf00300040d4500220034f0220c0
:020000040000fa
:106838004e4b42f206625a611a46136913f0010f71
:10684800fbd04b4b42f20e229a821a46d36813f0c1
:10685800010ffbd0464b05221a74a3f540630122b1
:106868005a711a46d37813f0010ffbd0414b424ab4
:106878001a621a46536813f0040ffbd13d4b3e4a87
:106888005a621a46536813f0080ffbd1394b3b4a3a
:10689800da621a46536813f0200ffbd1354b4022b9
:1068a800c3f89c201a4600bfd2f89c3013f0400f62
:1068b800fad0304b4022c3f8a0201a46d2f8a030b4
:1068c80013f0400ffad02b4b4022c3f8e0201a46b1
:1068d800d2f8e03013f0400ffad0264b4022c3f82c
:1068e800ec201a46d2f8ec3013f0400ffad0214bc6
:1068f8004122c3f8f0201a46d2f8f03013f0400fc6
:10690800fad01c4b4022c3f80c211a46d2f80c319d
:1069180013f0400ffad0174b4022c3f820211a4633
:10692800d2f8203113f0400ffad0124b4022c3f8ae
:1069380024211a46d2f8243113f0400ffad0104b14
:106948006ff07f421a6143f2ff325a610d4a9a6131
:106958004ff4c1721a62054a137f03f0fd031377df
:1069680092f82c3013f0020ffad170470010004053
:1069780000140040001c00400001010006010c004a
:086988000008004056840100e4
:020000040000fa
:1069900038b54f4b9b7dd3b14d4a137edbb2927d10
:1069a00012f0800f14d14a4a137edbb2927d12f0ae
:1069b000010f02d013f0010f50d1454a137edbb214
:1069c000927d12f0040f02d013f0040f18d138bddd
:1069d00013f0800fe7d03e4b5b8b13f00703e2d040
:1069e0003c4ce38502f04cfa394b84221a750023a3
:1069f00084f82c30636a002bd5d0a06a9847d2e780
:106a0000344b93f82c30002be1d0324b1a6adb69ff
:106a10009a42dcd22e4b9a6a5b6803f00703012b83
:106a20002c4b9869196a01f101041c6214bf42548d
:106a300020f81120274b1a6adb699a42c7d1254bef
:106a4000002283f82c20da61214a842111755b6ac7
:106a5000002bbcd01f4a906a9847b8e71d4b1b7d9e
:106a6000002baad01b4b9a685c68194b1b7e13f055
:106a7000010f19d0a24217d2164b1d6814491a46ad
:106a80004b6803f00703012b936803f1010090604a
:106a900014bfeb5c35f813308b6290680b7e13f0fb
:106aa000010f01d08442ebd80a4b9a685b689a4286
:106ab00083d3084b00221a755a60054a01211175cb
:106ac000db68002b3ff479af024a1069984774e7fe
:086ad0000040014114500220b6
:020000040000fa
:106ad80038b54f4b9b7dd3b14d4a137edbb2927dc7
:106ae80012f0800f14d14a4a137edbb2927d12f065
:106af800010f02d013f0010f50d1454a137edbb2cb
:106b0800927d12f0040f02d013f0040f18d138bd93
:106b180013f0800fe7d03e4b5b8b13f00703e2d0f6
:106b28003c4ce38502f0c0f9394b84221a750023e6
:106b380084f82c30636a002bd5d0a06a9847d2e736
:106b4800344b93f82c30002be1d0324b1a6adb69b6
:106b58009a42dcd22e4b9a6a5b6803f00703012b3a
:106b68002c4b9869196a01f101041c6214bf425444
:106b780020f81120274b1a6adb699a42c7d1254ba6
:106b8800002283f82c20da61214a842111755b6a7e
:106b9800002bbcd01f4a906a9847b8e71d4b1b7d55
:106ba800002baad01b4b9a685c68194b1b7e13f00c
:106bb800010f19d0a24217d2164b1d6814491a4664
:106bc8004b6803f00703012b936803f10100906001
:106bd80014bfeb5c35f813308b6290680b7e13f0b2
:106be800010f01d08442ebd80a4b9a685b689a423d
:106bf80083d3084b00221a755a60054a0121117582
:106c0800db68002b3ff479af024a1069984774e7b4
:086c1800000400434450022077
:020000040000fa
:106c200010b4474b474a1a60474a1a61002183f85b
:106c3000401083f84110012283f8422083f843106a
:106c400083f8441083f8451083f8461083f84820f1
:106c500083f8492083f84a1083f84b2083f84c10be
:106c600083f84d1083f84e1083f84f1083f85020ae
:106c700083f8512083f8522083f8532083f854106e
:106c800083f8551083f8562083f8572083f858204e
:106c900083f8592083f85b1083f83120222083f891
:106ca0003400202483f8354083f8380083f8390015
:106cb00083f83b00882483f83c40244cc3f8804090
:106cc000a4f67104c3f89040032483f8c04083f80d
:106cd000c12083f8c22083f8c32083f8c41083f84e
:106ce000c51083f8c61083f8c72083f8c82083f83e
:106cf000c92083f8cb1083f8cc2083f8cd20022460
:106d000083f8ce4083f8cf4083f8d02083f8d12099
:106d100083f8d61083f8d71083f8de10112283f899
:106d2000b02083f8b120102183f8b31083f8b42089
:106d3000772283f8b62083f8b8005df8044b7047db
:106d40000080004178343008700010007108c040a5
:020000040000fa
:106d500030b40c4600294dd000284bd04649097f5d
:106d6000002940f08680454d6d6805f00705012d2e
:106d700046d0414908604a6000254d618d610d6132
:106d8000a84208bf2c468c60aa4218bf1d460a467e
:106d9000cd6001211177394a127e12f0040f05d01f
:106da000364a916a117e11f0040ffad1334a518ba1
:106db00041f004015183117e41f080011176a5421a
:106dc00002d92a1b2c490a612c4a526812f0070f7b
:106dd0002bd1294a9269a2421cd2007827498862a5
:106de000013225498a61002b3bd0244b04229a753d
:106df00001213be0002b38d0002aafd1002135e043
:106e000014b114f0010f31d1002bb2d013f0010fe7
:106e1000afd02be0184a1269002ae4d01749ff20ae
:106e20008862013a14490a61dde76408124a9460f5
:106e30001169490811616d08d5609269944206d9bb
:106e400000880e49886201320b498a61cbe700292c
:106e5000c9d00a4a4ff6ff7090620139064a1161a3
:106e6000c1e70121054b997500e00021084630bcbf
:106e700070470021fae700bfd450022000300040e4
:020000040000fa
:106e8000f0b540f2ff7681ea030c16ea115e1ebff0
:106e9000b64516ea1355b54252d021ea465141f49f
:106ea0008011a1fb024723ea465343f48013ae440a
:106eb000a0fb03650cf0004c36197d41a1fb034794
:106ec00047f10003a0fb0217f619654153f10003d7
:106ed000094218bf46f0010640f2fe74b3f5007f88
:106ee00013d2aef5806ea64523d24cea03312803b7
:106ef00041ea155140ea16503203450872f100424a
:106f000050f1000051eb0e51f0bdaef2ff3ea64530
:106f10000fd24ceac321e80241ea555140ea5650eb
:106f2000f202450872f1004250f1000051eb0e519f
:106f3000f0bd1eea0e0f2dd50cf000410020f0bd73
:106f400016ea115f04bf01f000410020004218bfa3
:106f500041f0010116ea135f04bf03f00043002271
:106f6000124218bf43f0010306ea1354b44218bf9b
:106f7000b64503d00cf000410020f0bd21f00041e7
:106f800023f00043b1eb065f0cd8b3eb065f09d8e2
:106f900041b13bb10cf0004141f0fe4141f47001c0
:106fa0000020f0bd40f20001c7f6f8710020f0bdee
:020000040000fa
:106fb000364ad36823f4e0631b041b0c43f0bf6321
:106fc00043f40033d360bff35f8f62b6304be021f0
:106fd00083f80a134ff480621a6083f80b134ff49e
:106fe00000621a6083f829134ff400725a6083f824
:106ff0002e134ff480425a6083f82f134ff400424f
:107000005a6083f830134ff480325a6083f831139a
:107010004ff400325a60402283f832234ff480202c
:10702000586083f833234ff40020586083f83423ea
:107030004ff48010586083f835134ff400105860f7
:1070400083f83a234ff08060586083f83b234ff079
:107050000060586083f83c234ff08050586083f8fc
:107060003d234ff00050586083f84223042098607d
:1070700083f843230820986083f8442310229a6001
:1070800083f8451320229a60704700bf00ed00e0ae
:0470900000e100e03b
:020000040000fa
:10709400f0b583b002f0faf9c0b22d4b187001f0cc
:1070a4009ffe02f01bf902f0a9f92a4c2a4e2b4d3f
:1070b4002b4f1de024233b7001232a4a13702b60bd
:1070c40016e0294a012111700be00122327005e01b
:1070d4002278fa5440f245129342f2d0b3f5ae7fcf
:1070e40006d801332b6003e02b68002bf0d100bfde
:1070f40002f0f4f850b301210df1070000f096ffff
:10710400012823d19df80730237001f0fdfe28b932
:107114009df80700fdf7b4ff0028e9d19df80700aa
:1071240000f062f90028e3d13378002bdcd1227817
:10713400242abfd02b68002bdad0fa54552ac4d0a5
:107144005d2acbd1084a01211170c7e703b0f0bd15
:10715400ea240220185302203653022064520220eb
:0c716400ec4c022019530220eb24022006
:020000040000fa
:1071700010b502f061f82d4b1b78002b51d0013b6c
:10718000dbb22a4a1370012b34d05ab2d2b1022b8f
:107190004ad100bf01f034ff0028fbd002f090f983
:1071a00000eb80004000224b1860224c192221681d
:1071b00002f0bcf920604ff4c051002001f00eff36
:1071c00032e000bf01f01cff0028fbd002f078f98c
:1071d00000eb80004000184b1860184c1922216801
:1071e00002f0a4f920604ff4c051012001f0f6fe36
:1071f0001ae000bf01f004ff0028fbd002f060f9a4
:1072000000eb800040000e4b18600e4c19222168e4
:1072100002f08cf920604ff4c051092001f0defe2d
:1072200002e0024b03221a7010bd00bf2a52022056
:10723000605202205c52022050520220544f022021
:087240005852022054520220b2
:020000040000fa
:1072480010b5274b1868274b1968274ba3fb01314a
:10725800c1f3c701254b24221a7044225a703022e8
:107268009a703122da705b221a71214a947a214a83
:1072780052f82420204cb4f84e4002fb04f2597115
:107288001e49097899711e49a1fb02125209da7147
:107298001c4a12781a725872020a9a721a4a12789a
:1072a800da721a4a12781a735a1d03f10d01002373
:1072b80012f8010b0344dbb28a42f9d1144a0d21ba
:1072c80011600a4a53735d239373144601e002f078
:1072d8001bf80f21204600f003fa0028f7d010bd54
:1072e800c4520220c0520220cdccccccdcb6002047
:1072f8003c4f01202051022038f400202353022063
:107308001f85eb5134530220375302203553022096
:047318008452022079
:020000040000fa
:10731c00304b1b78002b5cd000b597b053222e4914
:10732c0001a801f05bff2b4b00221a709df8043072
:10733c00242b02d017b05df804fb9df80730522bbc
:10734c000ed04d2b1dd0422b24d0482b2bd19df889
:10735c000830442b08d19df80930472b04d10be0a1
:10736c009df808304d2b03d01c4b00221a70e1e71e
:10737c009df80930432bf7d101ab0df155000021dd
:10738c001ee09df80830572beed19df80930562b96
:10739c00ead1f1e79df808304f2be5d19df8093083
:1073ac00442be1d1e8e7442bded19df80830422b89
:1073bc00dad19df80930542bd6d1dde78342d3d0f6
:1073cc0013f8012f2c2af9d10b299cbf0131c9b21a
:1073dc00f4e7704727530220b04e022028530220b6
:020000040000fa
:1073ec0008b52c4b1b78012b15d05ab22ab1022ba5
:1073fc003cd001f09bfe002008bd4d2848d1264b07
:10740c004d221a700120254b1860254b09221a6059
:10741c00204b1870f0e721490a68531c0b601e4979
:10742c008854092b01d00120e6e7084601f09affa9
:10743c001c4b984210d11c4801f094ff42f20403fb
:10744c00984209d800f10902154b1a6040b1114b52
:10745c0002221a700120cfe701f068fe0120cbe771
:10746c00fcf712ff01f062fe0120c5e70b490a6828
:10747c00531c0b6008498854094a1268934201d086
:10748c000120b9e7fcf700ff01f050fe0120b3e743
:10749c000020b1e75c530220dc040220d852022009
:0c74ac00705302204d434850e0040220c1
:020000040000fa
:1074b80008b502f007f823490b68234a1360c01a7d
:1074c800224a82fb00c2c017c0eba200204a10600b
:1074d800184408608b2303fb00f31e4a82fb031247
:1074e8001a44db17c3eba2231b4a13601b4a527fc3
:1074f80093421b4b1b7834bf43f0080303f0f70398
:10750800174a1370b0f5807f0cdd164bfa221a600b
:10751800154b4022c3f8982008229a61134b012288
:107528001a7008bd0f4b1b6823b90f4b4022c3f8d4
:107538009420f6e7013b0b4a13600c4b04221a70a7
:10754800efe700bf7c520220b452022067666666ed
:10755800b05202206b09ebb5405102203c4f01208c
:1075680026530220805202200080004161530220ed
:020000040000fa
:10757800f8b58c1e00ebc40416461f460d46d4e928
:10758800022330463946fff777fcd4e90023fef79b
:1075980001f8022d02460b4645d030463946fff722
:1075a8006bfc54e90223fdf7f5ff032d02460b4659
:1075b80039d032463b46fff75ffc54e90423fdf718
:1075c800e9ff042d02460b462dd030463946fff719
:1075d80053fc54e90623fdf7ddff052d02460b4653
:1075e80021d030463946fff747fc54e90823fdf718
:1075f800d1ff062d02460b4615d030463946fff717
:107608003bfc54e90a23fdf7c5ff072d02460b464c
:1076180009d030463946fff72ffc54e90c23fdf713
:10762800b9ff02460b4630463946fff725fcf8bd40
:020000040000fa
:1076380010b5224b24221a7044225a7030229a70b4
:107648003222da705b221a711d4a11681d48a0fbac
:107658000121490959711c4a1268a0fb02125209fa
:107668009a711a4a1278da71194a12781a72194af2
:10767800117c5972527c9a72ff22da72164a127879
:107688001a735a1d03f10d01002300bf12f8010bf4
:107698000344dbb28a42f9d1104a0d211160074a2e
:1076a80053735d239373144601e001f02dfe0f21ff
:1076b800204600f015f80028f7d010bddcb60020f1
:1076c800705202201f85eb516c5202203353022066
:1076d800255302203c4f01203253022084520220bd
:020000040000fa
:1076e8002de9f041002946d08c46244b1f6900241f
:1076f80023491a46dff88ce00fe010f804804e6842
:1077080006f00706012e14bf0ef805802ef8158026
:107718009360631c013463452bd24b6803f0070365
:10772800012b10d09568d6686b1cbb4228bf00237c
:107738009e42e2d101f0c4fd10b1114b01229a75ad
:107748002046bde8f0819568d6686b1cbb4228bf0f
:1077580000239e42eed030f814804e6806f00706eb
:10776800012e14bf0ef805802ef815809360631c57
:10777800d0e71c46dee70c46dce700bfa04f02203e
:0877880000340040ec46022031
:020000040000fa
:1077900010b5204b1a6842f20f739a4228bf1a465e
:1077a0001d4b19681d4b2420187044205870302040
:1077b0009870d8705b201871194800785871194872
:1077c00000789871d971090a19725a72120a9a725c
:1077d000154a1278da72154a12781a735a1d03f193
:1077e0000d01002312f8010b0344dbb28a42f9d1e8
:1077f0000f4a0d211160094a53735d239373144698
:1078000001e001f085fd0f212046fff76dff002804
:10781000f7d010bd9c520220ac520220dcb60020f2
:107820001c53022022530220245302202d530220f5
:04783000845202205c
:020000040000fa
:1078340038b504465022002101f0f4fd214b012209
:107844009a611a46936913f0010ffbd01d4b9a6994
:1078540042f002029a611c490c60a2b242f48032e6
:10786400c3f8a02004f110024a6092b242f0004230
:1078740042f40032c3f8b02004f13002ca6092b27c
:1078840042f08072c3f8c02004f140020a6192b24f
:1078940042f48032c3f8f02004f148028a610b4daf
:1078a40003cda064e16492b242f48032c3f888202c
:1078b4009a6922f001029a611a46936913f0010f42
:1078c400fbd138bd00040042bc51022044950000a5
:020000040000fa
:1078d40010b5204b24221a7044225a7030229a7018
:1078e4003622da705b221a711b4a9168080a5871b1
:1078f40099711168080ad87119725268110a59727b
:107904009a72164a11681648a0fb01214909d972d6
:10791400144a1268a0fb021252091a735a1d03f189
:107924000d01002312f8010b0344dbb28a42f9d1a2
:107934000d4a0d211160074a53735d239373144656
:1079440001e001f0e3fc0f212046fff7cbfe002805
:10795400f7d010bddcb60020745002207052022013
:0c7964001f85eb516c520220845202205f
:020000040000fa
:1079700038b504464ff4a472002101f055fd4ff0d4
:10798000844301229a611a46936913f0010ffbd0d8
