:020000040000fa
:10200000f8ff0320f1730000a3880000ab890000f3
:10201000578d00001b8e0000e38e000000000000c2
:102020000000000000000000000000009b590000bc
:10203000a78a0000000000009b5900009b59000087
:102040009b5900009b5900009b5900009b590000c0
:102050009b5900009b5900009b5900009b590000b0
:102060009b5900009b5900009b5900005d890000ae
:102070009b5900009b5900009b5900009b59000090
:102080009b5900009b5900009b5900009b59000080
:102090009b5900009b5900009b5900009b59000070
:1020a0009b5900009b5900009b5900009b59000060
:1020b0009b5900009b5900009b5900009b59000050
:1020c0009b5900009b5900009b5900009b59000040
:1020d0009b5900009b5900009b5900009b59000030
:1020e0009b590000d18700000000000000000000a4
:1020f000000000009b590000b1600000b1600000ca
:10210000b1600000b16000007d5d00007d5d0000f9
:102110007d5d00007d5d00009b5900009b59000023
:102120009b5900009b59000079630000796300000f
:1021300079630000796300009b5900009b590000ff
:102140009b5900009b590000c1640000c16400005d
:10215000c1640000c1640000000000000000000035
:10216000000000000000000000000000000000006f
:1021700000000000000000009b5900009b59000077
:102180009b5900009b5900009b5900009b5900007f
:10219000000000009b5900009b5900009b59000063
:1021a0009b5900009b5900009b5900009b5900005f
:1021b0009b5900009b5900009b5900009b5900004f
:1021c0009b5900009b5900009b5900009b5900003f
:1021d0009b5900009b5900009b5900009b5900002f
:1021e0009b5900009b5900009b5900009b5900001f
:1021f0009b5900009b5900009b5900009b5900000f
:102200009b59000000000000000000009b590000e6
:102210009b5900009b5900009b5900009b590000ee
:102220009b5900009b5900009b5900009b590000de
:102230009b5900009b5900009b5900009b590000ce
:102240009b5900009b5900009b5900009b590000be
:102250009b5900009b5900009b5900009b590000ae
:020000040000fa
:10226000f8b500bff8bc08bc9e4670473d8600002c
:10227000f8b500bff8bc08bc9e4670471986000040
:020000040000fa
:102280002de9f04fafb03222002121a806f0aafdbf
:10229000ac4b1d7815b92fb0bde8f08f2a46aa497e
:1022a00021a806f089fc0023a64a1370a74a1268e9
:1022b0001c92a74a52691192a64a12780e92a64918
:1022c000ca790f92a54a12780c92a54a52691892bf
:1022d000a44a12681292a44a12781a92a34a526926
:1022e0001592a34a526914928a790a924a790892fd
:1022f0000a79069291f801a09e4a1278c878049053
:10230000887803900e789c4991f800b09b4991f829
:10231000008021ac013d0df1850151fa85f51f9337
:102320001e931d9310931b93199316931793139356
:102330000b93099307930d93059302930193994689
:102340001f4600931fe2a1f141030f2b11d8dfe8d4
:1023500013f03d0210003d023d023d02100010004e
:1023600010001000100010001000100010001000ed
:102370003d020123002203e2442e0bd0452e0fd054
:10238000432e13d0412e17d1642900f0348201234b
:102390000022f5e1642900f01f8201230022efe111
:1023a000642900f01e8201230022e9e1642900f083
:1023b0001d8201230022e3e1502e04d18a4601232d
:1023c00001930322dce101230022d9e1442e0cd049
:1023d000452e11d0432e16d0412e1bd1baf1640fd9
:1023e00000f01d8201230022cae1baf1640f00f05f
:1023f000078201230022c3e1baf1640f00f00582d5
:1024000001230022bce1baf1640f00f00382012332
:102410000022b5e1502e04d103910123029304223e
:10242000aee101230022abe1442e0ad0452e0fd0ad
:10243000432e14d0412e19d0502e1ed0012300223d
:102440009ee1baf1640f00f0ef810123002297e1d1
:10245000baf1640f00f0ed810123002290e1baf19e
:10246000640f00f0eb810123002289e1baf1640fcf
:1024700000f0e9810123002282e13a2900f0e8819d
:102480003d2900f0ec810123002279e1442e0cd09b
:10249000452e11d0432e16d0412e1bd1baf1640f18
:1024a00000f0f181012300226ae1baf1640f00f02b
:1024b000db810123002263e1baf1640f00f0d981ce
:1024c000012300225ce1baf1640f00f0d7810123ff
:1024d000002255e1502e04d10691012307930622d4
:1024e0004ee1012300224be1442e0cd0452e11d0a9
:1024f000432e16d0412e1bd1baf1640f00f0d781c4
:10250000012300223ce1baf1640f00f0c1810123f4
:10251000002235e1baf1640f00f0bf8101230022ef
:102520002ee1baf1640f00f0bd810123002227e102
:10253000502e04d1089101230993072220e10123a1
:1025400000221de1c3300220e02d0220f4300220e1
:10255000d02e0220cb3002204c2c0220c030022092
:10256000302f0220fc300220ea300220f02e022020
:10257000502f0220bf300220dd300220dc3002204c
:10258000442e0cd0452e11d0432e16d0412e1bd1f7
:10259000baf1640f00f09f8101230022f0e0baf14c
:1025a000640f00f0898101230022e9e0baf1640f91
:1025b00000f0878101230022e2e0baf1640f00f00d
:1025c000858101230022dbe0502e04d10a910123f2
:1025d0000b930822d4e001230022d1e0442e0cd03a
:1025e000412e32d0452e5cd0432e79d1baf1640f02
:1025f00000f0768101230022c2e0baf1640f02d01c
:1026000001230022bce04b2902d001230022b7e0c5
:10261000049b202b0cd00a9a0699049806f06cfbb8
:1026200014900123179313931e2212920022a7e005
:10263000069b303bdbb203eb83030a9a303a02eb92
:10264000430303f0ff031493ebe7baf1640f02d0e6
:102650000123002294e04b2902d0012300228fe0c5
:10266000069b2e2b05d0089b2e2b11d00123002278
:1026700086e0049b303bdbb203eb8303089a303add
:1026800002eb430303f0ff03159301231693ede7d9
:102690000a9a0699049806f02ffb159001231693c9
:1026a000e4e7baf1640f02d00123002268e0442974
:1026b00002d00123002263e00a9a0899069806f0e6
:1026c0001bfb1890039b502b14bf002301231a936c
:1026d00001231b93199313931e22129200224fe0a1
:1026e000502e06d10f91012310930d930c930022cd
:1026f00046e00123002243e0baf1640f02d0012337
:1027000000223de0462902d00123002238e0049b4c
:10271000202b12d0039b202b20d00e9b03f0df0335
:1027200043f040030e930023119301231f931e9344
:102730001d931e221c92002222e0069b303bdbb23e
:1027400003eb83030a9a303a02eb430303f0ff03df
:1027500011930e9b03f09f030e93e6e70a9a0699e6
:10276000049806f0c9fa11900e9b03f09f030e9394
:10277000dbe701274ff000080097c3463b463a4687
:10278000ac4200f0b28014f8011b2429f1d0012ad8
:102790003ff4d9ad022a3ff4efad032a3ff416ae61
:1027a000042a3ff441ae052a3ff470ae062a3ff4f6
:1027b0009bae072a3ff4e4ae082a3ff40faf092a84
:1027c000ded1432e98d001230022d9e70e464ff0e8
:1027d00001094b460222d3e78a46012301930322d3
:1027e000cee78a46012301930322c9e78a460123e3
:1027f00001930322c4e78a46012301930322bfe722
:102800000391012302930422bae703910123029367
:102810000422b5e70391012302930422b0e7039158
:10282000012302930422abe70491012305930522bf
:10283000a6e70491012305930522a1e70491012352
:10284000059305229ce7049101230593052297e750
:10285000049101230d930c930593002290e70491ba
:102860000123059305228be7069101230793062296
:1028700086e7069101230793062281e7069101234b
:10288000079306227ce7069101230793062277e748
:10289000089101230993072272e708910123099304
:1028a00007226de7089101230993072268e7089141
:1028b00001230993072263e70a9101230b9308225e
:1028c0005ee70a9101230b93082259e70a9101233d
:1028d0000b93082254e70a9101230b9308224fe738
:1028e0000f910123109309224ae70bb1394b1a705b
:1028f000009b13b1384b83f800b017b1374b83f806
:102900000080b9f1000f01d0354b1e70019b13b14f
:10291000334b83f801a0029b002b3ad1059b002b7f
:102920003bd10d9b002b3cd1079b002b3dd1099b3c
:10293000002b3ed10b9b002b3fd1139b002b40d192
:10294000179b002b41d1169b13b1264b159a5a6148
:10295000199b13b1244b189a5a611b9b13b1234b3b
:102960001a9a1a70109b13b11d4b0f9ada711d9ba6
:1029700013b11f4b1c9a1a601e9b13b11d4b0e9a6c
:102980001a701f9b002b3ff486ac1b4b119a5a61a7
:1029900081e4134b039a9a70c0e7114b049ada70e2
:1029a000bfe7164b0c9a1a70bee70d4b069a1a71c8
:1029b000bde70b4b089a5a71bce7094b0a9a9a710a
:1029c000bbe70f4b129a1a60bae70e4b149a5a6182
:1029d000b9e700bfbf300220dd300220dc3002202a
:1029e0004c2c0220f02e0220302f0220ea30022050
:1029f000f4300220cb300220d02e0220c030022042
:082a0000fc300220502f0220df
:020000040000fa
:102a08002de9f04f2ded0a8b9bb0012006f0f9f966
:102a180020b91bb0bdec0a8bbde8f08f012006f091
:102a280061fa002006f07cf882460028f1d00024e4
:102a38004ff000084ff000099fed9f8b9feda09b82
:102a48009feda1cb9feda2bb9feda3abbde150795c
:102a5800ff2868d006f0baf853ec182b03f000fff3
:102a6800804689469e4b187906f0b0f842464b4698
:102a780002f056fc53ec192b03f0f2fe804689460f
:102a880005f0eaff974b5860974b01229a72974bd3
:102a98001e221a80964b9e4240f0db81dff840826e
:102aa80098f8020006f092f853ec182b03f0d8fec1
:102ab80006460f4698f8010006f088f832463b466d
:102ac80002f02efc53ec192b03f0cafe05f0c4ffec
:102ad800884b586098f8040006f078f853ec182be7
:102ae80003f0befe06460f4698f8030006f06ef89f
:102af80032463b4602f014fc53ec1c2b03f0b0feac
:102b08008046894605f0a8ff7b4b5860b42831d928
:102b18007a4b01221a70c0f5b470774b5860784b25
:102b28001e221a6095e16f4b00225a60b2e7754b7e
:102b38009e42afd16a4eb07806f048f853ec182b95
:102b480003f08efe42464b4602f0eafb8046894679
:102b5800707806f03bf842464b4602f0e1fb53ec36
:102b68001b2b03f07dfe8046894605f075ff664bfa
:102b780058606ee1614b00221a70d0e7584b1b7801
:102b8800032b0fd0042b13d0022b40f065815f4b31
:102b98001988022005f03cff5d4b1988052005f0d7
:102ba80037ff59e15b4b1988082005f031ff53e1e5
:102bb800594b1b78c3f58073584aa2f8483050e146
:102bc800474b1b78ca2b22d0554b1b78962b4ad0e3
:102bd800542b40f05381bbf1ef0f45d0404bd978cf
:102be800504a11701978504a117099794f4a1170ea
:102bf80059794f4a117019794e4a1170d9793a4a60
:102c0800537c23f0700343ea41135374d8e0344be8
:102c18005b78ca2bd8d1324b9b78c12b07d0c22bfb
:102c28000ad0cd2bd0d1444b04221a70cce705f042
:102c380065fc05f0a3fb14e105f0e2fd05f09efb41
:102c48000fe105f0a3fd11e1992bbfd13a4b012209
:102c58001a70334b1b78802b40f09e812f4bda8ff4
:102c6800364b1a70ace0fee71d4b1b78012b6dd07c
:102c7800022bb3d11a4b5b78aa2bafd1184bdb7858
:102c8800012b00f02e815ab2002a00f01b81022b82
:102c980000f03c812a4b02221a70bb225a70104a5b
:102ca80091789970d278da70264b274a1a6005f025
:102cb80047f870e0aff300800000000000e06f40cc
:102cc8006c216d8896e1c83f427bf5f1d077773f5c
:102cd800f865bbdee577773f0f0bb5a6796740400f
:102ce80034f50020f02e02203c4f0120f230022063
:102cf80002fd0100502f0220302f0220ea3002206e
:102d0800fc30022012f10100c42f0220542d0220b1
:102d1800243002202c3002200531022038f4002013
:102d2800b1300220d4300220cc300220db30022027
:102d3800da300220d9300220be300220c230022010
:102d480030d6002038300220f054ef007f4b5b78fb
:102d5800aa2b7ff443af7e4b00221a715a719a71e5
:102d6800da717a4bda78012a00f0948053b2002b9a
:102d780000f08980022a00f09780754b01211970b4
:102d8800bb215970714989789970da70714b724a10
:102d98001a6004f0d5ff714b1b78562b40f0d18098
:102da8006f4b1879694b59781a7802eb01226d49f3
:102db80041f8202099786c4a1170da786b4b1a70b8
:102dc8000134e3b29a457ff624ae002006900790be
:102dd8000890099006aa012104f01cfe0028efd0f3
:102de8005a4a08ab03cb10605160069bc3f3112607
:102df8005f4b1e605f4b1e709df81850574b1d703f
:102e08009df81ab05c4b9e423ff421ae5b4b9e424c
:102e18007ff48dae4d4b1979da7802eb01219a785f
:102e280002eb0122587800eb022005f0cffe53ecac
:102e38001a2b03f015fd8046894605f00dfe504b10
:102e48005860504a137823f0200313704e4b1e220b
:102e58001a60912d3ff492ae404b1b78902b3ff4b3
:102e6800afae3e4b1b78932b3ff4ebae3b4b1b783e
:102e7800972b7ff4e9ae454b01221a70374b1b782c
:102e8800562b8dd0e7e6314b9b783549c95c304be2
:102e9800197172e72d4b99783d4b33f811302c4955
:102ea8000b711b0a4b7168e7284b9978394b53f81b
:102eb800213027490b71180a4871180c88711b0eac
:102ec800cb715ae7214d2979a87805f009fe204be6
:102ed800aa7823498a5c1a7100225a719a71da71a8
:102ee800d8e61a4d6b79297901eb032189b2a878c4
:102ef80005f08efdaa78264b33f81220144b1a7170
:102f0800120a5a7100229a71da71c3e60f4dea79f2
:102f1800ab7903eb02226b7903eb0223297901ebee
:102f28000321a87805f086fdaa781a4b53f82230b9
:102f3800074a1371190a5171190c91711b0ed3713b
:102f4800a8e6542b3ff44aae85e600bf34f50020ce
:102f580030d6002038300220f054ef00b130022083
:102f68003c4f0120c42f0220fb2f022006300220f4
:102f780048300220b230022002f801000bf50100af
:102f8800d02e0220cb300220f4300220e330022081
:102f980038f40020583d002003f17f02d2b2022a03
:102fa8003ff60eaf564a1278d22a3ff409af03f023
:102fb8000f05013dedb2534b1d70534b534e327804
:102fc80003f8152003eb4503514ad28f5a70f37862
:102fd800b07800eb03204f4b186005f0f7fd024670
:102fe8000b46717811f0010f05d0009203f10043f0
:102ff8000193dde90023484e6f00791906ebc10102
:103008004348b0f8620091ed001b43ec102b05f02b
:1030180051fa3d4406ebc50686ed000b3b4d6b7936
:10302800287900eb03203b4b186005f0cffd0246e2
:103038000b46697811f0020f05d0029203f10043a4
:103048000393dde902232f490f78334d7e00f119f0
:1030580005ebc1012e48b0f8620091ed021b43ec6c
:10306800102b05f027fa3e4405ebc60585ed020b4b
:10307800264deb79a87900eb0320264b186005f064
:10308800a5fd804689466b7813f0040f05d004909f
:1030980001f100430593dde904891a4f97f800b060
:1030a8001d4d4fea4b0606eb0b0305ebc303184a0d
:1030b800b2f8620093ed041b49ec108b05f0faf9a5
:1030c8005e4405ebc60585ed040b3b78012b10d05b
:1030d8005ab242b1022b7ff473ae104a137823f030
:1030e800040313706ce60d4a137823f00103137080
:1030f80066e60a4a137823f00203137060e600bffd
:10310800b2300220cd3002201030022034f50020e9
:1031180038f4002058300220582d0220ba300220fe
:020000040000fa
:103128002de9f843132800f22783dfe810f0140094
:1031380069008d00b100d500f9001d01410165014c
:103148008901bd01e101050229024d0271029502c2
:10315800b902dd020103ce4b186805f037fd0446bd
:103168000d46cc4eb08805f031fd02460b46204690
:10317800294605f0c7fe04460d46c74b186805f0fa
:1031880025fd80468946308a05f020fd02460b461b
:103198004046494605f0b6fe06460f460022002383
:1031a8002046294605f060fb002840f0ea822246c6
:1031b8002b463046394602f0e1fa41ec100b02f09a
:1031c800affe51ec100bb0a3d3e9002303f048fb8a
:1031d80004460d460022b14b02f0a2f805f03cfc73
:1031e800af4b1870ab4bb3f8480005f047fc2246cc
:1031f8002b4602f095f805f02ffcc0b2bde8f88325
:10320800a34b186805f0e2fc04460d46a14eb088b1
:1032180005f0dcfc02460b462046294605f072fe06
:1032280004460d46308a05f0d1fc06460f469a4bf7
:10323800186805f0cbfc02460b463046394605f0c7
:1032480061fe06460f46a9e7914b186805f0befcdb
:1032580004460d468f4eb08805f0b8fc02460b4672
:103268002046294605f04efe04460d468d4b18684b
:1032780005f0acfc80468946708905f0a7fc02463b
:103288000b464046494605f03dfe06460f4685e793
:103298007f4b186805f09afc04460d467d4eb088b1
:1032a80005f094fc02460b462046294605f02afe06
:1032b80004460d46708905f089fc06460f46794b91
:1032c800186805f083fc02460b463046394605f07f
:1032d80019fe06460f4661e76e4e308a05f076fc09
:1032e80004460d466c4b186805f070fc02460b4608
:1032f8002046294605f006fe04460d46694b186827
:1033080005f064fc80468946708905f05ffc02463a
:103318000b464046494605f0f5fd06460f463de793
:103328005c4e308a05f052fc04460d465a4b18682c
:1033380005f04cfc02460b462046294605f0e2fd06
:1033480004460d46708905f041fc06460f46554b6c
:10335800186805f03bfc02460b463046394605f036
:10336800d1fd06460f4619e74a4e308a05f02efc75
:1033780004460d46484b186805f028fc02460b46e3
:103388002046294605f0befd04460d46404b186808
:1033980005f01cfc80468946b08805f017fc0246fb
:1033a8000b464046494605f0adfd06460f46f5e694
:1033b800384e308a05f00afc04460d46364b18682c
:1033c80005f004fc02460b462046294605f09afd06
:1033d80004460d46b08805f0f9fb06460f462c4b0f
:1033e800186805f0f3fb02460b463046394605f0ef
:1033f80089fd06460f46d1e6274b186805f0e6fb1f
:1034080004460d46234e308a05f0e0fb02460b4683
:103418002046294605f076fd04460d46214b1868de
:1034280005f0d4fb80468946708905f0cffb02463b
:103438000b464046494605f065fd06460f46ade693
:10344800154b186805f0c2fb04460d46114e308a2c
:1034580005f0bcfb02460b462046294605f052fd06
:1034680004460d46708905f0b1fb06460f460d4b24
:10347800186805f0abfb02460b463046394605f0a6
:1034880041fd06460f4689e612143fc6dca54c40ae
:10349800542d022038f400202c3002200000604017
:1034a8000531022024300220b74b186805f08efb46
:1034b80004460d46b54e308a05f088fb02460b4699
:1034c8002046294605f01efd04460d46b04b1868f7
:1034d80005f07cfb80468946b08805f077fb0246fc
:1034e8000b464046494605f00dfd06460f4655e693
:1034f800a54b186805f06afb04460d46a34e308ab2
:1035080005f064fb02460b462046294605f0fafc06
:1035180004460d46b08805f059fb06460f469c4bfd
:10352800186805f053fb02460b463046394605f04d
:10353800e9fc06460f4631e6964b186805f046fb4f
:1035480004460d46914e708905f040fb02460b4635
:103558002046294605f0d6fc04460d468a4b1868d5
:1035680005f034fb80468946308a05f02ffb024679
:103578000b464046494605f0c5fc06460f460de693
:10358800844b186805f022fb04460d467f4e70896f
:1035980005f01cfb02460b462046294605f0b2fc06
:1035a80004460d46308a05f011fb06460f46764b59
:1035b800186805f00bfb02460b463046394605f005
:1035c800a1fc06460f46e9e5724b186805f0fefabd
:1035d80004460d466d4e708905f0f8fa02460b4612
:1035e8002046294605f08efc04460d46684b1868af
:1035f80005f0ecfa80468946b08805f0e7fa0246fd
:103608000b464046494605f07dfc06460f46c5e593
:10361800604b186805f0dafa04460d465b4e70896f
:1036280005f0d4fa02460b462046294605f06afc06
:1036380004460d46b08805f0c9fa06460f46544bb5
:10364800186805f0c3fa02460b463046394605f0bd
:1036580059fc06460f46a1e54c4e708905f0b6faae
:1036680004460d464b4b186805f0b0fa02460b4667
:103678002046294605f046fc04460d46424b18688c
:1036880005f0a4fa80468946308a05f09ffa02467a
:103698000b464046494605f035fc06460f467de593
:1036a8003a4e708905f092fa04460d46394b18686f
:1036b80005f08cfa02460b462046294605f022fc06
:1036c80004460d46308a05f081fa06460f462e4b11
:1036d800186805f07bfa02460b463046394605f075
:1036e80011fc06460f4659e5284e708905f06efa1a
:1036f80004460d46274b186805f068fa02460b4643
:103708002046294605f0fefb04460d46204b186866
:1037180005f05cfa80468946b08805f057fa0246fb
:103728000b464046494605f0edfb06460f4635e593
:10373800164e708905f04afa04460d46154b18686e
:1037480005f044fa02460b462046294605f0dafb06
:1037580004460d46b08805f039fa06460f460c4b6c
:10376800186805f033fa02460b463046394605f02c
:10377800c9fb06460f4611e50026002734463d469c
:103788000ce5002000211ee52c30022038f4002032
:08379800542d02202430022010
:020000040000fa
:1037a000702f022054000000000000004a2c02206c
:1037b00002000000000000000830022008000000a5
:1037c00000000000e42f02200c00000000000000b8
:1037d000032d02200100000000000000a42e0220a2
:1037e0002c00000000000000142e02203000000019
:1037f00000000000ec240220000400000000000093
:10380000a02d02204000000000000000442e0220f5
:103810003000000000000000fa2f0220010000002c
:1038200000000000542d02200400000000000000f1
:10383000203002201400000000000000fb2f0220b6
:10384000010000000000000006300220020000001d
:1038500000000000163002200200000000000000fe
:103860003430022004000000000000001e3002205e
:103870000200000000000000e92402200200000015
:1038800000000000eb240220010000000000000006
:10389000ad3002200100000000000000ec2a0220f0
:1038a0005e01000000000000ae30022003000000b6
:1038b00000000000122e02200200000000000000a4
:1038c000383002200400000000000000b130022067
:1038d0000200000000000000c42f022010000000c1
:1038e00000000000d02e0220200000000000000098
:1038f000b33002200100000000000000b4300220bc
:103900000200000000000000f02e02202000000055
:1039100000000000d42f0220100000000000000072
:10392000b63002200200000000000000b830022083
:1039300002000000000000003c30022008000000ef
:1039400000000000ba30022001000000000000006a
:10395000bb3002200200000000000000b02c02205a
:103960005300000000000000bd30022001000000f4
:1039700000000000443002200400000000000000ad
:10398000be3002200100000000000000483002208c
:103990000400000000000000bf3002200100000011
:1039a00000000000c0300220020000000000000003
:1039b000582d0220480000000000000010300220b6
:1039c0000600000000000000742e022030000000fd
:1039d00000000000c23002200100000000000000d2
:1039e0004c2c02206400000000000000c3300220c4
:1039f0000200000000000000e02d02203200000064
:103a00000000000018300220060000000000000046
:103a1000c53002200200000000000000c730022074
:103a20000100000000000000102f02202000000014
:103a300000000000c830022001000000000000006b
:103a4000c93002200100000000000000ca3002203e
:103a500001000000000000004c30022008000000bf
:103a600000000000cb300220010000000000000038
:103a7000302f02202000000000000000502f022004
:103a80002000000000000000cc30022001000000f7
:103a900000000000cd300220010000000000000006
:103aa000ce3002200300000000000000543002204d
:103ab0000400000000000000583002200400000054
:103ac00000000000d13002200100000000000000d2
:103ad0005c3002200400000000000000d230022010
:103ae0000100000000000000603002200c00000017
:103af00000000000d33002200100000000000000a0
:103b00006c30022004000000000000007030022031
:103b10000400000000000000d4300220010000007a
:103b200000000000d530022001000000000000006d
:103b3000743002200400000000000000d630022093
:103b400001000000000000007830022004000000a6
:103b5000000000007c300220040000000000000093
:103b6000d73002200100000000000000d830022001
:103b70000200000000000000da3002200100000016
:103b800000000000db300220010000000000000007
:103b9000dc3002200300000000000000df300220c3
:103ba0000300000000000000e230022001000000dd
:103bb00000000000f02f02200a00000000000000ba
:103bc000ac3002200100000000000000fc2f0220a9
:103bd0000a00000000000000e330022001000000a5
:103be00000000000803002200800000000000000fb
:103bf000e4300220010000000000000088300220b4
:103c00000400000000000000e53002200100000078
:103c100000000000e630022001000000000000006b
:103c20008c3002200400000000000000e730022079
:103c30000100000000000000e83002200200000047
:103c4000000000009030022004000000000000008e
:103c5000ea30022001000000000000009430022041
:103c60000400000000000000eb3002200100000012
:103c700000000000f13002200100000001000000ff
:103c800001000000f43002200400000001000000e8
:103c90001e000000043102200100000001000000ad
:103ca00005000000f23002200200000001000000c8
:103cb0001e000000f8300220040000000100000097
:103cc000a08c00000531022001000000010000006e
:103cd00080000000fc300220040000000100000011
:103ce0001e00000010000020a0e501000000000000
:103cf0000631022001000000010000000100000068
:103d0000b0e501202c1f000000000000ec30022074
:103d100003000000000000009830022008000000ae
:103d200000000000ef300220010000000000000051
:103d3000ec2802200002000000000000dc04022049
:103d40000d20000000000000a03002200400000050
:103d500000000000f0300220010000000000000020
:103d600007310220010000000100000051000000a6
:103d700000310220040000000100000009000000e2
:103d8000a43002200400000000000000042d0220e6
:103d90005000000000000000a830022004000000d5
:103da000000000000000000000000000666666667b
:020000040000fa
:103db00000b583b000238df80730a04b1878142885
:103dc00000f20082dfe810f0150020003a005300f6
:103dd0006c0085009e00b900d300ed0007012101b1
:103de0005c0177019101ab01c501df01fe01fe011c
:103df000f9010023924a1370924a13608f4b0122fb
:103e00001a7003b05df804fb8d4b01221a7004f0a8
:103e100079fd03f0cfff08b90020f2e78a498b4b08
:103e2000186804f0d9f98a4b18700028e9d0834b40
:103e300002221a700020834b1860e2e704f062fd52
:103e400003f0b8ff08b90020dbe7804b1868814910
:103e500000f5f05004f0c0f97d4b18700028d0d068
:103e6000764b03221a700020764b1860c9e704f0e5
:103e700049fd03f09fff08b90020c2e7734b1868a3
:103e8000754900f5705004f0a7f9714b18700028bf
:103e9000b7d06a4b04221a7000206a4b1860b0e752
:103ea00004f030fd03f086ff08b90020a9e7674b56
:103eb00018686a4900f5b44004f08ef9644b187034
:103ec00000289ed05d4b05221a7000205d4b1860c3
:103ed00097e704f02dfa8df8070004f013fd03f0c6
:103ee00069ff08b900208ce701220df107015c4b46
:103ef000186804f06ffa514b06221a700020514bdb
:103f000018607ee74e4b01221a7004f0fbfc03f0b0
:103f100051ff08b9002074e75249534b186804f068
:103f20005bf94b4b187000283ff46baf434b0722f3
:103f30001a700020434b186063e704f0e3fc03f0c1
:103f400039ff08b900205ce7474b1868474900f57e
:103f5000f05004f041f93e4b187000283ff451af87
:103f6000364b08221a700020364b186049e704f0df
:103f7000c9fc03f01fff08b9002042e73a4b18685c
:103f80003b4900f5705004f027f9314b18700028b8
:103f90003ff437af294b09221a700020294b1860d3
:103fa0002fe704f0affc03f005ff08b9002028e775
:103fb0002d4b18682f4900f5b44004f00df9244b3f
:103fc000187000283ff41daf1c4b0a221a70002005
:103fd0001c4b186015e704f095fc03f0ebfe08b9e4
:103fe00000200ee7204b1868234900f5f04004f04c
:103ff000f3f8174b187000283ff403af0f4b0b2258
:104000001a7000200f4b1860fbe603f037ff8df8a5
:10401000070004f077fc03f0cdfe08b90020f0e6bd
:1040200001220df10701154b186804f0d3f9034b79
:104030000c221a700020034b1860e2e6e1300220e7
:10404000eb3002204430022038d6002074300220a9
:10405000b53002203c310120608b01203cf500206e
:1040600078300220685b002064300220581f002056
:10407000604f01206879002030b8002068300220ad
:10408000514b01221a7004f03dfc03f093fe08b975
:104090000020b6e64d494e4b186804f09df84d4b94
:1040a000187000283ff4adae4b4b0d221a70002063
:1040b0004a4b1860a5e604f025fc03f07bfe08b926
:1040c00000209ee6424b1868454900f5f05004f088
:1040d00083f8404b187000283ff493ae3e4b0e22fd
:1040e0001a7000203d4b18608be604f00bfc03f0c7
:1040f00061fe08b9002084e6354b1868394900f59f
:10410000705004f069f8334b187000283ff479ae12
:10411000314b0f221a700020304b186071e604f00a
:10412000f1fb03f047fe08b900206ae6284b186847
:104130002d4900f5b44004f04ff8264b18700028c4
:104140003ff45fae244b10221a700020234b1860fe
:1041500057e604f0d7fb03f02dfe08b9002050e627
:104160001b4b1868214900f5f04004f035f8194b55
:10417000187000283ff445ae174b11221a7000202a
:10418000164b18603de603f0abfe8df8070004f017
:10419000b9fb03f00ffe08b9002032e601220df151
:1041a0000701134b186804f015f90b4b14221a7011
:1041b0000a4b00221a60012023e6034b00221a70ea
:1041c00001201ee600201ce6eb30022060a9012041
:1041d0005c300220b5300220e13002204430022061
:1041e00060c70120606d01203c130120683d002064
:0441f0006030022019
:020000040000fa
:1041f4002de988481027b44b1f70002004f0a4f95f
:1042040004f0e6f9b14c4ff48053a3610823a36191
:104214000021af4804f052fe0021ae4804f048feed
:10422400ad4803f097f8ad4802f0f6ff0021ac4822
:1042340004f02cfe4ff00066a6614ff40065c4f84c
:1042440098504ff48063a36004f03cfc4ff080432b
:10425400c4f898304ff00043c4f898304ff48013fa
:10426400a36104f0f3fc1d2004f07efd9d4b0122ac
:104274001a7004f0d3fc04f0b9fc6661c4f89450dd
:104284004ff40053a3612023c4f898304ff4004343
:10429400c4f884304ff40013a361c4f898700a2161
:1042a400914804f017fa0a21904804f0f3f9a66142
:1042b400c4f898508e4edff88482dff884924c461e
:1042c4004ce0fef79ffb55e003f09afe002859d01e
:1042d400884b1b78002b69d103f092fe002878d01c
:1042e40003f08efe30b9844b1b68002b76d0013b63
:1042f400814a1360814b1b7813b1013b7f4a1370d1
:104304007f4b1b6813b1013b7d4a13607d4b1b68d7
:1043140013b1013b7b4a13607b4b1b78002b40f0ad
:10432400818003f06dfe002800f0ca800a2388f81b
:10433400003004f0d3fc754b1a7802f0a003a02bd4
:1043440000f00081614b4021996120219961102185
:104354009961644b1b7813446c4a13703378002bb7
:10436400fcd0002333701d2004f0fefc03f048fe53
:104374000028a6d098f80030002ba5d0013b88f87f
:104384000030ebe702f0e6fb04f054fc04f030fbf1
:104394000028fbd05e4b5878fef7c4fe5d4d012229
:1043a400296804f091fdc0b2286091e702f064fb33
:1043b40003f0f4fa03f024fe00288dd104f0b6fad9
:1043c400002889d1fdf75aff02f09afc00f084fe20
:1043d40082e701f0c7f800f0eff881e7464b48f6b2
:1043e400a0421a604c4a5368013353604b4a137815
:1043f400013313704a4b1b7813f0400f02d113f0b2
:10440400800f03d0444a136801331360454b0222e2
:104414001a70454b00221a70444b06221a7003f09e
:10442400afff67e703f0ecfd00287ff47aaf04f0f8
:10443400a7fa00203e4b18603e4f4ff02c0a9b46d3
:104444002ae000233b70012505e03b780133dbb211
:104454003b70172b0ad889f800a02946204603f0a0
:104464005dfe0028f1d104f039fcf6e74ff02c038f
:1044740089f8003001e004f031fc0121204603f00a
:104484004dfe0028f7d004f07bfadbf80000013081
:10449400cbf800009f280fd8274b186003f07af858
:1044a4003a2389f800300121204603f037fe002822
:1044b400c7d104f013fcf6e7134b00221a7030e75f
:1044c40002f0ecfc32e700bfe4300220008000413f
:1044d400d97c0000697c0000101e002060e50120ea
:1044e400958d0000f1300220fc2f0220f02f0220d5
:1044f400d1300220e6300220f8300220d8300220e9
:104504007030022088300220e3300220d5300220af
:104514003c4f0120d42f0220583d0020c5300220fa
:10452400b8300220be300220e1300220b330022035
:104534008c300220e930022058300220e73002207b
:10454400e8300220174b1b787bb1174b10215961bf
:104554004021596120219961144b1b78002b3ff4b1
:10456400f8ae114b10215961f3e6114b1b784bb98e
:104574000e4b1b780f490978194309d10a4b2021a6
:104584005961e6e6084b1021596120215961e0e6a2
:10459400054910204861002b3ff4dbae024b40215b
:1045a4005961d6e6e924022000800041ea24022071
:0845b400b4300220c4300220e3
:020000040000fa
:1045bc00f8b5a04b1b7cdb089f4a137003f0030378
:1045cc009e4a13709e4b1b78072b16d8dfe813f00e
:1045dc000800610081008900a800ce00f7002001ce
:1045ec0004f048fb954b1b78012b20d05ab22ab112
:1045fc00022b35d0934b00221a70f8bd924b4ff41e
:10460c0000721a60914b4ff4b5321a60904b4ff414
:10461c004b321a608f4b4ff4f6721a608e4b40f28d
:10462c00ef121a608d4b4ff4f9721a60e2e7864b69
:10463c004ff4f4421a60854b4ff400321a60844bed
:10464c0002f5e1321a60834b40f2ed121a60824b94
:10465c004ff4f8721a60814b40f2f3121a60c9e7fa
:10466c00794b4ff472421a60784b02f5d2321a60d1
:10467c00774b4ff48b221a60764b4ff4f7721a601b
:10468c00754b40f2f1121a60744b4ff4fa721a60c7
:10469c00b0e700f00df901280dd002280fd0032847
:1046ac00abd1674b07221a706d4b40221a706d4bc1
:1046bc0004221a70a1e7624b07221a709de7604b27
:1046cc0007221a70664b10221a70664b04221a705d
:1046dc0093e7fff767fb01288fd1594b07221a701c
:1046ec008be7614800f5f05200f5fa50002102e02a
:1046fc000232904207d0a2f5f053198003f5a07353
:10470c009342fad1f4e7594b18221a70584ba02255
:10471c001a604b4b02221a704a4b00221a706ce73b
:10472c005449554d554c504801f5a076002205e0f2
:10473c0002310235023402308e420ad00023ca52b2
:10474c00ea52e252c25203f5a073b3f5f05ff6d110
:10475c00eee7464b18221a70454ba0221a60384bd4
:10476c0005221a70374b00221a7046e74449454e11
:10477c00454d464c464801f5a077002206e0023133
:10478c000236023502340230b9420bd00023ca5231
:10479c00f252ea52e252c25203f5a073b3f5f05f43
:1047ac00f5d1ece7314b18221a70314ba0221a606c
:1047bc00234b06221a70234b00221a701de7354931
:1047cc00354e364d364c374801f5a077002206e0c1
:1047dc0002310236023502340230b9420bd00023ca
:1047ec00ca52f252ea52e252c25203f5a073b3f526
:1047fc00f05ff5d1ece71d4b18221a701c4ba02270
:10480c001a600f4b02221a700e4b00221a70f4e63b
:10481c00254b01221a70254b4ff000625a614ff460
:10482c000062c3f894204ff480525a6104f016fad7
:10483c00e3e600bf3c4f0120cd300220df300220e8
:10484c00be300220e1300220743002205c300220a5
:10485c006430022078300220603002206830022060
:10486c00b4300220f13002203cf50020e930022067
:10487c008c30022038d600203c310120608b012086
:10488c0060a9012060c70120606d01203c1301204c
:10489c00683d0020685b0020581f0020604f0120fd
:1048ac006879002030b80020e630022000800041fa
:020000040000fa
:1048bc0010b5a04b1c78142c00f23a81dfe814f0f0
:1048cc00150021002e003c004a0070007c0089007d
:1048dc009700a500b300d200de00eb00f900070141
:1048ec00150138013801380134014ff4f052924966
:1048fc00924b186803f03ef98e4b01221a70204639
:10490c0010bd8e4b18684ff4f0528d49104403f0d3
:10491c0031f9884b02221a700024f0e7874b186893
:10492c004ff4f052874900f5705003f023f9814b96
:10493c0003221a700024e2e7804b18684ff4f052ff
:10494c00814900f5b44003f015f97a4b04221a7032
:10495c000024d4e703f0e6fca0b97c4c01222146ec
:10496c007b4b186803f0ccf803f0dcfc794b187027
:10497c0003f0d8fc2378834207d16e4b05221a70c2
:10498c000024bce704f0a6f9e7e7734b20221a7069
:10499c00724b04221a70674b14221a700224aee771
:1049ac004ff4f0526e496f4b186803f0e3f8614b0b
:1049bc0006221a700024a2e76a4b18684ff4f052d2
:1049cc006949104403f0d6f85a4b07221a70002498
:1049dc0095e7644b18684ff4f052644900f5705039
:1049ec0003f0c8f8534b08221a70002487e75d4b7c
:1049fc0018684ff4f0525e4900f5b44003f0baf871
:104a0c004c4b09221a70002479e7564b18684ff466
:104a1c00f052584900f5f04003f0acf8454b0a222f
:104a2c001a7000246be703f023fa80b9524c012270
:104a3c002146524b186803f063f803f019fa2378f7
:104a4c00834207d13b4b0b221a70002457e704f02a
:104a5c0041f9ebe7404b20221a70364b14221a70a6
:104a6c0003244ce74ff4f0524549464b186803f0c9
:104a7c0081f8304b0c221a70002440e7414b186827
:104a8c004ff4f0524049104403f074f8294b0d22b6
:104a9c001a70002433e73b4b18684ff4f0523b4933
:104aac0000f5705003f066f8224b0e221a700024a9
:104abc0025e7344b18684ff4f052354900f5b440f3
:104acc0003f058f81b4b0f221a70002417e72d4bdc
:104adc0018684ff4f0522f4900f5f04003f04af8f3
:104aec00144b10221a70002409e703f0f3f998b95b
:104afc00294c01222146294b186803f001f803f0d8
:104b0c00e9f9237883420ad0134b20221a70094bff
:104b1c0014221a700324f2e604f0dcf8e8e7054be3
:104b2c0014221a700124eae600241d4b1c70e6e6e0
:104b3c000024e4e6e030022038d600207430022055
:104b4c003c310120608b01203cf50020d630022046
:104b5c0078300220e5300220b4300220f1300220ff
:104b6c00685b002064300220581f0020604f012039
:104b7c006879002030b80020d33002206830022041
:104b8c0060a901205c30022060c70120606d01200b
:104b9c003c130120683d0020d230022060300220fe
:044bac00eb300220c8
:020000040000fa
:104bb0002de9f04184b09d4b1a68093a9c4b1b7a51
:104bc000a03b062b00f22d81dfe813f00700350033
:104bd000a700dd00ec002b01fa00082a1dd1954842
:104be00004f0aef80446f0b1934804f0a9f80219b5
:104bf00090421ad2b0f5005f19d3b2f5801f18d8d1
:104c000040ea0403c3f30c030bb1512006e08b4bc5
:104c100018608b4b1a60502000e0512004f084f89b
:104c200004b0bde8f0815120f8e75120f6e75120ab
:104c3000f4e75120f2e7834b5121197042f204034b
:104c40009a4207d07f4be1221a707e4b187804f00d
:104c50006bf8e5e7794b1c6874b1774804f070f89d
:104c60000546a04208d300f50053754a12689342e6
:104c700002d8c0f30c041cb1724be2221a70e4e7b4
:104c800004f0ccf804f068f80028fbd1284603f0c3
:104c900069ff48b304f060f80028fbd103f004ff7b
:104ca00010f07e0024d12e46624f7f1b4ff4007817
:104cb000654d4246b919284603f07eff3146284625
:104cc00003f0cafcd8b100bf04f046f80028fbd1bd
:104cd00003f0eafe10f07e0018d1013406f50076ec
:104ce000102ce5d15020b2e7564be3221a70ace706
:104cf00000f01f0363f07f03524a1370a5e704f02e
:104d00000f0363f03f034f4a13709ee700f01f0349
:104d100063f05f034b4a137097e7042a2bd1474b8c
:104d20001e6866b3464b1c68a6422ad2424804f06d
:104d300007f80746a4eb06084ff0ff34002502e011
:104d40000135a84511d0ab5d5c4008223f4944f3d2
:104d500000030b4083ea5404013af8d1c5f30b0376
:104d6000002bedd103f0bcffeae7e443a7420cbf00
:104d70005320542000e0542003f0d6ff50e7542085
:104d8000fae75420f8e74ab9502003f0cdff304b42
:104d900001221a702f4b00221a7041e7522003f0b3
:104da000c3ff3de742b9502003f0beff0123284a6c
:104db0001370284a137033e7522003f0b5ff2fe732
:104dc0005abb50238df8003002238df80130224b5e
:104dd0005b8a83f01003c3f300138df802300323c2
:104de0008df8033001228df8042004238df805305e
:104df00020238df8063000238df807308df8083019
:104e00008df809208df80a308df80b208df80c30c4
:104e10000d21684603f006fb02e7522003f084fff1
:104e2000fee6522003f080fffae600bf00310220c8
:104e3000dc040220e9040220e5040220983002206c
:104e40009c30022007310220ec2802202083b8ed9c
:0c4e5000ee300220ed3002200040004156
:020000040000fa
:104e5c002de9f0479b4b1b78013bdbb2532b06d95a
:104e6c00994b00221a605a6043f239029a60954bb2
:104e7c0054221a7000225a709a70da701a71052135
:104e8c0059719a71da711a725a7201209872da7227
:104e9c001a73072058739973da7367241c743724b8
:104eac005c749a74da741a755a759a75da7519767f
:104ebc0059769976d97618777820587703259d7787
:104ecc001424dc77814b1a805a8045f2ea009880d2
:104edc00da801a8145f2730058819a81da8145f2a1
:104eec00e23018825a829982da821a835c830a260b
:104efc009e830220d8834ff434771f8440f25327cb
:104f0c005f849c84da841a855a859a85da851a8698
:104f1c005a864ff4c8779f864ff4af77df861a878f
:104f2c0059879a876427df87a3f840204ff0b40c89
:104f3c00a3f842c0a3f84420a3f846204ff07b0c02
:104f4c00a3f848c0a3f84a50a3f84c20a3f84e701d
:104f5c0040f2a155a3f8505040f23635a3f8525008
:104f6c008b25a3f854504925a3f856504ff4967e40
:104f7c00a3f858e04b25a3f85a504ff4fa65a3f860
:104f8c005c504ff0110ca3f85ec0a3f86020a3f89e
:104f9c0062004ff01e0ca3f864c04ff0500ca3f845
:104fac0066c0a3f86800a3f86a104ff4617ca3f8fc
:104fbc006cc04ff47a7ca3f86ec040f2ff4aa3f8a1
:104fcc0070a0a3f87220a3f87420a3f876c04ff059
:104fdc005c09a3f87890a3f87a2041f29418a3f80e
:104fec007c80a3f87e20a3f88020a3f88220a3f86d
:104ffc008420a3f88620a3f88820a3f88a20a3f89d
:10500c008c20a3f88e20a3f89020a3f892a0a3f8ec
:10501c009420a3f896c0a3f89890a3f89a20a3f82c
:10502c009c20a3f89e80a3f8a070a3f8a2e04ff4f4
:10503c00fa77a3f8a470a3f8a660a3f8a860a3f865
:10504c00aa0040f6b836a3f8ac60a3f8ae00c820ae
:10505c00a3f8b0009620a3f8b200a3f8b4404ff424
:10506c001670a3f8b600a3f8b80042f23416a3f8f1
:10507c00ba604ff42f54a3f8bc40a3f8be504ff4c1
:10508c009650a3f8c000a3f8c260a3f8c440a3f8dc
:10509c00c650a3f8c800c420a3f8ca003020a3f857
:1050ac00cc00cf20a3f8ce00a3f8d020a3f8d220b8
:1050bc00a3f8d4202422a3f8d620a3f8d810bde856
:1050cc00f08700bf3c4f0120583d002038f40020f1
:020000040000fa
:1050dc0038b5814bd3f8a03013f4004f10d0002317
:1050ec007e4a13707e494a7c22f008024a747d4a3b
:1050fc0013707d4a13707d4a13607d4a137038bd5e
:10510c00764b01221a70764a537c43f00803537491
:10511c00784b1b78d3b9734b1b78032b16d8dfe86d
:10512c0003f0020a1237704b1b7813f0010f0dd0ed
:10513c0003f0ecfa0ae06c4b1b7813f0010f05d06e
:10514c0003f070f802e06c4b00221a70684b1b786d
:10515c00002bd4d0694a1278002ad0d0002263499f
:10516c000a6066490a7066490a7801320a70654a13
:10517c00d25c433a122a2dd8dfe802f0132c2c2ce7
:10518c002c2c2c2c2c412c2c2c2c2c2c9b2c7000b7
:10519c00594b00221a70574b01221a7002f07cfbfb
:1051ac00d4e7584a1a4451785b2917d0564a432001
:1051bc001070517053490b4499789170d978d17013
:1051cc00197911715979517199799171db79d3717f
:1051dc0003f0d8f9464b00221a7090e7494a1a445a
:1051ec0092795d2ae2d1434a00201070454a1a4454
:1051fc0094783c480470d0783b4a1070d6e73d4a0e
:10520c00012111703f4a1a4452785b2ae2d13d4a7f
:10521c001a4412795d2addd1324c02222270394aad
:10522c001a449078394b1870d178394b1970364b29
:10523c004c251d705b255d709870d9705d211971be
:10524c005179597191799971d279da7103f09af98e
:10525c002378022bbed100f09dfcbbe7254a01212f
:10526c001170284a1a44d2785b2ab3d11d4a032103
:10527c001170244a13445978244a11709b78244a9b
:10528c001370172b11d040f2411222491e4803f023
:10529c008dfc03f077f900f07bfb1f4b00221a709a
:1052ac0003f070f902f0f8fa94e7124b00221a702e
:1052bc00e9e7144a1a445278302a8bd1114a1a441d
:1052cc0092785b2a86d10f4a13445b795d2b81d18e
:1052dc0002f022fb7ee700bf00800041e92402209f
:1052ec003c4f01201f3002201e300220343002209f
:1052fc00ad30022007300220af300220eb24022018
:10530c00ae300220ec2a022070b5002017300220ab
:0c531c0016300220f12a0220ca300220c4
:020000040000fa
:1053280030b591ea030f00f18280841a71eb030c07
:1053380005d2121953eb0c03001b71eb0c0140f260
:10534800000ccff6e07c1cea430f52d0bceb410fb7
:105358005fd90c0da4eb135e5ff0010c6cf31f51c9
:105368006cf31f53def1200c2ad303fa0cf5401915
:1053780041f1000122fa0ef5401923fa0ef56941b0
:1053880012fa0cf2cd0208d349085fea30005fea4e
:10539800320228bf42f001020134013c5fea500c9e
:1053a80072f1004250f1000051eb04514ff4001328
:1053b80013eb410f38bf30bd6ff31301002030bd30
:1053c800bef1200ebef1200f1ed223fa0ef54019b1
:1053d80041f10001cef1200c124218bf012203fa5c
:1053e8000cf52a43cee711ea5c0f04bf0020002128
:1053f80030bd1cea410f04bf01f00041002030bd60
:1054080001f00041002030bd21f4801101eb04516e
:1054180030bd004218bf41f00101bceb410f08bf8d
:1054280030bd4ff0fe4141f47801002030bd83f0db
:105438000043841a71eb030e07d28ef0004e001b56
:1054480071eb0e01121953eb0e0340f2000ccff66c
:10545800e07c1cea430fc6d0bceb410f72d90c0d9f
:10546800a4eb135ec90241ea5051c00241f0004169
:10547800db0243ea5253d20243f00043def1200c30
:1054880041d312fa0cf522fa0ef203fa0cf542eaad
:10549800050218bf42f0010223fa0ef3801a99415f
:1054a800e30ac4f30a0411f0404f03d418d0013cb6
:1054b80040004941013c23d44205c00a40ea41501a
:1054c800c90a51eac3715fea500c72f1004250f107
:1054d800000051eb045130bd01002fd00020203cca
:1054e8000029f9d0b1fa81fcdcf1200e11fa0cf197
:1054f80030fa0ef510fa0cf02943a4eb0c04d9e7a6
:105508000020d90730bdaef1200ebef1200f0dd21c
:10551800cef1200c03fa0cf533fa0ef32a4318bf28
:1055280043f00103c01a61f10001b9e721f000411d
:10553800c00a40ea4150c90a01eb045130bd0020bd
:10554800002130bd004218bf41f00101bceb410f02
:0e5558007ff467afbceb430f3ff463af30bd91
:020000040000fa
:0255660070478c
:020000040000fa
:1055680038b57b4b1b780b2b16d8dfe813f00c00f3
:105578001600360040008f00a600c300d700db00ed
:10558800df00e300e700212272494ff4af7002f018
:10559800b9fa6f4b01221a7038bd6e4b1b78542b29
:1055a80009d06d4b1b788bb1013b6b4a1370684b6c
:1055b80000221a70f0e70020684b1870fa22684938
:1055c80002f0dafa624b02221a70e5e7634b012215
:1055d8001a705f4b02221a70dee7102261494ff4fd
:1055e8009b7002f003fb5a4b03221a70d4e703f0b6
:1055f800d1fa04465c4b187003f0befa5b4b187086
:1056080003f0d8fb5a4b1870564bdb68984204d00d
:10561800524a137843f008031370514bb3f8f8302b
:10562800a3421ad04d4b1c7844f004041c70494b1b
:1056380093f8205003f0a0fa854204d0474b1c7819
:1056480044f002041c70444b1b78abb1013b424a46
:1056580013703f4b01221a709ee73e4b93f820408f
:1056680003f08afa8442e9d13c4b1c78002cead139
:10567800374b07221a708fe764f07f04374b1c7092
:10568800fff7e8fb324b04221a7085e703f036f97e
:1056980003f072fa2f4981f8200021224ff4af70ed
:1056a80002f094fe2d4b1b781bb1294b05221a7072
:1056b80072e7274b07221a706ee702f077fb002883
:1056c8003ff46aaf03f01af903f064fa2449a1f829
:1056d800f800fa22002002f09bfb264b18701f4ba3
:1056e8001b781bb11a4b06221a7055e7184b072274
:1056f8001a7051e702f05afb00283ff44daf03f04f
:10570800fdf803f057fb1749c86010224ff49b704f
:1057180001f080ff0e4b07221a703de70c4b0b225d
:105728001a7039e70a4b04221a7035e7084b05222c
:105738001a7031e7064b06221a702de70e4b1b78bc
:10574800002b7ff429af0c4b01221a7024e700bf0d
:10575800b33002203c4f012004310220b430022033
:1057680038f40020583d0020cf300220ce300220ef
:0c577800d0300220b5300220be300220ec
:020000040000fa
:10578400f0b581ea030e0ef0004e40f20007cff6aa
:10579400e07717ea41051ebf95ea070f17ea4304ad
:1057a40094ea070f00f0c5806d0da5eb545707f57b
:1057b40080674ff0004646eac12444ea5054c002d0
:1057c40046eac32343ea5253d202801a9c4104d2cc
:1057d4000018644180185c41013f5b084fea3202c3
:1057e4000025002140f001004ff0070604e0801a74
:1057f4009c4136d340416441801a9c4136d3404198
:105804006441801a9c4136d340416441801a9c41d2
:1058140036d340416441801a9c4136d340416441af
:10582400013e17d0801a9c4136d340416441801a0e
:105834009c4136d340416441801a9c4136d3404157
:105844006441090201eb156190ea052520f0ff008f
:105854004540cce7801a9c4156d335e080185c4122
:10586400c8d20018644180185c41c8d20018644151
:1058740080185c41c8d20018644180185c41c8d2c9
:105884000018644180185c41c8d200186441013e8c
:1058940017d080185c41c8d20018644180185c415c
:1058a400c8d20018644180185c41c8d20018644111
:1058b400090201eb156190ea052520f0ff0045403f
:1058c400cce780185c411fd3420918bf44f001049f
:1058d400490101ebd56100f01f0000eb451021f4f4
:1058e400801141ea0e01013041f10001244208bf58
:1058f40020f00100b7f5006f3eda013f49dd01eb0e
:105904000751bde8f0407047490101ebd56100f053
:105914001f0000eb451021f4801141ea0e01b7f598
:10592400006f29da013f34dd01eb0751bde8f04097
:105934007047004218bf41f00101124218bf43f002
:105944000103b7eb410f2cbfb7eb430f1ce0b7ebe0
:10595400410f04bfb7eb430f16e017ea410f04bf32
:1059640017ea430f10e017ea410f12d017ea430f6a
:1059740002d0b7eb430f0cd04ef0fe4141f470015e
:105984000020bde8f04070474ff0fe4141f478013b
:06599400f6e77146f4e79e
:020000040000fa
:02599a00fee726
:020000040000fa
:10599c0008b56d4a02f5a070002300bf12f8011f74
:1059ac000b44dbb28242f9d1684a92f840219a4208
:1059bc0003d0674b01221a7008bd654b00221a7088
:1059cc00644b1b780d2bf7d8dfe803f00714212e5e
:1059dc003b4855626f7c8996a3b05f4b187800ebff
:1059ec0080004ff4a07259495c4b03eb801003f01c
:1059fc00ddf8e1e7584b187800eb80004ff4a0720b
:105a0c005249574b03eb801003f0d0f8d4e7524bbc
:105a1c00187800eb80004ff4a0724c49514b03eb0b
:105a2c00801003f0c3f8c7e74b4b187800eb8000ed
:105a3c004ff4a07245494c4b03eb801003f0b6f8c1
:105a4c00bae7454b187800eb80004ff4a0723f4941
:105a5c00464b03eb801003f0a9f8ade73e4b1878ea
:105a6c0000eb80004ff4a0723849414b03eb8010df
:105a7c0003f09cf8a0e7384b187800eb80004ff44b
:105a8c00a07232493b4b03eb801003f08ff893e785
:105a9c00314b187800eb80004ff4a0722b49364b39
:105aac0003eb801003f082f886e72b4b187800eba1
:105abc0080004ff4a0722549304b03eb801003f0ab
:105acc0075f879e7244b187800eb80004ff4a0723e
:105adc001e492b4b03eb801003f068f86ce71e4b50
:105aec00187800eb80004ff4a0721849254b03eb9b
:105afc00801003f05bf85fe7174b187800eb800021
:105b0c004ff4a0721149204b03eb801003f04ef8b8
:105b1c0052e7114b187800eb80004ff4a0720b4940
:105b2c001a4b03eb801003f041f845e70a4b187849
:105b3c0000eb80004ff4a0720449154b03eb80106e
:105b4c0003f034f838e700bf6fb5002070b50020c3
:105b5c00d7300220173002201630022038d6002011
:105b6c003c310120608b01203cf5002060a9012014
:105b7c0060c70120606d01203c130120683d0020ae
:105b8c00685b0020581f0020604f012068790020be
:045b9c0030b80020fd
:020000040000fa
:105ba00008b5634b24221a704c225a70614a12784d
:105bb0009a7061490978d9705b2018710d2a12d842
:105bc000dfe802f00727323d48535e69747f8a950b
:105bd000a0ab01eb81014ff4a072584b03eb811194
:105be000574802f0e9ff574a02f5a070002300bfb2
:105bf00012f8011f0b44dbb28242f9d14c4880f805
:105c000045315d2380f8463140f2471101f060fada
:105c100008bd01eb81014ff4a0724b4b03eb8111e6
:105c2000474802f0c9ffdee701eb81014ff4a072a3
:105c3000464b03eb8111424802f0beffd3e701eb74
:105c400081014ff4a072424b03eb81113c4802f0fa
:105c5000b3ffc8e701eb81014ff4a0723d4b03ebaa
:105c60008111374802f0a8ffbde701eb81014ff435
:105c7000a072394b03eb8111314802f09dffb2e76e
:105c800001eb81014ff4a072344b03eb81112c48de
:105c900002f092ffa7e701eb81014ff4a072304bb5
:105ca00003eb8111264802f087ff9ce701eb81019d
:105cb0004ff4a0722b4b03eb8111214802f07cffc3
:105cc00091e701eb81014ff4a072274b03eb8111a7
:105cd0001b4802f071ff86e701eb81014ff4a072cf
:105ce000224b03eb8111164802f066ff7be701ebc4
:105cf00081014ff4a0721e4b03eb8111104802f09a
:105d00005bff70e701eb81014ff4a072194b03ebcd
:105d100081110b4802f050ff65e701eb81014ff460
:105d2000a072154b03eb8111054802f045ff5ae7bd
:105d3000dcb60020173002201630022038d60020b2
:105d4000e1b60020e0b600203c310120608b01204c
:105d50003cf5002060a9012060c70120606d012092
:105d60003c130120683d0020685b0020581f002084
:0c5d7000604f01206879002030b800204e
:020000040000fa
:105d7c00654b9b7d002b00f0c5802de9f041624afc
:105d8c00137edbb2927d12f0800f3bd15e4a137e04
:105d9c00dbb2927d12f0010f74d013f0010f71d0b1
:105dac00594d5a4c5a4e2b7e13f0010f6ad0a368f2
:105dbc00e268934263d06b6803f00703012b02f196
:105dcc00010314bfb25c36f812202169994298bfc6
:105ddc000023e3606b6803f00703012b18bfd2b2fa
:105dec00aa62237d002bded002f0c4ff2368002bb7
:105dfc00d9d0227f42b3a2699042d4d361680320e8
:105e0c009847d0e713f0800fc0d03f4b5b8b13f05b
:105e1c000703bbd03d4ad3873b4b80221a7607221f
:105e2c005a831b7e13f0040f05d0374b9a6a1a7ee7
:105e3c0012f0040ffad1354b1b6a002ba6d0334a53
:105e4c00516a02209847a1e7a2699042abd16168e0
:105e5c0003209847a7e7226a002a30d0616a40469f
:105e6c009047a36a0133226b934228bf002326e09c
:105e7c00a26b904215d1616a0020984711e0224b29
:105e8c0001221a75204a137edbb2927d12f0040fa8
:105e9c0036d013f0040f33d01b4d1c4c4ff00108bf
:105eac001c4f2b7e13f0040f2ad0ae6aa36a013369
:105ebc00226b934228bf0023e26a9a42cbd0e26a5b
:105ecc009a42eed06a6802f00702012aa26a14bf55
:105edc00be5427f81260a36294f83430002be0d043
:105eec0002f0e0fe236a002bdbd094f83c20002a61
:105efc00bed0a26b9042d4d3616a00209847d0e701
:105f0c00bde8f081704700bf00340040a02d022096
:085f1c00ec260220ec24022017
:020000040000fa
:045f240000207047a2
:020000040000fa
:105f28002de9f04759ec108b594f18eb080029f070
:105f3800004343eb030100268f4208bf864282b02c
:105f4800c0f0848053490020994208bf404510eeb4
:105f5800102aca467dd310ee104a1d460127002696
:105f680043a1d1e900019042994126da42a3d3e93d
:105f780000232046294600f073fc0022464b02f01d
:105f8800c1ff0022444b02f0bdff22462b46fff71b
:105f9800c7f93ba3d3e90023804689462046294612
:105fa800fff7bef902460b4640464946fff7e6fbb7
:105fb8003e4604460d4602460b460ff2cc09d9e987
:105fc800008923f00041894508bf904527d2224621
:105fd8002b462046294600f043fc02460b468046e5
:105fe80089462e48042100f0b7ff4246cde900015a
:105ff8004b4604212a4801f04ffb02460b46dde9d7
:106008000001fff7bbfb22462b4600f029fc0246a5
:106018000b4620462946fff783f904460d46012e14
:1060280022dd05f100431d461e4b03ebc606204644
:106038002946d6e90023fff773f904460d460af00e
:10604800004a22468aea050343ec102b02b0bde859
:10605800f08700200f49fff791fb032704460d4600
:1060680002460b4602267be7002ee8d0dce700bf9d
:1060780058cd9e5e1426d13f5499b0d0f56ce73fb9
:10608800aa4c58e87ab6fb3fbbbdd7d9df7cdb3dcd
:106098000000e0ff0000f03f0000e03f2880000023
:0860a8004880000008800000a0
:020000040000fa
:1060b000584b9b7d002b00f0ab8010b5554a5368c0
:1060c00003f00703127e12f0040f5bd0514a906a6e
:1060d000514a5169d268914254d2002b43d14e4b60
:1060e0005a684c1c5c6150544a4b1b7e13f0010fe4
:1060f00018d0484b01221a75474b9a699b689a42ff
:1061000058d2454b1968501c98618a5c414b9a6281
:10611000414b9a699b689a4261d03f4b5a69db6850
:106120009a4269d03b4b1b7e13f0020f14d03b4bbd
:106130001b78bbb1384b5a69db689a420fd1364b9a
:1061400000221a7733490720087534490a701b6a00
:1061500043b1314a506a9847304b1b7813b12d4bed
:1061600002229a7510bd2c4b5a684c1c5c6122f8b7
:106170001100284b1b7e13f0010fd3d0254b0122b9
:106180001a7509e0234a127e12f0010fcad0214a83
:1061900001211175002bafd01f4b9a699b689a4261
:1061a00012d21d4b1968501c986131f81220194bfe
:1061b0009a62ade7184b1b6923b3164aff2191621f
:1061c000013b154a1361a3e7134b1b69d3b1114a75
:1061d0004ff6ff719162013b0f4a136198e70e4b36
:1061e0001b69002b99d10d4b01221a70094b1b7ea4
:1061f00013f0020f9ed1b2e7064b01229a750422da
:106200001a758fe7044b9a699b689a4285d1eae731
:10621000704700bf00300040a42e0220032d022052
:020000040000fa
:106220004e4b42f206625a611a46136913f0010f8f
:10623000fbd04b4b42f20e229a821a46d36813f0df
:10624000010ffbd0464b05221a74a3f540630122cf
:106250005a711a46d37813f0010ffbd0414b424ad2
:106260001a621a46536813f0040ffbd13d4b3e4aa5
:106270005a621a46536813f0080ffbd1394b3b4a58
:10628000da621a46536813f0200ffbd1354b4022d7
:10629000c3f89c201a4600bfd2f89c3013f0400f80
:1062a000fad0304b4022c3f8a0201a46d2f8a030d2
:1062b00013f0400ffad02b4b4022c3f8e0201a46cf
:1062c000d2f8e03013f0400ffad0264b4022c3f84a
:1062d000ec201a46d2f8ec3013f0400ffad0214be4
:1062e0004122c3f8f0201a46d2f8f03013f0400fe4
:1062f000fad01c4b4022c3f80c211a46d2f80c31bc
:1063000013f0400ffad0174b4022c3f820211a4651
:10631000d2f8203113f0400ffad0124b4022c3f8cc
:1063200024211a46d2f8243113f0400ffad0104b32
:106330006ff07f421a6143f2ff325a610d4a9a614f
:106340004ff4c1721a62054a137f03f0fd031377fd
:1063500092f82c3013f0020ffad170470010004071
:1063600000140040001c00400001010006010c0068
:08637000000800405684010002
:020000040000fa
:1063780038b54f4b9b7dd3b14d4a137edbb2927d2e
:1063880012f0800f14d14a4a137edbb2927d12f0cc
:10639800010f02d013f0010f50d1454a137edbb232
:1063a800927d12f0040f02d013f0040f18d138bdfb
:1063b80013f0800fe7d03e4b5b8b13f00703e2d05e
:1063c8003c4ce38502f06afa394b84221a750023a3
:1063d80084f82c30636a002bd5d0a06a9847d2e79e
:1063e800344b93f82c30002be1d0324b1a6adb691e
:1063f8009a42dcd22e4b9a6a5b6803f00703012ba2
:106408002c4b9869196a01f101041c6214bf4254ab
:1064180020f81120274b1a6adb699a42c7d1254b0d
:10642800002283f82c20da61214a842111755b6ae5
:10643800002bbcd01f4a906a9847b8e71d4b1b7dbc
:10644800002baad01b4b9a685c68194b1b7e13f073
:10645800010f19d0a24217d2164b1d6814491a46cb
:106468004b6803f00703012b936803f10100906068
:1064780014bfeb5c35f813308b6290680b7e13f019
:10648800010f01d08442ebd80a4b9a685b689a42a4
:1064980083d3084b00221a755a60054a01211175e9
:1064a800db68002b3ff479af024a1069984774e71c
:0864b80000400141142e0220f6
:020000040000fa
:1064c00038b54f4b9b7dd3b14d4a137edbb2927de5
:1064d00012f0800f14d14a4a137edbb2927d12f083
:1064e000010f02d013f0010f50d1454a137edbb2e9
:1064f000927d12f0040f02d013f0040f18d138bdb2
:1065000013f0800fe7d03e4b5b8b13f00703e2d014
:106510003c4ce38502f0def9394b84221a750023e6
:1065200084f82c30636a002bd5d0a06a9847d2e754
:10653000344b93f82c30002be1d0324b1a6adb69d4
:106540009a42dcd22e4b9a6a5b6803f00703012b58
:106550002c4b9869196a01f101041c6214bf425462
:1065600020f81120274b1a6adb699a42c7d1254bc4
:10657000002283f82c20da61214a842111755b6a9c
:10658000002bbcd01f4a906a9847b8e71d4b1b7d73
:10659000002baad01b4b9a685c68194b1b7e13f02a
:1065a000010f19d0a24217d2164b1d6814491a4682
:1065b0004b6803f00703012b936803f1010090601f
:1065c00014bfeb5c35f813308b6290680b7e13f0d0
:1065d000010f01d08442ebd80a4b9a685b689a425b
:1065e00083d3084b00221a755a60054a01211175a0
:1065f000db68002b3ff479af024a1069984774e7d3
:0866000000040043442e0220b7
:020000040000fa
:1066080010b4474b474a1a60474a1a61002183f879
:10661800401083f84110012283f8422083f8431088
:1066280083f8441083f8451083f8461083f848200f
:1066380083f8492083f84a1083f84b2083f84c10dc
:1066480083f84d1083f84e1083f84f1083f85020cc
:1066580083f8512083f8522083f8532083f854108c
:1066680083f8551083f8562083f8572083f858206c
:1066780083f8592083f85b1083f83120222083f8af
:106688003400202483f8354083f8380083f8390033
:1066980083f83b00882483f83c40244cc3f88040ae
:1066a8004ff04044c3f89040032483f8c04083f877
:1066b800c12083f8c22083f8c32083f8c41083f86c
:1066c800c51083f8c61083f8c72083f8c82083f85c
:1066d800c92083f8cb1083f8cc2083f8cd2002247e
:1066e80083f8ce4083f8cf4083f8d02083f8d120b8
:1066f80083f8d61083f8d71083f8de10112283f8b8
:10670800b02083f8b120102183f8b31083f8b420a7
:10671800772283f8b62083f8b8005df8044b7047f9
:10672800008000417834300870001000710800c003
:020000040000fa
:1067380030b40c4600294dd000284bd04649097f7b
:10674800002940f08680454d6d6805f00705012d4c
:1067580046d0414908604a6000254d618d610d6150
:10676800a84208bf2c468c60aa4218bf1d460a469c
:10677800cd6001211177394a127e12f0040f05d03d
:10678800364a916a117e11f0040ffad1334a518bbf
:1067980041f004015183117e41f080011176a54238
:1067a80002d92a1b2c490a612c4a526812f0070f99
:1067b8002bd1294a9269a2421cd2007827498862c3
:1067c800013225498a61002b3bd0244b04229a755b
:1067d80001213be0002b38d0002aafd1002135e061
:1067e80014b114f0010f31d1002bb2d013f0010f06
:1067f800afd02be0184a1269002ae4d01749ff20cd
:106808008862013a14490a61dde76408124a946013
:106818001169490811616d08d5609269944206d9d9
:1068280000880e49886201320b498a61cbe700294a
:10683800c9d00a4a4ff6ff7090620139064a1161c1
:10684800c1e70121054b997500e00021084630bcdd
:1068580070470021fae700bfa42e02200030004054
:020000040000fa
:10686800f0b540f2ff7681ea030c16ea115e1ebf0e
:10687800b64516ea1355b54252d021ea465141f4bd
:106888008011a1fb024723ea465343f48013ae4428
:10689800a0fb03650cf0004c36197d41a1fb0347b2
:1068a80047f10003a0fb0217f619654153f10003f5
:1068b800094218bf46f0010640f2fe74b3f5007fa6
:1068c80013d2aef5806ea64523d24cea03312803d5
:1068d80041ea155140ea16503203450872f1004268
:1068e80050f1000051eb0e51f0bdaef2ff3ea6454f
:1068f8000fd24ceac321e80241ea555140ea56500a
:10690800f202450872f1004250f1000051eb0e51bd
:10691800f0bd1eea0e0f2dd50cf000410020f0bd91
:1069280016ea115f04bf01f000410020004218bfc1
:1069380041f0010116ea135f04bf03f0004300228f
:10694800124218bf43f0010306ea1354b44218bfb9
:10695800b64503d00cf000410020f0bd21f0004105
:1069680023f00043b1eb065f0cd8b3eb065f09d800
:1069780041b13bb10cf0004141f0fe4141f47001de
:106988000020f0bd40f20001c7f6f8710020f0bd0c
:020000040000fa
:10699800364ad36823f4e0631b041b0c43f0bf633f
:1069a80043f40033d360bff35f8f62b6304be0210e
:1069b80083f80a134ff480621a6083f80b134ff4bc
:1069c80000621a6083f829134ff400725a6083f842
:1069d8002e134ff480425a6083f82f134ff400426d
:1069e8005a6083f830134ff480325a6083f83113b9
:1069f8004ff400325a60402283f832234ff480204b
:106a0800586083f833234ff40020586083f8342308
:106a18004ff48010586083f835134ff40010586015
:106a280083f83a234ff08060586083f83b234ff097
:106a38000060586083f83c234ff08050586083f81a
:106a48003d234ff00050586083f84223042098609b
:106a580083f843230820986083f8442310229a601f
:106a680083f8451320229a60704700bf00ed00e0cc
:046a780000e100e059
:020000040000fa
:106a7c00f0b583b002f0e4f9c0b22d4b187002f0ff
:106a8c0046fa02f00ff902f043fa2a4c2a4e2b4d2b
:106a9c002b4f1de024233b7001232a4a13702b60db
:106aac0016e0294a012111700be00122327005e039
:106abc002278fa5440f245129342f2d0b3f5ae7fed
:106acc0006d801332b6003e02b68002bf0d100bffc
:106adc0002f0e8f850b301210df1070000f0d4ffeb
:106aec00012823d19df80730237001f01bff28b932
:106afc009df80700fff710fa0028e9d19df8070070
:106b0c0000f062f90028e3d13378002bdcd1227835
:106b1c00242abfd02b68002bdad0fa54552ac4d0c3
:106b2c005d2acbd1084a01211170c7e703b0f0bd33
:106b3c00ea240220ac300220ca3002203430022079
:0c6b4c00ec2a0220ad300220eb240220d5
:020000040000fa
:106b580010b502f055f82d4b1b78002b51d0013b96
:106b6800dbb22a4a1370012b34d05ab2d2b1022bad
:106b78004ad100bf01f028ff0028fbd002f072f9cb
:106b880000eb80004000224b1860224c192221683b
:106b980002f098f920604ff4c051002001f002ff84
:106ba80032e000bf01f010ff0028fbd002f05af9d4
:106bb80000eb80004000184b1860184c192221681f
:106bc80002f080f920604ff4c051012001f0eafe84
:106bd8001ae000bf01f0f8fe0028fbd002f042f9ed
:106be80000eb800040000e4b18600e4c1922216803
:106bf80002f068f920604ff4c051092001f0d2fe7c
:106c080002e0024b03221a7010bd00bffa2f0220c7
:106c1800303002202c30022020300220542d022057
:086c2800283002202430022074
:020000040000fa
:106c300010b5274b1868274b1968274ba3fb013168
:106c4000c1f3c701254b24221a7044225a70302206
:106c50009a703122da705b221a71214a947a214aa1
:106c600052f82420204cb4f84e4002fb04f2597133
:106c70001e49097899711e49a1fb02125209da7165
:106c80001c4a12781a725872020a9a721a4a1278b8
:106c9000da721a4a12781a735a1d03f10d01002391
:106ca00012f8010b0344dbb28a42f9d1144a0d21d8
:106cb00011600a4a53735d239373144601e002f096
:106cc0000ff80f21204600f003fa0028f7d010bd7e
:106cd0009430022090300220cdccccccdcb6002009
:106ce0003c4f0120f02e022038f40020b730022063
:106cf0001f85eb51c8300220cb300220c930022062
:046d000054300220e9
:020000040000fa
:106d0400304b1b78002b5cd000b597b053222e4932
:106d140001a801f04fff2b4b00221a709df804309c
:106d2400242b02d017b05df804fb9df80730522bda
:106d34000ed04d2b1dd0422b24d0482b2bd19df8a7
:106d44000830442b08d19df80930472b04d10be0bf
:106d54009df808304d2b03d01c4b00221a70e1e73c
:106d64009df80930432bf7d101ab0df155000021fb
:106d74001ee09df80830572beed19df80930562bb4
:106d8400ead1f1e79df808304f2be5d19df80930a1
:106d9400442be1d1e8e7442bded19df80830422ba7
:106da400dad19df80930542bd6d1dde78342d3d014
:106db40013f8012f2c2af9d10b299cbf0131c9b238
:106dc400f4e77047bb300220b02c0220bc30022014
:020000040000fa
:106dd40008b52c4b1b78012b15d05ab22ab1022bc3
:106de4003cd001f08ffe002008bd4d2848d1264b31
:106df4004d221a700120254b1860254b09221a6078
:106e0400204b1870f0e721490a68531c0b601e4997
:106e14008854092b01d00120e6e7084601f08effd3
:106e24001c4b984210d11c4801f088ff42f2040325
:106e3400984209d800f10902154b1a6040b1114b70
:106e440002221a700120cfe701f05cfe0120cbe79b
:106e5400fdf7acfe01f056fe0120c5e70b490a68b8
:106e6400531c0b6008498854094a1268934201d0a4
:106e74000120b9e7fdf79afe01f044fe0120b3e7d3
:106e84000020b1e7f0300220dc040220a030022010
:0c6e9400003102204d434850e004022071
:020000040000fa
:106ea00008b501f0e9ff23490b68234a1360c01ab3
:106eb000224a82fb00c2c017c0eba200204a106029
:106ec000184408608b2303fb00f31e4a82fb031265
:106ed0001a44db17c3eba2231b4a13601b4a527fe1
:106ee00093421b4b1b7834bf43f0080303f0f703b6
:106ef000174a1370b0f5807f0cdd164bfa221a602a
:106f0000154b4022c3f8982008229a61134b0122a6
:106f10001a7008bd0f4b1b6823b90f4b4022c3f8f2
:106f20009420f6e7013b0b4a13600c4b04221a70c5
:106f3000efe700bf4c3002208430022067666666af
:106f4000803002206b09ebb5102f02203c4f01204e
:106f5000ba3002205030022000800041f13002207f
:020000040000fa
:106f6000f8b58c1e00ebc40416461f460d46d4e946
:106f7000022330463946fff777fcd4e90023fef7b9
:106f8000d3f9022d02460b4645d030463946fff76d
:106f90006bfc54e90223fef7c7f9032d02460b46aa
:106fa00039d032463b46fff75ffc54e90423fef735
:106fb000bbf9042d02460b462dd030463946fff76b
:106fc00053fc54e90623fef7aff9052d02460b46a4
:106fd00021d030463946fff747fc54e90823fef735
:106fe000a3f9062d02460b4615d030463946fff769
:106ff0003bfc54e90a23fef797f9072d02460b469e
:1070000009d030463946fff72ffc54e90c23fef730
:107010008bf902460b4630463946fff725fcf8bd92
:020000040000fa
:1070200010b5224b24221a7044225a7030229a70d2
:107030003222da705b221a711d4a11681d48a0fbca
:107040000121490959711c4a1268a0fb0212520918
:107050009a711a4a1278da71194a12781a72194a10
:10706000117c5972527c9a72ff22da72164a127897
:107070001a735a1d03f10d01002300bf12f8010b12
:107080000344dbb28a42f9d1104a0d211160074a4c
:1070900053735d239373144601e001f021fe0f2129
:1070a000204600f015f80028f7d010bddcb600200f
:1070b000403002201f85eb513c300220c7300220b7
:1070c000b93002203c4f0120c6300220543002204b
:020000040000fa
:1070d0002de9f041002946d08c46244b1f6900243d
:1070e00023491a46dff88ce00fe010f804804e6860
:1070f00006f00706012e14bf0ef805802ef8158045
:107100009360631c013463452bd24b6803f0070383
:10711000012b10d09568d6686b1cbb4228bf00239a
:107120009e42e2d101f0b8fd10b1114b01229a75d7
:107130002046bde8f0819568d6686b1cbb4228bf2d
:1071400000239e42eed030f814804e6806f0070609
:10715000012e14bf0ef805802ef815809360631c75
:10716000d0e71c46dee70c46dce700bfa02d02207e
:0871700000340040ec2602206f
:020000040000fa
:1071780010b5204b1a6842f20f739a4228bf1a467c
:107188001d4b19681d4b242018704420587030205e
:107198009870d8705b201871194800785871194890
:1071a80000789871d971090a19725a72120a9a727a
:1071b800154a1278da72154a12781a735a1d03f1b1
:1071c8000d01002312f8010b0344dbb28a42f9d106
:1071d8000f4a0d211160094a53735d2393731446b6
:1071e80001e001f079fd0f212046fff76dff00282f
:1071f800f7d010bd6c3002207c300220dcb60020b5
:10720800b0300220b6300220b8300220c13002204f
:0472180054300220cc
:020000040000fa
:10721c0038b504465022002101f0defd214b01223d
:10722c009a611a46936913f0010ffbd01d4b9a69b2
:10723c0042f002029a611c490c60a2b242f4803204
:10724c00c3f8a02004f110024a6092b242f000424e
:10725c0042f40032c3f8b02004f13002ca6092b29a
:10726c0042f08072c3f8c02004f140020a6192b26d
:10727c0042f48032c3f8f02004f148028a610b4dcd
:10728c0003cda064e16492b242f48032c3f888204a
:10729c009a6922f001029a611a46936913f0010f60
:1072ac00fbd138bd000400428c2f0220e48e00007c
:020000040000fa
:1072bc0010b5204b24221a7044225a7030229a7036
:1072cc003622da705b221a711b4a9168080a5871cf
:1072dc0099711168080ad87119725268110a597299
:1072ec009a72164a11681648a0fb01214909d972f5
:1072fc00144a1268a0fb021252091a735a1d03f1a8
:10730c000d01002312f8010b0344dbb28a42f9d1c0
:10731c000d4a0d211160074a53735d239373144674
:10732c0001e001f0d7fc0f212046fff7cbfe00282f
:10733c00f7d010bddcb60020742e022040300220a5
:0c734c001f85eb513c3002205430022021
:020000040000fa
:1073580038b504464ff4a472002101f03ffd4ff008
:10736800844301229a611a46936913f0010ffbd0f6
:107378004ff084439a6942f002029a6118490c60fe
:10738800a2b242f0004242f4a022c3f8a02004f1c5
:107398005002ca6092b242f02062c3f8c02004f1e1
:1073a800f0020a6192b242f42022c3f8f02004f5f8
:1073b800a0728a610b4d03cdc4f84001c4f8441192
:1073c80092b242f48032c3f888209a6922f001020e
:1073d8009a611a46936913f0010ffbd138bd00bfbb
:0873e800a82f0220f48e000022
:020000040000fa
:1073f00008b51b4b98471b4b9847eff3108172b6ab
:10740000194ad2f8883043f47003c2f88830bff3c9
:107410004f8fbff36f8f01b962b6144c20236360a6
:1074200001f00cfa124b23f07f030f4a9360114bcb
:107430009847a36823f00103a3602346da6812f09b
:10744000010ffbd1094b5a6842f004025a60012235
:107450009a60094b9847094b9847fcf7cbfefee72b
:10746000198f0000198f000000ed00e0006000415e
:10747000002000007d810000198f0000198f00009e
:020000040000fa
:1074800010b51d4b59791d4a52f821201c49242062
:10749000087044204870302088703320c8705b200a
:1074a0000871187f4871987f8871ca71120a0a7230
:1074b0001a79144b53f822301a0a4a728b7200233d
:1074c000cb720b734a1d0d3112f8010b0344dbb272
:1074d0008a42f9d10c4a0d211160094a53735d2388
:1074e0009373144601e001f0fbfb0f212046fff7e8
:1074f000effd0028f7d010bd3c4f0120d02e022018
:0c750000dcb60020c42f02205430022012
:020000040000fa
:10750c0010b51d4b24221a7044225a7030229a70e6
:10751c003422da705b221a71184a916a080a58717f
:10752c009971116a080ad8711972526a110a597242
:10753c009a72134a1278da72124a12781a735a1d16
:10754c0003f10d01002300bf12f8010b0344dbb261
:10755c008a42f9d10c4a0d211160074a53735d23fd
:10756c009373144601e001f0b5fb0f212046fff7a1
:10757c00a9fd0028f7d010bddcb60020742e022027
:0c758c00b9300220c5300220543002202b
:020000040000fa
:1075980000b583b0b0f57a7f05d2632805d83023cb
:1075a8008df800300fe040f2e730184ba3fb0023c2
:1075b8005b09dab2092a28bf092230328df8002087
:1075c800642202fb1300092819d9114ba3fb0023dd
:1075d800db08dab2092a28bf092230328df80120e7
:1075e80003eb8303a0eb430030308df80200032146
:1075f800684600f091fd30b901f06efbf7e73023e3
:107608008df80130f0e703b05df804fb1f85eb51fe
:04761800cdcccccc3d
:020000040000fa
:10761c002de9f04104460f46164601f06df91b4b5f
:10762c001b781bb900242046bde8f081dff85c8094
:10763c00002388f80030164d02232b70230c6b703e
:10764c00230aab70ec7001f0a9fb01f043fb32464e
:10765c003946281d01f0aafa01f03cfb01f03afb77
:10766c0001f038fb01f036fb01f034fb311d2846ec
:10767c0001f014fc044698f80030002bd3d1454699
:10768c0001f028fb2b78002bfad0cce70631022036
:04769c00b003022015
:020000040000fa
:1076a000f8b516461f4600ebc10555e902230c4606
:1076b00030463946fdf738fe32463b46fff7d4f8f0
:1076c00055e90423fdf730fe02460b4630463946a5
:1076d000fff7caf8032c02460b4617d055e90623dc
:1076e000fdf722fe02460b4630463946fff7bcf84e
:1076f000052c02460b4609d155e90823fdf714fe77
:1077000032463b46fff7b0f802460b46c4eb4474e2
:1077100005ebc40410461946d4e90023fdf704fe26
:04772000f8bd00bff1
:020000040000fa
:107724000138c0b2092834d8a9b32de9f0474ff085
:107734008443d3f8c430c3f30443013001eb001590
:107744000026dff858904ff001081801d9f80c40d2
:107754002218d1f800a0d1f804e0d1f808c0cf680d
:1077640044f800a0c2f804e0c2f808c0d7601031a1
:1077740008fa03f216430133dbb20a2b08bf0023d5
:107784008d42e2d14ff08443c3f8d0600120bde8bc
:10779400f087002070470020704700bfa82f022008
:020000040000fa
:1077a4001c4b1d4a1a604df6ad029a814ff44032cb
:1077b4005a601a46d369002bfcd1164a136843f069
:1077c40002031360d369002bfcd1144b00221a620c
:1077d4009a62da6283f8342083f83c209a63da8769
:1077e4001a609a60da601a751a779a61094b5b68b5
:1077f40003f00703012b094b14bf4ff400724ff43d
:1078040080721a631a61034b80229a7504229a7556
:10781400704700bf0034004004011040a02d022036
:020000040000fa
:1078240010b51b4924230b7044234b7030238b70f9
:107834003523cb705b230b71164b1a88100a4871e1
:107844008a719b881a0aca710b7200234b728b725d
:10785400114a1288100ac8720a734a1d0d3100bffa
:1078640012f8010b0344dbb28a42f9d10b4a0d2111
:107874001160074a53735d239373144601e001f0ca
:107884002dfa0f212046fff721fc0028f7d010bd68
:10789400dcb6002018300220122e022054300220c0
:020000040000fa
:1078a40010b51b4924230b7044234b7030238b7079
:1078b4005523cb705b230b71164b1b784b71002344
:1078c4008b71cb710b724b728b72cb720b734a1d23
:1078d4000d3100bf12f8010b0344dbb28a42f9d127
:1078e4000d4a0d2111600a4a53735d2393731446a4
:1078f40001e001f0f3f90f212046fff7e7fb002830
:10790400f7d04ff4af720021044801f069fa10bdba
:10791400dcb60020d730022054300220ec2a0220aa
:020000040000fa
:1079240010b51b4924230b7053234b7030238b70e9
:107934005b23cb7000230b714b718b710122ca71d5
:107944000b724b728b72cb720b734b738b73cb7347
