:020000040000fa
:08000000ffff032009000000ce
:020000040000fa
:100008000d4a0e48801a800808d00d4b03eb80007b
:1000180053f8041b42f8041b8342f9d1094b0a4ade
:10002800d21a920806d003eb8202002143f8041b7f
:100038009a42fbd100f00cb818000020b407002049
:1000480060000000b4070020e8470020000000001e
:080058005ff800f041070020f1
:020000040000fa
:10006000704700bf4ff48070704700bf30b583b059
:1000700004460d464ff0ff3301212120019300f08b
:1000800037fa294601ab019a204600f0a3f9022174
:10009000212000f02dfa019803b030bdbff34f8f3f
:1000a0000549064bca6802f4e0621343cb60bff314
:1000b0004f8f00bffde700bf00ed00e00400fa0530
:1000c00038b50468631c07d0034600205d68fff75d
:1000d000c7ff84f30888284738bd00bf70b5254c9a
:1000e000257805b170bd00f0d5fa0028fad000f0ef
:1000f000d9fac6b200f002fbb8b96378656803b3f9
:10010000a368ab4204d91c496a1c6e546260154650
:10011000ab4206d10022c4e90122012123616270b1
:100120002170bde8704000f0d1ba134a6570012318
:1001300016706360114b5b5db342f2d000236360c5
:10014000efe76b1c0c4a6360042b5655f2d9092b60
:10015000e7d10b4b1168994203d0512000f084fa8b
:10016000ece7d2e90132a360012322736370637369
:10017000e4e700bfb4070020d8270020b007002024
:10018000534746572de9f84f624ddff88ca1dff851
:1001900090b105e02b78002b3cd16b7b002b37d046
:1001a000fff79cff2b7d002bf4d02f69d5f818802a
:1001b000043f01e0fff792ff00f088f90028f9d131
:1001c000404600f071f901e0fff788ff00f07ef98a
:1001d0000028f9d1bfb1dff84c910446464600bf74
:1001e000a9eb08003044314600f040f901e0fff788
:1001f00075ff00f06bf90028f9d104f50074a742ef
:1002000006f50076ecd800232b756b7b002bc7d14d
:10021000bde8f88f2b7ba02b0dd0a12b22d0a62bd5
:1002200051d0a22b67d0a32b42d0a42b59d052205f
:1002300000f01afa13e0dae9002323f4ff7302ea6c
:100240000b0223f0010313449a4202d2b3f5801f3c
:1002500028d900235120c5e9073300f005fa00230f
:100260002b709ae7daf80030ea6903ea0b0393424d
:10027000ab6113d32a6a934210d2274b274a03f566
:10028000005000bf53f8041f42f8041f8342f9d105
:10029000012350202b7500f0e7f9e0e7512000f032
:1002a000e3f9dce75020c5e9072300f0ddf9d6e7e4
:1002b000502000f0d9f900bf00f0cef90028fbd0a3
:1002c000fff7ecfecbe7502000f0cef9fff7cafeb7
:1002d0000446c0f30f2000f0c7f9e0b200f0c4f903
:1002e000bde7502000f0c0f900f0b6f90028fbd0bf
:1002f00000f0f4f8b3e7d5e90701091adaf800408d
:10030000fff7b4fe84420cbf5320542000f0acf938
:10031000a5e700bfb4070020d8270020d40700209d
:1003200000e0ffffd8070020224a42f20663536133
:100330001369db07fcd5204a42f20e239382d3686f
:10034000d807fcd51d4b0520012110741a465971a0
:10035000d378d907fcd51a4a1a4b136253685b0746
:10036000fcd4184b164953624b681807fcd4164b43
:10037000134acb6253689906fcd440231049c2f853
:10038000e03000bfd1f8e0305a06fbd50b4b0f48e8
:100390001861084a0e4940f2ff7058619961137f55
:1003a00003f0fd03137700bf92f82c309b07fbd4ba
:1003b000704700bf001000400014004000080040db
:1003c000001c00400001010006010c00fffff900c5
:1003d0005684010009b900207047002bfbd010b4ef
:1003e0000c4c6060a160e26062780420d2b262705e
:1003f000214620704a78d007fcd54a78520703d5a9
:1004000000205df8044b7047ca681a6001205df84f
:10041000044b7047002000410f4ad3684ff6ff019c
:100420000b4043f0bf6343f40033d360bff35f8fef
:1004300062b60a4be02283f80b234ff400621a6085
:10044000402283f83c234ff08051596083f83d23cc
:100450004ff000525a60704700ed00e000e100e00c
:10046000014b04221a807047004000410c4a30b40e
:10047000091a0025031f0c1d00f5fe701580e218f7
:1004800053f8041f11608342f9d1064a138803f020
:10049000300313b94af203539380012030bc7047f4
:1004a000dc4700200040004110b4064b064c0146da
:1004b0004af2015200202080012059619a805df8a3
:1004c000044b704700400041dc470020024b588a33
:1004d000c04300f00100704700400041024b4af267
:1004e00017529a80704700bf00400041704700bf1c
:1004f00080b24ff0804340ea01411960704700bf6d
:10050000434b444a70b4444c1a6000211c610122e0
:100510002220202483f8422083f8431083f84410db
:1005200083f8451083f8461083f8482083f8492063
:1005300083f84a1083f84b2083f84c1083f84d1051
:1005400083f8502083f8512083f8522083f85320f9
:1005500083f8541083f8551083f8562083f85720f9
:1005600083f8582083f8592083f85b1083f83120f2
:1005700083f8340083f83540882483f83800274d09
:1005800083f8390083f83b0083f83c40244cc3f8df
:100590008050c3f890400325022483f8c0500626fb
:1005a00083f8c120102583f8c22083f8c32083f884
:1005b000c41083f8c51083f8c61083f8c72083f8e9
:1005c000c82083f8c92083f8cb1083f8cc2083f8a7
:1005d000cd2083f8ce4083f8cf4083f8d02011247b
:1005e00083f8d120772283f8d61083f8d76083f878
:1005f000de1083f8b04083f8b14083f8b35083f83d
:10060000b44083f8b62083f8b80070bc704700bfd0
:1006100000800041783430087000100071084040bc
:100620000000c0400a4b0b4a1a604ff440314ff6ad
:10063000b9429a811a465960d369002bfcd11368dc
:10064000034943f002031360cb69002bfcd17047d0
:100650000040014104010040024b187ec0f34000fd
:10066000704700bf00400141034a137edb07fcd501
:1006700080b29062704700bf00400141044a536855
:1006800043f400335360d369002bfcd1704700bfa3
:1006900000400141024b187ec0f38000704700bf4c
:1006a00000400141014b986a704700bf0040014182
:1006b000044b0548002204211a609a6058601960b2
:1006c000704700bf10e000e07f4f1200054b1a6832
:1006d000002122f001021a6099601a6842f00102ba
:1006e0001a60704710e000e0034b00229a601a681d
:1006f00042f001021a60704710e000e0024b1868f7
:10070000c0f30040704700bf10e000e008b5fff7fd
:10071000a7fefff7f5fe00f013f858b1fff704fe4f
:10072000fff780fffff7c4fffff7e0febde80840da
:10073000fff772be4ff40050fff7c2fceee700bfb8
:100740004ff4fa6300bf013bfcd14ff000520c485c
:100750001168814207d00b4bd3f8a0006fead0504c
:1007600000f00100704750688842f4d191688142de
:10077000f1d1d0688842eed113600120704700bfec
:100780005347465700800041f8b50020fff7befff1
:10079000fff78efffff7a8ff154b08204ff480519d
:1007a0004ff400529861002499619a61fff7a6ff07
:1007b00000b16434b4f5fa7ff8d30d4d0d4c4ff40d
:1007c00080536b61fff75aff20271026fff796ff33
:1007d000236808b16433236062689a1ab2f57a7f9d
:1007e00024bfef6163606e61fff7ccfcae61ede7a3
:0c07f00000800041e04700204d434850cd
:00000001FF
