:020000040000fa
:10200000f0ff032059720000678700002788000056
:102010001b8a00009b8c0000738d000000000000f4
:10202000000000000000000000000000c756000093
:102030001f89000000000000c7560000c7560000be
:10204000c7560000c7560000c7560000c75600001c
:10205000c7560000c7560000c7560000c75600000c
:10206000c7560000c7560000c75600008188000010
:10207000c7560000c7560000c7560000c7560000ec
:10208000c7560000c7560000c7560000c7560000dc
:10209000c7560000c7560000c7560000c7560000cc
:1020a000c7560000c7560000c7560000c7560000bc
:1020b000c7560000c7560000c7560000c7560000ac
:1020c000c7560000c7560000c7560000c75600009c
:1020d000c7560000c7560000c7560000c75600008c
:1020e000c7560000c75600000000000000000000b6
:1020f00000000000c7560000415e0000415e000085
:10210000415e0000415e000051620000516200002b
:102110005162000051620000c7560000c75600001f
:10212000c7560000c75600000961000009610000a1
:102130000961000009610000c7560000c756000091
:10214000c7560000c756000099630000996300005d
:102150009963000099630000000000000000000087
:10216000000000000000000000000000000000006f
:102170000000000000000000c7560000c756000025
:10218000c7560000c7560000c7560000c7560000db
:1021900000000000c7560000c7560000c7560000e8
:1021a000c7560000c7560000c7560000c7560000bb
:1021b000c7560000c7560000c7560000c7560000ab
:1021c000c7560000c7560000c7560000c75600009b
:1021d000c7560000c7560000c7560000c75600008b
:1021e000c7560000c7560000c7560000c75600007b
:1021f000c7560000c7560000c7560000c75600006b
:10220000c75600000000000000000000c756000094
:10221000c7560000c7560000c7560000c75600004a
:10222000c7560000c7560000c7560000c75600003a
:10223000c7560000c7560000c7560000c75600002a
:10224000c7560000c7560000c7560000c75600001a
:10225000c7560000c7560000c7560000c75600000a
:020000040000fa
:10226000f8b500bff8bc08bc9e467047bd840000ae
:10227000f8b500bff8bc08bc9e46704799840000c2
:020000040000fa
:102280002de9f04fafb03222002121a806f056fd13
:10229000ac4b1d7815b92fb0bde8f08f2a46aa497e
:1022a00021a806f04ffc0023a64a1370a74a126823
:1022b0001c92a74a52691192a64a12780e92a64918
:1022c000ca790f92a54a12780c92a54a52691892bf
:1022d000a44a12681292a44a12781a92a34a526926
:1022e0001592a34a526914928a790a924a790892fd
:1022f0000a79069291f801a09e4a1278c878049053
:10230000887803900e789c4991f800b09b4991f829
:10231000008021ac013d0df1850151fa85f51f9337
:102320001e931d9310931b93199316931793139356
:102330000b93099307930d93059302930193994689
:102340001f4600931fe2a1f141030f2b11d8dfe8d4
:1023500013f03d0210003d023d023d02100010004e
:1023600010001000100010001000100010001000ed
:102370003d020123002203e2442e0bd0452e0fd054
:10238000432e13d0412e17d1642900f0348201234b
:102390000022f5e1642900f01f8201230022efe111
:1023a000642900f01e8201230022e9e1642900f083
:1023b0001d8201230022e3e1502e04d18a4601232d
:1023c00001930322dce101230022d9e1442e0cd049
:1023d000452e11d0432e16d0412e1bd1baf1640fd9
:1023e00000f01d8201230022cae1baf1640f00f05f
:1023f000078201230022c3e1baf1640f00f00582d5
:1024000001230022bce1baf1640f00f00382012332
:102410000022b5e1502e04d103910123029304223e
:10242000aee101230022abe1442e0ad0452e0fd0ad
:10243000432e14d0412e19d0502e1ed0012300223d
:102440009ee1baf1640f00f0ef810123002297e1d1
:10245000baf1640f00f0ed810123002290e1baf19e
:10246000640f00f0eb810123002289e1baf1640fcf
:1024700000f0e9810123002282e13a2900f0e8819d
:102480003d2900f0ec810123002279e1442e0cd09b
:10249000452e11d0432e16d0412e1bd1baf1640f18
:1024a00000f0f181012300226ae1baf1640f00f02b
:1024b000db810123002263e1baf1640f00f0d981ce
:1024c000012300225ce1baf1640f00f0d7810123ff
:1024d000002255e1502e04d10691012307930622d4
:1024e0004ee1012300224be1442e0cd0452e11d0a9
:1024f000432e16d0412e1bd1baf1640f00f0d781c4
:10250000012300223ce1baf1640f00f0c1810123f4
:10251000002235e1baf1640f00f0bf8101230022ef
:102520002ee1baf1640f00f0bd810123002227e102
:10253000502e04d1089101230993072220e10123a1
:1025400000221de1582f0220402c0220882f02205b
:10255000602d0220602f0220ec2a0220552f02203d
:10256000c02d0220902f02207f2f0220802d0220dc
:10257000e02d0220542f0220722f0220712f022002
:10258000442e0cd0452e11d0432e16d0412e1bd1f7
:10259000baf1640f00f09f8101230022f0e0baf14c
:1025a000640f00f0898101230022e9e0baf1640f91
:1025b00000f0878101230022e2e0baf1640f00f00d
:1025c000858101230022dbe0502e04d10a910123f2
:1025d0000b930822d4e001230022d1e0442e0cd03a
:1025e000412e32d0452e5cd0432e79d1baf1640f02
:1025f00000f0768101230022c2e0baf1640f02d01c
:1026000001230022bce04b2902d001230022b7e0c5
:10261000049b202b0cd00a9a0699049806f01afb0a
:1026200014900123179313931e2212920022a7e005
:10263000069b303bdbb203eb83030a9a303a02eb92
:10264000430303f0ff031493ebe7baf1640f02d0e6
:102650000123002294e04b2902d0012300228fe0c5
:10266000069b2e2b05d0089b2e2b11d00123002278
:1026700086e0049b303bdbb203eb8303089a303add
:1026800002eb430303f0ff03159301231693ede7d9
:102690000a9a0699049806f0ddfa1590012316931c
:1026a000e4e7baf1640f02d00123002268e0442974
:1026b00002d00123002263e00a9a0899069806f0e6
:1026c000c9fa1890039b502b14bf002301231a93bf
:1026d00001231b93199313931e22129200224fe0a1
:1026e000502e06d10f91012310930d930c930022cd
:1026f00046e00123002243e0baf1640f02d0012337
:1027000000223de0462902d00123002238e0049b4c
:10271000202b12d0039b202b20d00e9b03f0df0335
:1027200043f040030e930023119301231f931e9344
:102730001d931e221c92002222e0069b303bdbb23e
:1027400003eb83030a9a303a02eb430303f0ff03df
:1027500011930e9b03f09f030e93e6e70a9a0699e6
:10276000049806f077fa11900e9b03f09f030e93e6
:10277000dbe701274ff000080097c3463b463a4687
:10278000ac4200f0b28014f8011b2429f1d0012ad8
:102790003ff4d9ad022a3ff4efad032a3ff416ae61
:1027a000042a3ff441ae052a3ff470ae062a3ff4f6
:1027b0009bae072a3ff4e4ae082a3ff40faf092a84
:1027c000ded1432e98d001230022d9e70e464ff0e8
:1027d00001094b460222d3e78a46012301930322d3
:1027e000cee78a46012301930322c9e78a460123e3
:1027f00001930322c4e78a46012301930322bfe722
:102800000391012302930422bae703910123029367
:102810000422b5e70391012302930422b0e7039158
:10282000012302930422abe70491012305930522bf
:10283000a6e70491012305930522a1e70491012352
:10284000059305229ce7049101230593052297e750
:10285000049101230d930c930593002290e70491ba
:102860000123059305228be7069101230793062296
:1028700086e7069101230793062281e7069101234b
:10288000079306227ce7069101230793062277e748
:10289000089101230993072272e708910123099304
:1028a00007226de7089101230993072268e7089141
:1028b00001230993072263e70a9101230b9308225e
:1028c0005ee70a9101230b93082259e70a9101233d
:1028d0000b93082254e70a9101230b9308224fe738
:1028e0000f910123109309224ae70bb1394b1a705b
:1028f000009b13b1384b83f800b017b1374b83f806
:102900000080b9f1000f01d0354b1e70019b13b14f
:10291000334b83f801a0029b002b3ad1059b002b7f
:102920003bd10d9b002b3cd1079b002b3dd1099b3c
:10293000002b3ed10b9b002b3fd1139b002b40d192
:10294000179b002b41d1169b13b1264b159a5a6148
:10295000199b13b1244b189a5a611b9b13b1234b3b
:102960001a9a1a70109b13b11d4b0f9ada711d9ba6
:1029700013b11f4b1c9a1a601e9b13b11d4b0e9a6c
:102980001a701f9b002b3ff486ac1b4b119a5a61a7
:1029900081e4134b039a9a70c0e7114b049ada70e2
:1029a000bfe7164b0c9a1a70bee70d4b069a1a71c8
:1029b000bde70b4b089a5a71bce7094b0a9a9a710a
:1029c000bbe70f4b129a1a60bae70e4b149a5a6182
:1029d000b9e700bf542f0220722f0220712f02206e
:1029e000ec2a0220802d0220c02d02207f2f022001
:1029f000882f0220602f0220602d0220552f0220f8
:082a0000902f0220e02d0220be
:020000040000fa
:102a08002de9f04f2ded0a8b9bb0012006f0a5f9ba
:102a180020b91bb0bdec0a8bbde8f08f012006f091
:102a280021fa002006f026f882460028f1d000247a
:102a38004ff000084ff000099fed9f8b9feda09b82
:102a48009feda1cb9feda2bb9feda3abbde150795c
:102a5800ff2868d006f080f853ec182b03f06cfec2
:102a6800804689469e4b187906f076f842464b46d2
:102a780002f0ecfa53ec192b03f05efe804689460f
:102a880005f0a4ff974b5860974b01229a72974b19
:102a98001e221a80964b9e4240f0db81dff840826e
:102aa80098f8020006f058f853ec182b03f044fe8f
:102ab80006460f4698f8010006f04ef832463b46a7
:102ac80002f0c4fa53ec192b03f036fe05f07eff32
:102ad800884b586098f8040006f03ef853ec182b21
:102ae80003f02afe06460f4698f8030006f034f86d
:102af80032463b4602f0aafa53ec1c2b03f01cfeac
:102b08008046894605f062ff7b4b5860b42831d96e
:102b18007a4b01221a70c0f5b470774b5860784b25
:102b28001e221a6095e16f4b00225a60b2e7754b7e
:102b38009e42afd16a4eb07806f00ef853ec182bcf
:102b480003f0fafd42464b4602f080fa8046894679
:102b5800707806f001f842464b4602f077fa53ecdb
:102b68001b2b03f0e9fd8046894605f02fff664bd5
:102b780058606ee1614b00221a70d0e7584b1b7801
:102b8800032b0fd0042b13d0022b40f065815f4b31
:102b98001988022005f0f6fe5d4b1988052005f01e
:102ba800f1fe59e15b4b1988082005f0ebfe53e173
:102bb800594b1b78c3f58073584aa2f8483050e146
:102bc800474b1b78ca2b22d0554b1b78962b4ad0e3
:102bd800542b40f05381bbf1ef0f45d0404bd978cf
:102be800504a11701978504a117099794f4a1170ea
:102bf80059794f4a117019794e4a1170d9793a4a60
:102c0800537c23f0700343ea41135374d8e0344be8
:102c18005b78ca2bd8d1324b9b78c12b07d0c22bfb
:102c28000ad0cd2bd0d1444b04221a70cce705f042
:102c3800a3fb05f0e3fa14e105f044fd05f0defa24
:102c48000fe105f021fd11e1992bbfd13a4b01228b
:102c58001a70334b1b78802b40f09e812f4bda8ff4
:102c6800364b1a70ace0fee71d4b1b78012b6dd07c
:102c7800022bb3d11a4b5b78aa2bafd1184bdb7858
:102c8800012b00f02e815ab2002a00f01b81022b82
:102c980000f03c812a4b02221a70bb225a70104a5b
:102ca80091789970d278da70264b274a1a6004f026
:102cb80001ff70e0aff300800000000000e06f400b
:102cc8006c216d8896e1c83f427bf5f1d077773f5c
:102cd800f865bbdee577773f0f0bb5a6796740400f
:102ce80034f50020802d02203c4f0120862f022041
:102cf80002fd0100e02d0220c02d02207f2f0220be
:102d0800902f022012f10100542e0220f42b0220f1
:102d1800b42e0220bc2e0220952f022038f4002069
:102d2800462f0220692f0220612f0220702f0220d7
:102d38006f2f02206e2f0220532f0220572f0220c0
:102d480030d60020c82e0220f054ef007f4b5b786d
:102d5800aa2b7ff443af7e4b00221a715a719a71e5
:102d6800da717a4bda78012a00f0948053b2002b9a
:102d780000f08980022a00f09780754b01211970b4
:102d8800bb215970714989789970da70714b724a10
:102d98001a6004f08ffe714b1b78562b40f0d180df
:102da8006f4b1879694b59781a7802eb01226d49f3
:102db80041f8202099786c4a1170da786b4b1a70b8
:102dc8000134e3b29a457ff624ae002006900790be
:102dd8000890099006aa012104f012fd0028efd0fe
:102de8005a4a08ab03cb10605160069bc3f3112607
:102df8005f4b1e605f4b1e709df81850574b1d703f
:102e08009df81ab05c4b9e423ff421ae5b4b9e424c
:102e18007ff48dae4d4b1979da7802eb01219a785f
:102e280002eb0122587800eb022005f095fe53ece6
:102e38001a2b03f081fc8046894605f0c7fd504bec
:102e48005860504a137823f0200313704e4b1e220b
:102e58001a60912d3ff492ae404b1b78902b3ff4b3
:102e6800afae3e4b1b78932b3ff4ebae3b4b1b783e
:102e7800972b7ff4e9ae454b01221a70374b1b782c
:102e8800562b8dd0e7e6314b9b783549c95c304be2
:102e9800197172e72d4b99783d4b33f811302c4955
:102ea8000b711b0a4b7168e7284b9978394b53f81b
:102eb800213027490b71180a4871180c88711b0eac
:102ec800cb715ae7214d2979a87805f0c3fd204b2d
:102ed800aa7823498a5c1a7100225a719a71da71a8
:102ee800d8e61a4d6b79297901eb032189b2a878c4
:102ef80005f048fdaa78264b33f81220144b1a71b6
:102f0800120a5a7100229a71da71c3e60f4dea79f2
:102f1800ab7903eb02226b7903eb0223297901ebee
:102f28000321a87805f040fdaa781a4b53f82230ff
:102f3800074a1371190a5171190c91711b0ed3713b
:102f4800a8e6542b3ff44aae85e600bf34f50020ce
:102f580030d60020c82e0220f054ef00462f022061
:102f68003c4f0120542e0220972e02209e2e022034
:102f7800d82e0220472f022002f801000bf501008d
:102f8800602d0220602f0220882f0220782f022037
:102f980038f40020583d002003f17f02d2b2022a03
:102fa8003ff60eaf564a1278d22a3ff409af03f023
:102fb8000f05013dedb2534b1d70534b534e327804
:102fc80003f8152003eb4503514ad28f5a70f37862
:102fd800b07800eb03204f4b186005f0bdfd0246aa
:102fe8000b46717811f0010f05d0009203f10043f0
:102ff8000193dde90023484e6f00791906ebc10102
:103008004348b0f8620091ed001b43ec102b05f02b
:103018008ff93d4406ebc50686ed000b3b4d6b79f9
:10302800287900eb03203b4b186005f095fd02461c
:103038000b46697811f0020f05d0029203f10043a4
:103048000393dde902232f490f78334d7e00f119f0
:1030580005ebc1012e48b0f8620091ed021b43ec6c
:10306800102b05f065f93e4405ebc60585ed020b0e
:10307800264deb79a87900eb0320264b186005f064
:103088006bfd804689466b7813f0040f05d00490d9
:1030980001f100430593dde904891a4f97f800b060
:1030a8001d4d4fea4b0606eb0b0305ebc303184a0d
:1030b800b2f8620093ed041b49ec108b05f038f967
:1030c8005e4405ebc60585ed040b3b78012b10d05b
:1030d8005ab242b1022b7ff473ae104a137823f030
:1030e800040313706ce60d4a137823f00103137080
:1030f80066e60a4a137823f00203137060e600bffd
:10310800472f0220622f0220982e022034f500203b
:1031180038f40020e82e0220f82b02204f2f02203e
:020000040000fa
:103128002de9f843132800f22783dfe810f0140094
:1031380069008d00b100d500f9001d01410165014c
:103148008901bd01e101050229024d0271029502c2
:10315800b902dd020103ce4b186805f0fdfc0446f8
:103168000d46cc4eb08805f0f7fc02460b462046cb
:10317800294605f083fe04460d46c74b186805f03e
:10318800ebfc80468946308a05f0e6fc02460b4691
:103198004046494605f072fe06460f4600220023c7
:1031a8002046294605f0c2fa002840f0ea82224665
:1031b8002b463046394602f077f941ec100b02f005
:1031c80077fd51ec100bb0a3d3e9002303f0b4fa58
:1031d80004460d460022b14b01f038ff05f0f6fb1e
:1031e800af4b1870ab4bb3f8480005f001fc224612
:1031f8002b4601f02bff05f0e9fbc0b2bde8f883d0
:10320800a34b186805f0a8fc04460d46a14eb088eb
:1032180005f0a2fc02460b462046294605f02efe84
:1032280004460d46308a05f097fc06460f469a4b31
:10323800186805f091fc02460b463046394605f001
:103248001dfe06460f46a9e7914b186805f084fc59
:1032580004460d468f4eb08805f07efc02460b46ac
:103268002046294605f00afe04460d468d4b18688f
:1032780005f072fc80468946708905f06dfc0246af
:103288000b464046494605f0f9fd06460f4685e7d8
:103298007f4b186805f060fc04460d467d4eb088eb
:1032a80005f05afc02460b462046294605f0e6fd85
:1032b80004460d46708905f04ffc06460f46794bcb
:1032c800186805f049fc02460b463046394605f0b9
:1032d800d5fd06460f4661e76e4e308a05f03cfc88
:1032e80004460d466c4b186805f036fc02460b4642
:1032f8002046294605f0c2fd04460d46694b18686c
:1033080005f02afc80468946708905f025fc0246ae
:103318000b464046494605f0b1fd06460f463de7d7
:103328005c4e308a05f018fc04460d465a4b186866
:1033380005f012fc02460b462046294605f09efd84
:1033480004460d46708905f007fc06460f46554ba6
:10335800186805f001fc02460b463046394605f070
:103368008dfd06460f4619e74a4e308a05f0f4fbf4
:1033780004460d46484b186805f0eefb02460b461e
:103388002046294605f07afd04460d46404b18684c
:1033980005f0e2fb80468946b08805f0ddfb024671
:1033a8000b464046494605f069fd06460f46f5e6d8
:1033b800384e308a05f0d0fb04460d46364b186867
:1033c80005f0cafb02460b462046294605f056fd85
:1033d80004460d46b08805f0bffb06460f462c4b49
:1033e800186805f0b9fb02460b463046394605f029
:1033f80045fd06460f46d1e6274b186805f0acfb9d
:1034080004460d46234e308a05f0a6fb02460b46bd
:103418002046294605f032fd04460d46214b186822
:1034280005f09afb80468946708905f095fb0246af
:103438000b464046494605f021fd06460f46ade6d7
:10344800154b186805f088fb04460d46114e308a66
:1034580005f082fb02460b462046294605f00efd84
:1034680004460d46708905f077fb06460f460d4b5e
:10347800186805f071fb02460b463046394605f0e0
:10348800fdfc06460f4689e612143fc6dca54c40f3
:10349800f42b022038f40020bc2e022000006040eb
:1034a800952f0220b42e0220b74b186805f054fb64
:1034b80004460d46b54e308a05f04efb02460b46d3
:1034c8002046294605f0dafc04460d46b04b18683c
:1034d80005f042fb80468946b08805f03dfb024670
:1034e8000b464046494605f0c9fc06460f4655e6d8
:1034f800a54b186805f030fb04460d46a34e308aec
:1035080005f02afb02460b462046294605f0b6fc84
:1035180004460d46b08805f01ffb06460f469c4b37
:10352800186805f019fb02460b463046394605f087
:10353800a5fc06460f4631e6964b186805f00cfbcd
:1035480004460d46914e708905f006fb02460b466f
:103558002046294605f092fc04460d468a4b186819
:1035680005f0fafa80468946308a05f0f5fa0246ef
:103578000b464046494605f081fc06460f460de6d7
:10358800844b186805f0e8fa04460d467f4e7089aa
:1035980005f0e2fa02460b462046294605f06efc85
:1035a80004460d46308a05f0d7fa06460f46764b94
:1035b800186805f0d1fa02460b463046394605f040
:1035c8005dfc06460f46e9e5724b186805f0c4fa3b
:1035d80004460d466d4e708905f0befa02460b464c
:1035e8002046294605f04afc04460d46684b1868f3
:1035f80005f0b2fa80468946b08805f0adfa024671
:103608000b464046494605f039fc06460f46c5e5d7
:10361800604b186805f0a0fa04460d465b4e7089a9
:1036280005f09afa02460b462046294605f026fc84
:1036380004460d46b08805f08ffa06460f46544bef
:10364800186805f089fa02460b463046394605f0f7
:1036580015fc06460f46a1e54c4e708905f07cfa2c
:1036680004460d464b4b186805f076fa02460b46a1
:103678002046294605f002fc04460d46424b1868d0
:1036880005f06afa80468946308a05f065fa0246ee
:103698000b464046494605f0f1fb06460f467de5d8
:1036a8003a4e708905f058fa04460d46394b1868a9
:1036b80005f052fa02460b462046294605f0defb85
:1036c80004460d46308a05f047fa06460f462e4b4b
:1036d800186805f041fa02460b463046394605f0af
:1036e800cdfb06460f4659e5284e708905f034fa99
:1036f80004460d46274b186805f02efa02460b467d
:103708002046294605f0bafb04460d46204b1868aa
:1037180005f022fa80468946b08805f01dfa02466f
:103728000b464046494605f0a9fb06460f4635e5d7
:10373800164e708905f010fa04460d46154b1868a8
:1037480005f00afa02460b462046294605f096fb84
:1037580004460d46b08805f0fff906460f460c4ba7
:10376800186805f0f9f902460b463046394605f067
:1037780085fb06460f4611e50026002734463d46e0
:103788000ce5002000211ee5bc2e022038f40020a4
:08379800f42b0220b42e0220e4
:020000040000fa
:1037a000002e02205400000000000000722c0220b5
:1037b0000200000000000000742e02200c00000037
:1037c00000000000a32b0220010000000000000008
:1037d000342d02202c00000000000000742c022078
:1037e0009000000000000000962e02200100000062
:1037f00000000000f42b0220040000000000000084
:10380000b02e02201400000000000000972e0220bd
:1038100001000000000000009e2e022002000000b7
:1038200000000000a62e02200200000000000000a0
:10383000ae2e02200100000000000000c42e022075
:103840000400000000000000af2e02200100000074
:1038500000000000e9240220030000000000000036
:10386000412f02200200000000000000ec24022092
:103870000004000000000000432f022003000000ad
:10388000000000008a2e022002000000000000005c
:10389000c82e02200400000000000000462f022075
:1038a0000200000000000000542e02201000000062
:1038b00000000000602d0220200000000000000039
:1038c000482f02200100000000000000492f0220c4
:1038d0000200000000000000802d022020000000f7
:1038e00000000000642e0220100000000000000014
:1038f0004b2f022002000000000000004d2f02208c
:103900000200000000000000cc2e02200800000091
:10391000000000004f2f0220010000000000000006
:10392000502f02200200000000000000502b022057
:103930005300000000000000522f02200100000090
:1039400000000000d42e022004000000000000004f
:10395000532f02200100000000000000d82e02209a
:103960000400000000000000542f022001000000ad
:1039700000000000552f022002000000000000009f
:10398000f82b02204800000000000000982e0220c2
:103990000600000000000000042d0220300000009e
:1039a00000000000572f022001000000000000006e
:1039b000ec2a02206400000000000000582f0220c2
:1039c0000200000000000000402c02203200000035
:1039d00000000000a02e02200600000000000000f1
:1039e0005a2f022002000000000000005c2f02207d
:1039f0000100000000000000a02d022020000000b7
:103a0000000000005d2f0220010000000000000007
:103a10005e2f022001000000000000005f2f022046
:103a20000100000000000000dc2e02200800000061
:103a300000000000602f02200100000000000000d4
:103a4000c02d02202000000000000000e02d022018
:103a50002000000000000000612f02200100000093
:103a600000000000622f02200100000000000000a2
:103a7000632f02200300000000000000e42e02205b
:103a80000400000000000000e82e022004000000f6
:103a900000000000662f022001000000000000006e
:103aa000ec2e02200400000000000000672f02201e
:103ab0000100000000000000f02e02200c000000b9
:103ac00000000000682f022001000000000000003c
:103ad000fc2e02200400000000000000002f022045
:103ae0000400000000000000692f02200100000017
:103af000000000006a2f022001000000000000000a
:103b0000042f022004000000000000006b2f0220a0
:103b10000100000000000000082f02200400000047
:103b2000000000000c2f0220040000000000000034
:103b30006c2f022001000000000000006d2f022009
:103b400002000000000000006f2f022001000000b2
:103b500000000000702f02200100000000000000a3
:103b6000712f02200300000000000000742f0220cb
:103b70000300000000000000772f02200100000079
:103b800000000000802e02200a000000000000005b
:103b9000402f022001000000000000008c2e0220b7
:103ba0000a00000000000000782f02200100000041
:103bb00000000000102f022008000000000000009c
:103bc000792f02200100000000000000182f0220c1
:103bd00004000000000000007a2f02200100000015
:103be000000000007b2f0220010000000000000008
:103bf0001c2f022004000000000000007c2f022087
:103c000001000000000000007d2f022002000000e3
:103c100000000000202f022004000000000000002f
:103c20007f2f02200100000000000000242f02204e
:103c30000400000000000000802f022001000000ae
:103c400000000000852f022001000000010000009c
:103c500001000000882f0220040000000100000085
:103c60001e000000942f022001000000010000004f
:103c700005000000862f0220020000000100000065
:103c80001e0000008c2f0220040000000100000034
:103c9000a08c0000952f0220010000000100000010
:103ca00080000000902f02200400000001000000ae
:103cb0001e00000010000020a0e501000000000030
:103cc000962f02200100000001000000010000000a
:103cd000b0e501202c1f000000000000812f022011
:103ce0000200000000000000282f02200400000055
:103cf00000000000dc0402200d2000000000000095
:103d00002c2f02200400000000000000ec280220fc
:103d10000002000000000000832f022001000000cc
:103d200000000000302f022008000000000000000a
:103d3000842f02200100000000000000a82e0220b5
:103d40000600000000000000382f022004000000e0
:103d500000000000a42b0220500000000000000022
:103d60003c2f0220040000000000000000000000c2
:103d7000000000006666666666666666666666667b
:020000040000fa
:103d800000b583b000238df80730a04b18781428b5
:103d900000f20082dfe810f0150020003a00530026
:103da0006c0085009e00b900d300ed0007012101e1
:103db0005c0177019101ab01c501df01fe01fe014c
:103dc000f9010023924a1370924a13608f4b01222b
:103dd0001a7003b05df804fb8d4b01221a7004f0d9
:103de00039fd03f0a1fe08b90020f2e78a498b4ba8
:103df000186804f007f98a4b18700028e9d0834b43
:103e000002221a700020834b1860e2e704f022fdc2
:103e100003f08afe08b90020dbe7804b186881496f
:103e200000f5f05004f0eef87d4b18700028d0d06b
:103e3000764b03221a700020764b1860c9e704f015
:103e400009fd03f071fe08b90020c2e7734b186842
:103e5000754900f5705004f0d5f8714b18700028c2
:103e6000b7d06a4b04221a7000206a4b1860b0e782
:103e700004f0f0fc03f058fe08b90020a9e7674bf6
:103e800018686a4900f5b44004f0bcf8644b187037
:103e900000289ed05d4b05221a7000205d4b1860f3
:103ea00097e704f085f98df8070004f0d3fc03f0e0
:103eb0003bfe08b900208ce701220df107015c4ba5
:103ec000186804f0c7f9514b06221a700020514bb4
:103ed00018607ee74e4b01221a7004f0bbfc03f021
:103ee00023fe08b9002074e75249534b186804f0c8
:103ef00089f84b4b187000283ff46baf434b0722f7
:103f00001a700020434b186063e704f0a3fc03f031
:103f10000bfe08b900205ce7474b1868474900f5dd
:103f2000f05004f06ff83e4b187000283ff451af8a
:103f3000364b08221a700020364b186049e704f00f
:103f400089fc03f0f1fd08b9002042e73a4b1868fc
:103f50003b4900f5705004f055f8314b18700028bb
:103f60003ff437af294b09221a700020294b186003
:103f70002fe704f06ffc03f0d7fd08b9002028e715
:103f80002d4b18682f4900f5b44004f03bf8244b42
:103f9000187000283ff41daf1c4b0a221a70002035
:103fa0001c4b186015e704f055fc03f0bdfd08b983
:103fb00000200ee7204b1868234900f5f04004f07c
:103fc00021f8174b187000283ff403af0f4b0b225a
:103fd0001a7000200f4b1860fbe603f009fe8df805
:103fe000070004f037fc03f09ffd08b90020f0e65d
:103ff00001220df10701154b186804f02bf9034b52
:104000000c221a700020034b1860e2e6762f022083
:10401000802f0220d42e022038d60020042f022028
:104020004a2f02203c310120608b01203cf500200a
:10403000082f0220685b0020f42e0220581f002069
:10404000604f01206879002030b80020f82e02204f
:10405000514b01221a7004f0fdfb03f065fd08b915
:104060000020b6e64d494e4b186803f0cbff4d4b90
:10407000187000283ff4adae4b4b0d221a70002093
:104080004a4b1860a5e604f0e5fb03f04dfd08b9c6
:1040900000209ee6424b1868454900f5f05003f0b9
:1040a000b1ff404b187000283ff493ae3e4b0e22f8
:1040b0001a7000203d4b18608be604f0cbfb03f038
:1040c00033fd08b9002084e6354b1868394900f5fe
:1040d000705003f097ff334b187000283ff479ae0f
:1040e000314b0f221a700020304b186071e604f03b
:1040f000b1fb03f019fd08b900206ae6284b1868e7
:104100002d4900f5b44003f07dff264b18700028c0
:104110003ff45fae244b10221a700020234b18602e
:1041200057e604f097fb03f0fffc08b9002050e6c7
:104130001b4b1868214900f5f04003f063ff194b51
:10414000187000283ff445ae174b11221a7000205a
:10415000164b18603de603f07dfd8df8070004f076
:1041600079fb03f0e1fc08b9002032e601220df1f1
:104170000701134b186804f06df80b4b14221a70ea
:104180000a4b00221a60012023e6034b00221a701a
:1041900001201ee600201ce6802f022060a90120dd
:1041a000ec2e02204a2f0220762f0220d42e02204d
:1041b00060c70120606d01203c130120683d002094
:0441c000f02e0220bb
:020000040000fa
:1041c4002de98848b84b88221a70002004f040fa80
:1041d40004f0f8f8b54c4ff48053a3610823a361ad
:1041e4000021b34804f02afe0021b24804f014fe72
:1041f4000021b14804f01cfeb04802f0dfffb048d3
:1042040002f03eff0021af4804f0f4fd4ff00066d9
:10421400a6614ff40065c4f898504ff48063a3601e
:1042240004f00afc4ff40003c4f898304ff08043c4
:10423400c4f898304ff48003c4f898304ff48013d6
:10424400a36104f0c9fc1d2004f030fd01279e4b3e
:104254001f7004f0a9fc04f08ffc6661c4f894504c
:104264004ff40053a3612023c4f898304ff4004363
:10427400c4f884304ff40013a3611023c4f89830b9
:104284000a21924804f086f90a21914804f042f97f
:104294003946904804f05ef9a661c4f898508e4ef1
:1042a400dff88482dff884924c461be07f4b4ff0aa
:1042b40000629a614ff40062c3f8982004f0f2faa5
:1042c40004f004fb04f0a0fc04f0aafc04f000fcdd
:1042d40004f0f0fb814b01221a7000f097fd04f00a
:1042e400abfc00bf04f0b6fd20b17c4b1b78002b67
:1042f400f3d1dbe73378002bf4d0002333701d2097
:1043040004f0d4fcfef77efb98f800301bb1013baf
:1043140088f80030e6e702f0a3fb04f051fc00bf8c
:1043240004f020fb0028fbd06d4b5878fef7fafe12
:104334006c4d0122296804f087fdc0b228606a4be5
:104344001b78002b3ed100f061fd00f0a1ff00f0ce
:1043540023f9664b1b68002b39d0013b634a136079
:10436400634b1b7813b1013b614a1370614b1b68ab
:1043740013b1013b5f4a13605f4b1b6813b1013bf0
:104384005d4a13605d4b1b78002b44d102f00efd97
:104394000a2388f8003004f04ffc594b1b7803f0d3
:1043a400a003a02b00f0c480404b40229a6120223d
:1043b4009a6110229a61524a1378434909780b444e
:1043c40013708fe7fdf75aff02f020fcbbe7474b61
:1043d40048f6a0421a604b4a5368013353604a4a74
:1043e400137801331370494b1b7813f0400f02d13b
:1043f40013f0800f03d0434a136801331360444b16
:1044040002221a70434b00221a70434b06221a7080
:1044140003f0f6fea4e704f06dfa00203f4b1860a9
:104424003f4f4ff02c0a9b462ae000233b700125a6
:1044340005e03b780133dbb23b70172b0ad889f8cf
:1044440000a02946204603f051fd0028f1d104f0d4
:10445400f3fbf6e74ff02c0389f8003001e004f099
:10446400ebfb0121204603f041fd0028f7d004f0c6
:1044740041fadbf800000130cbf800009f280fd888
:10448400284b186002f0baff3a2389f80030012162
:10449400204603f02bfd0028c7d104f0cdfbf6e73e
:1044a400164b00221a7071e7792f02200080004118
:1044b4004d7a0000dd79000011840000101e0020f8
:1044c40060e50120c58c0000852f02208c2e02207f
:1044d400802e0220402f0220662f02209f2e0220d1
:1044e4003c4f0120642e02207b2f02208c2f0220bf
:1044f4006d2f0220002f0220182f0220782f022077
:104504006a2f0220583d00205a2f02204d2f0220ee
:10451400532f0220762f0220482f02201c2f022026
:104524007e2f0220e82e02207c2f02207d2f0220e5
:10453400144b1b7893b9144b1b78ebb9134b1b78b2
:10454400134a12781a4314d0124a10215161002bd5
:104554003ff431af0f4b40225a612ce704f062f96b
:104564000a4b1b78002b3ff426af0a4b10225a61ea
:1045740021e704f057f91ee7064b10225a61202266
:104584005a6118e7ea240220492f0220eb24022072
:08459400592f022000800041b4
:020000040000fa
:10459c00f8b5a04b1b7cdb089f4a137003f0030398
:1045ac009e4a13709e4b1b78072b16d8dfe813f02e
:1045bc000800610081008900a800ce00f7002001ee
:1045cc0004f01efb954b1b78012b20d05ab22ab15c
:1045dc00022b35d0934b00221a70f8bd924b4ff43e
:1045ec0000721a60914b4ff4b5321a60904b4ff435
:1045fc004b321a608f4b4ff4f6721a608e4b40f2ae
:10460c00ef121a608d4b4ff4f9721a60e2e7864b89
:10461c004ff4f4421a60854b4ff400321a60844b0d
:10462c0002f5e1321a60834b40f2ed121a60824bb4
:10463c004ff4f8721a60814b40f2f3121a60c9e71a
:10464c00794b4ff472421a60784b02f5d2321a60f1
:10465c00774b4ff48b221a60764b4ff4f7721a603b
:10466c00754b40f2f1121a60744b4ff4fa721a60e7
:10467c00b0e700f00df901280dd002280fd0032867
:10468c00abd1674b07221a706d4b40221a706d4be1
:10469c0004221a70a1e7624b07221a709de7604b47
:1046ac0007221a70664b10221a70664b04221a707d
:1046bc0093e7fff75ffb01288fd1594b07221a7044
:1046cc008be7614800f5f05200f5fa50002102e04a
:1046dc000232904207d0a2f5f053198003f5a07373
:1046ec009342fad1f4e7594b18221a70584ba02276
:1046fc001a604b4b02221a704a4b00221a706ce75c
:10470c005449554d554c504801f5a076002205e012
:10471c0002310235023402308e420ad00023ca52d2
:10472c00ea52e252c25203f5a073b3f5f05ff6d130
:10473c00eee7464b18221a70454ba0221a60384bf4
:10474c0005221a70374b00221a7046e74449454e31
:10475c00454d464c464801f5a077002206e0023153
:10476c000236023502340230b9420bd00023ca5251
:10477c00f252ea52e252c25203f5a073b3f5f05f63
:10478c00f5d1ece7314b18221a70314ba0221a608c
:10479c00234b06221a70234b00221a701de7354951
:1047ac00354e364d364c374801f5a077002206e0e1
:1047bc0002310236023502340230b9420bd00023ea
:1047cc00ca52f252ea52e252c25203f5a073b3f546
:1047dc00f05ff5d1ece71d4b18221a701c4ba02290
:1047ec001a600f4b02221a700e4b00221a70f4e65c
:1047fc00254b01221a70254b4ff000625a614ff481
:10480c000062c3f894204ff480525a6104f0ecf922
:10481c00e3e600bf3c4f0120622f0220742f0220e0
:10482c00532f0220762f0220042f0220ec2e022080
:10483c00f42e0220082f0220f02e0220f82e022047
:10484c00492f0220852f02203cf500207e2f0220cc
:10485c001c2f022038d600203c310120608b012017
:10486c0060a9012060c70120606d01203c1301206c
:10487c00683d0020685b0020581f0020604f01201d
:10488c006879002030b800207b2f02200080004186
:020000040000fa
:10489c0010b5a04b1c78142c00f23a81dfe814f010
:1048ac00150021002e003c004a0070007c0089009d
:1048bc009700a500b300d200de00eb00f900070161
:1048cc00150138013801380134014ff4f052924986
:1048dc00924b186803f008f88e4b01221a70204690
:1048ec0010bd8e4b18684ff4f0528d49104402f0f5
:1048fc00fbff884b02221a700024f0e7874b1868e4
:10490c004ff4f052874900f5705002f0edff814be7
:10491c0003221a700024e2e7804b18684ff4f0521f
:10492c00814900f5b44002f0dfff7a4b04221a7083
:10493c000024d4e703f036fca0b97c4c01222146bc
:10494c007b4b186802f096ff03f02cfc794b187027
:10495c0003f028fc2378834207d16e4b05221a7092
:10496c000024bce704f064f9e7e7734b20221a70cb
:10497c00724b04221a70674b14221a700224aee791
:10498c004ff4f0526e496f4b186802f0adff614b5b
:10499c0006221a700024a2e76a4b18684ff4f052f2
:1049ac006949104402f0a0ff5a4b07221a700024e8
:1049bc0095e7644b18684ff4f052644900f5705059
:1049cc0002f092ff534b08221a70002487e75d4bcc
:1049dc0018684ff4f0525e4900f5b44002f084ffc1
:1049ec004c4b09221a70002479e7564b18684ff487
:1049fc00f052584900f5f04002f076ff454b0a2280
:104a0c001a7000246be703f0edf880b9524c0122c8
:104a1c002146524b186802f02dff03f0e3f823787f
:104a2c00834207d13b4b0b221a70002457e704f04a
:104a3c00fff8ebe7404b20221a70364b14221a7009
:104a4c0003244ce74ff4f0524549464b186802f0ea
:104a5c004bff304b0c221a70002440e7414b186876
:104a6c004ff4f0524049104402f03eff294b0d2206
:104a7c001a70002433e73b4b18684ff4f0523b4953
:104a8c0000f5705002f030ff224b0e221a700024f9
:104a9c0025e7344b18684ff4f052354900f5b44013
:104aac0002f022ff1b4b0f221a70002417e72d4b2c
:104abc0018684ff4f0522f4900f5f04002f014ff43
:104acc00144b10221a70002409e703f0bdf898b9b2
:104adc00294c01222146294b186802f0cbfe03f029
:104aec00b3f8237883420ad0134b20221a70094b57
:104afc0014221a700324f2e604f09af8e8e7054b46
:104b0c0014221a700124eae600241d4b1c70e6e600
:104b1c000024e4e6752f022038d60020042f022052
:104b2c003c310120608b01203cf500206b2f0220d2
:104b3c00082f02207a2f0220492f0220852f0220d5
:104b4c00685b0020f42e0220581f0020604f0120cb
:104b5c006879002030b80020682f0220f82e02203f
:104b6c0060a90120ec2e022060c70120606d01209d
:104b7c003c130120683d0020672f0220f02e0220fc
:044b8c00802f022054
:020000040000fa
:104b90002de9f0479b4b1b78013bdbb2532b06d929
:104ba000994b00221a605a6043f239029a60954b81
:104bb00054221a7000225a709a70da701a71052104
:104bc00059719a71da711a725a7201209872da72f6
:104bd0001a73072058739973da7367241c74372487
:104be0005c749a74da741a755a759a75da7519764e
:104bf00059769976d97618777820587703259d7756
:104c00001424dc77814b1a805a8045f2ea009880a0
:104c1000da801a8145f2730058819a81da8145f26f
:104c2000e23018825a829982da821a835c830a26d9
:104c30009e830220d8834ff434771f8440f2532799
:104c40005f849c84da841a855a859a85da851a8667
:104c50005a864ff4c8779f864ff4af77df861a875e
:104c600059879a876427df87a3f840204ff0b40c58
:104c7000a3f842c0a3f84420a3f846204ff07b0cd1
:104c8000a3f848c0a3f84a50a3f84c20a3f84e70ec
:104c900040f2a155a3f8505040f23635a3f85250d7
:104ca0008b25a3f854504925a3f856504ff4967e0f
:104cb000a3f858e04b25a3f85a504ff4fa65a3f82f
:104cc0005c504ff0110ca3f85ec0a3f86020a3f86d
:104cd00062004ff01e0ca3f864c04ff0500ca3f814
:104ce00066c0a3f86800a3f86a104ff4617ca3f8cb
:104cf0006cc04ff47a7ca3f86ec040f2ff4aa3f870
:104d000070a0a3f87220a3f87420a3f876c04ff027
:104d10005c09a3f87890a3f87a2041f29418a3f8dc
:104d20007c80a3f87e20a3f88020a3f88220a3f83b
:104d30008420a3f88620a3f88820a3f88a20a3f86b
:104d40008c20a3f88e20a3f89020a3f892a0a3f8bb
:104d50009420a3f896c0a3f89890a3f89a20a3f8fb
:104d60009c20a3f89e80a3f8a070a3f8a2e04ff4c3
:104d7000fa77a3f8a470a3f8a660a3f8a860a3f834
:104d8000aa0040f6b836a3f8ac60a3f8ae00c8207d
:104d9000a3f8b0009620a3f8b200a3f8b4404ff4f3
:104da0001670a3f8b600a3f8b80042f23416a3f8c0
:104db000ba604ff42f54a3f8bc40a3f8be504ff490
:104dc0009650a3f8c000a3f8c260a3f8c440a3f8ab
:104dd000c650a3f8c800c420a3f8ca003020a3f826
:104de000cc00cf20a3f8ce00a3f8d020a3f8d22087
:104df000a3f8d4202422a3f8d620a3f8d810bde825
:104e0000f08700bf3c4f0120583d002038f40020bf
:020000040000fa
:104e100038b502f0bbfc7e4bd3f8a03013f4004f42
:104e200010d000237b4a13707b494a7c22f0080291
:104e30004a747a4a13707a4a13707a4a13607a4a2b
:104e4000137038bd734b01221a70734a537c43f0c0
:104e500008035374754b1b780bb3734b1b78002bf3
:104e6000efd0734a1278002aebd000226d490a6015
:104e70006f490a706f490a7801320a706e4ad25c33
:104e8000433a122a4dd8dfe802f0334c4c904c4c98
:104e90004c4c4c614c4c4c4c4c4c4c4c980003f0e2
:104ea000dbff0028d9d15d4b1b78032bd5d8dfe879
:104eb00003f0020a12165a4b1b7813f0010fccd0e4
:104ec00003f08afbc9e7564b1b7813f0010fc4d0df
:104ed00003f0c4f8c1e7594b00221a70bde7574be5
:104ee00000221a70514b01221a7002f00ffcb4e735
:104ef000514a1a4451785b2917d0514a4320107007
:104f000051704d490b4499789170d978d1701979c5
:104f100011715979517199799171db79d37103f0dc
:104f200099fa414b00221a708be7434a1a4492794e
:104f30005d2ae2d13d4a002010703f4a1a4494781d
:104f400036480470d078364a1070d6e7374a0121c7
:104f50001170394a1a4452785b2ae2d1364a1a440f
:104f600012795d2addd12d4c02222270324a1a4478
:104f70009078344b1870d178334b1970304b4c25e6
:104f80001d705b255d709870d9705d211971517924
:104f9000597191799971d279da7103f05bfa2378ba
:104fa000022bbed100f098fdbbe700231f4a13700f
:104fb000224a137001f094feb3e71c4a01211170dc
:104fc0001d4a1a44d2785b2aabd1144a03211170ce
:104fd000194a134459781b4a11709b781a4a137066
:104fe000172b11d040f241121849154803f0aafdc1
:104ff00003f030fa00f06efc154b00221a7003f03b
:1050000029fa02f083fb8ce7084b00221a70e9e7cb
:1050100000800041ea2402203c4f0120e9240220c4
:10502000af2e0220c42e0220422f0220a62e0220e4
:10503000412f0220432f0220ec240220442f022083
:1050400070b50020ae2e0220a72e0220f1240220ef
:045050005f2f0220ac
:020000040000fa
:1050540030b591ea030f00f18280841a71eb030cde
:1050640005d2121953eb0c03001b71eb0c0140f237
:10507400000ccff6e07c1cea430f52d0bceb410f8e
:105084005fd90c0da4eb135e5ff0010c6cf31f51a0
:105094006cf31f53def1200c2ad303fa0cf54019ec
:1050a40041f1000122fa0ef5401923fa0ef5694187
:1050b40012fa0cf2cd0208d349085fea30005fea25
:1050c400320228bf42f001020134013c5fea500c75
:1050d40072f1004250f1000051eb04514ff40013ff
:1050e40013eb410f38bf30bd6ff31301002030bd07
:1050f400bef1200ebef1200f1ed223fa0ef5401988
:1051040041f10001cef1200c124218bf012203fa32
:105114000cf52a43cee711ea5c0f04bf00200021fe
:1051240030bd1cea410f04bf01f00041002030bd36
:1051340001f00041002030bd21f4801101eb045145
:1051440030bd004218bf41f00101bceb410f08bf64
:1051540030bd4ff0fe4141f47801002030bd83f0b2
:105164000043841a71eb030e07d28ef0004e001b2d
:1051740071eb0e01121953eb0e0340f2000ccff643
:10518400e07c1cea430fc6d0bceb410f72d90c0d76
:10519400a4eb135ec90241ea5051c00241f0004140
:1051a400db0243ea5253d20243f00043def1200c07
:1051b40041d312fa0cf522fa0ef203fa0cf542ea84
:1051c400050218bf42f0010223fa0ef3801a994136
:1051d400e30ac4f30a0411f0404f03d418d0013c8d
:1051e40040004941013c23d44205c00a40ea4150f1
:1051f400c90a51eac3715fea500c72f1004250f1de
:10520400000051eb045130bd01002fd00020203ca0
:105214000029f9d0b1fa81fcdcf1200e11fa0cf16d
:1052240030fa0ef510fa0cf02943a4eb0c04d9e77c
:105234000020d90730bdaef1200ebef1200f0dd2f3
:10524400cef1200c03fa0cf533fa0ef32a4318bfff
:1052540043f00103c01a61f10001b9e721f00041f4
:10526400c00a40ea4150c90a01eb045130bd002094
:10527400002130bd004218bf41f00101bceb410fd9
:0e5284007ff467afbceb430f3ff463af30bd68
:020000040000fa
:02529200704763
:020000040000fa
:1052940038b57b4b1b780b2b16d8dfe813f00c00ca
:1052a4001600360040008f00a600c300d700db00c4
:1052b400df00e300e700212272494ff4af7002f0ef
:1052c400ddfa6f4b01221a7038bd6e4b1b78542bdc
:1052d40009d06d4b1b788bb1013b6b4a1370684b43
:1052e40000221a70f0e70020684b1870fa2268490f
:1052f40002f0fefa624b02221a70e5e7634b0122c8
:105304001a705f4b02221a70dee7102261494ff4d3
:105314009b7002f027fb5a4b03221a70d4e703f068
:1053240001fc04465c4b187003f0eefb5b4b1870f9
:1053340003f0dafc5a4b1870564bdb68984204d0e1
:10534400524a137843f008031370514bb3f8f83002
:10535400a3421ad04d4b1c7844f004041c70494bf2
:1053640093f8205003f0d0fb854204d0474b1c78bf
:1053740044f002041c70444b1b78abb1013b424a1d
:1053840013703f4b01221a709ee73e4b93f8204066
:1053940003f0bafb8442e9d13c4b1c78002cead1df
:1053a400374b07221a708fe764f07f04374b1c7069
:1053b400fff7ecfb324b04221a7085e703f048fa3e
:1053c40003f0a2fb2f4981f8200021224ff4af7093
:1053d40002f03eff2d4b1b781bb1294b05221a709e
:1053e40072e7274b07221a706ee702f09bfb002836
:1053f4003ff46aaf03f02cfa03f094fb2449a1f8bc
:10540400f800fa22002002f0bffb264b18701f4b55
:105414001b781bb11a4b06221a7055e7184b07224a
:105424001a7051e702f07efb00283ff44daf03f001
:105434000ffa03f059fc1749c86010224ff49b700f
:1054440002f01ef80e4b07221a703de70c4b0b229c
:105454001a7039e70a4b04221a7035e7084b052203
:105464001a7031e7064b06221a702de70e4b1b7893
:10547400002b7ff429af0c4b01221a7024e700bfe4
:10548400482f02203c4f0120942f0220492f022054
:1054940038f40020583d0020642f0220632f02209e
:0c54a400652f02204a2f0220532f022007
:020000040000fa
:1054b000f0b581ea030e0ef0004e40f20007cff681
:1054c000e07717ea41051ebf95ea070f17ea430484
:1054d00094ea070f00f0c5806d0da5eb545707f552
:1054e00080674ff0004646eac12444ea5054c002a7
:1054f00046eac32343ea5253d202801a9c4104d2a3
:105500000018644180185c41013f5b084fea320299
:105510000025002140f001004ff0070604e0801a4a
:105520009c4136d340416441801a9c4136d340416e
:105530006441801a9c4136d340416441801a9c41a9
:1055400036d340416441801a9c4136d34041644186
:10555000013e17d0801a9c4136d340416441801ae5
:105560009c4136d340416441801a9c4136d340412e
:105570006441090201eb156190ea052520f0ff0066
:105580004540cce7801a9c4156d335e080185c41f9
:10559000c8d20018644180185c41c8d20018644128
:1055a00080185c41c8d20018644180185c41c8d2a0
:1055b0000018644180185c41c8d200186441013e63
:1055c00017d080185c41c8d20018644180185c4133
:1055d000c8d20018644180185c41c8d200186441e8
:1055e000090201eb156190ea052520f0ff00454016
:1055f000cce780185c411fd3420918bf44f0010476
:10560000490101ebd56100f01f0000eb451021f4ca
:10561000801141ea0e01013041f10001244208bf2e
:1056200020f00100b7f5006f3eda013f49dd01ebe4
:105630000751bde8f0407047490101ebd56100f02a
:105640001f0000eb451021f4801141ea0e01b7f56f
:10565000006f29da013f34dd01eb0751bde8f0406e
:105660007047004218bf41f00101124218bf43f0d9
:105670000103b7eb410f2cbfb7eb430f1ce0b7ebb7
:10568000410f04bfb7eb430f16e017ea410f04bf09
:1056900017ea430f10e017ea410f12d017ea430f41
:1056a00002d0b7eb430f0cd04ef0fe4141f4700135
:1056b0000020bde8f04070474ff0fe4141f4780112
:0656c000f6e77146f4e775
:020000040000fa
:0256c600fee7fd
:020000040000fa
:1056c800a62808d0a3280bd0a4281dd132f0100397
:1056d80013d052207047002a0cbf882052207047f0
:1056e80032f0100301d052207047714b01221a701a
:1056f800704b00221a705020704701236c4a1370b7
:105708006c4a137050207047f0b583b00c46a0283f
:1057180013d0a1283ad0a22840f0c88000230193d2
:10572800042a07d1644b1b6823b1644a1268934268
:10573800c0f09680542003b0f0bd082a40f0ac8039
:10574800081d03f09bfa0546002800f0a7802046b4
:1057580003f094fa4219904280f0a280b0f5002f2d
:10576800c0f0a080b2f5801f00f29e8040ea0503d9
:10577800c3f30c030bb15120dde74f4b18604f4bbf
:105788001a604f4b01221a705020d4e74d4b51211b
:10579800197042f204039a4205d04a4be1221a706a
:1057a800484b1878c7e7444b1e6876b1204603f08b
:1057b80065fa0546b04208d300f500533f4a12681f
:1057c800934202d8c0f30c061eb13e4be2221a7077
:1057d800e6e703f0cbfa03f08ffa284603f084f9e2
:1057e80018b9384be3221a70dae703f085fa03f0a8
:1057f80011f910f07e001ed1271d2c1b043c03f06c
:1058080019fa314d4ff400723946284603f096f9db
:10581800e119284602f05cfea0b103f06dfa03f02e
:10582800f9f810f07e0014d1013607f50077102e34
:10583800e5d150207fe700f01f0363f07f03214a82
:105848001370ade706f00f0363f03f031d4a1370b2
:10585800a6e700f01f0363f05f031a4a13709fe77f
:10586800084603f00bfa04460121212003f0a6faaa
:10587800114b1868114b196801ab4ff0ff32091a28
:1058880002f00cfd0221212003f098fa01988442cd
:105898000cbf532054204ee751204ce751204ae7d3
:1058a800512048e7512046e7512044e7522042e77b
:1058b800832f0220812f0220302f0220342f022034
:0c58c800842f0220822f0220ec280220f6
:020000040000fa
:1058d40008b56d4a02f5a070002300bf12f8011f3d
:1058e4000b44dbb28242f9d1684a92f840219a42d1
:1058f40003d0674b01221a7008bd654b00221a7051
:10590400644b1b780d2bf7d8dfe803f00714212e26
:105914003b4855626f7c8996a3b05f4b187800ebc7
:1059240080004ff4a07259495c4b03eb801003f0e4
:1059340007f9e1e7584b187800eb80004ff4a072a8
:105944005249574b03eb801003f0faf8d4e7524b5b
:10595400187800eb80004ff4a0724c49514b03ebd4
:10596400801003f0edf8c7e74b4b187800eb80008c
:105974004ff4a07245494c4b03eb801003f0e0f860
:10598400bae7454b187800eb80004ff4a0723f490a
:10599400464b03eb801003f0d3f8ade73e4b187889
:1059a40000eb80004ff4a0723849414b03eb8010a8
:1059b40003f0c6f8a0e7384b187800eb80004ff4ea
:1059c400a07232493b4b03eb801003f0b9f893e724
:1059d400314b187800eb80004ff4a0722b49364b02
:1059e40003eb801003f0acf886e72b4b187800eb40
:1059f40080004ff4a0722549304b03eb801003f074
:105a04009ff879e7244b187800eb80004ff4a072dc
:105a14001e492b4b03eb801003f092f86ce71e4bee
:105a2400187800eb80004ff4a0721849254b03eb63
:105a3400801003f085f85fe7174b187800eb8000bf
:105a44004ff4a0721149204b03eb801003f078f857
:105a540052e7114b187800eb80004ff4a0720b4909
:105a64001a4b03eb801003f06bf845e70a4b1878e8
:105a740000eb80004ff4a0720449154b03eb801037
:105a840003f05ef838e700bf6fb5002070b5002062
:105a94006c2f0220ae2e0220a72e022038d6002022
:105aa4003c310120608b01203cf5002060a90120dd
:105ab40060c70120606d01203c130120683d002077
:105ac400685b0020581f0020604f01206879002087
:045ad40030b80020c6
:020000040000fa
:105ad80008b5634b24221a704c225a70614a127816
:105ae8009a7061490978d9705b2018710d2a12d80b
:105af800dfe802f00727323d48535e69747f8a95d4
:105b0800a0ab01eb81014ff4a072584b03eb81115c
:105b1800574803f013f8574a02f5a070002300bf56
:105b280012f8011f0b44dbb28242f9d14c4880f8cd
:105b380045315d2380f8463140f2471102f002fa00
:105b480008bd01eb81014ff4a0724b4b03eb8111af
:105b5800474802f0f3ffdee701eb81014ff4a07242
:105b6800464b03eb8111424802f0e8ffd3e701eb13
:105b780081014ff4a072424b03eb81113c4802f0c3
:105b8800ddffc8e701eb81014ff4a0723d4b03eb49
:105b98008111374802f0d2ffbde701eb81014ff4d4
:105ba800a072394b03eb8111314802f0c7ffb2e70d
:105bb80001eb81014ff4a072344b03eb81112c48a7
:105bc80002f0bcffa7e701eb81014ff4a072304b54
:105bd80003eb8111264802f0b1ff9ce701eb81013c
:105be8004ff4a0722b4b03eb8111214802f0a6ff62
:105bf80091e701eb81014ff4a072274b03eb811170
:105c08001b4802f09bff86e701eb81014ff4a0726d
:105c1800224b03eb8111164802f090ff7be701eb62
:105c280081014ff4a0721e4b03eb8111104802f062
:105c380085ff70e701eb81014ff4a072194b03eb6c
:105c480081110b4802f07aff65e701eb81014ff4ff
:105c5800a072154b03eb8111054802f06fff5ae75c
:105c6800dcb60020ae2e0220a72e022038d6002057
:105c7800e1b60020e0b600203c310120608b012015
:105c88003cf5002060a9012060c70120606d01205b
:105c98003c130120683d0020685b0020581f00204d
:0c5ca800604f01206879002030b8002017
:020000040000fa
:045cb4000020704715
:020000040000fa
:105cb8002de9f04759ec108b594f18eb080029f0e3
:105cc800004343eb030100268f4208bf864282b09f
:105cd800c0f0848053490020994208bf404510ee27
:105ce800102aca467dd310ee104a1d460127002609
:105cf80043a1d1e900019042994126da42a3d3e9b0
:105d080000232046294600f017fd0022464b03f0e9
:105d1800b5f80022444b03f0b1f822462b46fff7b2
:105d280095f93ba3d3e900238046894620462946b6
:105d3800fff78cf902460b4640464946fff7b4fb8d
:105d48003e4604460d4602460b460ff2cc09d9e9f9
:105d5800008923f00041894508bf904527d2224693
:105d68002b462046294600f0e7fc02460b468046b3
:105d780089462e48042101f077f84246cde9000112
:105d88004b4604212a4801f0bbfb02460b46dde9dd
:105d98000001fff789fb22462b4600f0cdfc0246a6
:105da8000b4620462946fff751f904460d46012eb9
:105db80022dd05f100431d461e4b03ebc6062046b7
:105dc8002946d6e90023fff741f904460d460af0b3
:105dd800004a22468aea050343ec102b02b0bde8cc
:105de800f08700200f49fff75ffb032704460d46a5
:105df80002460b4602267be7002ee8d0dce700bf10
:105e080058cd9e5e1426d13f5499b0d0f56ce73f2b
:105e1800aa4c58e87ab6fb3fbbbdd7d9df7cdb3d3f
:105e28000000e0ff0000f03f0000e03ff87d0000c8
:085e3800187e0000d87d000077
:020000040000fa
:105e4000584b9b7d002b00f0ab8010b5554a536832
:105e500003f00703127e12f0040f5bd0514a906ae0
:105e6000514a5169d268914254d2002b43d14e4bd2
:105e70005a684c1c5c6150544a4b1b7e13f0010f56
:105e800018d0484b01221a75474b9a699b689a4271
:105e900058d2454b1968501c98618a5c414b9a62f4
:105ea000414b9a699b689a4261d03f4b5a69db68c3
:105eb0009a4269d03b4b1b7e13f0020f14d03b4b30
:105ec0001b78bbb1384b5a69db689a420fd1364b0d
:105ed00000221a7733490720087534490a701b6a73
:105ee00043b1314a506a9847304b1b7813b12d4b60
:105ef00002229a7510bd2c4b5a684c1c5c6122f82a
:105f00001100284b1b7e13f0010fd3d0254b01222b
:105f10001a7509e0234a127e12f0010fcad0214af5
:105f200001211175002bafd01f4b9a699b689a42d3
:105f300012d21d4b1968501c986131f81220194b70
:105f40009a62ade7184b1b6923b3164aff21916291
:105f5000013b154a1361a3e7134b1b69d3b1114ae7
:105f60004ff6ff719162013b0f4a136198e70e4ba8
:105f70001b69002b99d10d4b01221a70094b1b7e16
:105f800013f0020f9ed1b2e7064b01229a7504224c
:105f90001a758fe7044b9a699b689a4285d1eae7a4
:105fa000704700bf00300040342d0220a32b022098
:020000040000fa
:105fb0004e4b42f206625a611a46136913f0010f02
:105fc000fbd04b4b42f20e229a821a46d36813f052
:105fd000010ffbd0464b05221a74a3f54063012242
:105fe0005a711a46d37813f0010ffbd0414b424a45
:105ff0001a621a46536813f0040ffbd13d4b3e4a18
:106000005a621a46536813f0080ffbd1394b3b4aca
:10601000da621a46536813f0200ffbd1354b402249
:10602000c3f89c201a4600bfd2f89c3013f0400ff2
:10603000fad0304b4022c3f8a0201a46d2f8a03044
:1060400013f0400ffad02b4b4022c3f8e0201a4641
:10605000d2f8e03013f0400ffad0264b4022c3f8bc
:10606000ec201a46d2f8ec3013f0400ffad0214b56
:106070004122c3f8f0201a46d2f8f03013f0400f56
:10608000fad01c4b4022c3f80c211a46d2f80c312e
:1060900013f0400ffad0174b4022c3f820211a46c4
:1060a000d2f8203113f0400ffad0124b4022c3f83f
:1060b00024211a46d2f8243113f0400ffad0104ba5
:1060c0006ff07f421a6143f2ff325a610d4a9a61c2
:1060d0004ff4c1721a62054a137f03f0fd03137770
:1060e00092f82c3013f0020ffad1704700100040e4
:1060f00000140040001c00400001010006010c00db
:08610000000800405684010074
:020000040000fa
:1061080038b54f4b9b7dd3b14d4a137edbb2927da0
:1061180012f0800f14d14a4a137edbb2927d12f03e
:10612800010f02d013f0010f50d1454a137edbb2a4
:10613800927d12f0040f02d013f0040f18d138bd6d
:1061480013f0800fe7d03e4b5b8b13f00703e2d0d0
:106158003c4ce38502f004fb394b84221a7500237a
:1061680084f82c30636a002bd5d0a06a9847d2e710
:10617800344b93f82c30002be1d0324b1a6adb6990
:106188009a42dcd22e4b9a6a5b6803f00703012b14
:106198002c4b9869196a01f101041c6214bf42541e
:1061a80020f81120274b1a6adb699a42c7d1254b80
:1061b800002283f82c20da61214a842111755b6a58
:1061c800002bbcd01f4a906a9847b8e71d4b1b7d2f
:1061d800002baad01b4b9a685c68194b1b7e13f0e6
:1061e800010f19d0a24217d2164b1d6814491a463e
:1061f8004b6803f00703012b936803f101009060db
:1062080014bfeb5c35f813308b6290680b7e13f08b
:10621800010f01d08442ebd80a4b9a685b689a4216
:1062280083d3084b00221a755a60054a012111755b
:10623800db68002b3ff479af024a1069984774e78e
:0862480000400141742c02200a
:020000040000fa
:1062500038b54f4b9b7dd3b14d4a137edbb2927d57
:1062600012f0800f14d14a4a137edbb2927d12f0f5
:10627000010f02d013f0010f50d1454a137edbb25b
:10628000927d12f0040f02d013f0040f18d138bd24
:1062900013f0800fe7d03e4b5b8b13f00703e2d087
:1062a0003c4ce38502f078fa394b84221a750023be
:1062b00084f82c30636a002bd5d0a06a9847d2e7c7
:1062c000344b93f82c30002be1d0324b1a6adb6947
:1062d0009a42dcd22e4b9a6a5b6803f00703012bcb
:1062e0002c4b9869196a01f101041c6214bf4254d5
:1062f00020f81120274b1a6adb699a42c7d1254b37
:10630000002283f82c20da61214a842111755b6a0e
:10631000002bbcd01f4a906a9847b8e71d4b1b7de5
:10632000002baad01b4b9a685c68194b1b7e13f09c
:10633000010f19d0a24217d2164b1d6814491a46f4
:106340004b6803f00703012b936803f10100906091
:1063500014bfeb5c35f813308b6290680b7e13f042
:10636000010f01d08442ebd80a4b9a685b689a42cd
:1063700083d3084b00221a755a60054a0121117512
:10638000db68002b3ff479af024a1069984774e745
:0863900000340040a42c02209f
:020000040000fa
:1063980038b54f4b9b7dd3b14d4a137edbb2927d0e
:1063a80012f0800f14d14a4a137edbb2927d12f0ac
:1063b800010f02d013f0010f50d1454a137edbb212
:1063c800927d12f0040f02d013f0040f18d138bddb
:1063d80013f0800fe7d03e4b5b8b13f00703e2d03e
:1063e8003c4ce38502f0ecf9394b84221a75002302
:1063f80084f82c30636a002bd5d0a06a9847d2e77e
:10640800344b93f82c30002be1d0324b1a6adb69fd
:106418009a42dcd22e4b9a6a5b6803f00703012b81
:106428002c4b9869196a01f101041c6214bf42548b
:1064380020f81120274b1a6adb699a42c7d1254bed
:10644800002283f82c20da61214a842111755b6ac5
:10645800002bbcd01f4a906a9847b8e71d4b1b7d9c
:10646800002baad01b4b9a685c68194b1b7e13f053
:10647800010f19d0a24217d2164b1d6814491a46ab
:106488004b6803f00703012b936803f10100906048
:1064980014bfeb5c35f813308b6290680b7e13f0f9
:1064a800010f01d08442ebd80a4b9a685b689a4284
:1064b80083d3084b00221a755a60054a01211175c9
:1064c800db68002b3ff479af024a1069984774e7fc
:0864d80000040043d42c022053
:020000040000fa
:1064e00010b4474b474a1a60474a1a61002183f8a3
:1064f000401083f84110012283f8422083f84310b2
:1065000083f8441083f8451083f8461083f8482038
:1065100083f8492083f84a1083f84b2083f84c1005
:1065200083f84d1083f84e1083f84f1083f85020f5
:1065300083f8512083f8522083f8532083f85410b5
:1065400083f8551083f8562083f8572083f8582095
:1065500083f8592083f85b1083f83120222083f8d8
:106560003400202483f8354083f8380083f839005c
:1065700083f83b00882483f83c40244cc3f88040d7
:10658000a4f67104c3f89040032483f8c04083f854
:10659000c12083f8c22083f8c32083f8c41083f895
:1065a000c51083f8c61083f8c72083f8c82083f885
:1065b000c92083f8cb1083f8cc2083f8cd200224a7
:1065c00083f8ce4083f8cf4083f8d02083f8d120e1
:1065d00083f8d61083f8d71083f8de10112283f8e1
:1065e000b02083f8b120102183f8b31083f8b420d1
:1065f000772283f8b62083f8b8005df8044b704723
:106600000080004178343008700010007108c040ec
:020000040000fa
:1066100030b40c4600294dd000284bd04649097fa4
:10662000002940f08680454d6d6805f00705012d75
:1066300046d0414908604a6000254d618d610d6179
:10664000a84208bf2c468c60aa4218bf1d460a46c5
:10665000cd6001211177394a127e12f0040f05d066
:10666000364a916a117e11f0040ffad1334a518be8
:1066700041f004015183117e41f080011176a54261
:1066800002d92a1b2c490a612c4a526812f0070fc2
:106690002bd1294a9269a2421cd2007827498862ec
:1066a000013225498a61002b3bd0244b04229a7584
:1066b00001213be0002b38d0002aafd1002135e08a
:1066c00014b114f0010f31d1002bb2d013f0010f2f
:1066d000afd02be0184a1269002ae4d01749ff20f6
:1066e0008862013a14490a61dde76408124a94603d
:1066f0001169490811616d08d5609269944206d903
:1067000000880e49886201320b498a61cbe7002973
:10671000c9d00a4a4ff6ff7090620139064a1161ea
:10672000c1e70121054b997500e00021084630bc06
:1067300070470021fae700bf342d022000300040ee
:020000040000fa
:10674000f0b540f2ff7681ea030c16ea115e1ebf37
:10675000b64516ea1355b54252d021ea465141f4e6
:106760008011a1fb024723ea465343f48013ae4451
:10677000a0fb03650cf0004c36197d41a1fb0347db
:1067800047f10003a0fb0217f619654153f100031e
:10679000094218bf46f0010640f2fe74b3f5007fcf
:1067a00013d2aef5806ea64523d24cea03312803fe
:1067b00041ea155140ea16503203450872f1004291
:1067c00050f1000051eb0e51f0bdaef2ff3ea64578
:1067d0000fd24ceac321e80241ea555140ea565033
:1067e000f202450872f1004250f1000051eb0e51e7
:1067f000f0bd1eea0e0f2dd50cf000410020f0bdbb
:1068000016ea115f04bf01f000410020004218bfea
:1068100041f0010116ea135f04bf03f000430022b8
:10682000124218bf43f0010306ea1354b44218bfe2
:10683000b64503d00cf000410020f0bd21f000412e
:1068400023f00043b1eb065f0cd8b3eb065f09d829
:1068500041b13bb10cf0004141f0fe4141f4700107
:106860000020f0bd40f20001c7f6f8710020f0bd35
:020000040000fa
:106870002de9f047002871d0002a74d0002975d086
:106880009046441e013946184ff00009394ddff893
:10689000f8a036e042f20c018b4226d85f1c2f6034
:1068a0003549ca54092f37d1334802f0ebf9504526
:1068b00049d1324802f0e6f942f20403984242d844
:1068c00000f109022e4b1a6030bb002211462a4b00
:1068d000187afef7f9fe88f8000000232b60284b99
:1068e00009221a604ff0010909e000232b60244bb4
:1068f00009221a60522388f800304ff00109b4428f
:106900002ed014f8012f2b68002bc3d14d2af6d1bd
:106910005f1c2f601849ca54194b1a68ba42eed14d
:10692000092aecd9174b093a194613f8010cfef75e
:10693000cbfe88f8000000232b60114b09221a605f
:106940004ff00109dbe700232b600d4b09221a6091
:10695000522388f800304ff00109d0e74ff00009ca
:106960004846bde8f0874ff00009f9e74ff000090d
:10697000f6e700bf2c2f0220dc040220e0040220f6
:0c698000282f0220e50402204d4348505f
:020000040000fa
:10698c00334ad36823f4e0631b041b0c43f0bf634e
:10699c0043f40033d360bff35f8f62b62d4be0211d
:1069ac0083f80a134ff480621a6083f80b134ff4c8
:1069bc0000621a6083f82e134ff480425a6083f8f9
:1069cc002f134ff400425a6083f830134ff4803287
:1069dc005a6083f831134ff400325a60402283f826
:1069ec0032234ff48020586083f833234ff4002077
:1069fc00586083f834234ff48010586083f83513b3
:106a0c004ff40010586083f83a234ff080605860c0
:106a1c0083f83b234ff00060586083f83c234ff021
:106a2c008050586083f83d234ff00050586083f835
:106a3c0042230420986083f843230820986083f84d
:106a4c00442310229a6083f8451320229a607047e1
:086a5c0000ed00e000e100e0a4
:020000040000fa
:106a640010b502f095f82d4b1b78002b51d0013b4b
:106a7400dbb22a4a1370012b34d05ab2d2b1022ba2
:106a84004ad100bf01f05cff0028fbd002f0a0f95e
:106a940000eb80004000224b1860224c1922216830
:106aa40002f0d2f920604ff4c051002001f036ff0b
:106ab40032e000bf01f044ff0028fbd002f088f967
:106ac40000eb80004000184b1860184c1922216814
:106ad40002f0baf920604ff4c051012001f01eff0a
:106ae4001ae000bf01f02cff0028fbd002f070f97f
:106af40000eb800040000e4b18600e4c19222168f8
:106b040002f0a2f920604ff4c051092001f006ff01
:106b140002e0024b03221a7010bd00bf962e022021
:106b2400c02e0220bc2e0220b02e0220f42b022004
:086b3400b82e0220b42e02204d
:020000040000fa
:106b3c0010b5274b1868274b1968274ba3fb01315d
:106b4c00c1f3c701254b24221a7044225a703022fb
:106b5c009a703122da705b221a71214a947a214a96
:106b6c0052f82420204cb4f84e4002fb04f2597128
:106b7c001e49097899711e49a1fb02125209da715a
:106b8c001c4a12781a725872020a9a721a4a1278ad
:106b9c00da721a4a12781a735a1d03f10d01002386
:106bac0012f8010b0344dbb28a42f9d1144a0d21cd
:106bbc0011600a4a53735d239373144601e002f08b
:106bcc0037f80f21204601f0bbf90028f7d010bd93
:106bdc00242f0220202f0220cdccccccdcb60020e0
:106bec003c4f0120802d022038f400204c2f022035
:106bfc001f85eb515d2f0220602f02205e2f02209b
:046c0c00e42e022050
:020000040000fa
:106c1000304b1b78002b5cd000b597b053222e4927
:106c200001a801f08fff2b4b00221a709df8043051
:106c3000242b02d017b05df804fb9df80730522bcf
:106c40000ed04d2b1dd0422b24d0482b2bd19df89c
:106c50000830442b08d19df80930472b04d10be0b4
:106c60009df808304d2b03d01c4b00221a70e1e731
:106c70009df80930432bf7d101ab0df155000021f0
:106c80001ee09df80830572beed19df80930562ba9
:106c9000ead1f1e79df808304f2be5d19df8093096
:106ca000442be1d1e8e7442bded19df80830422b9c
:106cb000dad19df80930542bd6d1dde78342d3d009
:106cc00013f8012f2c2af9d10b299cbf0131c9b22d
:106cd000f4e77047502f0220502b0220512f022042
:020000040000fa
:106ce0002de9f043fbb050238df807302d4b1e7873
:106cf0002d4b33445b785b2b14d1b41c2a4b1b5daa
:106d00005d2b4ad0f51c294b334400bf13f8012feb
:106d10005d2a0dd00135b5f5806ff7d3522001f013
:106d20002bf802e0522001f027f87bb0bde8f08399
:106d3000002df3d0ae1b16f00106efd1ac421cd2f1
:106d4000194b1c440df108089946207801f054fdb8
:106d50000746607801f050fd002f1adb002818db91
:106d6000b6f5f07f15d0013640ea071008f8010ba0
:106d70000234a4eb09039d42e7d80df10702314626
:106d800002a8fff775fd50b19df8070000f0f4ff71
:106d9000cbe7522000f0f0ffc7e70026ede75020d8
:106da000f4e700bf422f0220ec240220ee24022050
:020000040000fa
:106db00008b502f015f823490b68234a1360c01a7e
:106dc000224a82fb00c2c017c0eba200204a10601a
:106dd000184408608b2303fb00f31e4a82fb031256
:106de0001a44db17c3eba2231b4a13601b4a527fd2
:106df00093421b4b1b7834bf43f0080303f0f703a7
:106e0000174a1370b0f5807f0cdd164bfa221a601a
:106e1000154b4022c3f8982008229a61134b012297
:106e20001a7008bd0f4b1b6823b90f4b4022c3f8e3
:106e30009420f6e7013b0b4a13600c4b04221a70b6
:106e4000efe700bfdc2e0220142f02206766666683
:106e5000102f02206b09ebb5a02d02203c4f012022
:106e60004f2f0220e02e022000800041852f0220bb
:020000040000fa
:106e7000f8b58c1e00ebc40416461f460d46d4e937
:106e8000022330463946fff75bfcd4e90023fef7c6
:106e9000e1f8022d02460b4645d030463946fff751
:106ea0004ffc54e90223fef7d5f8032d02460b46aa
:106eb00039d032463b46fff743fc54e90423fef742
:106ec000c9f8042d02460b462dd030463946fff74f
:106ed00037fc54e90623fef7bdf8052d02460b46a4
:106ee00021d030463946fff72bfc54e90823fef742
:106ef000b1f8062d02460b4615d030463946fff74d
:106f00001ffc54e90a23fef7a5f8072d02460b469d
:106f100009d030463946fff713fc54e90c23fef73d
:106f200099f802460b4630463946fff709fcf8bd92
:020000040000fa
:106f300010b5224b24221a7044225a7030229a70c3
:106f40003222da705b221a711d4a11681d48a0fbbb
:106f50000121490959711c4a1268a0fb0212520909
:106f60009a711a4a1278da71194a12781a72194a01
:106f7000117c5972527c9a72ff22da72164a127888
:106f80001a735a1d03f10d01002300bf12f8010b03
:106f90000344dbb28a42f9d1104a0d211160074a3d
:106fa00053735d239373144601e001f047fe0f21f4
:106fb000204600f0cbff0028f7d010bddcb6002043
:106fc000d02e02201f85eb51cc2e02205c2f0220f8
:106fd0004e2f02203c4f01205b2f0220e42e022086
:020000040000fa
:106fe00010b5204b1a6842f20f739a4228bf1a4616
:106ff0001d4b19681d4b24201870442058703020f8
:107000009870d8705b201871194800785871194829
:1070100000789871d971090a19725a72120a9a7213
:10702000154a1278da72154a12781a735a1d03f14a
:107030000d01002312f8010b0344dbb28a42f9d19f
:107040000f4a0d211160094a53735d23937314464f
:1070500001e001f0f3fd0f21204600f077ff00284a
:10706000f7d010bdfc2e02200c2f0220dcb6002031
:10707000452f02204b2f02204d2f0220562f022099
:04708000e42e0220d8
:020000040000fa
:1070840038b504465022002101f056fe214b01225e
:107094009a611a46936913f0010ffbd01d4b9a694c
:1070a40042f002029a611c490c60a2b242f480329e
:1070b400c3f8a02004f110024a6092b242f00042e8
:1070c40042f40032c3f8b02004f13002ca6092b234
:1070d40042f08072c3f8c02004f140020a6192b207
:1070e40042f48032c3f8f02004f148028a610b4d67
:1070f40003cda064e16492b242f48032c3f88820e4
:107104009a6922f001029a611a46936913f0010ff9
:10711400fbd138bd000400421c2e0220648e000006
:020000040000fa
:1071240010b5204b24221a7044225a7030229a70cf
:107134003622da705b221a711b4a9168080a587168
:1071440099711168080ad87119725268110a597232
:107154009a72164a11681648a0fb01214909d9728e
:10716400144a1268a0fb021252091a735a1d03f141
:107174000d01002312f8010b0344dbb28a42f9d15a
:107184000d4a0d211160074a53735d23937314460e
:1071940001e001f051fd0f21204600f0d5fe00284a
:1071a400f7d010bddcb60020042d0220d02e022022
:0c71b4001f85eb51cc2e0220e42e02209f
:020000040000fa
:1071c00038b504464ff4a472002101f0b7fd4ff02a
:1071d000844301229a611a46936913f0010ffbd090
:1071e0004ff084439a6942f002029a6118490c6098
:1071f000a2b242f0004242f4a022c3f8a02004f15f
:107200005002ca6092b242f02062c3f8c02004f17a
:10721000f0020a6192b242f42022c3f8f02004f591
:10722000a0728a610b4d03cdc4f84001c4f844112b
:1072300092b242f48032c3f888209a6922f00102a7
:107240009a611a46936913f0010ffbd138bd00bf54
:08725000382e0220748e0000ac
:020000040000fa
:1072580008b51b4b98471b4b9847eff3108172b644
:10726800194ad2f8883043f47003c2f88830bff363
:107278004f8fbff36f8f01b962b6144c2023636040
:1072880001f03afa124b23f07f030f4a9360114b37
:107298009847a36823f00103a3602346da6812f035
:1072a800010ffbd1094b5a6842f004025a600122cf
:1072b8009a60094b9847094b9847fcf77ffffee710
:1072c800d38d0000d38d000000ed00e00060004188
:1072d80000200000a97f0000d38d0000d38d00009e
:020000040000fa
:1072e80010b51d4b59791d4a52f821201c492420fc
:1072f800087044204870302088703320c8705b20a4
:107308000871187f4871987f8871ca71120a0a72c9
:107318001a79144b53f822301a0a4a728b720023d6
:10732800cb720b734a1d0d3112f8010b0344dbb20b
:107338008a42f9d10c4a0d211160094a53735d2321
:107348009373144601e001f075fc0f21204600f00c
:10735800f9fd0028f7d010bd3c4f0120602d022018
:0c736800dcb60020542e0220e42e02208f
:020000040000fa
:1073740010b51d4b24221a7044225a7030229a7080
:107384003422da705b221a71184a916a080a587119
:107394009971116a080ad8711972526a110a5972dc
:1073a4009a72134a1278da72124a12781a735a1db0
:1073b40003f10d01002300bf12f8010b0344dbb2fb
:1073c4008a42f9d10c4a0d211160074a53735d2397
:1073d4009373144601e001f02ffc0f21204600f0c6
:1073e400b3fd0028f7d010bddcb60020042d022028
:0c73f4004e2f02205a2f0220e42e02200f
:020000040000fa
:1074000000b583b0b0f57a7f05d2632805d8302364
:107410008df800300fe040f2e730184ba3fb00235b
:107420005b09dab2092a28bf092230328df8002020
:10743000642202fb1300092819d9114ba3fb002376
:10744000db08dab2092a28bf092230328df8012080
:1074500003eb8303a0eb430030308df802000321df
:10746000684600f045fd30b901f0e8fbf7e730234e
:107470008df80130f0e703b05df804fb1f85eb5198
:04748000cdccccccd7
:020000040000fa
:107484002de9f04104460f46164601f0e1f91b4b85
:107494001b781bb900242046bde8f081dff85c802e
:1074a400002388f80030164d02232b70230c6b70d8
:1074b400230aab70ec7001f00dfc01f0bdfb324609
:1074c4003946281d01f03cfb01f0b6fb01f0b4fb8a
:1074d40001f0b2fb01f0b0fb01f0aefb311d284618
:1074e40001f094fc044698f80030002bd3d14546b3
:1074f40001f0a2fb2b78002bfad0cce7962f0220c8
:04750400b0030220ae
:020000040000fa
:10750800f8b516461f4600ebc10555e902230c469f
:1075180030463946fdf79afd32463b46fff70cf9ef
:1075280055e90423fdf792fd02460b4630463946dd
:10753800fff702f9032c02460b4617d055e906233c
:10754800fdf784fd02460b4630463946fff7f4f84e
:10755800052c02460b4609d155e90823fdf776fdaf
:1075680032463b46fff7e8f802460b46c4eb447444
:1075780005ebc40410461946d4e90023fdf766fd5f
:04758800f8bd00bf8b
:020000040000fa
:10758c000138c0b2092834d8a9b32de9f0474ff01f
:10759c008443d3f8c430c3f30443013001eb00152a
:1075ac000026dff858904ff001081801d9f80c406c
:1075bc002218d1f800a0d1f804e0d1f808c0cf68a7
:1075cc0044f800a0c2f804e0c2f808c0d76010313b
:1075dc0008fa03f216430133dbb20a2b08bf00236f
:1075ec008d42e2d14ff08443c3f8d0600120bde856
:1075fc00f087002070470020704700bf382e022013
:020000040000fa
:10760c001a4b1b786bbb24280cd0194b1b6863b32b
:10761c00184ad054552812d05d281ad1164a012187
:10762c00117016e0134b24221a700123134a1370a5
:10763c000f4a13607047104a012111700de00b4a7c
:10764c000121117005e00b4ad05440f245129342cf
:10765c00f1d040f2fe32934207d80133044a136052
:10766c007047034b1b68002bedd170475f2f022036
:10767c00c42e0220ec240220412f0220422f022093
:020000040000fa
:10768c0010b51b4924230b7044234b7030238b7093
:10769c003523cb705b230b71164b1a88100a48717b
:1076ac008a719b881a0aca710b7200234b728b72f7
:1076bc00114a1288100ac8720a734a1d0d3100bf94
:1076cc0012f8010b0344dbb28a42f9d10b4a0d21ab
:1076dc001160074a53735d239373144601e001f064
:1076ec00a7fa0f21204600f02bfc0028f7d010bd84
:1076fc00dcb60020a02e02208a2e0220e42e0220ce
:020000040000fa
:10770c0010b51b4924230b7044234b7030238b7012
:10771c005523cb705b230b71164b1b784b710023dd
:10772c008b71cb710b724b728b72cb720b734a1dbc
:10773c000d3100bf12f8010b0344dbb28a42f9d1c0
:10774c000d4a0d2111600a4a53735d23937314463d
:10775c0001e001f06dfa0f21204600f0f1fb00284a
:10776c00f7d04ff480620021044801f0e1fa10bd1b
:10777c00dcb600206c2f0220e42e0220ec24022028
:020000040000fa
:10778c00184b1b78002b2bd000b583b00023019332
:10779c00019a154b9a4207d81a4600bf019b013338
:1077ac000193019b9342f8d9104b1b7823b101f044
:1077bc00e3fa03b05df804fb4ff000530c4a1a6077
:1077cc005a609a60da60bff34f8f0a49ca6802f4b4
:1077dc00e062094b1343cb60bff34f8f00bffde753
:1077ec00704700bf832f02201fa10700812f0220aa
:0c77fc004d43485000ed00e00400fa0589
:020000040000fa
:107808009ab32de9f041174688bb4ff08443d3f86b
:10781800a430c3f3052301b301395ffa81f84ff0af
:10782800000cdff850e000e09446def8002002eba0
:107838000312166855689468d2683e607d60bc6023
:10784800fa608c4509d010370133dbb2052b08bf2d
:1078580003460cf10102c445e6d103f03f034ff0a3
:107868008442c2f8a830012002e0002070470020be
:08787800bde8f081382e02206a
:020000040000fa
:10788000f8b506460f461546154b1b782bb9144c18
:1078900001f0d4f92378002bfad0124803230370a7
:1078a000330c4370330a8370c6700f4b4ff4806201
:1078b0005a610b4c002323702b1d0c4a0421fef748
:1078c000a7fe237823b901f0b9f92378002bfad069
:1078d0002a460749384601f035f9e8b2f8bd00bf3d
:1078e000962f0220b003022000800041b0e5012065
:0478f000b4e50120da
:020000040000fa
:1078f400f8b506460f461546154b1b782bb9144ca4
:1079040001f09af92378002bfad01248032303706c
:10791400330c4370330a8370c6700f4b4ff480628c
:107924005a610b4c002323702b1d0c4a0421fef7d3
:107934006dfe237823b901f07ff92378002bfad068
