:020000040000fa
:10200000f0ff0320656f000067890000178a000059
:10201000ad7b0000af7b0000118b000000000000d2
:102020000000000000000000000000002786000003
:10203000df8a0000000000002786000027860000dd
:1020400027860000278600002786000027860000dc
:1020500027860000278600002786000027860000cc
:102060002786000027860000158b0000b184000041
:1020700027860000278600002786000027860000ac
:10208000278600002786000027860000278600009c
:10209000278600002786000027860000278600008c
:1020a000278600002786000027860000278600007c
:1020b000278600002786000027860000278600006c
:1020c000278600002786000027860000278600005c
:1020d000278600002786000027860000278600004c
:1020e0002786000069820000000000000000000058
:1020f00000000000278600006d5c00006d5c0000a1
:102100006d5c00006d5c00007d7d00007d7d000049
:102110007d7d00007d7d0000278600002786000071
:102120002786000027860000257d0000257d000011
:10213000257d0000257d0000278600002786000001
:102140002786000027860000d57d0000d57d000091
:10215000d57d0000d57d00000000000000000000db
:10216000000000000000000000000000000000006f
:102170000000000000000000278600002786000005
:10218000278600002786000027860000278600009b
:102190000000000027860000278600002786000038
:1021a000278600002786000027860000278600007b
:1021b000278600002786000027860000278600006b
:1021c000278600002786000027860000278600005b
:1021d000278600002786000027860000278600004b
:1021e000278600002786000027860000278600003b
:1021f000278600002786000027860000278600002b
:102200002786000000000000000000002786000074
:10221000278600002786000027860000278600000a
:1022200027860000278600002786000027860000fa
:1022300027860000278600002786000027860000ea
:1022400027860000278600002786000027860000da
:1022500027860000278600002786000027860000ca
:020000040000fa
:10226000f8b500bff8bc08bc9e4670474d81000021
:10227000f8b500bff8bc08bc9e4670472981000035
:020000040000fa
:102280002de9f04fb1b03222002123a806f0a8fbbf
:10229000ac4b1d7815b931b0bde8f08f2a46aa497c
:1022a00023a806f091fa0023a64a1370a74a1268e1
:1022b0001d92a74a52691292a64a12780f92a64915
:1022c000ca791092a54a12780d92a54a52691992bc
:1022d000a44a12681392a44a927e2192a34a1278c9
:1022e0001b92a34a52691692a24a526915928a79a0
:1022f0000b924a7909920a79079291f801a09e4ab5
:102300001278c8780590887804900e789b4991f8e7
:1023100000b09b4991f8008023ac013d0df18d0187
:1023200051fa85f520931f931e9311931c931a93d2
:102330001793189314930c930a9308930e93069390
:102340000393029399461f46019326e2a1f14103ac
:102350000f2b11d8dfe813f04402100044024402ae
:1023600044021000100010001000100010001000b7
:102370001000100010004402012300220ae2442e43
:102380000bd0452e0fd0432e13d0412e17d16429e8
:1023900000f03b8201230022fce1642900f0268248
:1023a00001230022f6e1642900f0258201230022a6
:1023b000f0e1642900f0248201230022eae1502e9a
:1023c00004d18a46012302930322e3e10123002280
:1023d000e0e1442e0cd0452e11d0432e16d0412ed4
:1023e0001bd1baf1640f00f0248201230022d1e155
:1023f000baf1640f00f00e8201230022cae1baf1a3
:10240000640f00f00c8201230022c3e1baf1640fd3
:1024100000f00a8201230022bce1502e04d1049175
:10242000012303930422b5e101230022b2e1442eeb
:102430000ad0452e0fd0432e14d0412e19d0502e45
:102440001ed001230022a5e1baf1640f00f0f6814d
:10245000012300229ee1baf1640f00f0f481012310
:10246000002297e1baf1640f00f0f281012300220b
:1024700090e1baf1640f00f0f0810123002289e1bc
:102480003a2900f0ef813d2900f0f3810123002279
:1024900080e1442e0cd0452e11d0432e16d0412e73
:1024a0001bd1baf1640f00f0f8810123002271e121
:1024b000baf1640f00f0e281012300226ae1baf16f
:1024c000640f00f0e0810123002263e1baf1640fa0
:1024d00000f0de81012300225ce1502e04d107913f
:1024e00001230893062255e10123002252e1442ee4
:1024f0000cd0452e11d0432e16d0412e1bd1baf14f
:10250000640f00f0de810123002243e1baf1640f81
:1025100000f0c881012300223ce1baf1640f00f011
:10252000c6810123002235e1baf1640f00f0c481b5
:10253000012300222ee1502e24d1099101230a9378
:10254000072227e1eb800020147e00201881002064
:10255000d47e0020f2800020687c0020e7800020ec
:10256000747f002020810020f45100200e81002083
:10257000f47e0020947f0020e6800020038100206c
:10258000028100200123002204e1442e0cd0452ebc
:1025900011d0432e16d0412e1bd1baf1640f00f09a
:1025a000a48101230022f5e0baf1640f00f08e81ce
:1025b00001230022eee0baf1640f00f08c810123c8
:1025c0000022e7e0baf1640f00f08a8101230022c3
:1025d000e0e0502e04d10b9101230c930822d9e0a6
:1025e00001230022d6e0442e0cd0412e32d0452ebd
:1025f0005cd0432e7ed1baf1640f00f07b810123c1
:102600000022c7e0baf1640f02d001230022c1e02a
:102610004b2902d001230022bce0059b202b0cd0cb
:102620000b9a0799059806f06ff9159001231893f6
:1026300014931e2213920022ace0079b303bdbb2c6
:1026400003eb83030b9a303a02eb430303f0ff03df
:102650001593ebe7baf1640f02d00123002299e051
:102660004b2902d00123002294e0079b2e2b05d09a
:10267000099b2e2b11d0012300228be0059b303bc0
:10268000dbb203eb8303099a303a02eb430303f016
:10269000ff03169301231793ede70b9a079905980b
:1026a00006f032f9169001231793e4e7baf1640fac
:1026b00002d0012300226de0442902d00123002230
:1026c00068e00b9a0999079806f01ef91990219b6a
:1026d000052b06d001231a9314931e221392002275
:1026e00058e0049b502b14bf002301231b930123ac
:1026f0001c93efe7502e06d11091012311930e93f6
:102700000d93002246e00123002243e0baf1640f5a
:1027100002d0012300223de0462902d001230022fd
:1027200038e0059b202b12d0049b202b20d00f9b40
:1027300003f0df0343f040030f93002312930123c0
:1027400020931f931e931e221d92002222e0079bbe
:10275000303bdbb203eb83030b9a303a02eb4303cb
:1027600003f0ff0312930f9b03f09f030f93e6e721
:102770000b9a0799059806f0c7f812900f9b03f083
:102780009f030f93dbe701274ff000080197c34633
:102790003b463a46ac4200f0b28014f8011b2429b3
:1027a000f1d0012a3ff4d2ad022a3ff4e8ad032a6a
:1027b0003ff40fae042a3ff43aae052a3ff469ae67
:1027c000062a3ff494ae072a3ff4dfae082a3ff40e
:1027d0000aaf092aded1432e98d001230022d9e77f
:1027e0000e464ff001094b460222d3e78a460123e9
:1027f00002930322cee78a46012302930322c9e70c
:102800008a46012302930322c4e78a4601230293e6
:102810000322bfe70491012303930422bae7049142
:10282000012303930422b5e70491012303930422b7
:10283000b0e70491012303930422abe70591012340
:1028400006930522a6e70591012306930522a1e739
:1028500005910123069305229ce705910123069328
:10286000052297e7059101230e930d93069300220d
:1028700090e705910123069305228be70791012339
:102880000893062286e7079101230893062281e731
:1028900007910123089306227ce7079101230893ff
:1028a000062277e7099101230a93072272e709912b
:1028b00001230a9307226de7099101230a93072256
:1028c00068e7099101230a93072263e70b9101232b
:1028d0000c9308225ee70b9101230c93082259e721
:1028e0000b9101230c93082254e70b9101230c93c5
:1028f00008224fe710910123119309224ae70bb1f7
:10290000394b1a70019b13b1384b83f800b017b1e3
:10291000374b83f80080b9f1000f01d0354b1e70a2
:10292000029b13b1334b83f801a0039b002b3ad1d8
:10293000069b002b3bd10e9b002b3cd1089b002b10
:102940003dd10a9b002b3ed10c9b002b3fd1149b09
:10295000002b40d1189b002b41d1179b13b1264b64
:10296000169a5a611a9b13b1244b199a5a611c9bef
:1029700013b1234b1b9a1a70119b13b11d4b109a64
:10298000da711e9b13b11f4b1d9a1a601f9b13b166
:102990001d4b0f9a1a70209b002b3ff47cac1b4bf5
:1029a000129a5a6177e4134b049a9a70c0e7114b5c
:1029b000059ada70bfe7164b0d9a1a70bee70d4bf9
:1029c000079a1a71bde70b4b099a5a71bce7094b7c
:1029d0000b9a9a71bbe70f4b139a1a60bae70e4b2a
:1029e000159a5a61b9e700bfe680002003810020f4
:1029f00002810020687c0020f47e0020747f00208b
:102a00000e81002018810020f2800020d47e00205a
:0c2a1000e780002020810020947f00203f
:020000040000fa
:042a1c0001030c00a6
:020000040000fa
:102a20002de9f04f2ded0e8b9bb0012005f0ebff53
:102a300020b91bb0bdec0e8bbde8f08f012006f075
:102a400053f8002005f040fe82460028f1d0002413
:102a50004ff000084ff000099feda18b9feda29b66
:102a60009feda3cb9feda4bb9feda5ab9feda6db98
:102a70009feda7ebc5e15079ff2868d005f0b2fec5
:102a800053ec182b03f038fa80468946a24b18798c
:102a900005f0a8fe42464b4602f0e8fa53ec192b2b
:102aa00003f02afa8046894605f09afd9b4b586050
:102ab0009b4b01229a729b4b1e221a809a4b9e427c
:102ac00040f0fc81dff8508298f8020005f08afea1
:102ad00053ec182b03f010fa06460f4698f8010045
:102ae00005f080fe32463b4602f0c0fa53ec192b4b
:102af00003f002fa05f074fd8c4b586098f804005e
:102b000005f070fe53ec182b03f0f6f906460f465d
:102b100098f8030005f066fe32463b4602f0a6fa3e
:102b200053ec1c2b03f0e8f98046894605f058fd6c
:102b30007f4b5860b42831d97e4b01221a70c0f502
:102b4000b4707b4b58607c4b1e221a60b6e1734b0d
:102b500000225a60b2e7794b9e42afd16e4eb078f8
:102b600005f040fe53ec182b03f0c6f942464b46e5
:102b700002f07cfa80468946707805f033fe4246c2
:102b80004b4602f073fa53ec1b2b03f0b5f9804669
:102b9000894605f025fd6a4b58608fe1654b0022a0
:102ba0001a70d0e75c4b1b78032b0fd0042b13d08b
:102bb000022b40f08681634b1988022005f0ecfc63
:102bc000614b1988052005f0e7fc7ae15f4b198815
:102bd000082005f0e1fc74e15d4b1b78c3f58073c0
:102be0005c4aa2f8b43071e14b4b1b78ca2b22d05f
:102bf000594b1b78962b4bd0542b40f07481bbf172
:102c0000ef0f46d0444bd978544a11701978544a82
:102c100011709979534a11705979534a1170197981
:102c2000524a1170d9793e4a537c23f0700343ea2b
:102c300041135374e0e0384b5b78ca2bd8d1364b44
:102c40009b78c12b07d0c22b0ad0cd2bd0d1484bbb
:102c500004221a70cce705f023fa05f065f935e196
:102c600005f00efc05f060f930e105f00dfd32e1f4
:102c7000992bbfd13e4b01221a70374b1b78802b0a
:102c800040f0c081334bb3f8aa203a4b1a70b3e03e
:102c9000fee7214b1b78012b74d0022bb2d11e4bc7
:102ca0005b78aa2baed11c4bdb78012b00f04f8157
:102cb0005ab2002a00f03c81022b00f05d812e4bbd
:102cc00002221a70bb225a70134a91789970d278f6
:102cd000da702a4b2a4a1a6004f03efc77e000bf03
:102ce0000000000000e06f406c216d8896e1c83f55
:102cf000427bf5f1d077773ff865bbdee577773f2c
:102d00007b14ae47e17a843ffca9f1d24d62503f7b
:102d100000000000000024409c510020f47e0020b0
:102d2000f45100201681002002fd0100947f002054
:102d3000747f00200e8100202081002012f101000c
:102d400008800020cc7c002070800020788000204b
:102d50002b810020a0500020d7800020fc80002084
:102d6000f38000200181002000810020ff800020ee
:102d7000e5800020ea800020cc49002084800020eb
:102d8000f054ef008c4b5b78aa2b7ff43baf8b4b5e
:102d900000221a715a719a71da71874bda78012a16
:102da00000f0ae8053b2002b00f0a380022a00f0a6
:102db000b180824b01211970bb2159707e498978fd
:102dc0009970da707e4b7f4a1a6004f0c5fb7e4b27
:102dd0001b78562b40f0eb807c4b1879764b59785a
:102de0001a7802eb01227a4941f820209978794a31
:102df0001170da78784b1a700134e3b29a457ff695
:102e000018ae0020069007900890099006aa0121ac
:102e100004f0b2fa0028efd0674a08ab03cb106089
:102e20005160069bc3f311266c4b1e606c4b1e70e9
:102e30009df81850644b1d709df81ab0694b9e4266
:102e40003ff419ae684b9e427ff485ae5a4b187919
:102e5000da7802eb00209a7802eb0022587800eb37
:102e600002206ff07f43984220d005f0bbfc53ec6a
:102e70001a2b03f041f806460f464f4b98795b79c1
:102e800003eb002005f0befb53ec1d2b03f034f8e0
:102e900032463b4602f0eaf853ec1e2b03f02cf8c6
:102ea0008046894605f09cfb504b5860504a137889
:102eb00023f0200313704f4b1e221a60912d3ff414
:102ec00071ae414b1b78902b3ff48eae3e4b1b787e
:102ed000932b3ff4caae3c4b1b78972b7ff4c8aec4
:102ee000454b01221a70384b1b78562b3ff474afb8
:102ef000c5e6314b9b783549c95c304b197158e7b1
:102f00002d4b99783d4b33f811302c490b711b0a2e
:102f10004b714ee7284b9978394b53f821302749ac
:102f20000b71180a4871180c88711b0ecb7140e7a1
:102f3000214d2979a87805f097fb204baa782349e1
:102f40008a5c1a7100225a719a71da71b7e61a4dc9
:102f50006b79297901eb032189b2a87805f00afb86
:102f6000aa78264b33f81220144b1a71120a5a71a0
:102f700000229a71da71a2e60f4dea79ab7903eb80
:102f800002226b7903eb0223297901eb0321a87854
:102f900005f014fbaa781a4b53f82230074a137134
:102fa000190a5171190c91711b0ed37187e6542bbc
:102fb0003ff428ae63e600bf9c510020cc490020be
:102fc00084800020f054ef00d7800020f4510020ce
:102fd00008800020477e00204e8000208c8000204a
:102fe000d880002002f801000bf50100d47e0020fb
:102ff000f28000201881002009810020a0500020cc
:103000007428002003f17f02d2b2032a3ff6f4ae07
:10301000554a1278d22a3ff4efae03f00f05013d76
:10302000edb2524b1d70524b524e327803f81520c0
:1030300003eb4503504ab2f8aa205a70f378b078ef
:1030400000eb03204d4b186005f0ccfb02460b460d
:10305000717811f0010f05d0009203f10043019344
:10306000dde90023464e6f00791906ebc1014248a5
:10307000008b91ed001b43ec102b04f0cbff3d4483
:1030800006ebc50686ed000b3a4d6b79287900eb0f
:1030900003203a4b186005f0a5fb02460b46697801
:1030a00011f0020f05d0029203f100430393dde912
:1030b00002232e490f78324d7e00f11905ebc10134
:1030c0002d48008b91ed021b43ec102b04f0a2ff66
:1030d0003e4405ebc60585ed020b264deb79a8793c
:1030e00000eb0320254b186005f07cfb80468946e9
:1030f0006b7813f0040f05d0049001f100430593a1
:10310000dde90489194f97f800b01d4d4fea4b06d1
:1031100006eb0b0305ebc303174a108b93ed041b5f
:1031200049ec108b04f076ff5e4405ebc60585ed97
:10313000040b3b78012b10d05ab242b1022b7ff422
:103140005bae104a137823f00403137054e60d4a63
:10315000137823f0010313704ee60a4a137823f024
:103160000203137048e600bfd8800020f4800020de
:10317000648000209c510020a05000209c800020f2
:08318000d07c0020e08000205b
:020000040000fa
:103188002de9f04713283bd8dfe810f014006c0055
:103198009300ba00e100fa00210148016f0196018d
:1031a800d801ff0126024d0274029b02c202e90205
:1031b80010033703da4b186805f010fb06460f4674
:1031c800dff874a3baf8040005f008fb02460b46c2
:1031d8003046394605f094fc06460f46d14b186830
:1031e80005f0fcfa80468946baf8100005f0f6fab0
:1031f80002460b464046494605f082fc8046894611
:10320800002200233046394605f0d4f858b9324632
:103218003b464046494602f044f841ec100b02f0a8
:1032280043fa55ec104bb8a3d3e9002320462946ae
:1032380002f05efe04460d460022bb4b01f012ff71
:1032480005f0caf9b94b1870b94bb3f8b40005f0da
:10325800d5f922462b4601f005ff05f0bdf9c0b2ad
:10326800bde8f087ae4b186805f0b8fa06460f4679
:10327800dff8c482b8f8040005f0b0fa02460b463d
:103288003046394605f03cfc06460f46b8f81000b3
:1032980005f0a4fa80468946a24b186805f09efa04
:1032a80002460b464046494605f02afc80468946b8
:1032b800a6e79b4b186805f091fa06460f46dff81b
:1032c80078a2baf8040005f089fa02460b4630469f
:1032d800394605f015fc06460f46964b186805f06a
:1032e8007dfa80468946baf80a0005f077fa024660
:1032f8000b464046494605f003fc804689467fe771
:10330800874b186805f06afa06460f46dff82882e8
:10331800b8f8040005f062fa02460b463046394612
:1033280005f0eefb06460f46b8f80a0005f056fa17
:10333800804689467f4b186805f050fa02460b46ce
:103348004046494605f0dcfb8046894658e7754b00
:10335800186805f043fa02460b466da1d1e9000151
:1033680005f0cefb06460f46724b186805f036fa94
:1033780069a3d3e9002305f0c3fb804689463fe7ec
:10338800dff8b481b8f8100005f028fa06460f46b1
:10339800644b186805f022fa02460b463046394657
:1033a80005f0aefb06460f46b8f80a0005f016fa17
:1033b800804689465f4b186805f010fa02460b46ae
:1033c8004046494605f09cfb8046894618e7dff8e9
:1033d80068a1baf8100005f001fa06460f46514bed
:1033e800186805f0fbf902460b463046394605f0e9
:1033f80087fb06460f464a4b186805f0eff98046ea
:103408008946baf8040005f0e9f902460b46404639
:10341800494605f075fb80468946f1e6dff81881d4
:10342800b8f8100005f0daf906460f463d4b186863
:1034380005f0d4f902460b463046394605f060fbe4
:1034480006460f46b8f8040005f0c8f980468946d4
:10345800334b186805f0c2f902460b464046494608
:1034680005f04efb80468946cae62e4b186805f0e3
:10347800b5f906460f46dff8c0a0baf8100005f007
:10348800adf902460b463046394605f039fb06468b
:103498000f46284b186805f0a1f980468946baf806
:1034a8000a0005f09bf902460b464046494605f0de
:1034b80027fb80468946a3e61a4b186805f08ef963
:1034c80006460f46dff87080b8f8100005f086f958
:1034d80002460b463046394605f012fb06460f46b3
:1034e800b8f80a0005f07af980468946114b186841
:1034f80005f074f902460b464046494605f000fbc4
:10350800804689467ce600bf12143fc6dca54c40c5
:103518000000000040cdd440000000008030d440be
:10352800cc7c002078800020000060402b810020a7
:10353800a050002070800020a4510020c24b1868c1
:1035480005f04cf906460f46dff808a3baf8100054
:1035580005f044f902460b463046394605f0d0fae4
:1035680006460f46b94b186805f038f98046894673
:10357800baf8040005f032f902460b4640464946bf
:1035880005f0befa804689463ae6af4b186805f062
:1035980025f906460f46dff8bc82b8f8100005f09a
:1035a8001df902460b463046394605f0a9fa06468b
:1035b8000f46b8f8040005f011f980468946a34b78
:1035c800186805f00bf902460b464046494605f0d7
:1035d80097fa8046894613e69d4b186805f0fef871
:1035e80006460f46dff86ca2baf80a0005f0f6f8ae
:1035f80002460b463046394605f082fa06460f4623
:10360800914b186805f0eaf880468946baf8100028
:1036180005f0e4f802460b464046494605f070fac4
:1036280080468946ece58a4b186805f0d7f80646c7
:103638000f46dff82082b8f80a0005f0cff80246f6
:103648000b463046394605f05bfa06460f46b8f891
:10365800100005f0c3f8804689467b4b186805f0d2
:10366800bdf802460b464046494605f049fa8046f1
:103678008946c5e5764b186805f0b0f806460f464a
:10368800dff8d0a1baf80a0005f0a8f802460b4600
:103698003046394605f034fa06460f466b4b186833
:1036a80005f09cf880468946baf8040005f096f8bb
:1036b80002460b464046494605f022fa80468946ae
:1036c8009ee5634b186805f089f806460f46dff853
:1036d8008481b8f80a0005f081f802460b463046a6
:1036e800394605f00dfa06460f46b8f8040005f00d
:1036f80075f880468946554b186805f06ff80246fc
:103708000b464046494605f0fbf98046894677e571
:10371800dff840a1baf80a0005f060f806460f463f
:103728004b4b186805f05af802460b4630463946a6
:1037380005f0e6f906460f46434b186805f04ef8c3
:1037480080468946baf8100005f048f802460b464c
:103758004046494605f0d4f98046894650e5dff8e9
:10376800f480b8f80a0005f039f806460f46384bd9
:10377800186805f033f802460b463046394605f01e
:10378800bff906460f46b8f8100005f027f880463e
:1037980089462d4b186805f021f802460b4640462d
:1037a800494605f0adf98046894629e5dff8a4a029
:1037b800baf80a0005f012f806460f46244b1868b6
:1037c80005f00cf802460b463046394605f098f9e4
:1037d80006460f461d4b186805f000f880468946d6
:1037e800baf8040004f0faff02460b464046494680
:1037f80005f086f98046894602e5dff85880b8f872
:103808000a0004f0ebff06460f46114b186804f057
:10381800e5ff02460b463046394605f071f9064683
:103828000f46b8f8040004f0d9ff80468946074bd4
:10383800186804f0d3ff02460b464046494605f097
:103848005ff980468946dbe478800020cc7c002044
:0838580070800020a451002043
:020000040000fa
:10386000b47f00205400000000000000667c0020af
:1038700002000000000000005c8000200800000042
:1038800000000000388000200c0000000000000054
:10389000837d00200100000000000000a87e0020c1
:1038a0002c00000000000000487e002030000000d6
:1038b0000000000008750020000400000000000067
:1038c000d47d00204000000000000000787e002031
:1038d0003000000000000000467e002001000000d3
:1038e00000000000cc7c002004000000000000006c
:1038f0006c8000201400000000000000477e0020c3
:1039000001000000000000004e80002002000000c6
:10391000000000005a8000200100000000000000ac
:103920005b80002001000000000000000575002001
:103930000200000000000000808000200400000061
:1039400000000000077500200100000000000000da
:10395000d18000200300000000000000d48000207f
:103960000200000000000000087b00205e01000053
:1039700000000000d68000200100000000000000d0
:10398000848000200400000000000000d780002098
:10399000020000000000000008800020100000006d
:1039a00000000000d47e0020200000000000000085
:1039b000d98000200100000000000000da80002013
:1039c0000300000000000000f47e00202000000042
:1039d000000000001880002010000000000000001f
:1039e000dd8000200100000000000000de800020db
:1039f0000200000000000000e08000200200000043
:103a000000000000e2800020020000000000000032
:103a1000307d00205300000000000000e480002002
:103a20000100000000000000888000200400000069
:103a300000000000e5800020010000000000000000
:103a40008c8000200400000000000000e6800020c0
:103a50000100000000000000e780002001000000dd
:103a600000000000e88000200200000000000000cc
:103a7000d07c002060000000000000006480002076
:103a80000800000000000000ea80002001000000a3
:103a900000000000687c00206400000000000000be
:103aa000eb8000200200000000000000147e0020d7
:103ab0003200000000000000ed8000200200000045
:103ac00000000000ef800020010000000000000066
:103ad000147f00202000000000000000f080002083
:103ae00001000000000000002880002010000000fd
:103af00000000000f1800020010000000000000034
:103b0000347f002040000000000000009080002072
:103b10000800000000000000f2800020010000000a
:103b200000000000747f0020200000000000000062
:103b3000947f00202000000000000000f38000209f
:103b40000100000000000000f480002001000000df
:103b500000000000f58000200600000000000000ca
:103b60009880002004000000000000009c800020dd
:103b70000400000000000000fb80002001000000a5
:103b800000000000a08000200400000000000000f1
:103b9000fc8000200100000000000000fd800020eb
:103ba0000100000000000000fe8000200200000074
:103bb0000000000000810020010000000000000063
:103bc00001810020010000000000000002810020af
:103bd0000300000000000000058100200300000039
:103be000000000000881002001000000000000002b
:103bf000448000200a00000000000000d080002067
:103c00000100000000000000508000200a000000b9
:103c100000000000098100200100000000000000f9
:103c2000a48000200400000000000000a880002004
:103c300008000000000000000a81002001000000d0
:103c400000000000b0800020040000000000000020
:103c50000b81002002000000000000000d81002008
:103c60000100000000000000b480002004000000fb
:103c7000000000000e810020010000000000000094
:103c8000b880002004000000000000000f81002028
:103c90000100000000000000288100200100000059
:103ca0000100000007000000298100200100000041
:103cb0000100000001000000188100200400000045
:103cc000010000001e0000002a8100200100000009
:103cd0000100000005000000168100200200000025
:103ce000010000001e0000001c81002004000000f4
:103cf00001000000a08c00002b81002001000000ca
:103d0000010000008000000020810020040000006d
:103d1000010000001e000000100000209052000072
:103d2000000000002c8100200100000001000000c4
:103d300001000000a0520020580200000000000016
:103d4000108100200400000000000000bc80002062
:103d500008000000000000001481002001000000a5
:103d600000000000087900200002000000000000b0
:103d7000f85400200d20000000000000c480002046
:103d80000400000000000000158100200100000078
:103d9000000000002d810020010000000100000053
:103da00051000000248100200400000001000000f8
:103db00009000000c880002004000000000000008e
:103dc000847d00205000000000000000cc80002016
:103dd00004000000000000000000000000000000df
:020000040000fa
:103de000f8b5ad4b1b78112b1cd8dfe813f012008f
:103df0001c003e00480052005c0066009201d500a5
:103e0000ec001301290196013f01ac0177018b0100
:103e1000c2012c22a1494ff4817003f0d7fb9e4bc5
:103e200001221a70f8bd9d4b1b781b2b09d09c4baf
:103e30001b788bb1013b9a4a1370974b00221a7082
:103e4000f0e70020974b1870fc22974903f0f8fb2d
:103e5000914b02221a70e5e7924a137843f001036e
:103e600013708d4b06221a70dce72e228f4940f228
:103e70006f1003f0e5fb884b03221a70d2e716227d
:103e80008b4940f24b1003f0dbfb834b04221a708a
:103e9000c8e7102287494ff4b07003f0d1fb7e4b86
:103ea00005221a70bee7202283494ff4977003f071
:103eb00001fc794b06221a70b4e704f03ffc064679
:103ec0007e4b187004f048fc05467d4b187004f0da
:103ed00027fc7c4b187004f069fc07467a4b18707d
:103ee00004f048fc0446794b187004f051fc784b00
:103ef0001870714bdb699f4204d06a4a137843f013
:103f000008031370684b93f8fa309e4204d0654a58
:103f1000137843f004031370644b93f82c309d42e4
:103f200004d0604a137843f040031370604b9b8abf
:103f3000a34204d05b4a137843f0100313705d4b27
:103f4000db89834219d0574b1c7844f020041c7045
:103f5000524b93f82b5004f0e3fb854203d0514bb6
:103f60001c7844f0020464f07f044e4b1c7000f097
:103f700043f9494b08221a7054e7484b93f82b40f9
:103f800004f0cefb8442ead1464b1c78002cead1e7
:103f9000414b10221a7045e704f046f904f0c0fbcb
:103fa0003e4981f82b002c224ff4817003f0e4ff8e
:103fb0003c4b1b781bb1384b09221a7032e7364b49
:103fc00011221a702ee703f02dfd00283ff42aafce
:103fd00004f02af904f0b2fb384b187004f0aefb81
:103fe0003149a1f8fa00fc22002003f04dfd394bc5
:103ff00018702c4b1b7813b9374b1b6833b1364bf9
:1040000000221a60244b0a221a700be7224b11225d
:104010001a7007e703f006fd00283ff403af04f031
:1040200003f904f099fb214988852e2240f26f1094
:1040300003f02afd274b1870174b0b221a70f1e67c
:1040400003f0f0fc00283ff4edae04f0edf804f0ce
:1040500091fb17498882162240f24b1003f014fda1
:104060001c4b18700c4b0d221a70dbe603f0dafcc7
:1040700000283ff4d7ae04f0d7f804f089fb0d49cf
:10408000c88110224ff4b07003f0fefc114b187081
:10409000014b0f221a70c5e6d9800020f451002090
:1040a0002a810020da800020a0500020a4510020a6
:1040b00094280020ac28002074280020f8800020dc
:1040c000f9800020f7800020fa800020f580002091
:1040d000f6800020dc800020a480002003f0a2fcf9
:1040e00000283ff49fae04f09ff804f05ffb3949cd
:1040f000c86120224ff4977002f0fcff364b10226b
:104100001a708fe6354b00221a70334b11221a7049
:1041100088e6314b04221a7084e603f083fc002801
:104120003ff480ae04f080f804f024fb2c49888230
:10413000162240f24b1003f0a7fc2a4b1870264bb6
:1041400011221a706ee603f06dfc00283ff46aae8f
:1041500004f06af804f01cfb2349c88110224ff4d4
:10416000b07003f091fc1f4b18701b4b11221a709a
:1041700058e61e4bfa22a3f86020cd22a3f8642053
:1041800000211b4a82f821105a22a3f88620a3f8a6
:1041900088201e22a3f88c20a3f8b820a3f8b6200c
:1041a00019814ff496725a843222a3f8e0206422d7
:1041b0001a841422a3f8e6204ff4fa72a3f8e2203e
:1041c0000c4b1b78002b7ff42dae0a4b01221a708a
:1041d00028e600bf74280020d98000200b81002031
:1041e00094280020dc800020ac280020a050002073
:0841f000f4510020e5800020dd
:020000040000fa
:1041f8002de9f04fe04b1b78013bdbb21a2b0ad9b3
:10420800de4b00221a605a6043f239019960da6085
:104218001a615a619a61d84b1b221a7000225a708f
:104228009a70da701a71042159719a71da711a72d6
:104238005a7201249c72da721a7307215973052580
:104248009d73da73672018744ff0370058749a74a6
:10425800da741a755a759a75da751c765c769c76d6
:10426800dc761977782159770a269e771420d87733
:1042780083f8202083f82120642183f822106ff02e
:104288004b0783f82370282783f8247083f82500c8
:1042980083f8262083f8272083f8284083f82940cc
:1042a8000f2483f82a40b64b02271f804ff4167c50
:1042b800a3f802c09a804ff00304dc804ff008098d
:1042c800a3f808905f814ff47a749c814ff461746d
:1042d800dc811a8258829e823226de82a3f81890e8
:1042e8004ff01e0ea3f81ae09a8340f2a114dc8363
:1042f8004ff09608a3f820804ff496745c844ff032
:104308008708a3f82480dc844ff0c408a3f8288029
:104318005a859a854ff02c08a3f82e801e864ff0f8
:104328005e08a3f832804ff0a808a3f834804ff055
:104338004708a3f836801a875a879a87da87a3f836
:104348004020a3f84220a3f84420a3f84620a3f86d
:104358004820a3f84a20a3f84c20a3f84e20a3f83d
:104368005020a3f85220a3f85420a3f85610a3f81d
:104378005800a3f85a10a3f85c704ff4bd78a3f85e
:104388005e804ff43478a3f86080a3f8626040f24e
:104398005328a3f86480a3f866004ff01508a3f823
:1043a80068804ff4cb78a3f86a80a3f86c20a3f850
:1043b8006e20a3f87020a3f87220a3f87420a3f845
:1043c8007620a3f87820a3f87a20a3f87c20a3f815
:1043d8007e20a3f88020a3f88220a3f88420a3f8e5
:1043e80086e0a3f888404ff0c80ea3f88ae04ff49f
:1043f800af78a3f88c80a3f88e70a3f89050a3f838
:104408009220a3f8942041f2de27a3f8967043f295
:10441800bc4aa3f898a041f29417a3f89a7041f601
:104428001468a3f89c804ff4fa77a3f89e70a3f859
:10443800a02041f2a86ba3f8a2b040f2523ba3f827
:10444800a4b0a3f8a620a3f8a820a3f8aa10a3f85c
:10445800ac204ff0b40ba3f8aeb0a3f8b020a3f88b
:10446800b2204ff07b0ba3f8b4b0a3f8b640a3f882
:10447800b8104ff0500ba3f8bab0a3f8bc704ff0c7
:10448800030ba3f8beb041f2fc2ba3f8c0b0a3f80d
:10449800c220a3f8c4a041f2941aa3f8c6a0a3f8b6
:1044a800c880a3f8ca7041f25048a3f8cc80a3f89a
:1044b800ce20a3f8d070a3f8d220a3f8d400a3f894
:1044c800d6e04ff49660a3f8d800a3f8da202420a9
:1044d800a3f8dc00a3f8de10a3f8e0c040f2dc503b
:1044e800a3f8e200a3f8e450a3f8e6604ff09608ba
:1044f800a3f8e880a3f8eac040f6b830a3f8ec00c7
:10450800a3f8ee10a3f8f010a3f8f240a3f8f450c3
:104518004ff4fa61a3f8f6101121a3f8f810194b1b
:104528001a805a8045f2ea019980da801a8145f2a8
:10453800730159819a81da8145f2e231198240f298
:10454800a15159828b2199824921d982a3f81890c7
:104558005a839a83da831a845a844ff037019984ec
:10456800da841a855a85084b1a605a609a60da60ac
:104578001a619a820ae000bff451002074280020d2
:10458800a0500020a451002094280020044b1a6059
:104598005a609a60da601a619a82bde8f08f00bfab
:0445a800ac2800201b
:020000040000fa
:1045ac0080b51027a24b1f70002003f051fd03f0c3
:1045bc0093fda04c4ff48053a3610823a361002109
:1045cc009d4804f075fa00219c4804f06bfa9c4855
:1045dc0002f0e2fb9b4802f08dfb00219a4804f0ac
:1045ec004ffa4ff00066a6614ff40065c4f898507e
:1045fc004ff48063a36004f021f84ff00108934b53
:10460c0083f800800023924a1370924a1370924be5
:10461c0004221a704ff08043c4f8983004f01af951
:10462c001c2004f0a5f98d4b83f8008004f0faf8f7
:10463c0004f0e0f86661c4f894504ff40053a361a1
:10464c002023c4f898304ff40043c4f884304ff45e
:10465c000013a361c4f898704ff00043c4f898306d
:10466c000a217f4803f0bafd0a217e4803f096fd2b
:10467c00a661c4f898507c4c7c4d7d4f774e5ce025
:10468c0001f0b0fe04f0daf803f05cff0028fbd078
:10469c007878fef773fddff828820122d8f8001035
:1046ac0004f00cfac0b2c8f8000002f00dfc02f0e5
:1046bc001ffe03f00dff00284fd06e4b1b7843b14b
:1046cc006d4b1b78002b4bd101236b4a1370694a3d
:1046dc001370fff77ffb01f025fd684b1b68002b67
:1046ec0047d0013b654a1360654b1b7813b1013b06
:1046fc00634a1370634b1b6813b1013b614a13602f
:10470c00614b1b6813b1013b5f4a136002f078f8f0
:10471c000a232b7004f0e6f85c4b1a7802f0a00325
:10472c00a02b51d0434b402199612021996110213c
:10473c00996133781344554a13702378002bfcd0bd
:10474c00002323701c2004f013f9fef763f92b7877
:10475c00002b95d0013b2b70efe702f089fdace705
:10476c0003f0b6fe0028b4d1fdf784fd01f012ff72
:10477c00afe7424b48f6a0421a60454a53680133f2
:10478c005360444ad3880133d380434a138801339e
:10479c001380424a137801331370414b1b7813f08a
:1047ac00400f02d113f0800f03d0394a1368013344
:1047bc0013603c4b1b68002b14bf09220b223a4b95
:1047cc001a7003f0abfb8fe7384b1b7863b1194bb6
:1047dc004021596120219961354b1b78002ba8d0c1
:1047ec00144b10215961a4e7324b1b78c3b9304be1
:1047fc001978314b1878314b1b780b43034303d199
:10480c000c4b2021596194e70a4b4ff0100cc3f864
:10481c0014c040b900298cd0064b4021596188e75f
:10482c00044b10215961034b2021596181e700bfd2
:10483c000a810020008000410d7800009d77000067
:10484c002c27002050520020a5890000067500205e
:10485c00057500205b800020288100202981002024
:10486c005080002044800020fb8000200d8100201f
:10487c00f45100200c8100200b8100201c810020b1
:10488c00fe800020a0800020b0800020fd80002051
:10489c007428002094280020ac280020ed800020f3
:1048ac00de800020a4800020d9800020d28000204f
:1048bc00d3800020da800020db800020ec800020f8
:0448cc001880002030
:020000040000fa
:1048d0002de9f04184b09d4b1a68093a9c4b1b7a34
:1048e000a03b062b00f22d81dfe813f00700350016
:1048f000a700dd00ec002b01fa00082a1dd1954825
:1049000004f026f80446f0b1934804f021f80219a7
:1049100090421ad2b0f5005f19d3b2f5801f18d8b3
:1049200040ea0403c3f30c030bb1512006e08b4ba8
:1049300018608b4b1a60502000e0512003f0fcff00
:1049400004b0bde8f0815120f8e75120f6e751208e
:10495000f4e75120f2e7834b5121197042f204032e
:104960009a4207d07f4be1221a707e4b187803f0f1
:10497000e3ffe5e7794b1c6874b1774803f0e8ff83
:104980000546a04208d300f50053754a12689342c9
:1049900002d8c0f30c041cb1724be2221a70e4e797
:1049a00004f03af803f0e0ff0028fbd1284603f0ba
:1049b000a9fe48b303f0d8ff0028fbd103f034fe72
:1049c00010f07e0024d12e46624f7f1b4ff40078fa
:1049d000654d4246b919284603f0f6fe3146284691
:1049e00003f0c2fbd8b100bf03f0beff0028fbd12b
:1049f00003f01afe10f07e0018d1013406f500769f
:104a0000102ce5d15020b2e7564be3221a70ace7e8
:104a100000f01f0363f07f03524a1370a5e704f010
:104a20000f0363f03f034f4a13709ee700f01f032c
:104a300063f05f034b4a137097e7042a2bd1474b6f
:104a40001e6866b3464b1c68a6422ad2424803f051
:104a50007fff0746a4eb06084ff0ff34002502e075
:104a60000135a84511d0ab5d5c4008223f4944f3b5
:104a700000030b4083ea5404013af8d1c5f30b0359
:104a8000002bedd103f034ffeae7e443a7420cbf6b
:104a90005320542000e0542003f04eff50e75420f0
:104aa000fae75420f8e74ab9502003f045ff304bad
:104ab00001221a702f4b00221a7041e7522003f096
:104ac0003bff3de742b9502003f036ff0123284a5f
:104ad0001370284a137033e7522003f02dff2fe79d
:104ae0005abb50238df8003032238df80130224b11
:104af0005b8a83f01003c3f300138df802300323a5
:104b00008df8033001228df8042004238df8053040
:104b100020238df8063000238df807308df80830fb
:104b20008df809208df80a308df80b208df80c30a7
:104b30000d21684602f0f8fd02e7522003f0fcfe6a
:104b4000fee6522003f0f8fefae600bf24810020c2
:104b5000f85400200555002001550020bc8000209d
:104b6000c08000202d810020087900202083b8ed2e
:0c4b700013810020128100200040004151
:020000040000fa
:104b7c00964b1b78002b00f02781954a1278002a5f
:104b8c0000f02281002293490a6091490a70924aee
:104b9c00fa21117091490a7801320a70904ad15c5d
:104bac00a1f14202152a1cd8dfe812f002011b0009
:104bbc00160091001b001b001b001b001b001b00a0
:104bcc0042001b001b001b001b001b001b006a008b
:104bdc001b001b001b009c00814a1a4492785b2a24
:104bec0003d07a4b00221a7070477d4a1a44d27a4d
:104bfc005d2af6d17b4a442111707b4801707849bb
:104c0c000b44597851705b219170d978d170197916
:104c1c0011715979517199799171d979d171197a37
:104c2c001172597a51729b7a93725d23d372d8e7c1
:104c3c006b4a1a4492785b2ad3d1694a1a44d27ac5
:104c4c005d2aced1674a4c211170674801706449c6
:104c5c000b44597851705b219170d978d1701979c6
:104c6c0011715979517199799171d979d171197ae7
:104c7c001172597a51729b7a93725d23d372b0e799
:104c8c00574a1a4492785b2aabd1554a1a44d27ac5
:104c9c005d2a2dd1534a11705348017050490b4471
:104cac00597851705b219170d978d1701979117143
:104cbc005979517199799171d979d171197a117296
:104ccc00597a51729b7a93725d23d37289e7444a65
:104cdc001a4492785b2a84d1414a1a44d27a5d2aca
:104cec0006d1d7e73e4a1a4492785b2a7ff479af13
:104cfc003b4a1a44927a5d2a3fd0394a1a44527878
:104d0c004c2a7ff46eaf364a1a44d27a5d2a7ff46d
:104d1c0068af334a1a44d278532a7ff462af304ad0
:104d2c001a441279412a7ff45caf2d4a1a44527905
:104d3c00492a7ff456af2a4a1a4492794c2a7ff4b6
:104d4c0050af274a1a44d2794f2a7ff44aaf244aeb
:104d5c001a44127a542a7ff444af214a1a44527ae4
:104d6c00412a7ff43eaf1e4a13449b7a212b7ff4d9
:104d7c0038af1e4b01221a7033e71a4a11701a48c9
:104d8c00017017490b44597851705b219170d97897
:104d9c00d170197911715979517199799171d979b8
:104dac00d171197a11725b7a53725d23937218e781
:104dbc000b4a1a4452784c2a7ff413af084a1a440f
:104dcc0092785b2a9fd00ce7704700bfd5800020fb
:104ddc00d4800020808000205a800020d6800020c3
:104dec00087b0020d8460020077500201081002089
:020000040000fa
:104dfc00f8b57e4b24221a7044225a7030229a70d5
:104e0c005b22da707a4e32781a7172785a71b278f3
:104e1c009a71f278da7132791a7272795a72754d16
:104e2c002a789a726a78da72aa781a73ea785a73bc
:104e3c002a799a736a79da736f4802781a7442780d
:104e4c005a7482789a74c278da7402791a75427933
:104e5c005a7582799a7569490a78da754a781a7698
:104e6c008a785a76ca789a760a79da764a791a77eb
:104e7c008a795a77624a1468624fa7fb0424e408c3
:104e8c009c77614c94f818c0604a52f82c20a7fb10
:104e9c000272d208da77a77a5d4a52f8272083f893
:104eac0020205c4a127883f821205b4a127883f820
:104ebc0022205a4a127883f82320594a127883f810
:104ecc002420e77a574a52f8272083f82520564a9f
:104edc00127883f82620554a127883f82720544af2
:104eec00127883f82820534a127883f82920524ae2
:104efc00127883f82a20514a127883f82b20277dc8
:104f0c004f4a52f8272083f82c20e77d4d4a52f85f
:104f1c00272083f82d204c4a127883f82e204b4af8
:104f2c00127883f82f20ff2283f8302083f8312069
:104f3c0083f8322083f8332083f83420f68883f802
:104f4c003560360a83f83660ed8883f837502d0ac1
:104f5c0083f83850008983f83900000a83f83a0046
:104f6c00098983f83b10090a83f83c103849096811
:104f7c0083f83d10090a83f83e10607e354951f8dc
:104f8c00201083f83f10090a83f840102079324929
:104f9c0051f8201083f84110090a83f8421083f865
:104fac00432083f8442083f8452083f8462083f877
:104fbc00472083f8482083f8492083f84a20d91cdd
:104fcc004a33002211f8010f0244d2b29942f9d1ae
:104fdc00224b4b211960054880f84b205d2380f84b
:104fec004c304d2103f0aef9f8bd00bf78480020dd
:104ffc004452002094500020100000202027002054
:10500c00b4800020cdccccccf4510020347f0020d7
:10501c00f47e0020f2800020de800020df80002063
:10502c00ef80002018800020dd800020f18000201f
:10503c00f0800020e8800020e9800020ee80002035
:10504c00147f002028800020e1800020e0800020d8
:10505c00b8800020547f0020088000209880002019
:020000040000fa
:10506c0030b591ea030f00f18280841a71eb030cc6
:10507c0005d2121953eb0c03001b71eb0c0140f21f
:10508c00000ccff6e07c1cea430f52d0bceb410f76
:10509c005fd90c0da4eb135e5ff0010c6cf31f5188
:1050ac006cf31f53def1200c2ad303fa0cf54019d4
:1050bc0041f1000122fa0ef5401923fa0ef569416f
:1050cc0012fa0cf2cd0208d349085fea30005fea0d
:1050dc00320228bf42f001020134013c5fea500c5d
:1050ec0072f1004250f1000051eb04514ff40013e7
:1050fc0013eb410f38bf30bd6ff31301002030bdef
:10510c00bef1200ebef1200f1ed223fa0ef540196f
:10511c0041f10001cef1200c124218bf012203fa1a
:10512c000cf52a43cee711ea5c0f04bf00200021e6
:10513c0030bd1cea410f04bf01f00041002030bd1e
:10514c0001f00041002030bd21f4801101eb04512d
:10515c0030bd004218bf41f00101bceb410f08bf4c
:10516c0030bd4ff0fe4141f47801002030bd83f09a
:10517c000043841a71eb030e07d28ef0004e001b15
:10518c0071eb0e01121953eb0e0340f2000ccff62b
:10519c00e07c1cea430fc6d0bceb410f72d90c0d5e
:1051ac00a4eb135ec90241ea5051c00241f0004128
:1051bc00db0243ea5253d20243f00043def1200cef
:1051cc0041d312fa0cf522fa0ef203fa0cf542ea6c
:1051dc00050218bf42f0010223fa0ef3801a99411e
:1051ec00e30ac4f30a0411f0404f03d418d0013c75
:1051fc0040004941013c23d44205c00a40ea4150d9
:10520c00c90a51eac3715fea500c72f1004250f1c5
:10521c00000051eb045130bd01002fd00020203c88
:10522c000029f9d0b1fa81fcdcf1200e11fa0cf155
:10523c0030fa0ef510fa0cf02943a4eb0c04d9e764
:10524c000020d90730bdaef1200ebef1200f0dd2db
:10525c00cef1200c03fa0cf533fa0ef32a4318bfe7
:10526c0043f00103c01a61f10001b9e721f00041dc
:10527c00c00a40ea4150c90a01eb045130bd00207c
:10528c00002130bd004218bf41f00101bceb410fc1
:0e529c007ff467afbceb430f3ff463af30bd50
:020000040000fa
:1052aa00f0b581ea030e0ef0004e40f20007cff689
:1052ba00e07717ea41051ebf95ea070f17ea43048c
:1052ca0094ea070f00f0c5806d0da5eb545707f55a
:1052da0080674ff0004646eac12444ea5054c002af
:1052ea0046eac32343ea5253d202801a9c4104d2ab
:1052fa000018644180185c41013f5b084fea3202a2
:10530a000025002140f001004ff0070604e0801a52
:10531a009c4136d340416441801a9c4136d3404176
:10532a006441801a9c4136d340416441801a9c41b1
:10533a0036d340416441801a9c4136d3404164418e
:10534a00013e17d0801a9c4136d340416441801aed
:10535a009c4136d340416441801a9c4136d3404136
:10536a006441090201eb156190ea052520f0ff006e
:10537a004540cce7801a9c4156d335e080185c4101
:10538a00c8d20018644180185c41c8d20018644130
:10539a0080185c41c8d20018644180185c41c8d2a8
:1053aa000018644180185c41c8d200186441013e6b
:1053ba0017d080185c41c8d20018644180185c413b
:1053ca00c8d20018644180185c41c8d200186441f0
:1053da00090201eb156190ea052520f0ff0045401e
:1053ea00cce780185c411fd3420918bf44f001047e
:1053fa00490101ebd56100f01f0000eb451021f4d3
:10540a00801141ea0e01013041f10001244208bf36
:10541a0020f00100b7f5006f3eda013f49dd01ebec
:10542a000751bde8f0407047490101ebd56100f032
:10543a001f0000eb451021f4801141ea0e01b7f577
:10544a00006f29da013f34dd01eb0751bde8f04076
:10545a007047004218bf41f00101124218bf43f0e1
:10546a000103b7eb410f2cbfb7eb430f1ce0b7ebbf
:10547a00410f04bfb7eb430f16e017ea410f04bf11
:10548a0017ea430f10e017ea410f12d017ea430f49
:10549a0002d0b7eb430f0cd04ef0fe4141f470013d
:1054aa000020bde8f04070474ff0fe4141f478011a
:0654ba00f6e77146f4e77d
:020000040000fa
:1054c00008b5774b24221a7045225a7031229a70ff
:1054d0005b22da70734a9188197111895971918927
:1054e0009971918bd971d18b1972918c5972118ddf
:1054f0009972518dd972918d1973d18d5973118e05
:105500009973518ed973918e1974d18e5974118fec
:105510009974518fd974918f1975d18f5975b2f8cb
:1055200040109975b2f84210d975b2f84410197646
:10553000b2f846105976b2f848109976b2f84a1087
:10554000d976b2f84c101977b2f84e105977b2f8f4
:1055500050109977b2f85210d977b2f8541083f8f6
:105560002010b2f85e1083f82110b2f8601083f8b2
:105570002210b2f8621083f82310b2f8641083f896
:105580002410b2f8681083f82510b2f86a1083f876
:105590002610b2f86c1083f82710b2f86e1083f85a
:1055a0002810b2f8701083f82910b2f8721083f83e
:1055b0002a10b2f8741083f82b10b2f8761083f822
:1055c0002c10b2f8781083f82d10b2f87a1083f806
:1055d0002e10b2f87c1083f82f10b2f87e1083f8ea
:1055e0003010b2f8801083f83110b2f8a01083f8b0
:1055f0003210b2f8a21083f83310b2f8a41083f876
:105600003410b2f8a61083f83510b2f8a81083f859
:105610003610b2f8ae1083f83710b2f8b01083f835
:105620003810b2f8b21083f83910b2f8cc1083f801
:105630003a10b2f8ce1083f83b10b2f8d01083f8cd
:105640003c10b2f8d21083f83d10b2f8d41083f8b1
:105650003e10b2f8dc1083f83f10b2f8de1083f889
:105660004010b2f8ee1083f84110b2f8f22083f83f
:105670004220d91c4233002211f8010f0244d2b259
:105680009942f9d1084b43211960054880f843201d
:105690005d2380f84430452102f05afe08bd00bf6a
:0c56a00078480020a050002098800020d6
:020000040000fa
:0456ac000020704723
:020000040000fa
:1056b0002de9f04759ec108b594f18eb080029f0f1
:1056c000004343eb030100268f4208bf864282b0ad
:1056d000c0f0848053490020994208bf404510ee35
:1056e000102aca467dd310ee104a1d460127002617
:1056f00043a1d1e900019042994126da42a3d3e9be
:1057000000232046294600f0f7fb0022464b03f019
:10571000fbf90022444b03f0f7f922462b46fff732
:10572000a5fc3ba3d3e900238046894620462946b1
:10573000fff79cfc02460b4640464946fff7b5fd85
:105740003e4604460d4602460b460ff2cc09d9e907
:10575000008923f00041894508bf904527d22246a1
:105760002b462046294600f0c7fb02460b468046e2
:1057700089462e48042101f009f94246cde900018d
:105780004b4604212a4801f0f7fc02460b46dde9ae
:105790000001fff78afd22462b4600f0adfb0246d2
:1057a0000b4620462946fff761fc04460d46012eb4
:1057b00022dd05f100431d461e4b03ebc6062046c5
:1057c0002946d6e90023fff751fc04460d460af0ae
:1057d000004a22468aea050343ec102b02b0bde8da
:1057e000f08700200f49fff760fd032704460d46b0
:1057f00002460b4602267be7002ee8d0dce700bf1e
:1058000058cd9e5e1426d13f5499b0d0f56ce73f39
:10581000aa4c58e87ab6fb3fbbbdd7d9df7cdb3d4d
:105820000000e0ff0000f03f0000e03fd07b000000
:08583000f07b0000b07b0000da
:020000040000fa
:1058380030b45c4c247f002c40f0ad80054604f069
:10584800ff0000294cd0002d4ad0574c646804f062
:105858000704012c61d0534805604260002444616c
:10586800846104614f488160002a5cd04d4ad3604e
:105878004c4a012111774c4a127e12f0040f05d0d0
:10588800494a916a117e11f0040ffad1464a518ba8
:1058980041f004015183117e41f0800111764149a4
:1058a8008a68c968914203d93e48c168891a01616a
:1058b8003d49496811f0070f45d13a498969914234
:1058c80035d2384a116808783749886291690131b8
:1058d8009161002b5bd0344b04229a7501205be068
:1058e800002b59d0002a57d02f4c646804f00704c5
:1058f800012c0cd02b48056042600024446184616f
:105908000461002daed1274900208860ace700294a
:1059180044d113f0010fedd03ee011f0010f3bd15f
:10592800002be7d0f5e71f4a0021d160a0e71d4a08
:105938001269002acdd01c4aff21916219490a69cf
:10594800013a0a61c5e7174a9168490891601169e7
:1059580049081161d1684908d160916892698a4201
:1059680008d2104a116808880f4988629169013184
:105978009161aee70b4a1269002aaad00a4a4ff68b
:10598800ff71916207490a69013a0a61a1e701209a
:10599800054b987500e0002030bc704711f0010fee
:0c59a800b7d0f9e7a87e002000300040d6
:020000040000fa
:1059b40010b4534b534a1a60534a1a61002283f8b5
:1059c400402083f84120012183f8421083f84320ca
:1059d40083f8442083f8452083f8462083f8481050
:1059e40083f8491083f84a2083f84b1083f84c203d
:1059f40083f84d2083f84e2083f84f2083f850100d
:105a040083f8511083f8521083f8531083f854200c
:105a140083f8552083f8561083f8571083f85810ec
:105a240083f8591083f85b2083f8302083f8311011
:105a340083f8322083f83320222083f83400202492
:105a440083f8354083f8362083f8372083f838000c
:105a540083f8390083f83a2083f83b00882483f8dc
:105a64003c4083f83d20294cc3f88040a4f67104df
:105a7400c3f89040032483f8c04083f8c11083f82e
:105a8400c21083f8c31083f8c42083f8c52083f8b8
:105a9400c62083f8c71083f8c81083f8c91083f8a8
:105aa400cb2083f8cc1083f8cd10022483f8ce40a9
:105ab40083f8cf4083f8d01083f8d11083f8d62030
:105ac40083f8d72083f8de20112183f8b01083f8ff
:105ad400b11083f8b220102483f8b34083f8b410d3
:105ae40083f8b520772183f8b61083f8b72083f8bc
:105af400b80083f8bb2083f8bf205df8044b7047df
:105b04000080004178343008700010007108c040f3
:020000040000fa
:105b14004e4b42f206625a611a46136913f0010fa2
:105b2400fbd04b4b42f20e229a821a46d36813f0f2
:105b3400010ffbd0464b05221a74a3f540630122e2
:105b44005a711a46d37813f0010ffbd0414b424ae5
:105b54001a621a46536813f0040ffbd13d4b3e4ab8
:105b64005a621a46536813f0080ffbd1394b3b4a6b
:105b7400da621a46536813f0200ffbd1354b4022ea
:105b8400c3f89c201a4600bfd2f89c3013f0400f93
:105b9400fad0304b4022c3f8a0201a46d2f8a030e5
:105ba40013f0400ffad02b4b4022c3f8e0201a46e2
:105bb400d2f8e03013f0400ffad0264b4022c3f85d
:105bc400ec201a46d2f8ec3013f0400ffad0214bf7
:105bd4004122c3f8f0201a46d2f8f03013f0400ff7
:105be400fad01c4b4022c3f80c211a46d2f80c31cf
:105bf40013f0400ffad0174b4022c3f820211a4665
:105c0400d2f8203113f0400ffad0124b4022c3f8df
:105c140024211a46d2f8243113f0400ffad0104b45
:105c24006ff07f421a6143f2ff325a610d4a9a6162
:105c34004ff4c1721a62054a137f03f0fd03137710
:105c440092f82c3013f0020ffad170470010004084
:105c540000140040001c00400001010006010c007b
:085c6400000800405684010015
:020000040000fa
:105c6c00524b586a524b9b7d002b00f09d8070b5b7
:105c7c004f494c6804f007044c4b5a699d699e6867
:105c8c000b7e13f0040f56d0896a484bdb689342a5
:105c9c0051d9002c41d1454b5b6899540132444b8e
:105cac001b7e13f0010f15d0414b012119753f4b91
:105cbc009b68ab4255d93d4b1b68595d3c4b996277
:105ccc0001353a4b1b690bb9b54263d0374bdb68d6
:105cdc00934263d0354b5a619d61354b1b7e13f05b
:105cec00020f13d0334b1b78b3b1304bdb689342ac
:105cfc000fd12e4b00221a772d4907240c752d49f4
:105d0c000a701b6a43b1294b1b6a9847294b1b78b5
:105d1c0013b1274b02229a7570bd244b5b6823f894
:105d2c0012100132224b1b7e13f0010fd2d0204bec
:105d3c000121197509e01e4b1b7e13f0010fc9d010
:105d4c001b4b01211975002cb1d0184b9b68ab4231
:105d5c0013d9164b1b6833f81510154b9962013586
:105d6c00afe7124b1b69002babd0114bff21996293
:105d7c000e490b69013b0b61a3e70c4b1b69002b14
:105d8c009fd00b4b4ff6ff71996208490b69013b91
:105d9c000b6196e7074b012119709be7044b01211e
:105dac0099750421197595e7704700bfa87e0020ee
:085dbc0000300040837d00204f
:020000040000fa
:105dc40070b506460d46444b1b782bb9424c02f085
:105dd4008dfd2378002bfad0404803230370330c45
:105de4004370330a8370c6703d4b4ff480625a612e
:105df400394c00232370ff233a4a0421fff71afd8c
:105e0400237823b902f072fd2378002bfad0364ca4
:105e140005f1900005f59076a0f11c03224600bf21
:105e240052f8041b43f8041b8342f9d11c34183084
:105e3400b042f1d12b4ad2f8ac30c5f81c31d2f8bb
:105e4400b030c5f82031d2f8b430c5f82431d2f8d6
:105e5400b830c5f82831d2f8bc30c5f82c31d2f8a6
:105e6400c030c5f8303102f1c40305f59a7102f16e
:105e7400dc0400bf53f8040b41f8040b9c42f9d135
:105e84001a4b05f59e7102f1f40400bf53f8040b9c
:105e940041f8040b9c42f9d1124bd3f8f410c5f825
:105ea4006411d3f8f810c5f86811033302f1fb014b
:105eb400002200bf13f8010f02448b42fad10c4bad
:105ec400f8211960074b93f8fc00d2b2904214bf3a
:105ed4000020012070bd00bf2c810020cc53002085
:105ee400008000415c020020600200203803002092
:045ef4009c8000206e
:020000040000fa
:105ef800f0b540f2ff7681ea030c16ea115e1ebf88
:105f0800b64516ea1355b54252d021ea465141f436
:105f18008011a1fb024723ea465343f48013ae44a1
:105f2800a0fb03650cf0004c36197d41a1fb03472b
:105f380047f10003a0fb0217f619654153f100036e
:105f4800094218bf46f0010640f2fe74b3f5007f1f
:105f580013d2aef5806ea64523d24cea033128034e
:105f680041ea155140ea16503203450872f10042e1
:105f780050f1000051eb0e51f0bdaef2ff3ea645c8
:105f88000fd24ceac321e80241ea555140ea565083
:105f9800f202450872f1004250f1000051eb0e5137
:105fa800f0bd1eea0e0f2dd50cf000410020f0bd0b
:105fb80016ea115f04bf01f000410020004218bf3b
:105fc80041f0010116ea135f04bf03f00043002209
:105fd800124218bf43f0010306ea1354b44218bf33
:105fe800b64503d00cf000410020f0bd21f000417f
:105ff80023f00043b1eb065f0cd8b3eb065f09d87a
:1060080041b13bb10cf0004141f0fe4141f4700157
:106018000020f0bd40f20001c7f6f8710020f0bd85
:020000040000fa
:1060280010b43f4ad36823f4e0631b041b0c43f00d
:10603800bf6343f40033d360bff35f8f62b6394b5d
:10604800e02083f80a034ff48061196083f80b039a
:106058004ff40061196083f829034ff40071596007
:1060680083f82e034ff48041596083f82f034ff4cf
:106078000041596083f830034ff48031596083f848
:1060880031034ff400315960402183f832134ff443
:1060980080245c6083f833134ff400245c6083f839
:1060a80034134ff480145c6083f835034ff4001404
:1060b8005c6083f83a134ff080645c6083f83b13ac
:1060c8004ff000645c6083f83c134ff080545c60d0
:1060d80083f83d134ff000545c6083f842130424a6
:1060e8009c6083f8431308249c6083f844131021b0
:1060f800996083f8450320219960536a43f480230b
:106108005362536943f010035361536a43f40033f5
:106118005362536a43f4803353625df8044b70470b
:0861280000ed00e000e100e0e1
:020000040000fa
:1061300008b5344b1b7cdb08334a137003f00303b0
:10614000324a1370324b1b78072b0ad8dfe803f072
:10615000040a2c373e09094802f09afb2d4b002215
:106160001a7008bd00f06afe01280ed0022810d077
:106170000328f6d10422264b1a7027490b7843f0e6
:1061800040030b70254b1a70ebe7214b07221a7066
:10619000e7e704221e4b1a701f490b7843f01003e7
:1061a0000b701e4b1a70dce700f056fd0128d8d1a9
:1061b000174b07221a70184b00221a70d1e7144ba4
:1061c00002221a70134b00221a70cae7144801f019
:1061d000f5fb0f4b02221a700e4b00221a70c0e71b
:1061e000104b01221a70104b4ff000625a614ff4ad
:1061f0000062c3f894204ff480525a6102f03cfbd5
:10620000afe700bff4510020f4800020058100209a
:10621000e580002007810020db800020298100200c
:0c622000782000200c810020008000414c
:020000040000fa
:10622c0010b5334b5b79012b2bd05ab2d2b1022b68
:10623c003fd030482423037057234370302383709e
:10624c005b23c3702c4b1a782c4b1344da780271f5
:10625c001a7942715b7983715d23c3720c2102f050
:10626c0071f810bd224ca179e07802f0f7f9214bbe
:10627c00e27823498a5cda7100221a725a729a7295
:10628c00d7e71b4bda791979dc7804eb012499797f
:10629c0001eb022189b2e0b202f066f9194b33f836
:1062ac001420144bda71120a1a7200225a729a7262
:1062bc00bfe70f4b5a7a197a01eb0221da7902eb1c
:1062cc0001221979dc7804eb0124997901eb022184
:1062dc00e0b202f06df90c4b53f82430054ad3713f
:1062ec00190a1172190c51721b0e9372a1e700bf9f
:1062fc00d846002078480020d5800020087b00205c
:0c630c00f4510020a05000207428002054
:020000040000fa
:106318002de9f84300295ed00f4600242f4e304b5c
:1063280000f1010edff8bcc006e00cf801809a60ad
:10633800621c0134974244d9726802f00702012aac
:1063480018d09968dd684a1cd3f81080424528bfe8
:106358000022954236d010f80480756805f00705cc
:10636800012de2d14d000cf81180691c00250cf8b4
:106378000150dce7d3f80880d96808f101021d69eb
:10638800aa4228bf002291421cd01ef8145010f8cf
:10639800141041ea0521756805f00705012d05d09f
:1063a800c9b20cf808109a60621cc2e74fea4805a7
:1063b8005ffa81f90cf818900135090a0cf80510f4
:1063c800f1e7144602f06cfa10b1044b01229a75f9
:1063d8002046bde8f8830c46f4e700bf00340040cf
:0863e800d47d0020087700209d
:020000040000fa
:1063f00010b502f011fa2d4b1b78002b51d0013b48
:10640000dbb22a4a1370012b34d05ab2d2b1022b1c
:106410004ad100bf02f08af80028fbd002f024fb2a
:1064200000eb80004000224b1860224c19222168aa
:1064300002f04afb20604ff4c051002002f064f8e3
:1064400032e000bf02f072f80028fbd002f00cfb33
:1064500000eb80004000184b1860184c192221688e
:1064600002f032fb20604ff4c051012002f04cf8e2
:106470001ae000bf02f05af80028fbd002f0f4fa4c
:1064800000eb800040000e4b18600e4c1922216872
:1064900002f01afb20604ff4c051092002f034f8da
:1064a00002e0024b03221a7010bd00bf467e00209e
:1064b0007c800020788000206c800020cc7c002034
:0864c0007480002070800020b0
:020000040000fa
:1064c800f8b504460d4601f0abfe314f05f19000da
:1064d80005f5907c3e4600bfa0f11c03324600bf84
:1064e80053f8041b42f8041b8342f9d11c361830b8
:1064f8006045f1d1d5f81c21254bc3f8a820d5f863
:106508002021c3f8ac20d5f82421c3f8b020d5f851
:106518002821c3f8b420d5f82c21c3f8b820d5f821
:106528003021c3f8bc2005f59a72c03307f1d800b2
:1065380052f8041b43f8041b8342f9d105f59e72f7
:10654800144b07f1f00000bf52f8041b43f8041b7a
:106558009842f9d1d5f864210d4bc3f8f020d5f84d
:106568006821c3f8f420013b07f1f700002200bfbf
:1065780013f8011f0a448342fad1054981f8f8202b
:10658800f922204601f0f4fc003018bf0120f8bdc4
:08659800d8280020b0290020e2
:020000040000fa
:1065a000304b1b78002b5cd000b597b053222e499e
:1065b00001a802f009f92b4b00221a709df8043053
:1065c000242b02d017b05df804fb9df80730522b46
:1065d0000ed04d2b1dd0422b24d0482b2bd19df813
:1065e0000830442b08d19df80930472b04d10be02b
:1065f0009df808304d2b03d01c4b00221a70e1e7a8
:106600009df80930432bf7d101ab0df15500002166
:106610001ee09df80830572beed19df80930562b1f
:10662000ead1f1e79df808304f2be5d19df809300c
:10663000442be1d1e8e7442bded19df80830422b12
:10664000dad19df80930542bd6d1dde78342d3d07f
:1066500013f8012f2c2af9d10b299cbf0131c9b2a3
:10666000f4e77047e2800020307d0020e3800020c6
:020000040000fa
:1066700038b52e4b24221a704c225a7030229a7050
:106680005b22da702a48b0f8c220110a19715a71d7
:106690002849b1f8d820140a9c71da71b1f8102198
:1066a0001a72b1f80e215a72b1f8b820140a9c720d
:1066b000da7200221a735a739a73b0f8e0401e4dd2
:1066c000a5fb04546409dc73b0f8a040250a1d74ce
:1066d0005c74b1f80a419c74b1f80841dc74b1f8fb
:1066e0000c110c0a1c755975b0f89e100c0a9c759b
:1066f000d975c1690c0a1c7659768169080a9876a1
:10670000d976d91c1b3300bf11f8010f0244d2b255
:106710009942f9d1094b1c211960044802775d2385
:1067200043771e2101f014fe38bd00bf78480020d9
:1067300020000020280100201f85eb5198800020b8
:020000040000fa
:1067400008b52c4b1b78012b15d05ab22ab1022b5d
:106750003cd001f0a9ff002008bd532848d1264baa
:1067600053221a700120254b1860254b09221a600c
:10677000204b1870f0e721490a68531c0b601e4932
:106780008854092b01d00120e6e7084602f0e0f822
:106790001c4b984210d11c4802f0daf842f2040374
:1067a000984209d800f10902154b1a6040b1114b0b
:1067b00002221a700120cfe701f076ff0120cbe71b
:1067c000fef786f801f070ff0120c5e70b490a6863
:1067d000531c0b6008498854094a1268934201d03f
:1067e0000120b9e7fef774f801f05eff0120b3e77e
:1067f0000020b1e715810020f8540020c48000205b
:0c6800002481002053474657fc54002020
:020000040000fa
:10680c0008b502f031f923490b68234a1360c01a0a
:10681c00224a82fb00c2c017c0eba200204a1060c3
:10682c00184408608b2303fb00f31e4a82fb0312ff
:10683c001a44db17c3eba2231b4a13601b4a527f7b
:10684c0093421b4b1b7834bf43f0080303f0f70350
:10685c00174a1370b0f5807f0cdd164bfa221a60c4
:10686c00154b4022c3f8982008229a61134b012241
:10687c001a7008bd0f4b1b6823b90f4b4022c3f88d
:10688c009420f6e7013b0b4a13600c4b04221a7060
:10689c00efe700bf90800020ac8000206766666642
:1068ac00a88000206b09ebb5147f0020f451002068
:1068bc00e08000209480002000800041298100208d
:020000040000fa
:1068cc0008b52c4b24221a7045225a7030229a702b
:1068dc005b22da70284a5178197191785971d17804
:1068ec0099711179d9715179197291795972d1794a
:1068fc009972117ad972517a1973917a5973d17a32
:10690c009973117bd973517b1974917b5974117dd7
:10691c009974d17dd974917e1975d17e597592f87f
:10692c002110997592f82210d97592f823101976c6
:10693c0092f82610597692f82710997692f828102a
:10694c00d97692f829201a77d91c1c33002200bf63
:10695c0011f8010f0244d2b29942f9d1074b1d2113
:10696c001960044842775d2383771f2101f0eafc0c
:10697c0008bd00bf78480020f4510020988000200a
:020000040000fa
:10698c00f8b58c1e00ebc40416461f460d46d4e920
:10699c00022330463946fff7a9fad4e90023fef763
:1069ac005ffb022d02460b4645d030463946fff7b9
:1069bc009dfa54e90223fef753fb032d02460b46c6
:1069cc0039d032463b46fff791fa54e90423fef7df
:1069dc0047fb042d02460b462dd030463946fff7b7
:1069ec0085fa54e90623fef73bfb052d02460b46c0
:1069fc0021d030463946fff779fa54e90823fef7df
:106a0c002ffb062d02460b4615d030463946fff7b4
:106a1c006dfa54e90a23fef723fb072d02460b46b9
:106a2c0009d030463946fff761fa54e90c23fef7da
:106a3c0017fb02460b4630463946fff757faf8bdae
:020000040000fa
:106a4c002de9f041294e2a4c4ff00108294f13e053
:106a5c00226afab1616a236a40469847a36a0133f5
:106a6c00226b934228bf002314e0a26aedb2bd54fe
:106a7c00a36294f83430fbb9337e13f0040f32d098
:106a8c00b56aa36a0133226b934228bf0023e26ae2
:106a9c009a42ddd0e26a9a42eed0726802f00702a6
:106aac00012ae2d1a16a4a00e8b207f811000132ca
:106abc00c5f30725bd54dbe701f0fcfe236a002b70
:106acc00dad0616a94f83c3033b1a36b9842d3d3db
:106adc00236a00209847cfe7a36b9842ccd1236a56
:106aec0000209847c8e7bde8f08100bf00340040a3
:086afc00d47d00200875002084
:020000040000fa
:106b040008b5274b1b78452b27d006d9532b11d01a
:106b1400572b3fd04c2b1ad008bd3bb1442bfbd193
:106b2400fef76af91e4b00221a70f5e71d4b03228b
:106b34001a70f1e71c4b5b78312b05d000f09cfefa
:106b4400174b00221a70e7e700f0c8fcf8e7fff7dc
:106b54008dfd134b44221a70dee7124b1b78032b76
:106b640005d8dfe803f0130f0c02fff7adfe0d4b61
:106b74001b78002bd0d0013b0a4a1370cce7fef7f8
:106b84009dfcf4e7064a00211170f4e7044b00224f
:106b94001a70c1e7fff748fb014b00221a70bbe7ec
:0c6ba400077500204f800020d84600201c
:020000040000fa
:106bb00070b582b0254d264c264e14e0f25c8df85f
:106bc0000620013322699a4298bf0023e3606b6874
:106bd00003f00703012b14bf9df80630bdf8063003
:106be000ab62237dbbb92b7e13f0010f2cd0a268c2
:106bf000e3689a4225d06a6802f00702012addd1d3
:106c00005a0016f813108df806100132b25c8df898
:106c100007200133d6e701f0bbfe2368002be2d04a
:106c20006168237f33b1a3699842dcd323680320d2
:106c30009847d8e7a3699842d5d12368032098479d
:106c4000d1e7024b01221a7502b070bd003400403a
:086c5000d47d0020087700202c
:020000040000fa
:106c580008b5234b187801280ed043b21bb114286d
:106c68002cd0002008bd00231e4a13701e4a136052
:106c78001b4b01221a70f5e71a4b01221a7001f01a
:106c8800cffa00f0cbfe08b90020ebe717494ff424
:106c98000070fff715fc164b187038b9124b1b68bb
:106ca8001e2b10d80133104a1360dbe70c4b14225b
:106cb8001a700d4b1b681e2b0dd907e0094b0022db
:106cc8001a700120cee7064b14221a70094a13786d
:106cd80063f07f0313700020034b1860c2e700bf06
:106ce800078100200f810020888000207820002064
:086cf800dc800020db8000209d
:020000040000fa
:106d000070b504465022002101f06afe224a9369c0
:106d100043f001039361936913f0010ffbd01e4b05
:106d20009a6942f002029a611c4d2c60a2b242f4b0
:106d30008032c3f8a02004f110026a6092b242f0df
:106d4000004242f40032c3f8b02004f13002ea609d
:106d500092b242f08072c3f8c02004f140022a616e
:106d600092b242f48032c3f8f02004f14806ae61da
:106d70000b4a03caa064e1642a8b42f48032c3f850
:106d800088209a6922f001029a611a46936913f0e9
:106d9000010ffbd170bd00bf00040042d07f002076
:046da000e08a000085
:020000040000fa
:106da40070b504464ff4a472002101f017fe4ff0b1
:106db4008442936943f001039361936913f0010fd3
:106dc400fbd04ff084439a6942f002029a61184d55
:106dd4002c60a2b242f0004242f4a022c3f8a020e8
:106de40004f15002ea6092b242f02062c3f8c0207b
:106df40004f1f0022a6192b242f42022c3f8f02096
:106e040004f5a076ae610b4a03cac4f84001c4f885
:106e140044112a8b42f48032c3f888209a6922f004
:106e240001029a611a46936913f0010ffbd170bdf8
:086e3400ec7f0020f08a000051
:020000040000fa
:106e3c0010b5204b1c78142c39d8dfe804f00b3833
:106e4c00233829382e3838383838383838383838e4
:106e5c003838330018494ff40070fef7adffc0b25c
:106e6c0018b1144b02221a7010e0144a137843f034
:106e7c0020031370124b04221a700e4b14221a703a
:106e8c00022403e00b4b04221a700024204610bd90
:106e9c00084b06221a700024f8e7064b14221a70cd
:106eac000024f3e7074b00221a700124eee70024bc
:106ebc00ece700bf0681002078200020db8000205a
:086ecc00298100200f81002044
:020000040000fa
:106ed400f0b583b001f0b6fd1a4b18701a4c1b4e76
:106ee4001b4d1c4f08e0fff729fca8b104e01a4b26
:106ef4001a7001233b702b6001f0e0fcf8b1012112
:106f04000df1070000f0b2f8012818d19df8070030
:106f140020703378002be6d12278242ae7d02b681e
:106f240033b10d49ca545d2a05d0b3f5ae7fe3d819
:106f340001332b60e0e7094a01211170f5e703b042
:106f4400f0bd00bfd3800020d0800020108100203d
:106f540080800020d5800020087b0020d480002081
:020000040000fa
:106f640008b5194b9847194b9847eff3108172b63f
:106f7400174ad2f8883043f47003c2f88830bff35c
:106f84004f8fbff36f8f01b962b6124a936823f033
:106f9400010393601346da6812f0010ffbd10d4b25
:106fa40024225a6001229a6001f0ecf90a4b23f082
:106fb4007f03074a9360094b9847094b9847094b4d
:106fc4009847fdf7f1fafee7138b0000138b0000de
:106fd40000ed00e00060004100200000c97c0000da
:086fe400138b0000138b000069
:020000040000fa
:106fec000138c0b2092836d8b9b32de9f0474ff0b3
:106ffc008443d3f8c430c3f30443013001eb0015d0
:10700c000026dff85c904ff001081801d9f80c400d
:10701c002218d1f800a0d1f804e0d1f808c0cf684c
:10702c0044f800a0c2f804e0c2f808c0d7601031e0
:10703c0008fa03f216430133dbb20a2b08bf002314
:10704c008d42e2d1bff34f8f4ff08443c3f8d06031
:10705c000120bde8f087002070470020704700bf7a
:04706c00ec7f002095
:020000040000fa
:107070002de9f0411c4ad36a956a89b30e46ab42aa
:1070800008bf002227d00122dff864c0174ca0f10e
:10709000020e0138144f0ce0e15c81540133396b6e
:1070a000994298bf0023b24214d2511cab4212d075
:1070b0000a46dcf8041001f007010129ecd159005f
:1070c00014f813800ef812800131615c00f8121080
:1070d0000133e4e71d46044bdd621046bde8f08154
:1070e0001d460a46f7e700bfd47d00200875002042
:0470f0000034004028
:020000040000fa
:1070f4002de9f04104460f46164601f093f81b4b68
:107104001b781bb900242046bde8f081dff85c80c1
:10711400002388f80030164d02232b70230c6b706b
:10712400230aab70ec7001f045fc01f0dffb324642
:107134003946281d01f046fb01f0d8fb01f0d6fbcf
:1071440001f0d4fb01f0d2fb01f0d0fb311d284645
:1071540001f0a6fc044698f80030002bd3d1454634
:1071640001f0c4fb2b78002bfad0cce72c81002053
:04717400cc530020d8
:020000040000fa
:10717800f8b516461f4600ebc10555e902230c4633
:1071880030463946fdf76eff32463b46fef7b0fe05
:1071980055e90423fdf766ff02460b46304639469b
:1071a800fef7a6fe032c02460b4617d055e9062328
:1071b800fdf758ff02460b4630463946fef798fe63
:1071c800052c02460b4609d155e90823fdf74aff6d
:1071d80032463b46fef78cfe02460b46c4eb44742f
:1071e80005ebc40410461946d4e90023fdf73aff1d
:0471f800f8bd00bf1f
:020000040000fa
:1071fc001c4b1d4a1a604df6ad029a814ff4403279
:10720c005a601a46d369002bfcd1164a136843f016
:10721c0002031360d369002bfcd1144b00221a62b9
:10722c009a62da6283f8342083f83c209a63da8716
:10723c001a609a60da601a751a779a61094b5b6862
:10724c0003f00703012b094b14bf4ff400724ff4ea
:10725c0080721a631a61034b80229a7504229a7504
:10726c00704700bf0034004004011040d47d002062
:020000040000fa
:10727c0008b5164bd3f8a03013f4004f12d00023ee
:10728c00134a137013490a7802f07f020a70124aeb
:10729c001370124a1370124a1360124a1370124a76
:1072ac00137008bd0a4b01221a700a4a137863f056
:1072bc007f0313700d4b1b7813b1013b0b4a1370fa
:1072cc00fdf756fcfff718fcebe700bf0080004110
:1072dc00d2800020ef800020d18000200775002094
:1072ec0080800020d5800020108100205a80002052
:020000040000fa
:1072fc00184b1b78002b2bd000b583b000230193c7
:10730c00019a154b9a4207d81a4600bf019b0133cc
:10731c000193019b9342f8d9104b1b7823b101f0d8
:10732c007dfb03b05df804fb4ff000530c4a1a6070
:10733c005a609a60da60bff34f8f0a49ca6802f448
:10734c00e062094b1343cb60bff34f8f00bffde7e7
:10735c00704700bf138100201fa10700128100207d
:0c736c005347465700ed00e00400fa050e
:020000040000fa
:10737800a2b32de9f041174690bb4ff08443d3f8f0
:10738800a430c3f3052301b301395ffa81f84ff044
:10739800000cdff850e000e09446def8002002eb35
:1073a8000312166855689468d2683e607d60bc60b8
:1073b800fa608c4509d010370133dbb2052b08bfc2
:1073c80003460cf10102c445e6d103f03f034ff038
:1073d8008442c2f8a8300120bde8f081002070473f
:0873e8000020f9e7ec7f002012
:020000040000fa
:1073f0001b4b1b7d002b31d010b5194a9368516887
:10740000184a127e12f0010f15d0994213d915496e
:1074100013484a6802f00702012a026814bfd25cce
:1074200032f813208a62013344680a7e12f0010f99
:1074300001d09c42edd80a4a936052689a420cd817
:10744000074b00221a755a60064a01211175db6844
:107450001bb1034b1869db68984710bd704700bf2c
:08746000487e002000400141bc
:020000040000fa
:107468001b4b1b7d002b31d010b5194a936851680e
:10747800184a127e12f0010f15d0994213d91549f6
:1074880013484a6802f00702012a026814bfd25c56
:1074980032f813208a62013344680a7e12f0010f21
:1074a80001d09c42edd80a4a936052689a420cd89f
:1074b800074b00221a755a60064a01211175db68cc
:1074c8001bb1034b1869db68984710bd704700bfb4
:0874d800787e0020000400434f
:020000040000fa
:1074e00008b51a4a24231370532353703123937021
:1074f0005b23d37001211171002353719171d371fa
:107500000221117253721249498a81f01001c1f3ac
:1075100000119172ff21d172117351739173d17364
:1075200011745174111d123211f8010b0344dbb2b6
:107530009142f9d1074a12211160044883745d23f6
:10754000c374142100f004ff08bd00bf7848002078
:0875500000400041988000207a
:020000040000fa
:1075580000b585b000230093019340238df80330d4
:10756800009b164a126862f31c03009308238df8e7
:107578000630134b1a788df808205a788df80920b0
:107588009a788df80a20da788df80b201a798df818
:107598000c205a798df80d209a798df80e20db7918
:1075a8008df80f3069460120fff71cfd10b105b0ba
:1075b8005df804fb00f017fff9e700bf84800020a6
:0475c800cc4900208a
:020000040000fa
:1075cc00f8b506460f461546154b1b782bb9144ccf
:1075dc0001f088f92378002bfad0124803230370aa
:1075ec00330c4370330a8370c6700f4b4ff48062b8
:1075fc005a610b4c002323702b1d0c4a0421fef7ff
:10760c0015f9237823b901f06df92378002bfad002
:10761c002a460749384601f0d1f8a8b2f8bd00bf98
:10762c002c810020cc53002000800041a05200206f
:04763c00a452002034
:020000040000fa
:10764000f8b506460f461546154b1b782bb9144c5a
:1076500001f04ef92378002bfad01248032303706f
:10766000330c4370330a8370c6700f4b4ff4806243
:107670005a610b4c002323702b1d0c4a0421fef78a
:10768000dbf8237823b901f033f92378002bfad003
:107690002a460749384601f097f8a8b2f8bd00bf5e
:1076a0002c810020cc53002000800041a0520020fb
:0476b000a4520020c0
:020000040000fa
:1076b400f8b506460f461546154b1b782bb9144ce6
:1076c40001f014f92378002bfad012480323037035
:1076d400330c4370330a8370c6700f4b4ff48062cf
:1076e4005a610b4c002323702b1d0c4a0421fef716
:1076f400a1f8237823b901f0f9f82378002bfad004
:107704002a460749384601f05df8e8b2f8bd00bfe3
:107714002c810020cc53002000800041a052002086
:04772400a45200204b
:020000040000fa
:10772800f8b5b1b107460e46fef7f2fd044601f082
:10773800dbf840f2cf75a6420bd9311b3819fef79a
:10774800e7fd044401f0d0f8013df4d1a64200d988
:10775800f8bd0f4b02221a764ff4fa6401f0c8f90b
:1077680018b101f0c1f8013cf8d1094b1b7e13f0a8
:10777800020fedd101f0b8f840f2cf74044d2b7e22
:1077880013f0020fe4d101f0aff8013cf7d1dfe7c5
:047798000034004079
:020000040000fa
:10779c0010b501f04bf9c0b2104b187048b1002372
:1077ac000f4a13700f4a13700f4a13700f4a13705d
:1077bc0010bd0f4b01221a700e4b1b78312b07d8c2
:1077cc000d4a0e4c07ca03c422800a33094a1370af
:1077dc000a21094800f0e2fceae700bfec80002037
:1077ec00e68000200381002004810020028100201b
:1077fc0008810020eb80002044800020147e0020b3
:020000040000fa
:10780c0008b501f023f9144b1870144b1b78242b7a
:10781c000ed0134a12789ab10a2b16d0114a12784c
:10782c0011498b54512a0bd801320e4b1a7007e0b8
:10783c000d4b24221a700123094a1370094a137044
:10784c000a21064800f0cafc08bd084b01221a7038
:10785c00034b00221a70f3e7e480002050800020d4
:10786c0004810020e3800020307d0020e280002095
:020000040000fa
:10787c0008b5184a24231370532353703023937084
:10788c005b23d370ff211171134b1b7853710023b1
:10789c0093710120d071137250729372d072137362
:1078ac0050739173d17311745174111d123200bf46
:1078bc0011f8010b0344dbb29142f9d1074a1221b2
:1078cc001160044883745d23c374142100f03afde5
:1078dc0008bd00bf784800200a8100209880002055
:020000040000fa
:1078ec0008b5174b93f82c30cbb1154bda691b6ae2
